:100000000C94340018950000189500001895000015
:10001000189500001895000018950000189500002C
:10002000189500001895000018950000189500001C
:10003000189500001895000018950000189500000C
:1000400018950000189500001895000018950000FC
:1000500018950000189500001895000018950000EC
:1000600018950000189500008FEF8DBFC8EDE0ECEB
:100070004E2E88E08EBFD8E0F8E05F2EA89584B7BA
:10008000082E877F84BF88E1992780936000909332
:100090006000EEEFF7E0A0E0B1E088278D933197A4
:1000A000E9F786E08093C40080E08093C50088E192
:1000B0008093C10066248CE08093C40080E080932C
:1000C000C5008FEF84B98EE287B980E188B98EEFE1
:1000D0008AB984E28BB9E8E7F6E20E9428120E940E
:1000E0002F12EEE7F6E20E9428120E942F12AFE0D4
:1000F000B1E0E6E8F6E20E945112AFE0B1E00E9402
:1001000022120E942F12AFE0B1E00E947112082F5C
:10011000083311F40C94910080910D01826080935A
:100120000D01AFE0B1E0EAEBF6E20E945112AFE060
:10013000B1E00E9422120E942F12AFE0B1E00E94B3
:100140007112082F0F3E11F40C94AB0080910D0139
:10015000826080930D01E2E0F0E0AEE0B1E00E9449
:100160002813AEE0B1E08C9180958C93E4E0F0E050
:10017000AFE0B1E094E20E94321340910E01AFE093
:10018000B1E00E947112082F041711F00C94D400F2
:10019000EEEEF6E20E942812AFE0B1E00E942212D9
:1001A0000E942F120C94EE00AFE0B1E0EEEFF6E209
:1001B0000E945112AFE0B1E00E9422120E942F1261
:1001C000AFE0B1E00E947112082F053011F40C94D9
:1001D000EE0080910D01826080930D010E942F122C
:1001E00080910D01806180930D0152985B9A0E946D
:1001F00097104A990C94010180910D018F7E809394
:100200000D015B980E9497104A9B0C940C01809101
:100210000D018F7E80930D01529AADE0B1E08C917B
:1002200084FB16F00C941501389A489B0C941D0120
:1002300080910D01816080930D01ADE0B1E08C9162
:1002400080FB16F00C942A01EEE2F7E20E942812DD
:100250000C942E01E6E3F7E20E9428125D9800005C
:10026000000000000000000000000000000000008E
:10027000000000005F9AADE0B1E08C9184FB16F4C1
:100280000C945C01E2E4F7E20E9428120E94C41080
:100290000E94C4100E94C4100E94C4100E94C41086
:1002A0000E94C4100E94C4100E94C4100E94C41076
:1002B0000E94C4100C946401E8E4F7E20E94281242
:1002C0005C98549841983998EEE4F7E20E9428121D
:1002D0000E942F120E942F12E4E5F7E20E942812DA
:1002E000000000000000000000000000000000000E
:1002F0000000000000005C9AADE0B1E08C9184FB4E
:1003000016F40C948801A6E2B0E08C9180FBDEF735
:10031000EAE6F7E20E9428120E942F120E94CB10F8
:10032000E0E7F7E20E942812ADE0B1E08C9184FB97
:1003300016F40C94EB010E949A10419888E085B95C
:100340000E94C41081E090E0A0E0B1E08D939C9306
:10035000A0E0B1E00D911C91033050E0150718F0BA
:1003600011F00C94E9010E94A8104198009100013D
:1003700041E0041B05B90E94C41080E084B980E00C
:1003800085B95A984198A0E0B1E0AD90BC90A1E049
:10039000B1E0AA0DBB1D83B18C935A9A8FEF84B93B
:1003A000A8EAB8E0E0E0F1E0A190B080E1E0F1E09F
:1003B000EA0DFB1D0E94DE120E942012E6E8F7E221
:1003C0000E942812A0E0B1E00E94F71110F40C94F2
:1003D000A8010C94410288E0809344018CE480934E
:1003E00045010E94881181E090E0A0E0B1E08D938A
:1003F0009C93A0E0B1E00D911C91033050E01507F3
:1004000018F011F00C9441020091000141E0041B2E
:10041000A4E4B1E00C938CE0809345010E94881124
:1004200080E08093440188E6809345010E94881112
:100430008CE6809345010E94FB1080914601A0E06C
:10044000B1E0AD90BC90A1E0B1E0AA0DBB1D8C93D2
:10045000A8EAB8E0E0E0F1E0A190B080E1E0F1E0EE
:10046000EA0DFB1D0E94DE120E942012E6E8F7E270
:100470000E942812A0E0B1E00E94F71110F40C9441
:10048000F901009102010E3181E009F480E08F93BF
:1004900000910301003981E008F080E09F91892BF1
:1004A0008F9300910301083980E010F009F081E09A
:1004B0009F91892B882311F40C94DB02E8E8F7E282
:1004C0000E9428120E942F12ADE0B1E08C9185FBB2
:1004D00081E00EF080E08F93ADE0B1E08C9184FB81
:1004E00081E00EF080E09F91892B882311F40C9419
:1004F000BD02ADE0B1E08C9180FB16F00C94A1023E
:10050000E0E9F7E20E94281234E00E94FE11A8EA16
:10051000B8E00E94F712A2E4B1E00D931C938EE1C3
:1005200080930201A2E4B1E011968C91A3E0B1E0C6
:100530008C93A2E4B1E08C91A4E0B1E08C930C9494
:10054000BD020E942F12E8EAF7E20E9428120E94E0
:100550002F120E942F12E6EDF7E20E9428120E944D
:100560002F120E942F12EAEEF7E20E9428120E9438
:100570002F120E94EE100E94E610ADE0B1E08C91C7
:1005800084FB81E00EF480E08F93ADE0B1E08C91CC
:1005900085FB81E00EF480E09F918923882311F48C
:1005A0000C94DB02E4EFF7E20E94281280910D0127
:1005B000806280930D01009102010E3181E009F00B
:1005C00080E08F93009103010F3880E010F009F074
:1005D00081E09F9189238F9300910301093981E084
:1005E00008F080E09F918923882311F40C949401F2
:1005F0000E942F12EAE0F8E20E9428120091030103
:10060000003911F00C94590300910401013011F0EC
:100610000C941A03E0E2F8E20E9428120E942F12C2
:100620008FED8093080180910D01846080930D010E
:100630000C945703043011F00C942903EAE2F8E219
:100640000E9428120E942F128CEF809308010C94B4
:100650005703053011F00C943803E4E3F8E20E94EC
:1006600028120E942F1282E5809308010C945703F0
:10067000063011F00C944703EEE3F8E20E942812D2
:100680000E942F128CE5809308010C9457030730C9
:1006900011F00C945703E8E4F8E20E9428120E943B
:1006A0002F128AE6809308018FEF809309010C9442
:1006B000930B013911F00C942E04009104010130C8
:1006C00011F00C947303E4E5F8E20E9428120E94F2
:1006D0002F128FED8093080180910D01846080932B
:1006E0000D010C942C04023011F00C948703EEE5FC
:1006F000F8E20E9428120E942F128EED80930801CA
:1007000080910D01846080930D010C942C040330C2
:1007100011F00C949B03E8E6F8E20E9428120E9474
:100720002F128EED8093080180910D0184608093DB
:100730000D010C942C04053011F00C94AA03E2E78F
:10074000F8E20E9428120E942F128AED809308017D
:100750000C942C04063011F00C94B903ECE7F8E289
:100760000E9428120E942F128EED809308010C9493
:100770002C04073011F00C94C803E6E8F8E20E945C
:1007800028120E942F1282EF809308010C942C04EF
:10079000083011F00C94DD03E0E9F8E20E94281221
:1007A0000E942F1282E6809308018FED8093090149
:1007B0008FEF80930A010C942C04093011F00C94F3
:1007C000EF03EAE9F8E20E9428120E942F1281EE5C
:1007D0008093080187EF809309010C942C040A3060
:1007E00011F00C940404E4EAF8E20E9428120E943A
:1007F0002F1284E6809308018FED809309018FEF1B
:1008000080930A010C942C040B3011F00C94190401
:10081000E2EBF8E20E9428120E942F1282E68093F7
:1008200008018FED809309018FEF80930A010C94EA
:100830002C040C3011F00C942C04EEEBF8E20E9426
:1008400028120E942F1282E6809308018FED809378
:1008500009018FEF80930A010C94930B023911F078
:100860000C94130500910401013011F00C9448041C
:10087000EAECF8E20E9428120E942F128FED80937A
:10088000080180910D01846080930D010C94110585
:10089000023011F00C945C04E4EDF8E20E9428129E
:1008A0000E942F128FED8093080180910D018460CA
:1008B00080930D010C941105033011F00C946B041E
:1008C000EEEDF8E20E9428120E942F128AED80932A
:1008D00008010C941105053011F00C948004E8EE29
:1008E000F8E20E9428120E942F1282E680930801EB
:1008F0008FED809309018FEF80930A010C9411050D
:10090000063011F00C949504E4EFF8E20E942812EE
:100910000E942F1282E6809308018FED80930901D7
:100920008FEF80930A010C941105073011F00C949D
:10093000AA04EEEFF8E20E9428120E942F1282E62B
:10094000809308018FED809309018FEF80930A0156
:100950000C941105083011F00C94BF04EAE0F9E2A0
:100960000E9428120E942F1282E6809308018FEDC8
:10097000809309018FEF80930A010C9411050930CF
:1009800011F00C94D404E6E1F9E20E9428120E94CE
:100990002F128EE6809308018FED809309018FEF6F
:1009A00080930A010C9411050A3011F00C94E904AB
:1009B000E0E2F9E20E9428120E942F1282E6809360
:1009C00008018FED809309018FEF80930A010C9449
:1009D00011050C3011F00C94FE04EEE2F9E20E94D5
:1009E00028120E942F1282E6809308018FED8093D7
:1009F00009018FEF80930A010C9411050D3011F05D
:100A00000C941105E8E3F9E20E9428120E942F12CB
:100A100084E6809308018FED809309018FEF809326
:100A20000A010C94930B033911F00C945E060091AB
:100A30000401013011F00C942D05E4E4F9E20E9468
:100A400028120E942F128FED8093080180910D01D2
:100A5000846080930D010C945C06033011F00C94BB
:100A60004105EEE4F9E20E9428120E942F128FED58
:100A70008093080180910D01846080930D010C9496
:100A80005C06063011F00C945305E8E5F9E20E948B
:100A900028120E942F1281EE8093080189ED809325
:100AA00009010C945C06073011F00C946505E4E62E
:100AB000F9E20E9428120E942F1281EE8093080111
:100AC00089ED809309010C945C06083011F00C94B8
:100AD0007705EEE6F9E20E9428120E942F1281EEBD
:100AE0008093080189ED809309010C945C060A301B
:100AF00011F00C948C05EAE7F9E20E9428120E949A
:100B00002F1282E6809308018FED8093090189EF0F
:100B100080930A010C945C060B3011F00C94A10533
:100B2000E6E8F9E20E9428120E942F1282E68093E2
:100B300008018FED809309018FEF80930A010C94D7
:100B40005C060C3011F00C94B605E0E9F9E20E9465
:100B500028120E942F1282E6809308018FED809365
:100B600009018FEF80930A010C945C060D3011F09F
:100B70000C94CB05EAE9F9E20E9428120E942F1298
:100B800082E6809308018FED809309018FEF8093B7
:100B90000A010C945C060F3011F00C94E005E6EAB3
:100BA000F9E20E9428120E942F1282E68093080127
:100BB0008FED8093090189EF80930A010C945C0604
:100BC000013111F00C94F505E4EBF9E20E942812D2
:100BD0000E942F128EE6809308018FED8093090109
:100BE0008FEF80930A010C945C06013811F00C948D
:100BF0000A06EEEBF9E20E9428120E942F1282E60A
:100C0000809308018FED8093090189EF80930A0199
:100C10000C945C06033811F00C941F06EAECF9E220
:100C20000E9428120E942F1282E6809308018FED05
:100C30008093090189EF80930A010C945C060738C0
:100C400011F00C943406EAEDF9E20E9428120E9499
:100C50002F1282E6809308018FED809309018FEFB8
:100C600080930A010C945C06083811F00C94490634
:100C7000E4EEF9E20E9428120E942F1282E680938D
:100C8000080189ED809309018DEF80930A010C948E
:100C90005C06093811F00C945C06EEEEF9E20E9455
:100CA00028120E942F128EE58093080189ED80930F
:100CB000090184EF80930A010C94930B043911F01D
:100CC0000C94A80700910401013011F00C947306F4
:100CD000E8EFF9E20E9428120E942F128AED809319
:100CE00008010C94A607023011F00C948506E2E08E
:100CF000FAE20E9428120E942F1282ED80930801CE
:100D00008FEF809309010C94A607033011F00C9427
:100D10009706ECE0FAE20E9428120E942F1281EE60
:100D20008093080189E9809309010C94A607043097
:100D300011F00C94AC06E8E1FAE20E9428120E943D
:100D40002F1282E68093080189E9809309018FEFD1
:100D500080930A010C94A607053011F00C94C1068B
:100D6000E2E2FAE20E9428120E942F1282E68093A9
:100D7000080189E9809309018FEF80930A010C949F
:100D8000A607063011F00C94D606E0E3FAE20E94C2
:100D900028120E942F1282E6809308018FED809323
:100DA000090189EF80930A010C94A607073011F01E
:100DB0000C94EB06ECE3FAE20E9428120E942F1238
:100DC00082E68093080189E9809309018FEF80937F
:100DD0000A010C94A6070F3011F00C940007ECE404
:100DE000FAE20E9428120E942F1282E680930801E4
:100DF00089E9809309018FEF80930A010C94A6077B
:100E00000A3011F00C941507E8E5FAE20E94281266
:100E10000E942F1282E68093080189E980930901DC
:100E20008FEF80930A010C94A6070B3011F00C94FD
:100E30002A07E6E6FAE20E9428120E942F1282E6B2
:100E4000809308018FED8093090189EF80930A0157
:100E50000C94A607023811F00C943F07E4E7FAE27D
:100E60000E9428120E942F128EE58093080189EDBE
:100E70008093090184EF80930A010C94A60703383C
:100E800011F00C945407E2E8FAE20E9428120E9442
:100E90002F1282E6809308018FED8093090189EF7C
:100EA00080930A010C94A607043811F00C9469078A
:100EB000E2E9FAE20E9428120E942F1282E6809351
:100EC000080189ED809309018FEF80930A010C944A
:100ED000A607073811F00C947E07EEE9FAE20E94AB
:100EE00028120E942F1282E6809308018FED8093D2
:100EF00009018FEF80930A010C94A607083811F0BE
:100F00000C949307E8EAFAE20E9428120E942F123A
:100F10008EE58093080181E98093090183EF809336
:100F20000A010C94A607093811F00C94A607E4EB0B
:100F3000FAE20E9428120E942F128EE58093080187
:100F400089ED8093090184EF80930A010C94930B3F
:100F5000053911F00C94610900910401013011F080
:100F60000C94C007E0ECFAE20E9428120E942F12B3
:100F700081EF8093080189E9809309010C945F094E
:100F8000023011F00C94D207ECECFAE20E94281225
:100F90000E942F1281EE8093080189E98093090154
:100FA0000C945F09033011F00C94E707E8EDFAE2C6
:100FB0000E9428120E942F1282E68093080189E97C
:100FC000809309018FEF80930A010C945F0904302C
:100FD00011F00C94FC07E2EEFAE20E9428120E9443
:100FE0002F1282E68093080189E9809309018FEF2F
:100FF00080930A010C945F09053011F00C941108DC
:10100000EEEEFAE20E9428120E942F1282E68093EE
:10101000080189E9809309018FEF80930A010C94FC
:101020005F09063011F00C942608E8EFFAE20E94FE
:1010300028120E942F1282E68093080189E980938A
:1010400009018FEF80930A010C945F09083011F0B9
:101050000C943B08E4E0FBE20E9428120E942F124D
:1010600082E68093080189E9809309018FEF8093DC
:101070000A010C945F09013111F00C945008E0E171
:10108000FBE20E9428120E942F1282E68093080140
:1010900089E9809309018FEF80930A010C945F091D
:1010A000043111F00C946508ECE1FBE20E94281277
:1010B0000E942F1282E68093080189ED8093090136
:1010C0008FEF80930A010C945F09053111F00C94A5
:1010D0007A08E6E2FBE20E9428120E942F1282E6C2
:1010E0008093080189E9809309018FEF80930A01B9
:1010F0000C945F090B3011F00C948F08E2E3FBE2D3
:101100000E9428120E942F1282E68093080189E92A
:10111000809309018FEF80930A010C945F090C30D2
:1011200011F00C94A408E0E4FBE20E9428120E9453
:101130002F1282E68093080189E9809309018FEFDD
:1011400080930A010C945F090D3011F00C94B908DA
:10115000E0E5FBE20E9428120E942F1282E68093B3
:10116000080189E9809309018FEF80930A010C94AB
:101170005F090E3011F00C94CE08EEE5FBE20E9400
:1011800028120E942F1282E68093080189E9809339
:1011900009018FEF80930A010C945F090F3011F061
:1011A0000C94E308EEE6FBE20E9428120E942F1244
:1011B00082E68093080189ED809309018FEF809387
:1011C0000A010C945F090A3811F00C94F808EAE758
:1011D000FBE20E9428120E942F128EE580930801E4
:1011E00089ED8093090184EF80930A010C945F09D3
:1011F000013811F00C940D09E6E8FBE20E94281278
:101200000E942F1282E68093080189E980930901E8
:101210008FEF80930A010C945F09043811F00C944D
:101220002209E0E9FBE20E9428120E942F1282E6C6
:101230008093080189ED809309018FEF80930A0163
:101240000C945F09063811F00C943709ECE9FBE2C5
:101250000E9428120E942F1282E68093080189EDD5
:10126000809309018FEF80930A010C945F0907387E
:1012700011F00C944C09E8EAFBE20E9428120E944B
:101280002F128EE58093080181E98093090183EF95
:1012900080930A010C945F09083811F00C945F09DF
:1012A000E4EBFBE20E9428120E942F128EE580934D
:1012B000080189E98093090183EF80930A010C9466
:1012C000930B063911F00C94B70A00910401023017
:1012D00011F00C947C09E0ECFBE20E9428120E94C1
:1012E0002F1281EE8093080189E9809309018DEF27
:1012F00080930A010C94B50A033011F00C94910903
:10130000ECECFBE20E9428120E942F1282E68093EE
:10131000080189E9809309018FEF80930A010C94F9
:10132000B50A043011F00C94A609E6EDFBE20E9428
:1013300028120E942F1282E68093080189E9809387
:1013400009018FEF80930A010C94B50A053011F062
:101350000C94BB09E2EEFBE20E9428120E942F12BD
:1013600082E68093080189E9809309018FEF8093D9
:101370000A010C94B50A063011F00C94D009ECEE79
:10138000FBE20E9428120E942F1282E6809308013D
:1013900089E9809309018FEF80930A010C94B50AC3
:1013A000083011F00C94E509E8EFFBE20E942812E6
:1013B0000E942F1282E68093080189E98093090137
:1013C0008FEF80930A010C94B50A093011F00C9448
:1013D000FA09E2E0FCE20E9428120E942F1282E643
:1013E0008093080189E9809309018FEF80930A01B6
:1013F0000C94B50A0A3011F00C940F0AEEE0FCE2EE
:101400000E9428120E942F1282E68093080189E927
:10141000809309018FEF80930A010C94B50A0B3079
:1014200011F00C94240AECE1FCE20E9428120E94C4
:101430002F1282E68093080189E9809309018FEFDA
:1014400080930A010C94B50A0C3011F00C94390AFF
:10145000EAE2FCE20E9428120E942F1282E68093A8
:10146000080189E9809309018FEF80930A010C94A8
:10147000B50A0D3011F00C944E0AE8E3FCE20E942C
:1014800028120E942F1282E68093080189E9809336
:1014900009018FEF80930A010C94B50A0E3011F008
:1014A0000C94630AE6E4FCE20E9428120E942F12C8
:1014B00082E68093080189E9809309018FEF809388
:1014C0000A010C94B50A013811F00C94780AE6E58B
:1014D000FCE20E9428120E942F1282E680930801EB
:1014E00089E9809309018FEF80930A010C94B50A72
:1014F000023811F00C948D0AE0E6FCE20E942812FA
:101500000E942F128EE5809308018BE980930901D8
:1015100083EF80930A010C94B50A043811F00C94FF
:10152000A20AE0E7FCE20E9428120E942F1282E643
:101530008093080189ED809309018FEF80930A0160
:101540000C94B50A063811F00C94B50AECE7FCE2ED
:101550000E9428120E942F1282E68093080189EDD2
:10156000809309018FEF80930A010C94930B073944
:1015700011F00C94650B00910401013011F00C94F2
:10158000D20AE8E8FCE20E9428120E942F1281ECA5
:10159000809308018FEF809309018FEF80930A01F8
:1015A0000C94630B023011F00C94E70AE2E9FCE2C0
:1015B0000E9428120E942F1281EE8093080189E96F
:1015C000809309018DEF80930A010C94630B033023
:1015D00011F00C94FC0AEEE9FCE20E9428120E9431
:1015E0002F1282E68093080189E9809309018FEF29
:1015F00080930A010C94630B043011F00C94110BCE
:10160000EAEAFCE20E9428120E942F1282E68093EE
:10161000080189E9809309018FEF80930A010C94F6
:10162000630B053011F00C94260BE6EBFCE20E94F4
:1016300028120E942F1282E68093080189E9809384
:1016400009018FEF80930A010C94630B063011F0AF
:101650000C943B0BE2ECFCE20E9428120E942F1239
:1016600082E68093080189E9809309018FEF8093D6
:101670000A010C94630B013811F00C94500BEEEC42
:10168000FCE20E9428120E942F1282E68093080139
:1016900089E9809309018FEF80930A010C94630B11
:1016A000023811F00C94630BEAEDFCE20E94281260
:1016B0000E942F128EE58093080189E98093090129
:1016C00083EF80930A010C94930B083911F00C946A
:1016D000930B00910401013011F00C94800BECEE9F
:1016E000FCE20E9428120E942F1282E680930801D9
:1016F00089E9809309018FEF80930A010C94930B81
:10170000023011F00C94930BE8EFFCE20E942812D7
:101710000E942F1282E68093080189E980930901D3
:101720008FEF80930A0100910801003081E009F0F9
:1017300080E08F9300910901003081E009F080E0A2
:101740009F918923882311F40C94BA0B0E942F12C5
:10175000E4E0FDE20E9428120E942F120E942F1244
:10176000EAEEF7E20E9428120E942F120E94EE1069
:101770000E94E61080910D01806480930D0100911C
:101780000A01003011F00C94CA0B80910D018F7B7F
:1017900080930D0100910901003011F00C94DA0BD7
:1017A00080910D01886080930D0180910D018F7BE8
:1017B00080930D01ADE0B1E08C9180FB16F40C94A8
:1017C000E30B0E943F0D0E94830DE8E1FDE20E94C1
:1017D0002812A8EAB8E0E5E0F1E00E94DE120E94DB
:1017E0002012E0E3FDE20E942812A8EAB8E0E6E059
:1017F000F1E00E94DE120E942012E4E3FDE20E946A
:101800002812A8EAB8E0E7E0F1E00E94DE120E94A8
:1018100020120E942F12E8E3FDE20E942812A8EA9B
:10182000B8E0E8E0F1E00E94DE120E942012E0E35E
:10183000FDE20E942812A8EAB8E0E9E0F1E00E9487
:10184000DE120E942012E4E3FDE20E942812A8EAC0
:10185000B8E0EAE0F1E00E94DE120E9420120E944D
:101860002F12E0E5FDE20E942812ABE0B1E00C91FE
:1018700000FB81E00EF480E08F93ABE0B1E00C91CF
:1018800001FB81E00EF480E09F91892B882311F405
:101890000C94790CE6E6FDE20E942812A8EAB8E072
:1018A000EBE0F1E00E94DE120E942012E2E7FDE28E
:1018B0000E9428120E942F12ADE0B1E08C9180FBB3
:1018C00016F40C94770C0E942F12E4E7FDE20E94BC
:1018D00028120E942F120E942F12EAEEF7E20E94B5
:1018E00028120E942F120E94EE100E94DC100C940D
:1018F0008B0CE8EAFDE20E942812A8EAB8E0EBE0CF
:10190000F1E00E94DE120E942012E2E7FDE20E9456
:1019100028120E942F12ADE0B1E08C9180FB16F0EE
:101920000C94390D0E942F12E4EBFDE20E94281264
:101930000E942F12E4ECFDE20E9428120E942F1256
:10194000E8EDFDE20E9428120E942F12ECEEFDE26B
:101950000E9428120E942F12EEEFFDE20E94281230
:101960000E942F12EEE0FEE20E9428120E942F1227
:101970000E942F120E941912082F013311F00C94AB
:10198000C70C0E94840E0E94810F0C94350D023307
:1019900011F00C94090DE6E1FEE20E94281232E0FB
:1019A0000E94FE11A8EAB8E00E94F712A8E0B1E098
:1019B0000C93ADE0B1E08C9183FB16F40C94EE0C2B
:1019C000ECE2FEE20E94281232E00E94FE11A8EA38
:1019D000B8E00E94F712A9E0B1E00C93ADE0B1E0ED
:1019E0008C9186FB16F00C94030DE2E4FEE20E945B
:1019F000281232E00E94FE11A8EAB8E00E94F71215
:101A0000AAE0B1E00C930E94840E0E94810F0C9416
:101A1000350D033311F00C941F0DE8E5FEE20E9432
:101A2000281232E00E94FE11A8EAB8E00E94F712E4
:101A3000ACE0B1E00C930E9440100C94350D0433DF
:101A400011F00C94270D0E943F0D0C94350D0533B9
:101A500011F00C94350D0E94EE10EAEEF7E20E94B0
:101A600028120E942F12F894FFCF0C94920C0C9421
:101A70003D0D0E94840E0E94810FF894FFCFEEE688
:101A8000FEE20E942812349B0C944E0DE4E8FEE224
:101A90000E9428120E942F120C94820DADE0B1E03A
:101AA0008C9184FB16F40C94650D0E949A10419859
:101AB00080E885B90E94C4100E94CB10A6E2B0E075
:101AC0008C9180FBDEF70C947C0D80E880934401C0
:101AD0008CE4809345010E94881180E0809344014A
:101AE00084E6809345010E9488118CE6809345012D
:101AF0000E9488110E94C911EAE6F7E20E942812AA
:101B00000E942F120895ADE0B1E08C9184FB16F491
:101B10000C94040E0E949A1084E085B90E94C410AF
:101B200080E084B980E085B90E9497105A98419866
:101B30005E980E949710A5E0B1E083B18C935A9A09
:101B4000ADE0B1E08C9183FB16F40C94B30D0E94D0
:101B500097105A98419A5E9A0E949710A6E0B1E0B9
:101B600083B18C935A9AADE0B1E08C9186FB16F06C
:101B70000C94C60D0E9497105A9841985E9A0E9444
:101B80009710A7E0B1E083B18C935A9A0E94971006
:101B90005A98419A5E980E949710ADE0B1E08C91FE
:101BA00082FB16F00C94FB0DA5E0B1E083B18C93A1
:101BB0006894A5E0B1E08C9187F98C936894A5E0D6
:101BC000B1E08C9186F98C938FEF80930B01A3E2A7
:101BD000B0E08C9187FBABE0B1E08C9180F98C9305
:101BE000A3E2B0E08C9186FBABE0B1E08C9181F98F
:101BF0008C930C94FF0DABE0B1E083B18C935A9AB7
:101C00008FEF84B90C94830E84E0809344018CE4BC
:101C1000809345010E94881180E08093440188E60A
:101C2000809345010E9488118CE6809345010E94B3
:101C3000FB108091460180930501ADE0B1E08C91ED
:101C400083FB16F40C94320E8AE7809345010E94C0
:101C500088118EE7809345010E94FB108091460118
:101C600080930601ADE0B1E08C9186FB16F00C94F8
:101C7000470E8AE6809345010E9488118EE6809384
:101C800045010E94FB10809146018093070188E77F
:101C9000809345010E9488118CE7809345010E9442
:101CA000FB10ADE0B1E08C9182FB16F00C947F0E3E
:101CB00080914601809305016894A5E0B1E08C9184
:101CC00087F98C936894A5E0B1E08C9186F98C93A8
:101CD0008FEF80930B01A6E4B1E08C9187FBABE022
:101CE000B1E08C9180F98C93A6E4B1E08C9186FBF5
:101CF000ABE0B1E08C9181F98C930C94830E8091D0
:101D0000460180930B010895E0E9FEE20E9428124B
:101D1000A8EAB8E0E8E0F1E00E94DE120E9420129A
:101D2000E6E8F7E20E942812A8EAB8E0E9E0F1E06C
:101D30000E94DE120E942012E6E8F7E20E942812BA
:101D4000A8EAB8E0EAE0F1E00E94DE120E94201268
:101D5000EAE9FEE20E942812ADE0B1E08C9184FB3A
:101D600016F40C94160F0E949A1080E485B90E9414
:101D7000C4100E94B610A8E0B1E08C9185B90E9411
:101D8000F1100E94C41041985E980E94CB100E94EE
:101D90009710A6E2B0E08C9180FBDEF7ADE0B1E0F9
:101DA0008C9183FB16F40C94F00E0E949A1080E440
:101DB00085B90E94C4100E94B610A9E0B1E08C91D0
:101DC00085B90E94F1100E94C410419A5E980E9449
:101DD000CB100E949710A6E2B0E08C9180FBDEF75A
:101DE000ADE0B1E08C9186FB16F00C94120F0E94CE
:101DF0009A1080E485B90E94C4100E94B610AAE02F
:101E0000B1E08C9185B90E94F1100E94C4104198F4
:101E10005E9A0E94CB100E949710A6E2B0E08C91CF
:101E200080FBDEF741985E980C947A0F80E48093F3
:101E300044018CE4809345010E948811809108013F
:101E4000809344010E94EC118CE2809345010E9432
:101E5000881180E08093440184E6809345010E94CC
:101E600088118CE6809345010E9488110E94C91157
:101E7000ADE0B1E08C9183FB16F40C94590F809186
:101E80000901809344010E94EC118CE2809345018A
:101E90000E94881180E08093440184E7809345018B
:101EA0000E9488118CE7809345010E9488110E944E
:101EB000C911ADE0B1E08C9186FB16F00C947A0F5D
:101EC00080910A01809344010E94EC118CE280937E
:101ED00045010E94881180E08093440186E680934A
:101EE00045010E9488118EE6809345010E94881169
:101EF0000E94C911EAE6F7E20E9428120E942F12FE
:101F000008950E94830DE0EAFEE20E942812A8EAEA
:101F1000B8E0E5E0F1E00E94DE120E942012E0E36A
:101F2000FDE20E942812A8EAB8E0E6E0F1E00E9493
:101F3000DE120E942012E4E3FDE20E942812A8EAC9
:101F4000B8E0E7E0F1E00E94DE120E9420128091EA
:101F50000D018F7780930D014091080100910501DB
:101F6000041711F40C94B90F80910D0180688093CF
:101F70000D01ADE0B1E08C9183FB16F40C94CD0F14
:101F80004091090100910601041711F40C94CD0F42
:101F900080910D01806880930D01ADE0B1E08C91DE
:101FA00086FB16F00C94E10F40910A0100910701A5
:101FB000041711F40C94E10F80910D018068809357
:101FC0000D01ADE0B1E08C9187FB16F00C94071089
:101FD000E8E8F7E20E9428120E942F12E6EDF7E2ED
:101FE0000E9428120E942F12ADE0B1E08C9180FB7C
:101FF00016F40C940510EAEEF7E20E9428120E94F3
:102000002F120E94EE100E94D2100C943F10E8EBA9
:10201000FEE20E9428120E942F12EEEFF1E0A0E0F3
:10202000B1E00E942A13A0E0B1E00E94F711EEEFA8
:10203000F1E0A0E0B1E07BE70E941913A8EAB8E064
:10204000E0E0F1E00E9485120E942012E0ECFEE246
:102050000E9428120E942F120E942F12ADE0B1E0C0
:102060008C9180FB16F40C943F10EAEEF7E20E948C
:1020700028120E942F120E94EE100E94EB10089569
:10208000EEECFEE20E942812A8EAB8E0ECE0F1E0F3
:102090000E94DE120E942012E8EDFEE20E94281249
:1020A000ADE0B1E08C9184FB16F40C9470100E94AA
:1020B0009A1080E285B90E94C4100E94B610ACE06C
:1020C000B1E08C9185B90E94C4100E94CB100E948F
:1020D0009710A6E2B0E08C9180FBDEF70C94901094
:1020E00080E2809344018CE4809345010E94881132
:1020F00080910C01809344018CE2809345010E9401
:10210000881180E08093440184E6809345010E9419
:1021100088118CE6809345010E9488110E94C911A4
:10212000EAE6F7E20E9428120E942F1208950000AA
:1021300000000895439AADE0B1E08C9185FB16F064
:102140000C94A3105E9A429841980E9497100895AB
:102150004398ADE0B1E08C9185FB16F00C94B11082
:102160005E98429841980E94971008954398ADE078
:10217000B1E08C9185FB16F00C94BF105E98429AEA
:1021800041980E94971008955B9A0E9497105B985F
:102190000E94971008955C980E9497105C9A0E9484
:1021A00097100895439884E086B984EF91E00E94E7
:1021B00042120C94D3100895429888E086B984EFB7
:1021C00091E00E9442120C94DD1008954398429AC7
:1021D000F894FFCF08954298439A08955D9A5F98C6
:1021E0000895ADE0B1E08C9181FB16F00C94FA10EB
:1021F0008FEF85B90895439842980E94D111A6E2C5
:10220000B0E08C9181FBA6E4B1E08C9187F98C93CE
:1022100088E08093470187E08093480180914701DF
:1022200081508093470180914801815080934801FB
:10223000A7E4B1E08C91A4E4B1E00E946B120E948B
:1022400061120C900822689409F4E894A8E2B0E0C6
:102250008C9183F98C93A7E4B1E08C91A5E4B1E073
:102260000E946B120E9461120C900822689409F47B
:10227000E894A8E2B0E08C9182F98C930E94D1118D
:10228000A6E2B0E08C9181FBA8E4B1E08C91A6E4D9
:10229000B1E00E946B120E9461120C9016F00922AC
:1022A00001C0082A0C9200914801003011F00C94F2
:1022B0000E11A7E4B1E08C91A4E4B1E00E946B128E
:1022C0000E9461120C900822689409F4E894A8E234
:1022D000B0E08C9183F98C93A7E4B1E08C91A5E4F4
:1022E000B1E00E946B120E9461120C900822689467
:1022F00009F4E894A8E2B0E08C9182F98C930E94F2
:10230000D111439842980E94D1110E94D111089591
:10231000439842980E94D11188E0809347018091B0
:102320004701815080934701A7E4B1E08C91A4E478
:10233000B1E00E946B120E9461120C900822689416
:1023400009F4E894A8E2B0E08C9183F98C93A7E4B7
:10235000B1E08C91A5E4B1E00E946B120E94611281
:102360000C900822689409F4E894A8E2B0E08C91FB
:1023700082F98C930E94D11100914701003011F035
:102380000C948F11439842980E94D1110E94D11150
:10239000089500000000A6E2B0E08C9181FBDEF71A
:1023A000089500000000409A00000000409880E07E
:1023B00080934901459A0000000045980000000004
:1023C000A9E4B1E08C918F5F8C93009149010031B9
:1023D00011F00C94DA110895ADE0B1E08C9181FB1D
:1023E00016F00C94F6118FEF809344010895ED914F
:1023F000FC91EF5FFF4FFC93EE930895A8EAB8E0DD
:1024000018D0883091F08D3039F03323C9F38D9393
:102410003A9563FE27D0F4CF63FC04C08DE022D050
:102420008AE020D088278C9308951CD0119733958B
:10243000E7CF8091C00087FFFCCF8091C600089550
:10244000A8EAB8E08D91882311F00CD0FBCF089555
:102450000E945712802D11F005D0FACF08958DE01B
:1024600001D08AE00090C00005FEFCCF8093C6003A
:1024700008953197F1F70895689462F80895E89403
:1024800062F80895EF93FF93EE27E82BE92B31F0E4
:10249000EAEFF0E03197F1F70197D1F7FF91EF9173
:1024A00008950E9457120D920020D9F70895C895FB
:1024B000319600200895813618F08B3708F48F7D0F
:1024C000089591E0882321F08894991F8A95E9F76F
:1024D000892F90950895883018F011968850FBCF79
:1024E000089588279D91890F9923E1F70895000F9A
:1024F000111F221F331F08950095109520953095C8
:102500000F5F1F4F2F4F3F4F0895019110810EC055
:1025100001911191219130810BC00191108117FF20
:1025200005C03FEF2FEF04C000811127222733277A
:1025300037FF03C0E1DF8DE28D93CF93DF93CF921E
:10254000DF92EF92AA24BB24CC24DD24EE2440E2C7
:10255000CAE0DD2755E093E38881890F87FD9F70EE
:1025600083FD907F891B89935A95A9F7C0DFAA1C28
:10257000BB1CCC1CDD1CEE1C4A9551F7E894EFE027
:10258000FF2782910ED0EB30E0F71EF068948A2D81
:102590000CD088278D93EF90DF90CF90DF91CF9173
:1025A0000895982F829501D0892F8F70805D26F035
:1025B000803309F4089568948D93089541E003C031
:1025C00042E001C044E0E40F8827F81F8291982F71
:1025D000829506D0892F04D04A95C1F70C940E132A
:1025E0008F708A3008F0895F805D8D930895002791
:1025F0001127222733278D91882379F078DF77DF21
:1026000076DF75DF58DF815408F4895F865F080F35
:102610008827181F281F381FEECF089588278D930D
:102620000895F999FECFE1BDF2BD3196089591E08C
:1026300001C092E07B3751F47FB7F894F2DF8D91BF
:1026400080BDFA9AF99A9A95C9F77FBF77270895BE
:1026500091E001C092E0E5DFF89A80B58D939A95FC
:10266000D1F70895DEDFF89A80B58D93882319F0AD
:102670009A95C1F79D9308951B5B324A00005765F8
:102680006C636F6D65004156522041746D656761E2
:10269000206675736562697420646F63746F72205D
:1026A00028485650502B485653502920766572734F
:1026B000696F6E20322E31310000687474703A2FC9
:1026C0002F6469792E656C656B74726F64612E6519
:1026D000752F61746D6567612D66757365626974C8
:1026E0002D646F63746F722D687670700000526590
:1026F000676973746572656420746F200000557398
:1027000061676520696E20636F6D6D6572636961D5
:102710006C2F70726F66697420707572706F73655C
:1027200073206E6F7420616C6C6F776564004D412F
:102730004E55414C20004155544F4D415449432082
:102740000000485650500000485653500000204D9D
:102750004F444500496E69742070726F6772616DF5
:102760006D696E672E2E2E202000444F4E450000CE
:1027700052656164207369676E61747572652E2E8F
:102780002E202020200020002D204641494C2100F1
:102790005479706520746865207369676E6174751B
:1027A00072653A20203145004E6F206368697020C1
:1027B000696E20736F636B6574206F722063686944
:1027C0007020646F6573206E6F7420726573706F14
:1027D0006E64696E6700506C656173652074727910
:1027E00020616761696E2E2E2E005468616E6B2029
:1027F000596F7500547279696E67205432333133E2
:102800002070696E6F75742E2E0053656172636857
:10281000696E6720636869702E2E2E2020202000AC
:1028200041543930733132303000417474696E79FB
:1028300031310000417474696E79313200004174A5
:1028400074696E7931350000417474696E79313381
:102850002F41000041543930733233313300415439
:1028600039307332333233004154393073323334B8
:102870003300415439307332333333004174746957
:102880006E7932320000417474696E79323800001A
:10289000417474696E7932350000417474696E79DF
:1028A00032360000417474696E79323331332F410E
:1028B0000000417474696E7932342F410000417414
:1028C00074696E793236312F410041543930733496
:1028D000343134004154393073343433340041548A
:1028E000393073343433330041746D656761343883
:1028F0002F410000417474696E79343500004174D1
:1029000074696E7934342F410000417474696E79B2
:102910003436312F4100417474696E7934380000C7
:1029200041746D6567613438502F50410000417427
:1029300074696E7934335500417474696E79343337
:10294000313300004154393073383531350041544A
:10295000393073383533350041746D65676138350A
:102960003135000041746D656761382F4100417455
:102970006D65676138353335000041746D65676199
:1029800038382F410000417474696E793835000081
:10299000417474696E7938340000417474696E79D9
:1029A0003836312F410041746D6567613838502FDA
:1029B00050410000417474696E7938380000415408
:1029C000393070776D322F330000415439307077D1
:1029D0006D312F32622F33620000417474696E7959
:1029E000383700004154393070776D383100417408
:1029F0006D6567613855320041746D6567613136C8
:102A0000310041746D6567613136330041746D6525
:102A1000676131362F41000041746D656761313661
:102A2000320041746D656761313639412F50410084
:102A300041746D6567613136382F410041746D65B1
:102A40006761313635412F502F50410041746D651B
:102A5000676131363441000041746D65676131361C
:102A600034502F50410041746D65676131363850E4
:102A70002F5041004154393075736238322F31364E
:102A800032004154393070776D3231362F33313660
:102A9000000041746D65676131364D31000041744D
:102AA00074696E793136370041746D65676131360E
:102AB0005534000041746D65676131365532000050
:102AC00041746D6567613332332F410041746D6528
:102AD000676133322F41000041746D6567613332A5
:102AE000390041746D6567613332393000004174DB
:102AF0006D6567613332350041746D6567613332EE
:102B00003530000041746D65676133323450000028
:102B100041746D65676133323450410041746D65B5
:102B200067613332380041746D6567613332344117
:102B3000000041746D656761333239412F504100A7
:102B400041746D65676133323930412F5041000067
:102B500041746D656761333235412F5041004174D6
:102B60006D65676133323530412F5041000041744B
:102B70006D65676133323850000041746D6567617F
:102B80003332553200004154393063616E333200C4
:102B900041746D65676133324D31000041746D657C
:102BA000676133324331000041746D6567613332D0
:102BB0005534000041746D6567613332553600004D
:102BC00041746D65676136342F41000041746D6555
:102BD00067613634390041746D6567613634393068
:102BE000000041746D6567613634350041746D6570
:102BF000676136343530000041746D656761363485
:102C0000300041746D6567613634342F4100417482
:102C10006D656761363434502F50410041746D65E5
:102C20006761363439412F50000041746D6567612A
:102C300036343930412F500041746D656761363448
:102C400035412F50410041746D6567613634353030
:102C5000412F504100004154393063616E363400D9
:102C6000415439307573623634362F3634370000AC
:102C700041746D65676136344D31000041746D6596
:102C8000676136344331000041746D6567613130EE
:102C9000330041746D6567613132382F41004174F2
:102CA0006D65676131323830000041746D65676170
:102CB00031323831000041746D656761313238342A
:102CC000500041746D656761313238340000415401
:102CD000393063616E3132380000415439307573D8
:102CE00062313238362F31323837000041746D6529
:102CF000676132353630000041746D656761323589
:102D00003631000043686970206E6F7420737570EF
:102D1000706F727465642E0052656164206675730D
:102D200065626974732E2E2E20202020204C3A00DC
:102D300020483A0020453A0053686F756C64206261
:102D4000652E2E2E2020202020202020204C3A00EE
:102D50004C6F636B626974732E2E2E20202020200E
:102D6000202020202000454E41424C454420202870
:102D700000002900506C6561736520616C6C6F7791
:102D800020746F20657261736520746865206368C4
:102D9000697020746F2064697361626C65206C6F68
:102DA000636B62697473000044495341424C45446B
:102DB000202800005768617420746F20646F3F2ED4
:102DC0002E2E000031202D207772697465206675E3
:102DD000736562697473000032202D206D6F646921
:102DE00066792066757365626974730033202D20DF
:102DF000736574206C6F636B6269747300003420B8
:102E00002D2063686970206572617365000035204C
:102E10002D20656E64005479706520667573652099
:102E20004C4F573A202020202020200054797065F4
:102E3000206675736520484947483A2020202020A5
:102E40002000547970652066757365204558544597
:102E50004E4445443A20200054797065206C6F63DD
:102E60006B3A2020202020202020202020004368B2
:102E700069702065726173652E2E2E20202020201F
:102E800020202000444953414C4C4F5745440000FA
:102E900057726974696E672000002E2E2E20200064
:102EA000566572696679696E672E2E2E2020202065
:102EB00020202020204C3A00202D204F4B210000C4
:102EC00020666978656420636869707300004C6FE0
:102ED000636B696E672000002E2E2E20202020209C
:042EE000202020008E
:00000001FF
