:100000000C94340018950000189500001895000015
:10001000189500001895000018950000189500002C
:10002000189500001895000018950000189500001C
:10003000189500001895000018950000189500000C
:1000400018950000189500001895000018950000FC
:1000500018950000189500001895000018950000EC
:1000600018950000189500008FEF8DBFC8EDE0ECEB
:100070004E2E88E08EBFD8E0F8E05F2EA89584B7BA
:10008000082E877F84BF88E1992780936000909332
:100090006000EEEFF7E0A0E0B1E088278D933197A4
:1000A000E9F786E08093C40080E08093C50088E192
:1000B0008093C10066248CE08093C40080E080932C
:1000C000C5008FEF84B98EE287B980E188B98FEFE0
:1000D0008AB987E28BB90E94E8100E94E8100E945A
:1000E000E810E0EBF3E20E94E1100E94E810AFE0BC
:1000F000B1E0E8EBF3E20E940A11AFE0B1E00E9448
:10010000DB100E94E810AFE0B1E00E942411082F3C
:100110000F3311F40C94910080910C018160809355
:100120000C01AFE0B1E0ECEEF3E20E940A11AFE0A7
:10013000B1E00E94DB100E94E810AFE0B1E00E9445
:100140002411082F0F3E11F40C94AB0080910C0188
:10015000816080930C01E2E0F0E0AEE0B1E00E944B
:10016000C411AEE0B1E08C9180958C93E4E0F0E0B6
:10017000AFE0B1E094E20E94CE1140910E01AFE0F9
:10018000B1E00E942411082F041711F00C94D40040
:10019000E0E2F4E20E94E110AFE0B1E00E94DB1087
:1001A0000E94E8100C94EE00AFE0B1E0E0E3F4E26E
:1001B0000E940A11AFE0B1E00E94DB100E94E8103B
:1001C000AFE0B1E00E942411082F053011F40C9427
:1001D000EE0080910C01816080930C01E0E6F4E276
:1001E0000E94E1100E94E8100E94E81080910C012A
:1001F000886080930C0152985B9A0E94E40E4A99A1
:100200000C94070180910C01877F80930C015B980F
:100210000E94E40E4A9B0C94120180910C01877F8E
:1002200080930C01529AACE0B1E08C9183FB16F004
:100230000C942301ECE8F4E20E94E1100E94E81023
:10024000389A0C942901E6E9F4E20E94E1100E9438
:10025000E8100E94E8105D98000000000000000017
:1002600000000000000000000000000000005F9A95
:10027000ACE0B1E08C9183FB16F40C9455010E9424
:10028000110F0E94110F0E94110F0E94110F0E9466
:10029000110F0E94110F0E94110F0E94110F0E9456
:1002A000110F0E94110F0C9459015C9854984198B9
:1002B0003998E0EAF4E20E94E1100000000000003A
:1002C000000000000000000000000000000000002E
:1002D0005C9AACE0B1E08C9183FB16F40C94750150
:1002E000A6E2B0E08C9180FBDEF7E6EBF4E20E9440
:1002F000E1100E94E8100E94180FECEBF4E20E945B
:10030000E110ACE0B1E08C9183FB16F40C94DE01BB
:100310000E94E70E419888E085B90E94E40E0E9491
:10032000110F81E090E0A0E0B1E08D939C93A0E0FC
:10033000B1E00D911C91033050E0150718F011F059
:100340000C94DC010E94F50E41980091000141E0FF
:10035000041B05B90E94E40E0E94110F80E084B9CD
:1003600080E085B95A9841980E94E40EA0E0B1E07F
:10037000AD90BC90A1E0B1E0AA0DBB1D83B18C9300
:100380005A9A8FEF84B9A8EAB8E0E0E0F1E0A190D2
:10039000B080E1E0F1E0EA0DFB1D0E9491110E94A6
:1003A000D910E2EDF4E20E94E110A0E0B1E00E9479
:1003B000D21010F40C9497010C94340288E08093CE
:1003C00042018CE4809343010E94631081E090E03D
:1003D000A0E0B1E08D939C93A0E0B1E00D911C9161
:1003E000033050E0150718F011F00C94340200911E
:1003F000000141E0041BA2E4B1E00C938CE0809387
:1004000043010E94631080E08093420188E680935C
:1004100043010E9463108CE6809343010E94D60F33
:1004200080914401A0E0B1E0AD90BC90A1E0B1E0CA
:10043000AA0DBB1D8C93A8EAB8E0E0E0F1E0A19022
:10044000B080E1E0F1E0EA0DFB1D0E9491110E94F5
:10045000D910E2EDF4E20E94E110A0E0B1E00E94C8
:10046000D21010F40C94EC01009102010E3181E0E5
:1004700009F480E08F9300910301003981E008F0D6
:1004800080E09F91892B8F9300910301083980E0D0
:1004900010F009F081E09F91892B882311F40C94CE
:1004A0009C02ACE0B1E08C9185FB81E00EF080E035
:1004B0008F93ACE0B1E08C9183FB81E00EF080E0A3
:1004C0009F91892B882311F40C948602E4EDF4E2C9
:1004D0000E94E1100E94E8100E94E810ECEDF4E2A6
:1004E0000E94E1100E94E810EAE0F5E20E94E110AB
:1004F0000E94E8100E94E810EEE1F5E20E94E1108F
:100500000E94E8100E943B0F0E94330FACE0B1E064
:100510008C9183FB16F40C949C02E4EDF4E20E94AF
:10052000E1100E94E810E8E2F5E20E94E1108091FB
:100530000C01806280930C01009102010E3181E078
:1005400009F080E08F93009103010F3880E010F0F4
:1005500009F081E09F9189238F930091030109396C
:1005600081E008F080E09F918923882311F40C94A6
:1005700081010E94E810EEE3F5E20E94E110009193
:100580000301003911F00C941A03009104010130A9
:1005900011F00C94DB02E4E5F5E20E94E1100E9408
:1005A000E8108FED8093080180910C0182608093A8
:1005B0000C010C941803043011F00C94EA02EEE5DF
:1005C000F5E20E94E1100E94E8108CEF8093080190
:1005D0000C941803053011F00C94F902E8E6F5E2EA
:1005E0000E94E1100E94E81082E5809308010C94BB
:1005F0001803063011F00C940803E2E7F5E20E94BC
:10060000E1100E94E8108CE5809308010C94180317
:10061000073011F00C941803ECE7F5E20E94E110AA
:100620000E94E8108AE6809308018FEF8093090109
:100630000C948A0B013911F00C94EF030091040122
:10064000013011F00C943403E8E8F5E20E94E11067
:100650000E94E8108FED8093080180910C01826068
:1006600080930C010C94ED03023011F00C944803BC
:10067000E2E9F5E20E94E1100E94E8108EED80931D
:10068000080180910C01826080930C010C94ED03B1
:10069000033011F00C945C03ECE9F5E20E94E110E8
:1006A0000E94E8108EED8093080180910C01826019
:1006B00080930C010C94ED03053011F00C946B0346
:1006C000E6EAF5E20E94E1100E94E8108AED8093CC
:1006D00008010C94ED03063011F00C947A03E0EB62
:1006E000F5E20E94E1100E94E8108EED809308016F
:1006F0000C94ED03073011F00C948903EAEBF5E25A
:100700000E94E1100E94E81082EF809308010C948F
:10071000ED03083011F00C949E03E4ECF5E20E9426
:10072000E1100E94E81082E6809308018FED80932B
:1007300009018FEF80930A010C94ED03093011F049
:100740000C94B003EEECF5E20E94E1100E94E81078
:1007500081EE8093080187EF809309010C94ED03EB
:100760000A3011F00C94C503E8EDF5E20E94E110A7
:100770000E94E81084E6809308018FED80930901C0
:100780008FEF80930A010C94ED030B3011F00C9461
:10079000DA03E6EEF5E20E94E1100E94E81082E63C
:1007A000809308018FED809309018FEF80930A01F8
:1007B0000C94ED030C3011F00C94ED03E2EFF5E234
:1007C0000E94E1100E94E81082E6809308018FEDFC
:1007D000809309018FEF80930A010C948A0B0239F0
:1007E00011F00C94D40400910401013011F00C9428
:1007F0000904EEEFF5E20E94E1100E94E8108FED8F
:100800008093080180910C01826080930C010C940C
:10081000D204023011F00C941D04E8E0F6E20E94CC
:10082000E1100E94E8108FED8093080180910C0187
:10083000826080930C010C94D204033011F00C946C
:100840002C04E2E1F6E20E94E1100E94E8108AED39
:10085000809308010C94D204053011F00C944104EB
:10086000ECE1F6E20E94E1100E94E81082E680933B
:1008700008018FED809309018FEF80930A010C949A
:10088000D204063011F00C945604E8E2F6E20E941D
:10089000E1100E94E81082E6809308018FED8093BA
:1008A00009018FEF80930A010C94D204073011F0F4
:1008B0000C946B04E2E3F6E20E94E1100E94E8105F
:1008C00082E6809308018FED809309018FEF80937A
:1008D0000A010C94D204083011F00C948004EEE369
:1008E000F6E20E94E1100E94E81082E6809308017F
:1008F0008FED809309018FEF80930A010C94D2044D
:10090000093011F00C949504EAE4F6E20E94E1103B
:100910000E94E8108EE6809308018FED8093090114
:100920008FEF80930A010C94D2040A3011F00C94DA
:10093000AA04E4E5F6E20E94E1100E94E81082E6D3
:10094000809308018FED809309018FEF80930A0156
:100950000C94D2040C3011F00C94BF04E2E6F6E2E1
:100960000E94E1100E94E81082E6809308018FED5A
:10097000809309018FEF80930A010C94D2040D300B
:1009800011F00C94D204ECE6F6E20E94E1100E9411
:10099000E81084E6809308018FED809309018FEFC2
:1009A00080930A010C948A0B033911F00C941F06F2
:1009B00000910401013011F00C94EE04E8E7F6E236
:1009C0000E94E1100E94E8108FED80930801809151
:1009D0000C01826080930C010C941D06033011F011
:1009E0000C940205E2E8F6E20E94E1100E94E81091
:1009F0008FED8093080180910C01826080930C013F
:100A00000C941D06063011F00C941405ECE8F6E287
:100A10000E94E1100E94E81081EE8093080189EDA8
:100A2000809309010C941D06073011F00C942605E3
:100A3000E8E9F6E20E94E1100E94E81081EE80935E
:100A4000080189ED809309010C941D06083011F00E
:100A50000C943805E2EAF6E20E94E1100E94E810E8
:100A600081EE8093080189ED809309010C941D06A5
:100A70000A3011F00C944D05EEEAF6E20E94E11006
:100A80000E94E81082E6809308018FED80930901AF
:100A900089EF80930A010C941D060B3011F00C9421
:100AA0006205EAEBF6E20E94E1100E94E81082E69D
:100AB000809308018FED809309018FEF80930A01E5
:100AC0000C941D060C3011F00C947705E4ECF6E262
:100AD0000E94E1100E94E81082E6809308018FEDE9
:100AE000809309018FEF80930A010C941D060D304D
:100AF00011F00C948C05EEECF6E20E94E1100E94DD
:100B0000E81082E6809308018FED809309018FEF52
:100B100080930A010C941D060F3011F00C94A1056E
:100B2000EAEDF6E20E94E1100E94E81082E680936E
:100B300008018FED8093090189EF80930A010C94DD
:100B40001D06013111F00C94B605E8EEF6E20E94A4
:100B5000E1100E94E8108EE6809308018FED8093EB
:100B600009018FEF80930A010C941D06013811F0E2
:100B70000C94CB05E2EFF6E20E94E1100E94E8102F
:100B800082E6809308018FED8093090189EF8093BD
:100B90000A010C941D06033811F00C94E005EEEFE9
:100BA000F6E20E94E1100E94E81082E680930801BC
:100BB0008FED8093090189EF80930A010C941D0643
:100BC000073811F00C94F505EEE0F7E20E94E11011
:100BD0000E94E81082E6809308018FED809309015E
:100BE0008FEF80930A010C941D06083811F00C94C5
:100BF0000A06E8E1F7E20E94E1100E94E81082E6AE
:100C00008093080189ED809309018DEF80930A019B
:100C10000C941D06093811F00C941D06E2E2F7E26F
:100C20000E94E1100E94E8108EE58093080189ED92
:100C30008093090184EF80930A010C948A0B043994
:100C400011F00C947B0700910401013011F00C9419
:100C50003406ECE2F7E20E94E1100E94E8108AED0F
:100C6000809308010C947907023011F00C94460629
:100C7000E6E3F7E20E94E1100E94E81082ED809323
:100C800008018FEF809309010C947907033011F06C
:100C90000C945806E0E4F7E20E94E1100E94E8108C
:100CA00081EE8093080189E9809309010C9479070A
:100CB000043011F00C946D06ECE4F7E20E94E110B0
:100CC0000E94E81082E68093080189E98093090177
:100CD0008FEF80930A010C947907053011F00C9482
:100CE0008206E6E5F7E20E94E1100E94E81082E643
:100CF0008093080189E9809309018FEF80930A01AD
:100D00000C947907063011F00C949706E4E6F7E2AC
:100D10000E94E1100E94E81082E6809308018FEDA6
:100D20008093090189EF80930A010C9479070730B9
:100D300011F00C94AC06E0E7F7E20E94E1100E948B
:100D4000E81082E68093080189E9809309018FEF1A
:100D500080930A010C9479070F3011F00C94C106AE
:100D6000E0E8F7E20E94E1100E94E81082E680933A
:100D7000080189E9809309018FEF80930A010C949F
:100D800079070A3011F00C94D606ECE8F7E20E94DD
:100D9000E1100E94E81082E68093080189E98093BF
:100DA00009018FEF80930A010C9479070B3011F041
:100DB0000C94EB06EAE9F7E20E94E1100E94E810C9
:100DC00082E6809308018FED8093090189EF80937B
:100DD0000A010C9479070D3011F00C94FD06E8EA35
:100DE000F7E20E94E1100E94E8108EED8093080166
:100DF00089EE809309010C947907023811F00C9464
:100E00001207E4EBF7E20E94E1100E94E8108EE581
:100E10008093080189ED8093090184EF80930A0192
:100E20000C947907033811F00C942707E2ECF7E2F1
:100E30000E94E1100E94E81082E6809308018FED85
:100E40008093090189EF80930A010C947907043893
:100E500011F00C943C07E2EDF7E20E94E1100E94D1
:100E6000E81082E68093080189ED809309018FEFF5
:100E700080930A010C947907073811F00C945107FC
:100E8000EEEDF7E20E94E1100E94E81082E6809306
:100E900008018FED809309018FEF80930A010C9474
:100EA0007907083811F00C946607E8EEF7E20E9423
:100EB000E1100E94E8108EE58093080181E980939B
:100EC000090183EF80930A010C947907093811F026
:100ED0000C947907E4EFF7E20E94E1100E94E81019
:100EE0008EE58093080189ED8093090184EF80935A
:100EF0000A010C948A0B053911F00C9458090091E1
:100F00000401013011F00C949307E0E0F8E20E9434
:100F1000E1100E94E81081EF8093080189E9809335
:100F200009010C945609023011F00C94A507ECE06D
:100F3000F8E20E94E1100E94E81081EE809308011F
:100F400089E9809309010C945609033011F00C943F
:100F5000BA07E8E1F8E20E94E1100E94E81082E698
:100F60008093080189E9809309018FEF80930A013A
:100F70000C945609043011F00C94CF07E2E2F8E229
:100F80000E94E1100E94E81082E68093080189E93E
:100F9000809309018FEF80930A010C945609053064
:100FA00011F00C94E407EEE2F8E20E94E1100E94D6
:100FB000E81082E68093080189E9809309018FEFA8
:100FC00080930A010C945609063011F00C94F9072D
:100FD000E8E3F8E20E94E1100E94E81082E68093C4
:100FE000080189E9809309018FEF80930A010C942D
:100FF0005609073011F00C940B08E4E4F8E20E9463
:10100000E1100E94E8108EED8093080189EE809334
:1010100009010C945609083011F00C942008EEE4F4
:10102000F8E20E94E1100E94E81082E68093080135
:1010300089E9809309018FEF80930A010C94560986
:10104000003111F00C943208EAE5F8E20E94E11058
:101050000E94E8108EED8093080189EE80930901CB
:101060000C945609013111F00C944708E6E6F8E2B9
:101070000E94E1100E94E81082E68093080189E94D
:10108000809309018FEF80930A010C945609043173
:1010900011F00C945C08E2E7F8E20E94E1100E9473
:1010A000E81082E68093080189ED809309018FEFB3
:1010B00080930A010C945609053111F00C947108C3
:1010C000ECE7F8E20E94E1100E94E81082E68093CB
:1010D000080189E9809309018FEF80930A010C943C
:1010E00056090B3011F00C948608E8E8F8E20E94EB
:1010F000E1100E94E81082E68093080189E980935C
:1011000009018FEF80930A010C9456090C3011F0FD
:101110000C949B08E6E9F8E20E94E1100E94E810B6
:1011200082E68093080189E9809309018FEF80931B
:101130000A010C9456090D3011F00C94B008E6EA3F
:10114000F8E20E94E1100E94E81082E68093080114
:1011500089E9809309018FEF80930A010C94560965
:101160000E3011F00C94C508E4EBF8E20E94E11097
:101170000E94E81082E68093080189E980930901C2
:101180008FEF80930A010C9456090F3011F00C94E4
:10119000DA08E4ECF8E20E94E1100E94E81082E62E
:1011A0008093080189ED809309018FEF80930A01F4
:1011B0000C9456090A3811F00C94EF08E0EDF8E2AF
:1011C0000E94E1100E94E8108EE58093080189EDED
:1011D0008093090184EF80930A010C945609013829
:1011E00011F00C940409ECEDF8E20E94E1100E9469
:1011F000E81082E68093080189E9809309018FEF66
:1012000080930A010C945609043811F00C941909C2
:10121000E6EEF8E20E94E1100E94E81082E6809378
:10122000080189ED809309018FEF80930A010C94E6
:101230005609063811F00C942E09E2EFF8E20E94EC
:10124000E1100E94E81082E68093080189ED809306
:1012500009018FEF80930A010C945609073811F0A9
:101260000C944309EEEFF8E20E94E1100E94E810AE
:101270008EE58093080181E98093090183EF8093D3
:101280000A010C945609083811F00C945609EAE04A
:10129000F9E20E94E1100E94E8108EE580930801B7
:1012A00089E98093090183EF80930A010C948A0BEA
:1012B000063911F00C94AE0A00910401023011F0CD
:1012C0000C947309E6E1F9E20E94E1100E94E81033
:1012D00081EE8093080189E9809309018DEF809365
:1012E0000A010C94AC0A033011F00C948809E2E274
:1012F000F9E20E94E1100E94E81082E68093080162
:1013000089E9809309018FEF80930A010C94AC0A5C
:10131000043011F00C949D09ECE2F9E20E94E11016
:101320000E94E81082E68093080189E98093090110
:101330008FEF80930A010C94AC0A053011F00C94E5
:10134000B209E8E3F9E20E94E1100E94E81082E6A7
:101350008093080189E9809309018FEF80930A0146
:101360000C94AC0A063011F00C94C709E2E4F9E2DF
:101370000E94E1100E94E81082E68093080189E94A
:10138000809309018FEF80930A010C94AC0A083016
:1013900011F00C94DC09EEE4F9E20E94E1100E94E5
:1013A000E81082E68093080189E9809309018FEFB4
:1013B00080930A010C94AC0A093011F00C94F109E5
:1013C000E8E5F9E20E94E1100E94E81082E68093CD
:1013D000080189E9809309018FEF80930A010C9439
:1013E000AC0A0A3011F00C94060AE4E6F9E20E9415
:1013F000E1100E94E81082E68093080189E9809359
:1014000009018FEF80930A010C94AC0A0B3011F0A4
:101410000C941B0AE2E7F9E20E94E1100E94E81036
:1014200082E68093080189E9809309018FEF809318
:101430000A010C94AC0A0C3011F00C94300AE0E86C
:10144000F9E20E94E1100E94E81082E68093080110
:1014500089E9809309018FEF80930A010C94AC0A0B
:101460000D3011F00C94450AEEE8F9E20E94E1100B
:101470000E94E81082E68093080189E980930901BF
:101480008FEF80930A010C94AC0A0E3011F00C948B
:101490005A0AECE9F9E20E94E1100E94E81082E6A3
:1014A0008093080189E9809309018FEF80930A01F5
:1014B0000C94AC0A013811F00C946F0AECEAF9E2D2
:1014C0000E94E1100E94E81082E68093080189E9F9
:1014D000809309018FEF80930A010C94AC0A0238C3
:1014E00011F00C94840AE6EBF9E20E94E1100E94EC
:1014F000E8108EE5809308018BE98093090183EF62
:1015000080930A010C94AC0A043811F00C94990AE7
:10151000E6ECF9E20E94E1100E94E81082E6809376
:10152000080189ED809309018FEF80930A010C94E3
:10153000AC0A063811F00C94AC0AE2EDF9E20E9414
:10154000E1100E94E81082E68093080189ED809303
:1015500009018FEF80930A010C948A0B073911F06F
:101560000C945C0B00910401013011F00C94C90A39
:10157000EEEDF9E20E94E1100E94E81081EC809308
:1015800008018FEF809309018FEF80930A010C947B
:101590005A0B023011F00C94DE0AE8EEF9E20E94D8
:1015A000E1100E94E81081EE8093080189E98093A0
:1015B00009018DEF80930A010C945A0B033011F04E
:1015C0000C94F30AE4EFF9E20E94E1100E94E810A3
:1015D00082E68093080189E9809309018FEF809367
:1015E0000A010C945A0B043011F00C94080BE0E043
:1015F000FAE20E94E1100E94E81082E6809308015E
:1016000089E9809309018FEF80930A010C945A0BAA
:10161000053011F00C941D0BECE0FAE20E94E11091
:101620000E94E81082E68093080189E9809309010D
:101630008FEF80930A010C945A0B063011F00C9432
:10164000320BE8E1FAE20E94E1100E94E81082E623
:101650008093080189E9809309018FEF80930A0143
:101660000C945A0B013811F00C94470BE4E2FAE2A7
:101670000E94E1100E94E81082E68093080189E947
:10168000809309018FEF80930A010C945A0B023862
:1016900011F00C945A0BE0E3FAE20E94E1100E9470
:1016A000E8108EE58093080189E98093090183EFB2
:1016B00080930A010C948A0B083911F00C948A0B60
:1016C00000910401013011F00C94770BE2E4FAE28E
:1016D0000E94E1100E94E81082E68093080189E9E7
:1016E000809309018FEF80930A010C948A0B0230DA
:1016F00011F00C948A0BEEE4FAE20E94E1100E94D1
:10170000E81082E68093080189E9809309018FEF50
:1017100080930A0100910801003081E009F080E027
:101720008F9300910901003081E009F080E09F91E2
:101730008923882311F40C94B10B0E94E810EAE588
:10174000FAE20E94E1100E94E8100E94E810EEE127
:10175000F5E20E94E1100E94E8100E943B0F0E94F7
:10176000330F80910C01806480930C0100910A0179
:10177000003011F00C94C10B80910C018F7B809391
:101780000C0100910901003011F00C94D10B8091F3
:101790000C01846080930C0180910C018F7B8093FD
:1017A0000C01E6E7FAE20E94E110349B0C94E00B96
:1017B000ECE8FAE20E94E1100E94E8100C940F0C91
:1017C000ACE0B1E08C9183FB16F40C94F20B0E9418
:1017D000E70E419880E885B90E94110F0E94180F0A
:1017E0000C94090C80E8809342018CE480934301BF
:1017F0000E94631080E08093420184E6809343015D
:101800000E9463108CE6809343010E9463100E9443
:10181000A410E6EBF4E20E94E1100E94E8100E949E
:10182000480FE8E9FAE20E94E110A8EAB8E0E5E032
:10183000F1E00E9491110E94D910E0EBFAE20E94BF
:10184000E110A8EAB8E0E6E0F1E00E9491110E9400
:10185000D910E4EBFAE20E94E110A8EAB8E0E7E070
:10186000F1E00E9491110E94D9100E94E810E8EB6B
:10187000FAE20E94E110A8EAB8E0E8E0F1E00E9494
:1018800091110E94D910E0EBFAE20E94E110A8EA5F
:10189000B8E0E9E0F1E00E9491110E94D910E4EB78
:1018A000FAE20E94E110A8EAB8E0EAE0F1E00E9462
:1018B00091110E94D9100E94E810E0EDFAE20E9416
:1018C000E110ABE0B1E00C9100FB81E00EF480E0B0
:1018D0008F93ABE0B1E00C9101FB81E00EF480E06E
:1018E0009F91892B882311F40C949E0CE6EEFAE26A
:1018F0000E94E110A8EAB8E0EBE0F1E00E9491114B
:101900000E94D910E2EFFAE20E94E1100E94E81072
:101910000E94E810E4EFFAE20E94E1100E94E81051
:101920000E94E810EEE1F5E20E94E1100E94E8104A
:101930000E943B0F0E94290F0C94B00CE8E2FBE2DE
:101940000E94E110A8EAB8E0EBE0F1E00E949111FA
:101950000E94D910E2EFFAE20E94E1100E94E81022
:10196000E4E3FBE20E94E110A8EAB8E0E8E0F1E07D
:101970000E9491110E94D910A8EAB8E0E9E0F1E0D4
:101980000E9491110E94D910A8EAB8E0EAE0F1E0C3
:101990000E9491110E94D910E0E4FBE20E94E11044
:1019A000ACE0B1E08C9183FB16F40C944C0D0E94DA
:1019B000E70E80E485B90E94E40E0E94110F0E9498
:1019C000030FA8E0B1E08C9185B90E943E0F0E9400
:1019D000E40E0E94110F41985E980E94E40E0E944E
:1019E000180F0E94E40EA6E2B0E08C9180FBDEF7B7
:1019F000ACE0B1E08C9182FB16F40C94200D0E94B7
:101A0000E70E80E485B90E94E40E0E94110F0E9447
:101A1000030FA9E0B1E08C9185B90E943E0F0E94AE
:101A2000E40E0E94110F419A5E980E94E40E0E94FB
:101A3000180F0E94E40EA6E2B0E08C9180FBDEF766
:101A4000ACE0B1E08C9186FB16F00C94480D0E943E
:101A5000E70E80E485B90E94E40E0E94110F0E94F7
:101A6000030FAAE0B1E08C9185B90E943E0F0E945D
:101A7000E40E0E94110F41985E9A0E94E40E0E94AB
:101A8000180F0E94E40EA6E2B0E08C9180FBDEF716
:101A900041985E980C94B00D80E4809342018CE4F0
:101AA000809343010E94631080910801809342015A
:101AB0000E94C7108CE2809343010E94631080E073
:101AC0008093420184E6809343010E9463108CE678
:101AD000809343010E9463100E94A410ACE0B1E027
:101AE0008C9182FB16F40C948F0D809109018093E8
:101AF00042010E94C7108CE2809343010E94631050
:101B000080E08093420184E7809343010E94631048
:101B10008CE7809343010E9463100E94A410ACE004
:101B2000B1E08C9186FB16F00C94B00D80910A0107
:101B3000809342010E94C7108CE2809343010E946F
:101B4000631080E08093420186E6809343010E9407
:101B500063108EE6809343010E9463100E94A410DC
:101B6000E6EBF4E20E94E1100E94E8100E94480FA8
:101B7000E6E4FBE20E94E110A8EAB8E0E5E0F1E06B
:101B80000E9491110E94D910E0EBFAE20E94E1104C
:101B9000A8EAB8E0E6E0F1E00E9491110E94D910B5
:101BA000E4EBFAE20E94E110A8EAB8E0E7E0F1E035
:101BB0000E9491110E94D9104091080100910501E5
:101BC000041711F40C94E90D80910C018068809346
:101BD0000C01ACE0B1E08C9182FB16F40C94FD0D8D
:101BE0004091090100910601041711F40C94FD0DB8
:101BF00080910C01806880930C01ACE0B1E08C9185
:101C000086FB16F00C94110E40910A010091070119
:101C1000041711F40C94110E80910C0180688093CC
:101C20000C01ACE0B1E08C9187FB16F00C94340E03
:101C3000E4EDF4E20E94E1100E94E8100E94E81036
:101C4000EAE0F5E20E94E1100E94E8100E94E8102C
:101C5000EEE1F5E20E94E1100E94E8100E943B0FC5
:101C60000E941F0F0C943E0EEEE5FBE20E94E11075
:101C70000E94E8100E943B0F0E94380FEEEFF1E047
:101C8000A0E0B1E00E94C611A0E0B1E00E94D21035
:101C9000EEEFF1E0A0E0B1E07BE70E94B5110E9419
:101CA000E810A8EAB8E0E0E0F1E00E9438110E94F4
:101CB000D910E6E6FBE20E94E1100E94E8100E94C3
:101CC000E810EEE1F5E20E94E1100E94E810F894BD
:101CD000FFCF0E94E70E84E085B90E94E40E0E94C7
:101CE000110F80E084B980E085B90E94E40E5A9813
:101CF00041985E980E94E40EA5E0B1E083B18C9318
:101D00005A9AACE0B1E08C9182FB16F40C94940EDC
:101D10000E94E40E5A98419A5E9A0E94E40EA6E050
:101D2000B1E083B18C935A9AACE0B1E08C9186FB20
:101D300016F00C94A70E0E94E40E5A9841985E9AF1
:101D40000E94E40EA7E0B1E083B18C935A9A0E94FE
:101D5000E40E5A98419A5E980E94E40EACE0B1E01D
:101D60008C9181FB16F00C94DC0EA5E0B1E083B100
:101D70008C936894A5E0B1E08C9187F98C9368947A
:101D8000A5E0B1E08C9186F98C938FEF80930B01E5
:101D9000A3E2B0E08C9187FBABE0B1E08C9180F9DD
:101DA0008C93A3E2B0E08C9186FBABE0B1E08C9128
:101DB00081F98C930C94E00EABE0B1E083B18C938D
:101DC0005A9A8FEF84B90895000000000895439A4D
:101DD000ACE0B1E08C9185FB16F00C94F00E5E9AAD
:101DE000429841980E94E40E08954398ACE0B1E017
:101DF0008C9185FB16F00C94FE0E5E9842984198EB
:101E00000E94E40E08954398ACE0B1E08C9185FB0C
:101E100016F00C940C0F5E98429A41980E94E40EC2
:101E200008955B9A0E94E40E5B980E94E40E089568
:101E30005C980E94E40E5C9A0E94E40E0895439818
:101E400084E086B984EF91E00E94FB100C94200F8F
:101E50000895429888E086B984EF91E00E94FB10D3
:101E60000C942A0F08954398429AF894FFCF08954E
:101E70004298439A08955D9A5F980895ACE0B1E066
:101E80008C9180FB16F00C94470F8FEF85B9089565
:101E9000ACE0B1E08C9183FB16F40C94530F0E94DC
:101EA000690E0C94550F0E94560F089584E080939C
:101EB00042018CE4809343010E94631080E0809390
:101EC000420188E6809343010E9463108CE6809370
:101ED00043010E94D60F8091440180930501ACE03C
:101EE000B1E08C9182FB16F40C94840F8AE7809306
:101EF00043010E9463108EE7809343010E94D60F36
:101F00008091440180930601ACE0B1E08C9186FBA6
:101F100016F00C94990F8AE6809343010E94631097
:101F20008EE6809343010E94D60F809144018093F6
:101F3000070188E7809343010E9463108CE7809338
:101F400043010E94D60FACE0B1E08C9181FB16F00A
:101F50000C94D10F80914401809305016894A5E011
:101F6000B1E08C9187F98C936894A5E0B1E08C91F5
:101F700086F98C938FEF80930B01A4E4B1E08C91F0
:101F800087FBABE0B1E08C9180F98C93A4E4B1E0E5
:101F90008C9186FBABE0B1E08C9181F98C930C9431
:101FA000D50F8091440180930B0108954398429886
:101FB0000E94AC10A6E2B0E08C9181FBA4E4B1E0F9
:101FC0008C9187F98C9388E08093450187E080931A
:101FD00046018091450181508093450180914601E1
:101FE000815080934601A5E4B1E08C91A2E4B1E078
:101FF0000E941E110E9414110C900822689409F48A
:10200000E894A8E2B0E08C9183F98C93A5E4B1E068
:102010008C91A3E4B1E00E941E110E9414110C9057
:102020000822689409F4E894A8E2B0E08C9182F95F
:102030008C930E94AC10A6E2B0E08C9181FBA6E4E8
:10204000B1E08C91A4E4B1E00E941E110E94141131
:102050000C9016F0092201C0082A0C92009146014A
:10206000003011F00C94E90FA5E4B1E08C91A2E4EA
:10207000B1E00E941E110E9414110C900822689475
:1020800009F4E894A8E2B0E08C9183F98C93A5E47C
:10209000B1E08C91A3E4B1E00E941E110E941411E2
:1020A0000C900822689409F4E894A8E2B0E08C91BE
:1020B00082F98C930E94AC10439842980E94AC1015
:1020C0000E94AC100895439842980E94AC1088E09A
:1020D0008093450180914501815080934501A5E49D
:1020E000B1E08C91A2E4B1E00E941E110E94141193
:1020F0000C900822689409F4E894A8E2B0E08C916E
:1021000083F98C93A5E4B1E08C91A3E4B1E00E9443
:102110001E110E9414110C900822689409F4E8948E
:10212000A8E2B0E08C9182F98C930E94AC100091EF
:102130004501003011F00C946A10439842980E94B7
:10214000AC100E94AC10089500000000A6E2B0E0C0
:102150008C9181FBDEF7089500000000409A00009A
:102160000000409880E080930D01459A0000000037
:10217000459800000000ADE0B1E08C918F5F8C933A
:1021800000910D01003111F00C94B5100895ACE0F0
:10219000B1E08C9180FB16F00C94D1108FEF8093FE
:1021A00042010895ED91FC91EF5FFF4FFC93EE9398
:1021B0000895A8EAB8E08D91882311F00CD0FBCFE8
:1021C00008950E941011802D11F005D0FACF0895C6
:1021D0008DE001D08AE00090C00005FEFCCF809326
:1021E000C60008953197F1F70895689462F808954C
:1021F000E89462F80895EF93FF93EE27E82BE92B1C
:1022000031F0EAEFF0E03197F1F70197D1F7FF9164
:10221000EF9108950E9410110D920020D9F70895B2
:10222000C89531960020089591E0882321F0889484
:10223000991F8A95E9F7892F90950895883018F0AD
:1022400011968850FBCF089588279D91890F992377
:10225000E1F70895000F111F221F331F0895009505
:102260001095209530950F5F1F4F2F4F3F4F0895CA
:10227000019110810EC001911191219130810BC00B
:102280000191108117FF05C03FEF2FEF04C00081BF
:1022900011272227332737FF03C0E1DF8DE28D931B
:1022A000CF93DF93CF92DF92EF92AA24BB24CC246A
:1022B000DD24EE2440E2CAE0DD2755E093E3888187
:1022C000890F87FD9F7083FD907F891B89935A95A5
:1022D000A9F7C0DFAA1CBB1CCC1CDD1CEE1C4A9558
:1022E00051F7E894EFE0FF2782910ED0EB30E0F752
:1022F0001EF068948A2D0CD088278D93EF90DF9084
:10230000CF90DF91CF910895982F829501D0892F9A
:102310008F70805D26F0803309F4089568948D9362
:10232000089541E003C042E001C044E0E40F882783
:10233000F81F8291982F829506D0892F04D04A9554
:10234000C1F70C94AA118F708A3008F0895F805D04
:102350008D93089588278D930895F999FECFE1BD57
:10236000F2BD3196089591E001C092E07B3751F4BF
:102370007FB7F894F2DF8D9180BDFA9AF99A9A9519
:10238000C9F77FBF7727089591E001C092E0E5DFAC
:10239000F89A80B58D939A95D1F70895DEDFF89A73
:1023A00080B58D93882319F09A95C1F79D93089570
:1023B00057656C636F6D65004156522041746D65C1
:1023C0006761206675736562697420646F63746FFA
:1023D000722028485650502B485653502920766575
:1023E0007273696F6E20322E303900006874747019
:1023F0003A2F2F6469792E656C656B74726F646116
:102400002E65752F61746D6567612D6675736562E4
:1024100069742D646F63746F722D6876707000003C
:102420005265676973746572656420746F2000007B
:10243000557361676520696E20636F6D6D657263AA
:1024400069616C2F70726F66697420707572706F3D
:10245000736573206E6F7420616C6C6F77656400B8
:10246000666F72206669726D77617265207570643F
:10247000617465733A20747769747465722E636F42
:102480006D2F6D616E656B696E656E0048565350B9
:10249000204D4F44450048565050204D4F44450074
:1024A000496E69742070726F6772616D6D696E67D5
:1024B0002E2E2E202000444F4E45000052656164B0
:1024C000207369676E61747572652E2E2E20202030
:1024D000200020002D204641494C21004E6F2063F2
:1024E00068697020696E20736F636B6574206F720A
:1024F000206368697020646F6573206E6F7420724A
:102500006573706F6E64696E6700506C65617365AA
:102510002074727920616761696E2E2E2E005468D6
:10252000616E6B20596F7500547279696E67205423
:10253000323331332070696E6F75742E2E005365FF
:1025400061726368696E6720636869702E2E2E2041
:102550002020200041543930733132303000417432
:1025600074696E7931310000417474696E79313269
:102570000000417474696E793135000041747469EA
:102580006E7931332F410000415439307332333189
:1025900033004154393073323332330041543930CF
:1025A00073323334330041543930733233333300B0
:1025B000417474696E7932320000417474696E79C5
:1025C00032380000417474696E793235000041740C
:1025D00074696E7932360000417474696E793233F1
:1025E00031332F410000417474696E7932342F41C8
:1025F0000000417474696E793236312F41004154C4
:102600003930733434313400415439307334343315
:1026100034004154393073343433330041746D65C0
:10262000676134382F410000417474696E79343524
:102630000000417474696E7934342F410000417494
:1026400074696E793436312F4100417474696E7942
:102650003438000041746D6567613438502F504143
:102660000000417474696E793433550041747469A3
:102670006E79343331330000415439307338353199
:1026800035004154393073383533350041746D6548
:10269000676138353135000041746D656761382FE9
:1026A000410041746D656761383533350000417410
:1026B0006D65676138382F410000417474696E7927
:1026C00038350000417474696E7938340000417403
:1026D00074696E793836312F410041746D656761D8
:1026E0003838502F50410000417474696E79383881
:1026F00000004154393070776D322F33000041545F
:10270000393070776D312F32622F3362000041749F
:1027100074696E79383700004154393070776D38FC
:10272000310041746D6567613855320041746D65E3
:1027300067613136310041746D6567613136330050
:1027400041746D65676131362F41000041746D65DC
:1027500067613136320041746D65676131363941E8
:102760002F50410041746D6567613136382F41004B
:1027700041746D656761313635412F502F504100EE
:1027800041746D65676131363441000041746D6597
:102790006761313634502F50410041746D65676177
:1027A000313638502F50410041746D6567613136C4
:1027B000485642004154393075736238322F3136F1
:1027C00032004154393070776D3231362F33313623
:1027D000000041746D65676131364D310000417410
:1027E00074696E793136370041746D6567613136D1
:1027F0005534000041746D65676131365532000013
:1028000041746D6567613332332F410041746D65EA
:10281000676133322F41000041746D656761333267
:10282000390041746D65676133323930000041749D
:102830006D6567613332350041746D6567613332B0
:102840003530000041746D65676134303600417485
:102850006D65676133323450000041746D656761A6
:1028600033324856420041746D65676133323450EB
:10287000410041746D6567613332380041746D65A4
:10288000676133323441000041746D6567613332F2
:1028900039412F50410041746D65676133323930E1
:1028A000412F5041000041746D65676133323541FD
:1028B0002F50410041746D65676133323530412FCF
:1028C0005041000041746D6567613332385000003B
:1028D00041746D65676133325532000041543930BF
:1028E00063616E33320041746D65676133324D311F
:1028F000000041746D6567613332433100004174FB
:102900006D65676133325534000041746D656761F0
:1029100033325536000041746D65676136342F419E
:10292000000041746D6567613634390041746D652E
:10293000676136343930000041746D656761363443
:10294000350041746D65676136343530000041747F
:102950006D6567613634300041746D65676136348A
:10296000342F410041746D656761363434502F5007
:10297000410041746D656761363439412F50000064
:1029800041746D65676136343930412F50004174B0
:102990006D656761363435412F50410041746D6576
:1029A000676136343530412F504100004154393091
:1029B00063616E3634004154393075736236343693
:1029C0002F363437000041746D65676136344D3100
:1029D000000041746D656761363443310000417415
:1029E0006D6567613130330041746D656761313207
:1029F000382F410041746D65676131323830000015
:102A000041746D65676131323831000041746D6524
:102A1000676131323834500041746D65676131321D
:102A2000383400004154393063616E31323800006F
:102A300041543930757362313238362F313238377C
:102A4000000041746D6567613235363000004174B5
:102A50006D65676132353631000043686970206EFC
:102A60006F7420737570706F727465642C20736F4F
:102A70007272792E00004368697020657261736517
:102A80002E2E2E202020202020202000444953419B
:102A90004C4C4F5745440000526561642066757385
:102AA00065626974732E2E2E20202020204C3A005F
:102AB00020483A0020453A0053686F756C642062E4
:102AC000652E2E2E2020202020202020204C3A0071
:102AD0004C6F636B626974732E2E2E202020202091
:102AE000202020202000454E41424C4544202028F3
:102AF00000002900506C6561736520616C6C6F7714
:102B000020746F2065726173652074686520636846
:102B1000697020746F2064697361626C65206C6FEA
:102B2000636B62697473000044495341424C4544ED
:102B300020280000526577726974696E6720000072
:102B40002E2E2E202000566572696679696E672EDA
:102B50002E2E2020202020202020204C3A00202D26
:102B6000204F4B2100002066697865642063686906
:042B7000707300007E
:00000001FF
