:1000000019C018951895189518951895189518955C
:100010001895189518951895189518951895189578
:100020001895189518951895189518951895189568
:10003000189518958FEF8DBFC8EDE0EC4E2E84E03B
:100040008EBFD4E0F4E05F2EA89584B7082E877F9A
:1000500084BF88E199278093600090936000EEEF61
:10006000F3E0A0E0B1E088278D933197E9F786E0CF
:100070008093C40080E08093C50088E18093C10034
:1000800066248CE08093C40080E08093C5008FEFED
:1000900084B98EE287B980E188B98FEF8AB987E3A6
:1000A0008BB952DD51DD50DDE4E2FDE147DD4CDD91
:1000B000AFE0B1E0ECE2FDE169DDAFE0B1E038DDF9
:1000C00043DDAFE0B1E07BDD082F0E3309F405C05E
:1000D00080910C01816080930C01AFE0B1E0E0E61B
:1000E000FDE154DDAFE0B1E023DD2EDDAFE0B1E0B6
:1000F00066DD082F0F3E09F405C080910C01816078
:1001000080930C01E2E0F0E0AEE0B1E0F7DDAEE0BC
:10011000B1E08C9180958C93E4E0F0E0AFE0B1E049
:1001200094E2F6DD40910E01AFE0B1E048DD082F2A
:10013000041709F008C0E4E9FDE100DDAFE0B1E03B
:10014000F7DC02DD15C0AFE0B1E0E4EAFDE11EDD61
:10015000AFE0B1E0EDDCF8DCAFE0B1E030DD082F7E
:10016000053009F405C080910C01816080930C0179
:10017000E4EDFDE1E3DCE8DCE7DC80910C01886084
:1001800080930C0152985B9A17DB4A9905C08091C5
:100190000C01877F80930C015B980EDB4A9B05C0A6
:1001A00080910C01877F80930C01529AACE0B1E002
:1001B0008C9183FB0EF006C0E0E0FEE1BFDCC4DC06
:1001C000389A04C0EAE0FEE1B9DCBEDCBDDCE4E163
:1001D000FEE1B4DCACE0B1E08C9183FB0EF006C034
:1001E0004198429843985C98459805C05E9842981B
:1001F000439841985C9884E690E0B9DC5D98EF9371
:10020000FF93E5E1F0E0AADCFF91EF915F9AACE0AB
:10021000B1E08C9183FB0EF417C081E090E0A0E088
:10022000B1E08D939C93A0E0B1E00D911C910A3058
:1002300050E0150710F009F006C0E5DAA0E0B1E0E3
:100240006EDC08F4F0CF04C05C985498419839985B
:10025000EF93FF93E9E7F0E081DCFF91EF915C9A87
:10026000ACE0B1E08C9183FB0EF405C0A6E2B0E0F7
:100270008C9180FBDEF7EAE2FEE160DC65DCC8DA47
:10028000E0E3FEE15BDCACE0B1E08C9183FB0EF4DB
:1002900048C095DA419888E085B98EDAB4DA81E011
:1002A00090E0A0E0B1E08D939C93A0E0B1E00D91CF
:1002B0001C91033050E0150710F009F031C08BDAC3
:1002C00041980091000141E0041B05B975DA9BDA01
:1002D00080E084B980E085B95A9841986DDAA0E051
:1002E000B1E0AD90BC90A1E0B1E0AA0DBB1D83B11F
:1002F0008C935A9A8FEF84B9A8EAB4E0E0E0F1E079
:10030000A190B080E1E0F1E0EA0DFB1DC5DC0EDC60
:10031000E6E4FEE113DCA0E0B1E001DC08F4C5CFC7
:100320004FC088E0809342018CE48093430193DBCB
:1003300081E090E0A0E0B1E08D939C93A0E0B1E07B
:100340000D911C91033050E0150710F009F038C0F2
:100350000091000141E0041BA2E4B1E00C938CE0A9
:100360008093430178DB80E08093420188E68093AC
:10037000430171DB80E0809342018CE6809343016E
:10038000EDDA80914401A0E0B1E0AD90BC90A1E035
:10039000B1E0AA0DBB1D8C93A8EAB4E0E0E0F1E067
:1003A000A190B080E1E0F1E0EA0DFB1D75DCBEDB61
:1003B000E6E4FEE1C3DBA0E0B1E0B1DB08F4BECFD0
:1003C000009102010E3181E009F480E08F930091E9
:1003D0000301003981E008F080E09F91892B8F9321
:1003E00000910301083980E010F009F081E09F914D
:1003F000892B882309F43AC0ACE0B1E08C9185FBED
:1004000081E00EF080E08F93ACE0B1E08C9183FB53
:1004100081E00EF080E09F91892B882309F414C0BD
:10042000E8E4FEE18BDB90DB8FDBE0E5FEE186DBE1
:100430008BDBECE7FEE182DB87DB86DBE0E9FEE1DC
:100440007DDB82DB02DAF9D9ACE0B1E08C9183FB91
:100450000EF40CC0E8E4FEE171DB76DBEAE9FEE1D4
:100460006DDB80910C01806280930C010091020190
:100470000E3181E009F080E08F93009103010F3885
:1004800080E010F009F081E09F9189238F93009123
:100490000301093981E008F080E09F9189238823D6
:1004A00009F4F1CE51DBE0EBFEE148DB4DDB0091DE
:1004B0000301003909F041C000910401013009F045
:1004C0000EC08FED8093080180910C0184608093B1
:1004D0000C0180910C01826080930C012DC00430CE
:1004E00009F009C08CEF8093080180910C018460B1
:1004F00080930C0121C0053009F009C082E580938A
:10050000080180910C01846080930C0115C00630B5
:1005100009F009C08CE58093080180910C0184608A
:1005200080930C0109C0073009F006C08AE6809369
:1005300008018FEF80930901BFC6013909F0ABC0F4
:1005400000910401013009F00EC08FED8093080185
:1005500080910C01846080930C0180910C01826079
:1005600080930C0197C0023009F00EC08EED80938D
:10057000080180910C01846080930C0180910C0132
:10058000826080930C0186C0033009F00EC08EEDAE
:100590008093080180910C01846080930C0180910C
:1005A0000C01826080930C0175C0053009F009C010
:1005B0008AED8093080180910C01846080930C0186
:1005C00069C0063009F009C08EED80930801809162
:1005D0000C01846080930C015DC0083009F00FC0ED
:1005E00082E6809308018FED809309018FEF80935D
:1005F0000A0180910C01806480930C014BC00A3089
:1006000009F00FC084E6809308018FED8093090103
:100610008FEF80930A0180910C01806480930C011C
:1006200039C00B3009F00FC082E6809308018FEDCE
:10063000809309018FEF80930A0180910C018064FF
:1006400080930C0127C0093009F007C081EE809328
:10065000080187EF809309011DC0073009F009C028
:1006600082EF8093080180910C01846080930C01DB
:1006700011C00C3009F00EC082E6809308018FEDA6
:10068000809309018FEF80930A0180910C018064AF
:1006900080930C0111C6023909F0C0C00091040119
:1006A000013009F00EC08FED8093080180910C019C
:1006B000846080930C0180910C01826080930C0116
:1006C000ACC0023009F00EC08FED8093080180911C
:1006D0000C01846080930C0180910C0182608093F6
:1006E0000C019BC0033009F009C08AED809308011A
:1006F00080910C01846080930C018FC0053009F05B
:100700000FC082E6809308018FED809309018FEF7F
:1007100080930A0180910C01806480930C017DC05C
:10072000073009F00FC082E6809308018FED8093B7
:1007300009018FEF80930A0180910C0180648093FE
:100740000C016BC00A3009F00FC082E680930801EB
:100750008FED809309018FEF80930A0180910C0146
:10076000806480930C0159C0063009F00FC082E606
:10077000809308018FED809309018FEF80930A0128
:1007800080910C01806480930C0147C0093009F00E
:100790000FC08EE6809308018FED809309018FEFE3
:1007A00080930A0180910C01806480930C0135C014
:1007B000083009F00FC082E6809308018FED809326
:1007C00009018FEF80930A0180910C01806480936E
:1007D0000C0123C00D3009F00FC084E6809308019E
:1007E0008FED809309018FEF80930A0180910C01B6
:1007F000806480930C0111C00C3009F00EC082E6B9
:10080000809308018FED809309018FEF80930A0197
:1008100080910C01806480930C014EC5033909F06E
:1008200008C100910401013009F00EC08FED8093E2
:10083000080180910C01846080930C0180910C016F
:10084000826080930C01F4C0033009F00EC08FED7C
:100850008093080180910C01846080930C01809149
:100860000C01826080930C01E3C0073009F007C0DF
:1008700081EE8093080189ED80930901D9C006308B
:1008800009F007C081EE8093080189ED809309018A
:10089000CFC0083009F007C081EE8093080189EDD0
:1008A00080930901C5C00A3009F00FC082E6809329
:1008B00008018FED8093090189EF80930A018091EF
:1008C0000C01806480930C01B3C00B3009F00FC0A1
:1008D00082E6809308018FED809309018FEF80936A
:1008E0000A0180910C01806480930C01A1C00C303E
:1008F00009F00FC082E6809308018FED8093090113
:100900008FEF80930A0180910C01806480930C0129
:100910008FC00F3009F00FC082E6809308018FED81
:100920008093090189EF80930A0180910C01806412
:1009300080930C017DC0013109F00FC08EE68093D9
:1009400008018FED809309018FEF80930A01809158
:100950000C01806480930C016BC0013809F00FC05A
:1009600082E6809308018FED8093090189EF8093DF
:100970000A0180910C01806480930C0159C00338F6
:1009800009F00FC082E6809308018FED8093090182
:1009900089EF80930A0180910C01806480930C019F
:1009A00047C0073809F00FC082E6809308018FED39
:1009B000809309018FEF80930A0180910C0180647C
:1009C00080930C0135C0083809F00FC082E680938F
:1009D000080189ED809309018DEF80930A018091D0
:1009E0000C01806480930C0123C0093809F00FC00A
:1009F0008EE58093080189ED8093090184EF80934F
:100A00000A0180910C01806480930C0111C00D30AB
:100A100009F00EC082E6809308018FED80930901F2
:100A20008FEF80930A0180910C01806480930C0108
:100A300043C4043909F016C100910401013009F0E2
:100A400009C08AED8093080180910C018460809335
:100A50000C0107C1023009F007C082ED8093080144
:100A60008FEF80930901FDC0033009F007C081EECC
:100A70008093080189E980930901F3C0043009F0EB
:100A80000FC082E68093080189E9809309018FEF06
:100A900080930A0180910C01806480930C01E1C075
:100AA000053009F00FC082E68093080189E9809340
:100AB00009018FEF80930A0180910C01806480937B
:100AC0000C01CFC0063009F00FC082E68093080108
:100AD0008FED8093090189EF80930A0180910C01C9
:100AE000806480930C01BDC0073009F00FC082E61E
:100AF0008093080189E9809309018FEF80930A01AF
:100B000080910C01806480930C01ABC00F3009F020
:100B10000FC082E68093080189E9809309018FEF75
:100B200080930A0180910C01806480930C0199C02C
:100B30000A3009F00FC082E68093080189E98093AA
:100B400009018FEF80930A0180910C0180648093EA
:100B50000C0187C00B3009F00FC082E680930801BA
:100B60008FED8093090189EF80930A0180910C0138
:100B7000806480930C0175C00D3009F007C08EEDC4
:100B80008093080189EE809309016BC0033809F056
:100B90000FC082E6809308018FED8093090189EFF1
:100BA00080930A0180910C01806480930C0159C0EC
:100BB000073809F00FC082E6809308018FED80931B
:100BC00009018FEF80930A0180910C01806480936A
:100BD0000C0147C0093809F00FC08EE58093080169
:100BE00089ED8093090184EF80930A0180910C01C3
:100BF000806480930C0135C0023809F00FC08EE587
:100C00008093080189ED8093090184EF80930A01A4
:100C100080910C01806480930C0123C0083809F096
:100C20000FC08EE58093080181E98093090183EF6D
:100C300080930A0180910C01806480930C0111C0A3
:100C4000043809F00EC082E68093080189ED809394
:100C500009018FEF80930A0180910C0180648093D9
:100C60000C012AC3053909F080C10091040101304B
:100C700009F007C081EF8093080189E98093090199
:100C800073C1023009F007C081EE8093080189E941
:100C90008093090169C1033009F00FC082E6809397
:100CA000080189E9809309018FEF80930A018091FF
:100CB0000C01806480930C0157C1043009F00FC00F
:100CC00082E68093080189E9809309018FEF809380
:100CD0000A0180910C01806480930C0145C10730AA
:100CE00009F007C08EED8093080189EE8093090119
:100CF0003BC1003109F007C08EED8093080189EEF9
:100D00008093090131C1053109F00FC082E680935B
:100D1000080189E9809309018FEF80930A0180918E
:100D20000C01806480930C011FC1013109F00FC0D8
:100D300082E68093080189E9809309018FEF80930F
:100D40000A0180910C01806480930C010DC1083070
:100D500009F00FC082E68093080189E980930901B8
:100D60008FEF80930A0180910C01806480930C01C5
:100D7000FBC0053009F00FC082E68093080189E9C5
:100D8000809309018FEF80930A0180910C018064A8
:100D900080930C01E9C0063009F00FC082E6809311
:100DA000080189E9809309018FEF80930A018091FE
:100DB0000C01806480930C01D7C0043109F00FC08E
:100DC00082E68093080189ED809309018FEF80937B
:100DD0000A0180910C01806480930C01C5C00F3022
:100DE00009F00FC082E68093080189ED8093090124
:100DF0008FEF80930A0180910C01806480930C0135
:100E0000B3C00D3009F00FC082E68093080189E974
:100E1000809309018FEF80930A0180910C01806417
:100E200080930C01A1C00E3009F00FC082E68093C0
:100E3000080189E9809309018FEF80930A0180916D
:100E40000C01806480930C018FC00A3809F00FC038
:100E50008EE58093080189ED8093090184EF8093EA
:100E60000A0180910C01806480930C017DC00738D9
:100E700009F00FC08EE58093080181E98093090194
:100E800083EF80930A0180910C01806480930C01B0
:100E90006BC0083809F00FC08EE58093080189E91E
:100EA0008093090183EF80930A0180910C01806493
:100EB00080930C0159C0043809F00FC082E680937A
:100EC000080189ED809309018FEF80930A018091D9
:100ED0000C01806480930C0147C0063809F00FC0F4
:100EE00082E68093080189ED809309018FEF80935A
:100EF0000A0180910C01806480930C0135C0013897
:100F000009F00FC082E68093080189E98093090106
:100F10008FEF80930A0180910C01806480930C0113
:100F200023C00B3009F00FC082E68093080189E9E5
:100F3000809309018FEF80930A0180910C018064F6
:100F400080930C0111C00C3009F00EC082E6809332
:100F5000080189E9809309018FEF80930A0180914C
:100F60000C01806480930C01A7C1063909F0E7C029
:100F700000910401023009F00FC081EE8093080156
:100F800089E9809309018DEF80930A0180910C011A
:100F9000806480930C01D2C0033009F00FC082E658
:100FA0008093080189E9809309018FEF80930A01FA
:100FB00080910C01806480930C01C0C0043009F062
:100FC0000FC082E68093080189E9809309018FEFC1
:100FD00080930A0180910C01806480930C01AEC063
:100FE000053009F00FC082E68093080189E98093FB
:100FF00009018FEF80930A0180910C018064809336
:101000000C019CC0063009F00FC082E680930801F5
:1010100089E9809309018FEF80930A0180910C0187
:10102000806480930C018AC0083009F00FC082E60A
:101030008093080189E9809309018FEF80930A0169
:1010400080910C01806480930C0178C0093009F014
:101050000FC082E68093080189E9809309018FEF30
:1010600080930A0180910C01806480930C0166C01A
:101070000A3009F00FC082E68093080189E9809365
:1010800009018FEF80930A0180910C0180648093A5
:101090000C0154C00B3009F00AC082E680930801AD
:1010A00089E9809309018FEF80930A0147C00238D4
:1010B00009F00FC08EE5809308018BE98093090148
:1010C00083EF80930A0180910C01806480930C016E
:1010D00035C0043809F00FC082E68093080189ED1D
:1010E000809309018FEF80930A0180910C01806445
:1010F00080930C0123C0013809F00FC082E6809371
:10110000080189E9809309018FEF80930A0180919A
:101110000C01806480930C0111C0063809F00EC0E8
:1011200082E68093080189ED809309018FEF809317
:101130000A0180910C01806480930C01BDC00739C5
:1011400009F092C000910401013009F00FC081EC58
:10115000809308018FEF809309018FEF80930A013C
:1011600080910C01806480930C017DC0023009F0F5
:101170000FC081EE8093080189E9809309018DEF0A
:1011800080930A0180910C01806480930C016BC0F4
:10119000033009F00FC082E68093080189E980934B
:1011A00009018FEF80930A0180910C018064809384
:1011B0000C0159C0043009F00FC082E68093080189
:1011C00089E9809309018FEF80930A0180910C01D6
:1011D000806480930C0147C0053009F00FC082E69F
:1011E0008093080189E9809309018FEF80930A01B8
:1011F00080910C01806480930C0135C0063009F0A9
:101200000FC082E68093080189E9809309018FEF7E
:1012100080930A0180910C01806480930C0123C0AB
:10122000023809F00FC08EE58093080189E98093A8
:10123000090183EF80930A0180910C0180648093FF
:101240000C0111C0013809F00EC082E6809308013C
:1012500089E9809309018FEF80930A0180910C0145
:10126000806480930C0128C0083909F025C00091E2
:101270000401013009F00FC082E68093080189E97A
:10128000809309018FEF80930A0180910C018064A3
:1012900080930C0111C0023009F00EC082E68093E9
:1012A000080189E9809309018FEF80930A018091F9
:1012B0000C01806480930C0100910801003081E0F2
:1012C00009F080E08F9300910901003081E009F07E
:1012D00080E09F918923882309F40CC035D4EAED7E
:1012E000FEE12CD431D430D4E0E9FEE127D42CD473
:1012F000ACD2A3D2E6EFFEE121D4349B05C0ECE0F2
:10130000FFE11CD421D424C0ACE0B1E08C9183FB7C
:101310000EF407C054D2419880E885B974D278D2CF
:1013200013C080E8809342018CE48093430193D3FF
:1013300080E08093420184E6809343018CD38CE665
:101340008093430188D3BFD3EAE2FEE1F7D3FCD315
:1013500088D2E8E1FFE1F2D3A8EAB4E0E5E0F1E009
:101360009BD4E4D3E0E3FFE1E9D3A8EAB4E0E6E00C
:10137000F1E092D4DBD3E4E3FFE1E0D3A8EAB4E008
:10138000E7E0F1E089D4D2D3DFD3E8E3FFE1D6D3BD
:10139000A8EAB4E0E8E0F1E07FD4C8D3E0E3FFE1FD
:1013A000CDD3A8EAB4E0E9E0F1E076D4BFD3E4E33A
:1013B000FFE1C4D3A8EAB4E0EAE0F1E06DD4B6D32B
:1013C000C3D3E0E5FFE1BAD3ABE0B1E00C9100FBA1
:1013D00081E00EF480E08F93ABE0B1E00C9101FB73
:1013E00081E00EF480E09F91892B882309F41AC0D4
:1013F000E6E6FFE1A3D3A8EAB4E0EBE0F1E04CD4E9
:1014000095D3E2E7FFE19AD39FD39ED3E4E7FFE1D0
:1014100095D39AD399D3E0E9FEE190D395D315D231
:1014200004D20DC0E8EAFFE189D3A8EAB4E0EBE01A
:10143000F1E032D47BD3E2E7FFE180D385D3E4EB64
:10144000FFE17CD3A8EAB4E0E8E0F1E025D46ED374
:10145000A8EAB4E0E9E0F1E01FD468D3A8EAB4E078
:10146000EAE0F1E019D462D3E0ECFFE167D3ACE04D
:10147000B1E08C9183FB0EF454C0A1D180E485B916
:101480009BD1C1D1B4D1A8E0B1E08C9185B9E0D1B4
:1014900093D1B9D141985E988FD1BAD18DD1A6E2BE
:1014A000B0E08C9180FBDEF7ACE0B1E08C9182FB88
:1014B0000EF417C084D180E485B97ED1A4D197D130
:1014C000A9E0B1E08C9185B9C3D176D19CD1419A84
:1014D0005E9872D19DD170D1A6E2B0E08C9180FB74
:1014E000DEF7ACE0B1E08C9186FB0EF017C067D15F
:1014F00080E485B961D187D17AD1AAE0B1E08C913D
:1015000085B9A6D159D17FD141985E9A55D180D164
:1015100053D1A6E2B0E08C9180FBDEF741985E9853
:1015200052C080E4809342018CE48093430193D2C3
:101530008091080180934201E8D28CE280934301BC
:101540008AD280E08093420184E68093430183D273
:101550008CE6809343017FD2B6D2ACE0B1E08C91AF
:1015600082FB0EF415C08091090180934201CDD217
:101570008CE2809343016FD280E08093420184E744
:101580008093430168D28CE78093430164D29BD25D
:10159000ACE0B1E08C9186FB0EF015C080910A01A1
:1015A00080934201B2D28CE28093430154D280E016
:1015B0008093420186E6809343014DD28EE680936C
:1015C000430149D280D2EAE2FEE1B8D2BDD249D18C
:1015D000E6ECFFE1B3D2A8EAB4E0E5E0F1E05CD3E9
:1015E000A5D2E0E3FFE1AAD2A8EAB4E0E6E0F1E0A8
:1015F00053D39CD2E4E3FFE1A1D2A8EAB4E0E7E050
:10160000F1E04AD393D240910801009105010417FB
:1016100009F405C080910C01806880930C01ACE056
:10162000B1E08C9182FB0EF40CC040910901009155
:101630000601041709F405C080910C0180688093AD
:101640000C01ACE0B1E08C9186FB0EF00CC0409137
:101650000A0100910701041709F405C080910C01EB
:10166000806880930C01ACE0B1E08C9187FB0EF0B8
:1016700011C0EEEDFFE162D267D266D2ECE7FEE187
:101680005DD262D261D2E0E9FEE158D25DD2DDD016
:10169000C4D006C0E8EEFFE151D256D2D6D0D2D0A7
:1016A000EEEFF1E0A0E0B1E02BD3A0E0B1E037D263
:1016B000EEEFF1E0A0E0B1E07BE711D345D2A8EA7C
:1016C000B4E0E0E0F1E08FD231D2E0EFFFE136D2DA
:1016D0003BD23AD2E0E9FEE131D236D2F894FFCFE4
:1016E0006ED084E085B968D08ED080E084B980E087
:1016F00085B962D05A9841985E985ED0A5E0B1E075
:1017000083B18C935A9AACE0B1E08C9182FB0EF4D9
:101710000AC052D05A98419A5E9A4ED0A6E0B1E0E3
:1017200083B18C935A9AACE0B1E08C9186FB0EF0B9
:101730000AC042D05A9841985E9A3ED0A7E0B1E0E4
:1017400083B18C935A9A38D05A98419A5E9834D083
:10175000ACE0B1E08C9181FB0EF026C0A5E0B1E0D9
:1017600083B18C936894A5E0B1E08C9187F98C9358
:101770006894A5E0B1E08C9186F98C938FEF80930B
:101780000B01A3E2B0E08C9187FBABE0B1E08C9160
:1017900080F98C93A3E2B0E08C9186FBABE0B1E0E2
:1017A0008C9181F98C9304C0ABE0B1E083B18C9350
:1017B0005A9A8FEF84B90895000000000895439A63
:1017C000ACE0B1E08C9185FB0EF001C05E9A4298CE
:1017D0004198F2DF08954398ACE0B1E08C9185FB2D
:1017E0000EF001C05E9842984198E6DF0895439854
:1017F000ACE0B1E08C9185FB0EF001C05E98429A9E
:101800004198DADF08955B9AD7DF5B98D5DF0895BA
:101810005C98D2DF5C9AD0DF0895439884E086B963
:1018200084EF91E0A4D1FACF0895429888E086B978
:1018300084EF91E09CD1FACF08954398429AF894AE
:10184000FFCF08954298439A08955D9A5F9808954E
:10185000ACE0B1E08C9180FB0EF002C08FEF85B957
:101860000895ACE0B1E08C9183FB0EF402C038DF48
:1018700001C001D0089584E0809342018CE48093FC
:101880004301E9D080E08093420188E680934301E0
:10189000E2D08CE68093430161D080914401809333
:1018A0000501ACE0B1E08C9182FB0EF40CC08AE73C
:1018B00080934301D0D08EE7809343014FD0809135
:1018C000440180930601ACE0B1E08C9186FB0EF000
:1018D0000CC08AE680934301BED08EE6809343011C
:1018E0003DD0809144018093070188E780934301B4
:1018F000B2D08CE78093430131D0ACE0B1E08C9161
:1019000081FB0EF026C0809144018093050168940C
:10191000A5E0B1E08C9187F98C936894A5E0B1E0E3
:101920008C9186F98C938FEF80930B01A4E4B1E046
:101930008C9187FBABE0B1E08C9180F98C93A4E4AF
:10194000B1E08C9186FBABE0B1E08C9181F98C9396
:1019500004C08091440180930B01089543984298FC
:10196000BAD0A6E2B0E08C9181FBA4E4B1E08C9106
:1019700087F98C9388E08093450187E08093460146
:1019800080914501815080934501809146018150AD
:1019900080934601A5E4B1E08C91A2E4B1E009D1C5
:1019A000FED00C900822689409F4E894A8E2B0E014
:1019B0008C9183F98C93A5E4B1E08C91A3E4B1E020
:1019C000F8D0EDD00C900822689409F4E894A8E2CD
:1019D000B0E08C9182F98C937ED0A6E2B0E08C913D
:1019E00081FBA6E4B1E08C91A4E4B1E0E2D0D7D0D1
:1019F0000C9016F0092201C0082A0C9200914601B1
:101A0000003009F0BDCFA5E4B1E08C91A2E4B1E0D3
:101A1000D0D0C5D00C900822689409F4E894A8E2CC
:101A2000B0E08C9183F98C93A5E4B1E08C91A3E4B0
:101A3000B1E0BFD0B4D00C900822689409F4E894C7
:101A4000A8E2B0E08C9182F98C9345D043984298FB
:101A500042D041D00895439842983DD088E0809389
:101A6000450180914501815080934501A5E4B1E095
:101A70008C91A2E4B1E09DD092D00C9008226894A1
:101A800009F4E894A8E2B0E08C9183F98C93A5E482
:101A9000B1E08C91A3E4B1E08CD081D00C9008220D
:101AA000689409F4E894A8E2B0E08C9182F98C93F0
:101AB00012D000914501003009F0D3CF43984298ED
:101AC0000AD009D0089500000000A6E2B0E08C9191
:101AD00081FBDEF7089500000000409A000000003E
:101AE000409880E080930D01459A000000004598E1
:101AF00000000000ADE0B1E08C918F5F8C9300910D
:101B00000D01003109F0F0CF0895ACE0B1E08C9107
:101B100080FB0EF003C08FEF809342010895ED919A
:101B2000FC91EF5FFF4FFC93EE930895A8EAB4E0B9
:101B30008D91882311F00BD0FBCF08952CD0802DF0
:101B400011F005D0FBCF08958DE001D08AE0009020
:101B5000C00005FEFCCF8093C60008953197F1F7D1
:101B60000895689462F80895E89462F80895EF93F0
:101B7000FF93EE27E82BE92B31F0EAEFF0E0319705
:101B8000F1F70197D1F7FF91EF91089504D00D92ED
:101B90000020E1F70895C89531960020089591E05E
:101BA000882321F08894991F8A95E9F7892F9095C9
:101BB0000895883018F011968850FBCF0895882733
:101BC0009D91890F9923E1F70895000F111F221F9E
:101BD000331F089500951095209530950F5F1F4F86
:101BE0002F4F3F4F0895019110810EC00191119127
:101BF000219130810BC00191108117FF05C03FEF8B
:101C00002FEF04C0008111272227332737FF03C09D
:101C1000E1DF8DE28D93CF93DF93CF92DF92EF924E
:101C2000AA24BB24CC24DD24EE2440E2CAE0DD2734
:101C300055E093E38881890F87FD9F7083FD907F36
:101C4000891B89935A95A9F7C0DFAA1CBB1CCC1C21
:101C5000DD1CEE1C4A9551F7E894EFE0FF278291D6
:101C60000ED0EB30E0F71EF068948A2D0CD0882758
:101C70008D93EF90DF90CF90DF91CF910895982FC3
:101C8000829501D0892F8F70805D26F0803309F412
:101C9000089568948D93089541E003C042E001C027
:101CA00044E0E40F8827F81F8291982F829505D091
:101CB000892F03D04A95C1F707C08F708A3008F08A
:101CC000895F805D8D93089588278D930895F99994
:101CD000FECFE1BDF2BD3196089591E001C092E0E2
:101CE0007B3751F47FB7F894F2DF8D9180BDFA9A7B
:101CF000F99A9A95C9F77FBF7727089591E001C0B7
:101D000092E0E5DFF89A80B58D939A95D1F7089522
:101D1000DEDFF89A80B58D93882319F09A95C1F784
:101D20009D93089557656C636F6D65004156522011
:101D300041746D65676120667573656269742064BE
:101D40006F63746F722028485650502B485653507A
:101D5000292076657273696F6E20322E303800004C
:101D6000687474703A2F2F6469792E656C656B7492
:101D7000726F64612E65752F61746D6567612D6684
:101D80007573656269742D646F63746F722D687604
:101D900070700000526567697374657265642074C1
:101DA0006F200000557361676520696E20636F6D59
:101DB0006D65726369616C2F70726F6669742070F3
:101DC0007572706F736573206E6F7420616C6C6FC9
:101DD00077656400666F72206669726D77617265FF
:101DE00020757064617465733A20747769747465E2
:101DF000722E636F6D2F6D616E656B696E656E001F
:101E000048565350204D4F44450048565050204DA1
:101E10004F444500496E69742070726F6772616D3E
:101E20006D696E672E2E2E202000444F4E45000017
:101E300052656164207369676E61747572652E2ED8
:101E40002E202020200020002D204641494C21003A
:101E50004E6F206368697020696E20736F636B65D5
:101E600074206F72206368697020646F206E6F74D5
:101E700020726573706F6E64696E6700506C656187
:101E800073652074727920616761696E2E2E2E0051
:101E90005468616E6B20596F7500547279696E6772
:101EA0002054323331332070696E6F75742E2E00DA
:101EB000536561726368696E6720636869702E2E6E
:101EC0002E202020206E6F206E616D657320696E5C
:101ED00020386B4220766572000043686970206E7E
:101EE0006F7420737570706F727465642C20736FDB
:101EF0007272792E000043686970206572617365A3
:101F00002E2E2E2020202020202020004449534126
:101F10004C4C4F5745440000526561642066757310
:101F200065626974732E2E2E20202020204C3A00EA
:101F300020483A0020453A0053686F756C6420626F
:101F4000652E2E2E2020202020202020204C3A00FC
:101F50004C6F636B626974732E2E2E20202020201C
:101F6000202020202000454E41424C45442020287E
:101F700000002900506C6561736520616C6C6F779F
:101F800020746F20657261736520746865206368D2
:101F9000697020746F2064697361626C65206C6F76
:101FA000636B62697473000044495341424C454479
:101FB00020280000526577726974696E67200000FE
:101FC0002E2E2E202000566572696679696E672E66
:101FD0002E2E2020202020202020204C3A00202DB2
:101FE000204641494C210000202D204F4B2100006C
:0E1FF00020666978656420636869707300007C
:00000001FF
