:1000000019C018951895189518951895189518955C
:100010001895189518951895189518951895189578
:100020001895189518951895189518951895189568
:10003000189518958FEF8DBFC8EDE0EC4E2E84E03B
:100040008EBFD4E0F4E05F2EA89584B7082E877F9A
:1000500084BF88E199278093600090936000EEEF61
:10006000F3E0A0E0B1E088278D933197E9F786E0CF
:100070008093C40080E08093C50088E18093C10034
:1000800066248CE08093C40080E08093C5008FEFED
:1000900084B98EE287B980E188B98EEF8AB984E2AB
:1000A0008BB9ECE4FCE1C1DCC6DCE2E5FCE1BDDCE3
:1000B000C2DCAFE0B1E0EAE5FCE1DFDCAFE0B1E0FB
:1000C000AEDCB9DCAFE0B1E0F7DC082F083309F4AF
:1000D00005C080910D01826080930D01AFE0B1E019
:1000E000EEE8FCE1CADCAFE0B1E099DCA4DCAFE013
:1000F000B1E0E2DC082F0F3E09F405C080910D014C
:10010000826080930D01E2E0F0E0AEE0B1E08ADDD4
:10011000AEE0B1E08C9180958C93E4E0F0E0AFE04C
:10012000B1E094E289DD40910E01AFE0B1E0C4DCC2
:10013000082F041709F008C0E2ECFCE176DCAFE020
:10014000B1E06DDC78DC15C0AFE0B1E0E2EDFCE1E0
:1001500094DCAFE0B1E063DC6EDCAFE0B1E0ACDCDE
:10016000082F053009F405C080910D01826080934D
:100170000D0161DC80910D01806180930D01529829
:100180005B9AECDA4A9905C080910D018F7E8093CD
:100190000D015B98E3DA4A9B05C080910D018F7ECB
:1001A00080930D01529AADE0B1E08C9184FB0EF08A
:1001B00001C0389A489B05C080910D0181608093F1
:1001C0000D01ADE0B1E08C9180FB0EF004C0E2E0E7
:1001D000FDE12BDC03C0EAE0FDE127DC5D980000D7
:1001E000000000000000000000000000000000000F
:1001F000000000005F9AADE0B1E08C9184FB0EF44A
:100200000EC0E6E1FDE111DCD0DACFDACEDACDDAEC
:10021000CCDACBDACADAC9DAC8DAC7DA07C0ECE175
:10022000FDE103DC5C98549841983998E2E2FDE1E5
:10023000FCDB01DC00DCE8E2FDE1F7DB00000000B4
:1002400000000000000000000000000000000000AE
:1002500000005C9AADE0B1E08C9184FB0EF405C027
:10026000A6E2B0E08C9180FBDEF7EEE3FDE1DDDBA2
:10027000E2DBA0DAE4E4FDE1D8DBADE0B1E08C91B3
:1002800084FB0EF445C06DDA419888E085B98DDABB
:1002900081E090E0A0E0B1E08D939C93A0E0B1E01C
:1002A0000D911C91033050E0150710F009F02FC09C
:1002B00064DA41980091000141E0041B05B975DA48
:1002C00080E084B980E085B95A984198A0E0B1E017
:1002D000AD90BC90A1E0B1E0AA0DBB1D83B18C93A1
:1002E0005A9A8FEF84B9A8EAB4E0E0E0F1E0A19077
:1002F000B080E1E0F1E0EA0DFB1D4BDC8EDBEAE5CE
:10030000FDE193DBA0E0B1E05FDB08F4C7CF4CC0B8
:1003100088E0809344018CE480934501F1DA81E028
:1003200090E0A0E0B1E08D939C93A0E0B1E00D914E
:100330001C91033050E0150710F009F035C0009112
:10034000000141E0041BA4E4B1E00C938CE0809335
:100350004501D6DA80E08093440188E68093450128
:10036000CFDA8CE6809345014EDA80914601A0E019
:10037000B1E0AD90BC90A1E0B1E0AA0DBB1D8C93A3
:10038000A8EAB4E0E0E0F1E0A190B080E1E0F1E0C3
:10039000EA0DFB1DFEDB41DBEAE5FDE146DBA0E00B
:1003A000B1E012DB08F4C1CF009102010E3181E00F
:1003B00009F480E08F9300910301003981E008F097
:1003C00080E09F91892B8F9300910301083980E091
:1003D00010F009F081E09F91892B882309F468C00F
:1003E000ECE5FDE122DB27DBADE0B1E08C9185FBA4
:1003F00081E00EF080E08F93ADE0B1E08C9184FB62
:1004000081E00EF080E09F91892B882309F434C0AD
:10041000ADE0B1E08C9180FB0EF01DC0E4E6FDE1A3
:1004200004DB34E0D8DAA8EAB4E0CBDBA2E4B1E044
:100430000D931C938EE180930201A2E4B1E011962A
:100440008C91A3E0B1E08C93A2E4B1E08C91A4E0A4
:10045000B1E08C9311C0EFDAECE7FDE1E6DAEBDA1C
:10046000EADAEAEAFDE1E1DAE6DAE5DAEEEBFDE125
:10047000DCDAE1DABCD9B3D9ADE0B1E08C9184FB30
:1004800081E00EF480E08F93ADE0B1E08C9185FBCC
:1004900081E00EF480E09F918923882309F408C04D
:1004A000E8ECFDE1C2DA80910D01806280930D01DC
:1004B000009102010E3181E009F080E08F930091FC
:1004C00003010F3880E010F009F081E09F9189234B
:1004D0008F9300910301093981E008F080E09F913A
:1004E0008923882309F4C9CEA6DAEEEDFDE19DDA71
:1004F000A2DA00910301003909F02DC00091040136
:10050000013009F009C08FED8093080180910D0141
:10051000846080930D011EC0043009F004C08CEF8C
:100520008093080117C0053009F004C082E580936C
:10053000080110C0063009F004C08CE58093080162
:1005400009C0073009F006C08AE6809308018FEFE2
:10055000809309010BC5013909F079C000910401AC
:10056000013009F009C08FED8093080180910D01E1
:10057000846080930D016AC0023009F009C08EEDDD
:100580008093080180910D01846080930D015EC00D
:10059000033009F009C08EED8093080180910D01B0
:1005A000846080930D0152C0053009F004C08AEDCB
:1005B000809308014BC0063009F004C08EED809393
:1005C000080144C0073009F004C082EF809308019D
:1005D0003DC0083009F00AC082E6809308018FED23
:1005E000809309018FEF80930A0130C0093009F030
:1005F00007C081EE8093080187EF8093090126C030
:100600000A3009F00AC084E6809308018FED8093D8
:1006100009018FEF80930A0119C00B3009F00AC05D
:1006200082E6809308018FED809309018FEF80931C
:100630000A010CC00C3009F009C082E68093080161
:100640008FED809309018FEF80930A018FC40239E7
:1006500009F089C000910401013009F009C08FED53
:100660008093080180910D01846080930D017AC010
:10067000023009F009C08FED8093080180910D01CF
:10068000846080930D016EC0033009F004C08AEDD0
:100690008093080167C0053009F00AC082E68093A4
:1006A00008018FED809309018FEF80930A015AC0F2
:1006B000063009F00AC082E6809308018FED80932E
:1006C00009018FEF80930A014DC0073009F00AC07D
:1006D00082E6809308018FED809309018FEF80936C
:1006E0000A0140C0083009F00AC082E68093080180
:1006F0008FED809309018FEF80930A0133C0093099
:1007000009F00AC08EE6809308018FED80930901FD
:100710008FEF80930A0126C00A3009F00AC082E6F2
:10072000809308018FED809309018FEF80930A0178
:1007300019C00C3009F00AC082E6809308018FEDE1
:10074000809309018FEF80930A010CC00D3009F0EE
:1007500009C084E6809308018FED809309018FEF33
:1007600080930A0103C4033909F0C7C00091040152
:10077000013009F009C08FED8093080180910D01CF
:10078000846080930D01B8C0033009F009C08FED7B
:100790008093080180910D01846080930D01ACC0AD
:1007A000063009F007C081EE8093080189ED80933F
:1007B0000901A2C0073009F007C081EE809308014B
:1007C00089ED8093090198C0083009F007C081EED7
:1007D0008093080189ED809309018EC00A3009F0E9
:1007E0000AC082E6809308018FED8093090189EFAA
:1007F00080930A0181C00B3009F00AC082E6809321
:1008000008018FED809309018FEF80930A0174C076
:100810000C3009F00AC082E6809308018FED8093C6
:1008200009018FEF80930A0167C00D3009F00AC0FB
:1008300082E6809308018FED809309018FEF80930A
:100840000A015AC00F3009F00AC082E680930801FD
:100850008FED8093090189EF80930A014DC001312A
:1008600009F00AC08EE6809308018FED809309019C
:100870008FEF80930A0140C0013809F00AC082E678
:10088000809308018FED8093090189EF80930A011D
:1008900033C0033809F00AC082E6809308018FED67
:1008A0008093090189EF80930A0126C0073809F077
:1008B0000AC082E6809308018FED809309018FEFD3
:1008C00080930A0119C0083809F00AC082E68093B3
:1008D000080189ED809309018DEF80930A010CC016
:1008E000093809F009C08EE58093080189ED8093ED
:1008F000090184EF80930A0139C3043909F0C6C0A5
:1009000000910401013009F004C08AED80930801D0
:10091000BCC0023009F007C082ED809308018FEF60
:1009200080930901B2C0033009F007C081EE8093C3
:10093000080189E980930901A8C0043009F00AC0C0
:1009400082E68093080189E9809309018FEF809303
:100950000A019BC0053009F00AC082E680930801B5
:1009600089E9809309018FEF80930A018EC00630D8
:1009700009F00AC082E6809308018FED8093090197
:1009800089EF80930A0181C0073009F00AC082E62E
:100990008093080189E9809309018FEF80930A0110
:1009A00074C00F3009F00AC082E68093080189E91B
:1009B000809309018FEF80930A0167C00A3009F024
:1009C0000AC082E68093080189E9809309018FEFCC
:1009D00080930A015AC00B3009F00AC082E6809366
:1009E00008018FED8093090189EF80930A014DC0C2
:1009F000023809F00AC08EE58093080189ED8093E2
:100A0000090184EF80930A0140C0033809F00AC04D
:100A100082E6809308018FED8093090189EF80932E
:100A20000A0133C0043809F00AC082E68093080145
:100A300089ED809309018FEF80930A0126C0073862
:100A400009F00AC082E6809308018FED80930901C6
:100A50008FEF80930A0119C0083809F00AC08EE5AB
:100A60008093080181E98093090183EF80930A0153
:100A70000CC0093809F009C08EE58093080189EDA2
:100A80008093090184EF80930A0170C2053909F04F
:100A90000DC100910401013009F007C081EF80937E
:100AA000080189E98093090100C1023009F007C0FB
:100AB00081EE8093080189E980930901F6C0033033
:100AC00009F00AC082E68093080189E98093090150
:100AD0008FEF80930A01E9C0043009F00AC082E672
:100AE0008093080189E9809309018FEF80930A01BF
:100AF000DCC0053009F00AC082E68093080189E96C
:100B0000809309018FEF80930A01CFC0063009F06E
:100B10000AC082E68093080189E9809309018FEF7A
:100B200080930A01C2C0083009F00AC082E68093AF
:100B3000080189E9809309018FEF80930A01B5C00C
:100B4000013109F00AC082E68093080189E98093A7
:100B500009018FEF80930A01A8C0043109F00AC08F
:100B600082E68093080189ED809309018FEF8093DD
:100B70000A019BC0053109F00AC082E68093080192
:100B800089E9809309018FEF80930A018EC00B30B1
:100B900009F00AC082E68093080189E9809309017F
:100BA0008FEF80930A0181C00C3009F00AC082E601
:100BB0008093080189E9809309018FEF80930A01EE
:100BC00074C00D3009F00AC082E68093080189E9FB
:100BD000809309018FEF80930A0167C00E3009F0FE
:100BE0000AC082E68093080189E9809309018FEFAA
:100BF00080930A015AC00F3009F00AC082E6809340
:100C0000080189ED809309018FEF80930A014DC09F
:100C10000A3809F00AC08EE58093080189ED8093B7
:100C2000090184EF80930A0140C0013809F00AC02D
:100C300082E68093080189E9809309018FEF809310
:100C40000A0133C0043809F00AC082E68093080123
:100C500089ED809309018FEF80930A0126C0063841
:100C600009F00AC082E68093080189ED80930901AA
:100C70008FEF80930A0119C0073809F00AC08EE58A
:100C80008093080181E98093090183EF80930A0131
:100C90000CC0083809F009C08EE58093080189E985
:100CA0008093090183EF80930A0160C1063909F03E
:100CB000D2C000910401023009F00AC081EE809395
:100CC000080189E9809309018DEF80930A01C2C070
:100CD000033009F00AC082E68093080189E9809315
:100CE00009018FEF80930A01B5C0043009F00AC0F2
:100CF00082E68093080189E9809309018FEF809350
:100D00000A01A8C0053009F00AC082E680930801F4
:100D100089E9809309018FEF80930A019BC0063017
:100D200009F00AC082E68093080189E980930901ED
:100D30008FEF80930A018EC0083009F00AC082E666
:100D40008093080189E9809309018FEF80930A015C
:100D500081C0093009F00AC082E68093080189E960
:100D6000809309018FEF80930A0174C00A3009F063
:100D70000AC082E68093080189E9809309018FEF18
:100D800080930A0167C00B3009F00AC082E68093A5
:100D9000080189E9809309018FEF80930A015AC005
:100DA0000C3009F00AC082E68093080189E980933B
:100DB00009018FEF80930A014DC00D3009F00AC080
:100DC00082E68093080189E9809309018FEF80937F
:100DD0000A0140C00E3009F00AC082E68093080183
:100DE00089E9809309018FEF80930A0133C00138AC
:100DF00009F00AC082E68093080189E9809309011D
:100E00008FEF80930A0126C0023809F00AC08EE5F0
:100E1000809308018BE98093090183EF80930A0195
:100E200019C0043809F00AC082E68093080189EDF0
:100E3000809309018FEF80930A010CC0063809F0F6
:100E400009C082E68093080189ED809309018FEF44
:100E500080930A018BC0073909F06AC00091040130
:100E6000013009F00AC081EC809308018FEF809374
:100E700009018FEF80930A015AC0023009F00AC0BD
:100E800081EE8093080189E9809309018DEF8093B9
:100E90000A014DC0033009F00AC082E680930801C0
:100EA00089E9809309018FEF80930A0140C00430E3
:100EB00009F00AC082E68093080189E9809309015C
:100EC0008FEF80930A0133C0053009F00AC082E633
:100ED0008093080189E9809309018FEF80930A01CB
:100EE00026C0063009F00AC082E68093080189E92D
:100EF000809309018FEF80930A0119C0013809F02E
:100F00000AC082E68093080189E9809309018FEF86
:100F100080930A010CC0023809F009C08EE5809365
:100F2000080189E98093090183EF80930A011EC0BB
:100F3000083909F01BC000910401013009F00AC012
:100F400082E68093080189E9809309018FEF8093FD
:100F50000A010CC0023009F009C082E68093080142
:100F600089E9809309018FEF80930A0100910801BC
:100F7000003081E009F080E08F930091090100309A
:100F800081E009F080E09F918923882309F40CC057
:100F900052D5E8E0FEE149D54ED54DD5EEEBFDE169
:100FA00044D549D524D41BD480910D01806480930D
:100FB0000D0100910A01003009F005C080910D017A
:100FC0008F7B80930D0100910901003009F00AC068
:100FD00080910D01886080930D0180910D018F7BC0
:100FE00080930D01ADE0B1E08C9180FB0EF401C067
:100FF000FDD030D1ECE1FEE118D5A8EAB4E0E5E09F
:10100000F1E0C7D50AD5E4E3FEE10FD5A8EAB4E0E4
:10101000E6E0F1E0BED501D5E8E3FEE106D5A8EAB9
:10102000B4E0E7E0F1E0B5D5F8D405D5ECE3FEE1B6
:10103000FCD4A8EAB4E0E8E0F1E0ABD5EED4E4E318
:10104000FEE1F3D4A8EAB4E0E9E0F1E0A2D5E5D40A
:10105000E8E3FEE1EAD4A8EAB4E0EAE0F1E099D5F9
:10106000DCD4E9D4E4E5FEE1E0D4ABE0B1E00C91FE
:1010700000FB81E00EF480E08F93ABE0B1E00C91D7
:1010800001FB81E00EF480E09F91892B882309F415
:1010900020C0EAE6FEE1C9D4A8EAB4E0EBE0F1E062
:1010A00078D5BBD4E6E7FEE1C0D4C5D4ADE0B1E06D
:1010B0008C9180FB0EF40CC0BED4E8E7FEE1B5D401
:1010C000BAD4B9D4EEEBFDE1B0D4B5D490D37FD38C
:1010D0000DC0ECEAFEE1A9D4A8EAB4E0EBE0F1E04F
:1010E00058D59BD4E6E7FEE1A0D4A5D4ADE0B1E0AD
:1010F0008C9180FB0EF076C09ED4E8EBFEE195D497
:101100009AD4E8ECFEE191D496D4ECEDFEE18DD4D6
:1011100092D4E0EFFEE189D48ED4E2E0FFE185D401
:101120008AD4E2E1FFE181D486D485D46FD4082F3C
:10113000013309F003C072D137D252C0023309F033
:1011400030C0EAE1FFE171D432E045D4A8EAB4E06E
:1011500038D5A8E0B1E00C93ADE0B1E08C9183FB11
:101160000EF40BC0E0E3FFE160D432E034D4A8EA2F
:10117000B4E027D5A9E0B1E00C93ADE0B1E08C91EB
:1011800086FB0EF00BC0E6E4FFE14FD432E023D43F
:10119000A8EAB4E016D5AAE0B1E00C933FD104D29E
:1011A0001FC0033309F00DC0ECE5FFE13ED432E08F
:1011B00012D4A8EAB4E005D5ACE0B1E00C938AD231
:1011C0000FC0043309F002C011D00AC0053309F082
:1011D00007C00DD3EEEBFDE128D42DD4F894FFCF5A
:1011E0008BCF02C01BD1E0D1F894FFCFE2E7FFE143
:1011F0001CD4349B05C0E8E8FFE117D41CD429C0F7
:10120000ADE0B1E08C9184FB0EF40CC0AAD2419801
:1012100080E885B9CAD2CED2A6E2B0E08C9180FB3C
:10122000DEF713C080E8809344018CE4809345018D
:1012300067D380E08093440184E68093450160D3C6
:101240008CE6809345015CD393D3EEE3FDE1EDD3CF
:10125000F2D30895ADE0B1E08C9184FB0EF46BC045
:1012600080D284E085B9A1D280E084B980E085B9DC
:1012700075D25A9841985E9871D2A5E0B1E083B1D9
:101280008C935A9AADE0B1E08C9183FB0EF40AC0C6
:1012900065D25A98419A5E9A61D2A6E0B1E083B1D4
:1012A0008C935A9AADE0B1E08C9186FB0EF00AC0A7
:1012B00055D25A9841985E9A51D2A7E0B1E083B1D5
:1012C0008C935A9A4BD25A98419A5E9847D2ADE085
:1012D000B1E08C9182FB0EF026C0A5E0B1E083B1B5
:1012E0008C936894A5E0B1E08C9187F98C93689415
:1012F000A5E0B1E08C9186F98C938FEF80930B0180
:10130000A3E2B0E08C9187FBABE0B1E08C9180F977
:101310008C93A3E2B0E08C9186FBABE0B1E08C91C2
:1013200081F98C9304C0ABE0B1E083B18C935A9AFD
:101330008FEF84B972C084E0809344018CE4809381
:101340004501DED280E08093440188E68093450128
:10135000D7D28CE68093450156D280914601809386
:101360000501ADE0B1E08C9183FB0EF40CC08AE77F
:1013700080934501C5D28EE78093450144D2809188
:10138000460180930601ADE0B1E08C9186FB0EF042
:101390000CC08AE680934501B3D28EE68093450166
:1013A00032D2809146018093070188E780934501FE
:1013B000A7D28CE78093450126D2ADE0B1E08C91B5
:1013C00082FB0EF026C0809146018093050168944F
:1013D000A5E0B1E08C9187F98C936894A5E0B1E029
:1013E0008C9186F98C938FEF80930B01A6E4B1E08A
:1013F0008C9187FBABE0B1E08C9180F98C93A6E4F3
:10140000B1E08C9186FBABE0B1E08C9181F98C93DB
:1014100004C08091460180930B010895E4E9FFE147
:1014200004D3A8EAB4E0E8E0F1E0B3D3F6D2EAE509
:10143000FDE1FBD2A8EAB4E0E9E0F1E0AAD3EDD205
:10144000EAE5FDE1F2D2A8EAB4E0EAE0F1E0A1D3F6
:10145000E4D2EEE9FFE1E9D2ADE0B1E08C9184FBAA
:101460000EF44BC07ED180E485B99FD192D1A8E023
:10147000B1E08C9185B9BED198D141985E989AD14E
:101480006DD1A6E2B0E08C9180FBDEF7ADE0B1E07B
:101490008C9183FB0EF414C064D180E485B985D1AE
:1014A00078D1A9E0B1E08C9185B9A4D17ED1419ADF
:1014B0005E9880D153D1A6E2B0E08C9180FBDEF73C
:1014C000ADE0B1E08C9186FB0EF014C04AD180E40F
:1014D00085B96BD15ED1AAE0B1E08C9185B98AD192
:1014E00064D141985E9A66D139D1A6E2B0E08C9180
:1014F00080FBDEF741985E9852C080E480934401FF
:101500008CE480934501FCD18091080180934401D3
:1015100051D28CE280934501F3D180E08093440165
:1015200084E680934501ECD18CE680934501E8D1B7
:101530001FD2ADE0B1E08C9183FB0EF415C0809119
:1015400009018093440136D28CE280934501D8D1C1
:1015500080E08093440184E780934501D1D18CE7FA
:1015600080934501CDD104D2ADE0B1E08C9186FBF2
:101570000EF015C080910A01809344011BD28CE2C9
:1015800080934501BDD180E08093440186E680933D
:101590004501B6D18EE680934501B2D1E9D1EEE3A3
:1015A000FDE143D248D2089555DEE4EAFFE13DD2A1
:1015B000A8EAB4E0E5E0F1E0ECD22FD2E4E3FEE10A
:1015C00034D2A8EAB4E0E6E0F1E0E3D226D2E8E3E0
:1015D000FEE12BD2A8EAB4E0E7E0F1E0DAD21DD2D6
:1015E00080910D018F7780930D014091080100914A
:1015F0000501041709F405C080910D0180688093EE
:101600000D01ADE0B1E08C9183FB0EF40CC0409174
:10161000090100910601041709F405C080910D012C
:10162000806880930D01ADE0B1E08C9186FB0EF0F7
:101630000CC040910A0100910701041709F405C08C
:1016400080910D01806880930D01ADE0B1E08C9137
:1016500087FB0EF015C0ECE5FDE1E7D1ECD1EAEA3D
:10166000FDE1E3D1E8D1ADE0B1E08C9180FB0EF477
:1016700006C0EEEBFDE1D9D1DED1B9D0A0D029C0B2
:10168000ECEBFFE1D2D1D7D1EEEFF1E0A0E0B1E099
:10169000CBD2A0E0B1E098D1EEEFF1E0A0E0B1E074
:1016A0007BE7B1D2A8EAB4E0E0E0F1E019D2B5D12D
:1016B000E4ECFFE1BAD1BFD1BED1ADE0B1E08C9195
:1016C00080FB0EF406C0EEEBFDE1AFD1B4D18FD0BC
:1016D0008BD00895E2EDFFE1A8D1A8EAB4E0ECE0F8
:1016E000F1E057D29AD1ECEDFFE19FD1ADE0B1E04E
:1016F0008C9184FB0EF412C034D080E285B955D0B1
:1017000048D0ACE0B1E08C9185B94FD053D026D011
:10171000A6E2B0E08C9180FBDEF71BC080E28093F4
:1017200044018CE480934501EBD080910C018093BF
:1017300044018CE280934501E3D080E08093440132
:1017400084E680934501DCD08CE680934501D8D0B7
:101750000FD1EEE3FDE169D16ED1089500000000E4
:101760000895439AADE0B1E08C9185FB0EF001C085
:101770005E9A42984198F2DF08954398ADE0B1E057
:101780008C9185FB0EF001C05E9842984198E6DF8F
:1017900008954398ADE0B1E08C9185FB0EF001C057
:1017A0005E98429A4198DADF08955B9AD7DF5B989A
:1017B000D5DF08955C98D2DF5C9AD0DF0895439816
:1017C00084E086B984EF91E049D1FACF0895429838
:1017D00088E086B984EF91E041D1FACF089543982B
:1017E000429AF894FFCF08954298439A08955D9ADB
:1017F0005F980895ADE0B1E08C9181FB0EF002C0DE
:101800008FEF85B9089543984298BAD0A6E2B0E028
:101810008C9181FBA6E4B1E08C9187F98C9388E0F0
:101820008093470187E08093480180914701815070
:101830008093470180914801815080934801A7E43B
:10184000B1E08C91A4E4B1E031D126D10C90082212
:10185000689409F4E894A8E2B0E08C9183F98C9341
:10186000A7E4B1E08C91A5E4B1E020D115D10C90B2
:101870000822689409F4E894A8E2B0E08C9182F917
:101880008C937ED0A6E2B0E08C9181FBA8E4B1E01D
:101890008C91A6E4B1E00AD1FFD00C9016F0092299
:1018A00001C0082A0C9200914801003009F0BDCF18
:1018B000A7E4B1E08C91A4E4B1E0F8D0EDD00C90B5
:1018C0000822689409F4E894A8E2B0E08C9183F9C6
:1018D0008C93A7E4B1E08C91A5E4B1E0E7D0DCD033
:1018E0000C900822689409F4E894A8E2B0E08C9186
:1018F00082F98C9345D04398429842D041D00895C4
:10190000439842983DD088E08093470180914701F9
:10191000815080934701A7E4B1E08C91A4E4B1E049
:10192000C5D0BAD00C900822689409F4E894A8E2D3
:10193000B0E08C9183F98C93A7E4B1E08C91A5E49D
:10194000B1E0B4D0A9D00C900822689409F4E894CE
:10195000A8E2B0E08C9182F98C9312D000914701FB
:10196000003009F0D3CF439842980AD009D00895A7
:1019700000000000A6E2B0E08C9181FBDEF7089544
:1019800000000000409A00000000409880E0809332
:101990004901459A00000000459800000000A9E4B4
:1019A000B1E08C918F5F8C9300914901003109F077
:1019B000F0CF0895ADE0B1E08C9181FB0EF003C053
:1019C0008FEF809344010895ED91FC91EF5FFF4FFD
:1019D000FC93EE930895A8EAB4E018D0883091F013
:1019E0008D3039F03323C9F38D933A9563FE26D0B9
:1019F000F4CF63FC04C08DE021D08AE01FD088279B
:101A00008C9308951BD011973395E7CF8091C00038
:101A100087FFFCCF8091C6000895A8EAB4E08D91BD
:101A2000882311F00BD0FBCF08952CD0802D11F01E
:101A300005D0FBCF08958DE001D08AE00090C00072
:101A400005FEFCCF8093C60008953197F1F7089505
:101A5000689462F80895E89462F80895EF93FF930C
:101A6000EE27E82BE92B31F0EAEFF0E03197F1F7C0
:101A70000197D1F7FF91EF91089504D00D920020C6
:101A8000E1F70895C895319600200895813618F041
:101A90008B3708F48F7D089591E0882321F0889496
:101AA000991F8A95E9F7892F90950895883018F045
:101AB00011968850FBCF089588279D91890F99230F
:101AC000E1F70895000F111F221F331F089500959D
:101AD0001095209530950F5F1F4F2F4F3F4F089562
:101AE000019110810EC001911191219130810BC0A3
:101AF0000191108117FF05C03FEF2FEF04C0008157
:101B000011272227332737FF03C0E1DF8DE28D93B2
:101B1000CF93DF93CF92DF92EF92AA24BB24CC2401
:101B2000DD24EE2440E2CAE0DD2755E093E388811E
:101B3000890F87FD9F7083FD907F891B89935A953C
:101B4000A9F7C0DFAA1CBB1CCC1CDD1CEE1C4A95EF
:101B500051F7E894EFE0FF2782910ED0EB30E0F7E9
:101B60001EF068948A2D0CD088278D93EF90DF901B
:101B7000CF90DF91CF910895982F829501D0892F32
:101B80008F70805D26F0803309F4089568948D93FA
:101B9000089541E003C042E001C044E0E40F88271B
:101BA000F81F8291982F829505D0892F03D04A95EE
:101BB000C1F71EC08F708A3008F0895F805D8D93F9
:101BC000089500271127222733278D91882379F044
:101BD00079DF78DF77DF76DF59DF815408F4895FBA
:101BE000865F080F8827181F281F381FEECF08951B
:101BF00088278D930895F999FECFE1BDF2BD319606
:101C0000089591E001C092E07B3751F47FB7F894DA
:101C1000F2DF8D9180BDFA9AF99A9A95C9F77FBF44
:101C20007727089591E001C092E0E5DFF89A80B54A
:101C30008D939A95D1F70895DEDFF89A80B58D934C
:101C4000882319F09A95C1F79D9308951B5B324A3A
:101C5000000057656C636F6D6500415652204174FA
:101C60006D656761206675736562697420646F6372
:101C7000746F722028485650502B485653502920D4
:101C800076657273696F6E20322E31310000687490
:101C900074703A2F2F6469792E656C656B74726F5E
:101CA00064612E65752F61746D6567612D6675734E
:101CB000656269742D646F63746F722D68767070DD
:101CC00000005265676973746572656420746F20E3
:101CD0000000557361676520696E20636F6D6D65E7
:101CE000726369616C2F70726F66697420707572AF
:101CF000706F736573206E6F7420616C6C6F7765A5
:101D000064004D414E55414C20004155544F4D41CA
:101D10005449432000004856505000004856535044
:101D20000000204D4F444500496E69742070726F69
:101D30006772616D6D696E672E2E2E202000444FF4
:101D40004E45000052656164207369676E61747569
:101D500072652E2E2E202020200020002D204641AE
:101D6000494C210054797065207468652073696757
:101D70006E61747572653A20203145004E6F2063A4
:101D800068697020696E20736F636B6574206F7271
:101D9000206368697020646F6573206E6F742072B1
:101DA0006573706F6E64696E6700506C6561736512
:101DB0002074727920616761696E2E2E2E0054683E
:101DC000616E6B20596F7500547279696E6720548B
:101DD000323331332070696E6F75742E2E00536567
:101DE00061726368696E6720636869702E2E2E20A9
:101DF0002020206E6F206E616D657320696E203823
:101E00006B4220766572000043686970206E6F74C3
:101E100020737570706F727465642E005265616412
:101E20002066757365626974732E2E2E2020202023
:101E3000204C3A0020483A0020453A0053686F751C
:101E40006C642062652E2E2E202020202020202051
:101E5000204C3A004C6F636B626974732E2E2E20F7
:101E600020202020202020202000454E41424C45AB
:101E70004420202800002900506C656173652061B2
:101E80006C6C6F7720746F20657261736520746865
:101E900065206368697020746F2064697361626C87
:101EA00065206C6F636B6269747300004449534131
:101EB000424C4544202800005768617420746F200C
:101EC000646F3F2E2E2E000031202D207772697412
:101ED00065206675736562697473000032202D2079
:101EE0006D6F6469667920667573656269747300E5
:101EF00033202D20736574206C6F636B626974737B
:101F0000000034202D20636869702065726173655C
:101F1000000035202D20656E6400547970652066C0
:101F2000757365204C4F573A202020202020200038
:101F300054797065206675736520484947483A2092
:101F4000202020202000547970652066757365205C
:101F5000455854454E4445443A2020005479706514
:101F6000206C6F636B3A202020202020202020202E
:101F70002000436869702065726173652E2E2E20E3
:101F80002020202020202000444953414C4C4F5712
:101F90004544000057726974696E672000002E2E58
:101FA0002E202000566572696679696E672E2E2E86
:101FB0002020202020202020204C3A00202D204FBF
:101FC0004B2100002066697865642063686970733E
:101FD00000004C6F636B696E672000002E2E2E2070
:081FE000202020202020200019
:00000001FF
