:1000000019C018951895189518951895189518955C
:100010001895189518951895189518951895189578
:100020001895189518951895189518951895189568
:10003000189518958FEF8DBFC8EDE0EC4E2E84E03B
:100040008EBFD4E0F4E05F2EA89584B7082E877F9A
:1000500084BF88E199278093600090936000EEEF61
:10006000F3E0A0E0B1E088278D933197E9F786E0CF
:100070008093C40080E08093C50088E18093C10034
:1000800066248CE08093C40080E08093C5008FEFED
:1000900084B98EE287B980E188B98FEF8AB987E2A7
:1000A0008BB9ABDBAADBA9DBE6EDF9E1A0DBA5DBD5
:1000B000AFE0B1E0EEEDF9E1C2DBAFE0B1E091DB42
:1000C0009CDBAFE0B1E0D4DB082F0F3309F405C0AF
:1000D00080910C01816080930C01AFE0B1E0E2E11E
:1000E000FAE1ADDBAFE0B1E07CDB87DBAFE0B1E0B4
:1000F000BFDB082F0F3E09F405C080910C01816021
:1001000080930C01E2E0F0E0AEE0B1E050DCAEE064
:10011000B1E08C9180958C93E4E0F0E0AFE0B1E049
:1001200094E24FDC40910E01AFE0B1E0A1DB082F7B
:10013000041709F008C0E6E4FAE159DBAFE0B1E0EA
:1001400050DB5BDB15C0AFE0B1E0E6E5FAE177DB61
:10015000AFE0B1E046DB51DBAFE0B1E089DB082F77
:10016000053009F405C080910C01816080930C0179
:10017000E6E8FAE13CDB41DB40DB80910C01886082
:1001800080930C0152985B9A70D94A9905C080916E
:100190000C01877F80930C015B9867D94A9B05C04F
:1001A00080910C01877F80930C01529AACE0B1E002
:1001B0008C9183FB0EF006C0E2EBFAE118DB1DDB4D
:1001C000389A04C0ECEBFAE112DB17DB16DB5D9822
:1001D000000000000000000000000000000000001F
:1001E0000000000000005F9AACE0B1E08C9183FB5E
:1001F0000EF40BC061D960D95FD95ED95DD95CD9E5
:100200005BD95AD959D958D904C05C9854984198A7
:100210003998E6ECFAE1EBDA00000000000000009B
:1002200000000000000000000000000000005C9AD8
:10023000ACE0B1E08C9183FB0EF405C0A6E2B0E027
:100240008C9180FBDEF7ECEDFAE1D1DAD6DA39D920
:10025000E2EEFAE1CCDAACE0B1E08C9183FB0EF493
:1002600048C006D9419888E085B9FFD825D981E0F2
:1002700090E0A0E0B1E08D939C93A0E0B1E00D91FF
:100280001C91033050E0150710F009F031C0FCD884
:1002900041980091000141E0041B05B9E6D80CD952
:1002A00080E084B980E085B95A984198DED8A0E012
:1002B000B1E0AD90BC90A1E0B1E0AA0DBB1D83B14F
:1002C0008C935A9A8FEF84B9A8EAB4E0E0E0F1E0A9
:1002D000A190B080E1E0F1E0EA0DFB1D36DB7FDAB2
:1002E000E8EFFAE184DAA0E0B1E072DA08F4C5CF11
:1002F0004CC088E0809342018CE48093430104DA8F
:1003000081E090E0A0E0B1E08D939C93A0E0B1E0AB
:100310000D911C91033050E0150710F009F035C025
:100320000091000141E0041BA2E4B1E00C938CE0D9
:1003300080934301E9D980E08093420188E680936D
:100340004301E2D98CE68093430161D98091440155
:10035000A0E0B1E0AD90BC90A1E0B1E0AA0DBB1D62
:100360008C93A8EAB4E0E0E0F1E0A190B080E1E095
:10037000F1E0EA0DFB1DE9DA32DAE8EFFAE137DA0B
:10038000A0E0B1E025DA08F4C1CF009102010E31FE
:1003900081E009F480E08F9300910301003981E04E
:1003A00008F080E09F91892B8F9300910301083919
:1003B00080E010F009F081E09F91892B882309F4F7
:1003C0003AC0ACE0B1E08C9185FB81E00EF080E0BA
:1003D0008F93ACE0B1E08C9183FB81E00EF080E084
:1003E0009F91892B882309F414C0EAEFFAE1FFD921
:1003F00004DA03DAE2E0FBE1FAD9FFD9E0E3FBE15A
:10040000F6D9FBD9FAD9E4E4FBE1F1D9F6D976D8EB
:100410006DD8ACE0B1E08C9183FB0EF40CC0EAEF38
:10042000FAE1E5D9EAD9EEE4FBE1E1D980910C01EA
:10043000806280930C01009102010E3181E009F08D
:1004400080E08F93009103010F3880E010F009F0F5
:1004500081E09F9189238F9300910301093981E005
:1004600008F080E09F918923882309F4F4CEC5D950
:10047000E4E6FBE1BCD9C1D900910301003909F0E0
:100480002DC000910401013009F009C08FED809367
:10049000080180910C01826080930C011EC0043021
:1004A00009F004C08CEF8093080117C0053009F0F3
:1004B00004C082E58093080110C0063009F004C032
:1004C0008CE58093080109C0073009F006C08AE670
:1004D000809308018FEF8093090129C5013909F044
:1004E00079C000910401013009F009C08FED8093BB
:1004F000080180910C01826080930C016AC0023077
:1005000009F009C08EED8093080180910C01826092
:1005100080930C015EC0033009F009C08EED80931A
:10052000080180910C01826080930C0152C005305B
:1005300009F004C08AED809308014BC0063009F031
:1005400004C08EED8093080144C0073009F004C058
:1005500082EF809308013DC0083009F00AC082E6AE
:10056000809308018FED809309018FEF80930A013A
:1005700030C0093009F007C081EE8093080187EF91
:100580008093090126C00A3009F00AC084E68093EE
:1005900008018FED809309018FEF80930A0119C044
:1005A0000B3009F00AC082E6809308018FED80933A
:1005B00009018FEF80930A010CC00C3009F009C0CB
:1005C00082E6809308018FED809309018FEF80937D
:1005D0000A01ADC4023909F089C00091040101305B
:1005E00009F009C08FED8093080180910C018260B1
:1005F00080930C017AC0023009F009C08FED80931E
:10060000080180910C01826080930C016EC0033060
:1006100009F004C08AED8093080167C0053009F035
:100620000AC082E6809308018FED809309018FEF65
:1006300080930A015AC0063009F00AC082E680930E
:1006400008018FED809309018FEF80930A014DC05F
:10065000073009F00AC082E6809308018FED80938D
:1006600009018FEF80930A0140C0083009F00AC0E9
:1006700082E6809308018FED809309018FEF8093CC
:100680000A0133C0093009F00AC08EE680930801E0
:100690008FED809309018FEF80930A0126C00A3005
:1006A00009F00AC082E6809308018FED809309016A
:1006B0008FEF80930A0119C00C3009F00AC082E65E
:1006C000809308018FED809309018FEF80930A01D9
:1006D0000CC00D3009F009C084E6809308018FED4D
:1006E000809309018FEF80930A0121C4033909F037
:1006F000C7C000910401013009F009C08FED80935B
:10070000080180910C01826080930C01B8C0033015
:1007100009F009C08FED8093080180910C0182607F
:1007200080930C01ACC0063009F007C081EE8093C5
:10073000080189ED80930901A2C0073009F007C0C4
:1007400081EE8093080189ED8093090198C00830FB
:1007500009F007C081EE8093080189ED80930901BB
:100760008EC00A3009F00AC082E6809308018FED3E
:100770008093090189EF80930A0181C00B3009F051
:100780000AC082E6809308018FED809309018FEF04
:1007900080930A0174C00C3009F00AC082E680938D
:1007A00008018FED809309018FEF80930A0167C0E4
:1007B0000D3009F00AC082E6809308018FED809326
:1007C00009018FEF80930A015AC00F3009F00AC067
:1007D00082E6809308018FED8093090189EF809371
:1007E0000A014DC0013109F00AC08EE6809308016C
:1007F0008FED809309018FEF80930A0140C001388B
:1008000009F00AC082E6809308018FED8093090108
:1008100089EF80930A0133C0033809F00AC082E6E9
:10082000809308018FED8093090189EF80930A017D
:1008300026C0073809F00AC082E6809308018FEDD0
:10084000809309018FEF80930A0119C0083809F0DD
:100850000AC082E68093080189ED809309018DEF3B
:1008600080930A010CC0093809F009C08EE5809315
:10087000080189ED8093090184EF80930A0157C331
:10088000043909F0D0C000910401013009F004C01E
:100890008AED80930801C6C0023009F007C082EDDE
:1008A000809308018FEF80930901BCC0033009F0E9
:1008B00007C081EE8093080189E980930901B2C0E5
:1008C000043009F00AC082E68093080189E9809328
:1008D00009018FEF80930A01A5C0053009F00AC015
:1008E00082E68093080189E9809309018FEF809364
:1008F0000A0198C0063009F00AC082E68093080118
:100900008FED8093090189EF80930A018BC0073036
:1009100009F00AC082E68093080189E98093090101
:100920008FEF80930A017EC00F3009F00AC082E683
:100930008093080189E9809309018FEF80930A0170
:1009400071C00A3009F00AC082E68093080189E983
:10095000809309018FEF80930A0164C00B3009F086
:100960000AC082E6809308018FED8093090189EF28
:1009700080930A0157C00D3009F007C08EED8093B7
:10098000080189EE809309014DC0023809F00AC0C0
:100990008EE58093080189ED8093090184EF8093AF
:1009A0000A0140C0033809F00AC082E680930801BA
:1009B0008FED8093090189EF80930A0133C00438D9
:1009C00009F00AC082E68093080189ED809309014D
:1009D0008FEF80930A0126C0073809F00AC082E62B
:1009E000809308018FED809309018FEF80930A01B6
:1009F00019C0083809F00AC08EE58093080181E922
:100A00008093090183EF80930A010CC0093809F033
:100A100009C08EE58093080189ED8093090184EF78
:100A200080930A0184C2053909F021C100910401B3
:100A3000013009F007C081EF8093080189E98093B4
:100A4000090114C1023009F007C081EE809308014A
:100A500089E9809309010AC1033009F00AC082E6DE
:100A60008093080189E9809309018FEF80930A013F
:100A7000FDC0043009F00AC082E68093080189E9CC
:100A8000809309018FEF80930A01F0C0053009F0CF
:100A90000AC082E68093080189E9809309018FEFFB
:100AA00080930A01E3C0063009F00AC082E6809311
:100AB000080189E9809309018FEF80930A01D6C06C
:100AC000073009F007C08EED8093080189EE80930E
:100AD0000901CCC0083009F00AC082E68093080101
:100AE00089E9809309018FEF80930A01BFC000312B
:100AF00009F007C08EED8093080189EE809309010B
:100B0000B5C0013109F00AC082E68093080189E985
:100B1000809309018FEF80930A01A8C0043109F086
:100B20000AC082E68093080189ED809309018FEF66
:100B300080930A019BC0053109F00AC082E68093C8
:100B4000080189E9809309018FEF80930A018EC023
:100B50000B3009F00AC082E68093080189E980938E
:100B600009018FEF80930A0181C00C3009F00AC09F
:100B700082E68093080189E9809309018FEF8093D1
:100B80000A0174C00D3009F00AC082E680930801A2
:100B900089E9809309018FEF80930A0167C00E30C5
:100BA00009F00AC082E68093080189E9809309016F
:100BB0008FEF80930A015AC00F3009F00AC082E615
:100BC0008093080189ED809309018FEF80930A01DA
:100BD0004DC00A3809F00AC08EE58093080189EDFE
:100BE0008093090184EF80930A0140C0013809F025
:100BF0000AC082E68093080189E9809309018FEF9A
:100C000080930A0133C0043809F00AC082E6809359
:100C1000080189ED809309018FEF80930A0126C0B6
:100C2000063809F00AC082E68093080189ED8093B6
:100C300009018FEF80930A0119C0073809F00AC033
:100C40008EE58093080181E98093090183EF809309
:100C50000A010CC0083809F009C08EE5809308012C
:100C600089E98093090183EF80930A0160C1063905
:100C700009F0D2C000910401023009F00AC081EEEF
:100C80008093080189E9809309018DEF80930A011F
:100C9000C2C0033009F00AC082E68093080189E9E6
:100CA000809309018FEF80930A01B5C0043009F0E9
:100CB0000AC082E68093080189E9809309018FEFD9
:100CC00080930A01A8C0053009F00AC082E680932B
:100CD000080189E9809309018FEF80930A019BC085
:100CE000063009F00AC082E68093080189E9809302
:100CF00009018FEF80930A018EC0083009F00AC005
:100D000082E68093080189E9809309018FEF80933F
:100D10000A0181C0093009F00AC082E68093080107
:100D200089E9809309018FEF80930A0174C00A302A
:100D300009F00AC082E68093080189E980930901DD
:100D40008FEF80930A0167C00B3009F00AC082E67A
:100D50008093080189E9809309018FEF80930A014C
:100D60005AC00C3009F00AC082E68093080189E974
:100D7000809309018FEF80930A014DC00D3009F077
:100D80000AC082E68093080189E9809309018FEF08
:100D900080930A0140C00E3009F00AC082E68093B9
:100DA000080189E9809309018FEF80930A0133C01C
:100DB000013809F00AC082E68093080189E980932E
:100DC00009018FEF80930A0126C0023809F00AC09A
:100DD0008EE5809308018BE98093090183EF80936E
:100DE0000A0119C0043809F00AC082E6809308019C
:100DF00089ED809309018FEF80930A010CC00638BA
:100E000009F009C082E68093080189ED8093090109
:100E10008FEF80930A018BC0073909F06AC00091F7
:100E20000401013009F00AC081EC809308018FEFC2
:100E3000809309018FEF80930A015AC0023009F0B4
:100E40000AC081EE8093080189E9809309018DEF42
:100E500080930A014DC0033009F00AC082E68093F6
:100E6000080189E9809309018FEF80930A0140C04E
:100E7000043009F00AC082E68093080189E9809372
:100E800009018FEF80930A0133C0053009F00AC0D1
:100E900082E68093080189E9809309018FEF8093AE
:100EA0000A0126C0063009F00AC082E680930801D4
:100EB00089E9809309018FEF80930A0119C00138F5
:100EC00009F00AC082E68093080189E9809309014C
:100ED0008FEF80930A010CC0023809F009C08EE53B
:100EE0008093080189E98093090183EF80930A01C7
:100EF0001EC0083909F01BC000910401013009F03F
:100F00000AC082E68093080189E9809309018FEF86
:100F100080930A010CC0023009F009C082E6809378
:100F2000080189E9809309018FEF80930A010091FC
:100F30000801003081E009F080E08F930091090101
:100F4000003081E009F080E09F918923882309F433
:100F50000CC053D4EEE8FBE14AD44FD44ED4E4E4C1
:100F6000FBE145D44AD4CAD2C1D280910C0180643D
:100F700080930C0100910A01003009F005C08091B6
:100F80000C018F7B80930C0100910901003009F066
:100F90000AC080910C01846080930C0180910C0147
:100FA0008F7B80930C01EAEAFBE121D4349B05C0DE
:100FB000E0ECFBE11CD421D424C0ACE0B1E08C9186
:100FC00083FB0EF407C054D2419880E885B974D2EF
:100FD00078D213C080E8809342018CE4809343016F
:100FE00093D380E08093420184E6809343018CD3C5
:100FF0008CE68093430188D3BFD3ECEDFAE1F7D3BD
:10100000FCD388D2ECECFBE1F2D3A8EAB4E0E5E053
:10101000F1E09BD4E4D3E4EEFBE1E9D3A8EAB4E049
:10102000E6E0F1E092D4DBD3E8EEFBE1E0D3A8EA1E
:10103000B4E0E7E0F1E089D4D2D3DFD3ECEEFBE11A
:10104000D6D3A8EAB4E0E8E0F1E07FD4C8D3E4EE78
:10105000FBE1CDD3A8EAB4E0E9E0F1E076D4BFD378
:10106000E8EEFBE1C4D3A8EAB4E0EAE0F1E06DD435
:10107000B6D3C3D3E4E0FCE1BAD3ABE0B1E00C916A
:1010800000FB81E00EF480E08F93ABE0B1E00C91C7
:1010900001FB81E00EF480E09F91892B882309F405
:1010A0001AC0EAE1FCE1A3D3A8EAB4E0EBE0F1E086
:1010B0004CD495D3E6E2FCE19AD39FD39ED3E8E2E9
:1010C000FCE195D39AD399D3E4E4FBE190D395D393
:1010D00015D204D20DC0ECE5FCE189D3A8EAB4E056
:1010E000EBE0F1E032D47BD3E6E2FCE180D385D3C0
:1010F000E8E6FCE17CD3A8EAB4E0E8E0F1E025D43E
:101100006ED3A8EAB4E0E9E0F1E01FD468D3A8EA1E
:10111000B4E0EAE0F1E019D462D3E4E7FCE167D39C
:10112000ACE0B1E08C9183FB0EF454C0A1D180E41B
:1011300085B99BD1C1D1B4D1A8E0B1E08C9185B97A
:10114000E0D193D1B9D141985E988FD1BAD18DD1E8
:10115000A6E2B0E08C9180FBDEF7ACE0B1E08C91D0
:1011600082FB0EF417C084D180E485B97ED1A4D16E
:1011700097D1A9E0B1E08C9185B9C3D176D19CD14A
:10118000419A5E9872D19DD170D1A6E2B0E08C9167
:1011900080FBDEF7ACE0B1E08C9186FB0EF017C06F
:1011A00067D180E485B961D187D17AD1AAE0B1E075
:1011B0008C9185B9A6D159D17FD141985E9A55D1EC
:1011C00080D153D1A6E2B0E08C9180FBDEF741984C
:1011D0005E9852C080E4809342018CE48093430186
:1011E00093D28091080180934201E8D28CE28093EF
:1011F00043018AD280E08093420184E680934301D8
:1012000083D28CE6809343017FD2B6D2ACE0B1E0CA
:101210008C9182FB0EF415C08091090180934201EC
:10122000CDD28CE2809343016FD280E08093420163
:1012300084E78093430168D28CE78093430164D2B2
:101240009BD2ACE0B1E08C9186FB0EF015C0809192
:101250000A0180934201B2D28CE28093430154D2BE
:1012600080E08093420186E6809343014DD28EE672
:101270008093430149D280D2ECEDFAE1B8D2BDD2DD
:1012800049D1EAE7FCE1B3D2A8EAB4E0E5E0F1E055
:101290005CD3A5D2E4EEFBE1AAD2A8EAB4E0E6E092
:1012A000F1E053D39CD2E8EEFBE1A1D2A8EAB4E08E
:1012B000E7E0F1E04AD393D24091080100910501A3
:1012C000041709F405C080910C01806880930C011B
:1012D000ACE0B1E08C9182FB0EF40CC040910901AE
:1012E00000910601041709F405C080910C01806883
:1012F00080930C01ACE0B1E08C9186FB0EF00CC049
:1013000040910A0100910701041709F405C080917A
:101310000C01806880930C01ACE0B1E08C9187FBFC
:101320000EF011C0EAEFFAE162D267D266D2E0E3D2
:10133000FBE15DD262D261D2E4E4FBE158D25DD23E
:10134000DDD0C4D006C0E2E9FCE151D256D2D6D0FD
:10135000D2D0EEEFF1E0A0E0B1E02BD3A0E0B1E01D
:1013600037D2EEEFF1E0A0E0B1E07BE711D345D258
:10137000A8EAB4E0E0E0F1E08FD231D2EAE9FCE1A2
:1013800036D23BD23AD2E4E4FBE131D236D2F89401
:10139000FFCF6ED084E085B968D08ED080E084B96C
:1013A00080E085B962D05A9841985E985ED0A5E0F9
:1013B000B1E083B18C935A9AACE0B1E08C9182FB9E
:1013C0000EF40AC052D05A98419A5E9A4ED0A6E0C6
:1013D000B1E083B18C935A9AACE0B1E08C9186FB7A
:1013E0000EF00AC042D05A9841985E9A3ED0A7E0CB
:1013F000B1E083B18C935A9A38D05A98419A5E984A
:1014000034D0ACE0B1E08C9181FB0EF026C0A5E0B9
:10141000B1E083B18C936894A5E0B1E08C9187F939
:101420008C936894A5E0B1E08C9186F98C938FEF52
:1014300080930B01A3E2B0E08C9187FBABE0B1E0BD
:101440008C9180F98C93A3E2B0E08C9186FBABE0A9
:10145000B1E08C9181F98C9304C0ABE0B1E083B131
:101460008C935A9A8FEF84B9089500000000089574
:10147000439AACE0B1E08C9185FB0EF001C05E9A1E
:1014800042984198F2DF08954398ACE0B1E08C9126
:1014900085FB0EF001C05E9842984198E6DF089502
:1014A0004398ACE0B1E08C9185FB0EF001C05E98F2
:1014B000429A4198DADF08955B9AD7DF5B98D5DFCF
:1014C00008955C98D2DF5C9AD0DF0895439884E059
:1014D00086B984EF91E0A4D1FACF0895429888E0CC
:1014E00086B984EF91E09CD1FACF08954398429A4F
:1014F000F894FFCF08954298439A08955D9A5F98B3
:101500000895ACE0B1E08C9180FB0EF002C08FEF4B
:1015100085B90895ACE0B1E08C9183FB0EF402C074
:1015200038DF01C001D0089584E0809342018CE44B
:1015300080934301E9D080E08093420188E6809364
:101540004301E2D08CE68093430161D08091440155
:1015500080930501ACE0B1E08C9182FB0EF40CC0ED
:101560008AE780934301D0D08EE7809343014FD028
:101570008091440180930601ACE0B1E08C9186FB40
:101580000EF00CC08AE680934301BED08EE68093B5
:1015900043013DD0809144018093070188E7809307
:1015A0004301B2D08CE78093430131D0ACE0B1E08D
:1015B0008C9181FB0EF026C080914401809305013F
:1015C0006894A5E0B1E08C9187F98C936894A5E0CC
:1015D000B1E08C9186F98C938FEF80930B01A4E49A
:1015E000B1E08C9187FBABE0B1E08C9180F98C93FA
:1015F000A4E4B1E08C9186FBABE0B1E08C9181F981
:101600008C9304C08091440180930B01089543980A
:101610004298BAD0A6E2B0E08C9181FBA4E4B1E09C
:101620008C9187F98C9388E08093450187E08093C3
:10163000460180914501815080934501809146018A
:10164000815080934601A5E4B1E08C91A2E4B1E021
:1016500009D1FED00C900822689409F4E894A8E21D
:10166000B0E08C9183F98C93A5E4B1E08C91A3E474
:10167000B1E0F8D0EDD00C900822689409F4E89419
:10168000A8E2B0E08C9182F98C937ED0A6E2B0E023
:101690008C9181FBA6E4B1E08C91A4E4B1E0E2D0AE
:1016A000D7D00C9016F0092201C0082A0C920091A4
:1016B0004601003009F0BDCFA5E4B1E08C91A2E471
:1016C000B1E0D0D0C5D00C900822689409F4E89419
:1016D000A8E2B0E08C9183F98C93A5E4B1E08C9101
:1016E000A3E4B1E0BFD0B4D00C900822689409F410
:1016F000E894A8E2B0E08C9182F98C9345D04398AD
:10170000429842D041D00895439842983DD088E015
:101710008093450180914501815080934501A5E466
:10172000B1E08C91A2E4B1E09DD092D00C9008225F
:10173000689409F4E894A8E2B0E08C9183F98C9362
:10174000A5E4B1E08C91A3E4B1E08CD081D00C9001
:101750000822689409F4E894A8E2B0E08C9182F938
:101760008C9312D000914501003009F0D3CF4398FB
:1017700042980AD009D0089500000000A6E2B0E027
:101780008C9181FBDEF7089500000000409A000074
:101790000000409880E080930D01459A0000000011
:1017A000459800000000ADE0B1E08C918F5F8C9314
:1017B00000910D01003109F0F0CF0895ACE0B1E0E7
:1017C0008C9180FB0EF003C08FEF8093420108954F
:1017D000ED91FC91EF5FFF4FFC93EE930895A8EA23
:1017E000B4E08D91882311F00BD0FBCF08952CD05D
:1017F000802D11F005D0FBCF08958DE001D08AE057
:101800000090C00005FEFCCF8093C600089531977C
:10181000F1F70895689462F80895E89462F80895DD
:10182000EF93FF93EE27E82BE92B31F0EAEFF0E09E
:101830003197F1F70197D1F7FF91EF91089504D017
:101840000D920020E1F70895C89531960020089583
:1018500091E0882321F08894991F8A95E9F7892FD0
:1018600090950895883018F011968850FBCF089510
:1018700088279D91890F9923E1F70895000F111F83
:10188000221F331F089500951095209530950F5F06
:101890001F4F2F4F3F4F0895019110810EC00191AE
:1018A0001191219130810BC00191108117FF05C06A
:1018B0003FEF2FEF04C0008111272227332737FF86
:1018C00003C0E1DF8DE28D93CF93DF93CF92DF9260
:1018D000EF92AA24BB24CC24DD24EE2440E2CAE00B
:1018E000DD2755E093E38881890F87FD9F7083FD95
:1018F000907F891B89935A95A9F7C0DFAA1CBB1C4E
:10190000CC1CDD1CEE1C4A9551F7E894EFE0FF2754
:1019100082910ED0EB30E0F71EF068948A2D0CD047
:1019200088278D93EF90DF90CF90DF91CF9108952E
:10193000982F829501D0892F8F70805D26F080339B
:1019400009F4089568948D93089541E003C042E03E
:1019500001C044E0E40F8827F81F8291982F8295F8
:1019600005D0892F03D04A95C1F707C08F708A3000
:1019700008F0895F805D8D93089588278D93089581
:10198000F999FECFE1BDF2BD3196089591E001C015
:1019900092E07B3751F47FB7F894F2DF8D9180BDF0
:1019A000FA9AF99A9A95C9F77FBF7727089591E037
:1019B00001C092E0E5DFF89A80B58D939A95D1F752
:1019C0000895DEDFF89A80B58D93882319F09A95F3
:1019D000C1F79D93089557656C636F6D650041561F
:1019E000522041746D656761206675736562697424
:1019F00020646F63746F722028485650502B4856ED
:101A00005350292076657273696F6E20322E3039FB
:101A10000000687474703A2F2F6469792E656C65C4
:101A20006B74726F64612E65752F61746D6567618B
:101A30002D667573656269742D646F63746F722DA2
:101A400068767070000052656769737465726564CA
:101A500020746F200000557361676520696E2063F4
:101A60006F6D6D65726369616C2F70726F666974FA
:101A700020707572706F736573206E6F7420616C67
:101A80006C6F77656400666F72206669726D77614E
:101A9000726520757064617465733A207477697437
:101AA0007465722E636F6D2F6D616E656B696E6507
:101AB0006E0048565350204D4F44450048565050F4
:101AC000204D4F444500496E69742070726F6772F3
:101AD000616D6D696E672E2E2E202000444F4E459D
:101AE000000052656164207369676E617475726588
:101AF0002E2E2E202020200020002D204641494C53
:101B000021004E6F206368697020696E20736F63D7
:101B10006B6574206F72206368697020646F6573F1
:101B2000206E6F7420726573706F6E64696E6700EB
:101B3000506C656173652074727920616761696EAC
:101B40002E2E2E005468616E6B20596F75005472F2
:101B500079696E672054323331332070696E6F7546
:101B6000742E2E00536561726368696E6720636826
:101B700069702E2E2E202020206E6F206E616D65E4
:101B80007320696E20386B422076657200004368CE
:101B90006970206E6F7420737570706F72746564F5
:101BA0002C20736F7272792E000043686970206573
:101BB000726173652E2E2E202020202020202000F0
:101BC000444953414C4C4F574544000052656164B1
:101BD0002066757365626974732E2E2E2020202076
:101BE000204C3A0020483A0020453A0053686F756F
:101BF0006C642062652E2E2E2020202020202020A4
:101C0000204C3A004C6F636B626974732E2E2E2049
:101C100020202020202020202000454E41424C45FD
:101C20004420202800002900506C65617365206104
:101C30006C6C6F7720746F206572617365207468B7
:101C400065206368697020746F2064697361626CD9
:101C500065206C6F636B6269747300004449534183
:101C6000424C454420280000526577726974696EC1
:101C7000672000002E2E2E2020005665726966799E
:101C8000696E672E2E2E2020202020202020204C20
:101C90003A00202D204F4B210000206669786564B2
:081CA000206368697073000005
:00000001FF
