:100000000C94340018950000189500001895000015
:10001000189500001895000018950000189500002C
:10002000189500001895000018950000189500001C
:10003000189500001895000018950000189500000C
:1000400018950000189500001895000018950000FC
:1000500018950000189500001895000018950000EC
:1000600018950000189500008FEF8DBFC8EDE0ECEB
:100070004E2E84E08EBFD4E0F4E05F2EA89584B7C6
:10008000082E877F84BF88E1992780936000909332
:100090006000EEEFF3E0A0E0B1E088278D933197A8
:1000A000E9F786E08093C40080E08093C50088E192
:1000B0008093C10066248CE08093C40080E080932C
:1000C000C5008FEF84B98EE287B980E188B98FEFE0
:1000D0008AB987E38BB90E9474120E9474120E943D
:1000E0007412E8ECF6E20E946D120E947412AFE006
:1000F000B1E0E0EDF6E20E949612AFE0B1E00E94BE
:1001000067120E947412AFE0B1E00E94B012082F93
:100110000E3311F40C94910080910C018160809356
:100120000C01AFE0B1E0E4E0F7E20E949612AFE02C
:10013000B1E00E9467120E947412AFE0B1E00E9429
:10014000B012082F0F3E11F40C94AB0080910C01FB
:10015000816080930C01E2E0F0E0AEE0B1E00E944B
:100160005013AEE0B1E08C9180958C93E4E0F0E028
:10017000AFE0B1E094E20E945A1340910E01AFE06B
:10018000B1E00E94B012082F041711F00C94D400B3
:10019000E8E3F7E20E946D12AFE0B1E00E9467125F
:1001A0000E9474120C94EE00AFE0B1E0E8E4F7E2D4
:1001B0000E949612AFE0B1E00E9467120E94741292
:1001C000AFE0B1E00E94B012082F053011F40C949A
:1001D000EE0080910C01816080930C01E8E7F7E26A
:1001E0000E946D120E9474120E94741280910C0180
:1001F000886080930C0152985B9A0E9470104A9913
:100200000C94070180910C01877F80930C015B980F
:100210000E9470104A9B0C94120180910C01877F00
:1002200080930C01529AACE0B1E08C9183FB16F004
:100230000C942301E4EAF7E20E946D120E9474120A
:10024000389A0C942901EEEAF7E20E946D120E949E
:1002500074120E947412E8EBF7E20E946D12ACE097
:10026000B1E08C9183FB16F00C943D0141984298CB
:1002700043985C9845980C9442015E984298439844
:1002800041985C9884E690E00E9487125D98EF9315
:10029000FF93E5E1F0E00E947E12FF91EF915F9AFB
:1002A000ACE0B1E08C9183FB16F40C94730181E017
:1002B00090E0A0E0B1E08D939C93A0E0B1E00D91BF
:1002C0001C910A3050E0150718F011F00C947101E0
:1002D0000E949D10A0E0B1E00E945E1210F40C9408
:1002E0005D010C9477015C98549841983998EF938C
:1002F000FF93E9E7F0E00E947E12FF91EF915C9A94
:10030000ACE0B1E08C9183FB16F40C948C01A6E276
:10031000B0E08C9180FBDEF7EEECF7E20E946D120C
:100320000E9474120E94A410E4EDF7E20E946D1284
:10033000ACE0B1E08C9183FB16F40C94F5010E94C3
:100340007310419888E085B90E9470100E949D103A
:1003500081E090E0A0E0B1E08D939C93A0E0B1E05B
:100360000D911C91033050E0150718F011F00C941A
:10037000F3010E94811041980091000141E0041BAB
:1003800005B90E9470100E949D1080E084B980E041
:1003900085B95A9841980E947010A0E0B1E0AD90E4
:1003A000BC90A1E0B1E0AA0DBB1D83B18C935A9A19
:1003B0008FEF84B9A8EAB4E0E0E0F1E0A190B0806A
:1003C000E1E0F1E0EA0DFB1D0E941D130E946512A1
:1003D000EAEEF7E20E946D12A0E0B1E00E945E1228
:1003E00010F40C94AE010C944E0288E0809342010C
:1003F0008CE4809343010E94EF1181E090E0A0E043
:10040000B1E08D939C93A0E0B1E00D911C9103307D
:1004100050E0150718F011F00C944E020091000105
:1004200041E0041BA2E4B1E00C938CE08093430113
:100430000E94EF1180E08093420188E6809343019F
:100440000E94EF1180E0809342018CE6809343018B
:100450000E94621180914401A0E0B1E0AD90BC9097
:10046000A1E0B1E0AA0DBB1D8C93A8EAB4E0E0E0E6
:10047000F1E0A190B080E1E0F1E0EA0DFB1D0E9407
:100480001D130E946512EAEEF7E20E946D12A0E0D1
:10049000B1E00E945E1210F40C940302009102017C
:1004A0000E3181E009F480E08F930091030100395F
:1004B00081E008F080E09F91892B8F9300910301E8
:1004C000083980E010F009F081E09F91892B8823A2
:1004D00011F40C94B602ACE0B1E08C9185FB81E0A4
:1004E0000EF080E08F93ACE0B1E08C9183FB81E073
:1004F0000EF080E09F91892B882311F40C94A002C8
:10050000ECEEF7E20E946D120E9474120E947412C7
:10051000E4EFF7E20E946D120E947412E0E2F8E24A
:100520000E946D120E9474120E947412E4E3F8E2B9
:100530000E946D120E9474120E94C7100E94BF1088
:10054000ACE0B1E08C9183FB16F40C94B602ECEEB7
:10055000F7E20E946D120E947412EEE3F8E20E942C
:100560006D1280910C01806280930C010091020158
:100570000E3181E009F080E08F93009103010F3884
:1005800080E010F009F081E09F9189238F93009122
:100590000301093981E008F080E09F9189238823D5
:1005A00011F40C9498010E947412E4E5F8E20E94A0
:1005B0006D1200910301003911F00C944803009171
:1005C0000401013011F00C94FA02EAE6F8E20E940C
:1005D0006D120E9474128FED8093080180910C01BE
:1005E000846080930C0180910C01826080930C01E7
:1005F0000C944603043011F00C940E03E4E7F8E287
:100600000E946D120E9474128CEF809308018091F9
:100610000C01846080930C010C944603053011F0AA
:100620000C942203EEE7F8E20E946D120E9474120D
:1006300082E58093080180910C01846080930C0115
:100640000C944603063011F00C943603E8E8F8E207
:100650000E946D120E9474128CE5809308018091B3
:100660000C01846080930C010C944603073011F058
:100670000C944603E2E9F8E20E946D120E947412A3
:100680008AE6809308018FEF809309010C94360D60
:10069000013911F00C944F0400910401013011F064
:1006A0000C946703EEE9F8E20E946D120E94741246
:1006B0008FED8093080180910C01846080930C0180
:1006C00080910C01826080930C010C944D040230E7
:1006D00011F00C948003E8EAF8E20E946D120E9487
:1006E00074128EED8093080180910C0184608093D8
:1006F0000C0180910C01826080930C010C944D04DC
:10070000033011F00C949903E2EBF8E20E946D12B1
:100710000E9474128EED8093080180910C01846018
:1007200080930C0180910C01826080930C010C94E9
:100730004D04053011F00C94AD03ECEBF8E20E948F
:100740006D120E9474128AED8093080180910C0151
:10075000846080930C010C944D04063011F00C94CD
:10076000C103E6ECF8E20E946D120E9474128EED55
:100770008093080180910C01846080930C010C949B
:100780004D04083011F00C94DB03E0EDF8E20E9418
:100790006D120E94741282E6809308018FED80939F
:1007A00009018FEF80930A0180910C01806480938E
:1007B0000C010C944D040A3011F00C94F503EAED91
:1007C000F8E20E946D120E94741284E68093080180
:1007D0008FED809309018FEF80930A0180910C01C6
:1007E000806480930C010C944D040B3011F00C9438
:1007F0000F04E8EEF8E20E946D120E94741282E685
:10080000809308018FED809309018FEF80930A0197
:1008100080910C01806480930C010C944D0409308C
:1008200011F00C942104E4EFF8E20E946D120E9492
:10083000741281EE8093080187EF809309010C9474
:100840004D04073011F00C943504EEEFF8E20E94ED
:100850006D120E94741282EF8093080180910C0146
:10086000846080930C010C944D040C3011F00C94B6
:100870004D04E8E0F9E20E946D120E94741282E6D3
:10088000809308018FED809309018FEF80930A0117
:1008900080910C01806480930C010C94360D023918
:1008A00011F00C946B0500910401013011F00C94CF
:1008B0006E04E4E1F9E20E946D120E9474128FED61
:1008C0008093080180910C01846080930C018091D9
:1008D0000C01826080930C010C946905023011F0C8
:1008E0000C948704EEE1F9E20E946D120E947412EA
:1008F0008FED8093080180910C01846080930C013E
:1009000080910C01826080930C010C946905033086
:1009100011F00C949B04E8E2F9E20E946D120E942F
:1009200074128AED8093080180910C018460809399
:100930000C010C946905053011F00C94B504E2E348
:10094000F9E20E946D120E94741282E680930801FF
:100950008FED809309018FEF80930A0180910C0144
:10096000806480930C010C946905073011F00C949D
:10097000CF04ECE3F9E20E946D120E94741282E649
:10098000809308018FED809309018FEF80930A0116
:1009900080910C01806480930C010C9469050A30ED
:1009A00011F00C94E904E8E4F9E20E946D120E944F
:1009B000741282E6809308018FED809309018FEF16
:1009C00080930A0180910C01806480930C010C9447
:1009D0006905063011F00C940305E4E5F9E20E9484
:1009E0006D120E94741282E6809308018FED80934D
:1009F00009018FEF80930A0180910C01806480933C
:100A00000C010C946905093011F00C941D05EEE5FC
:100A1000F9E20E946D120E9474128EE68093080122
:100A20008FED809309018FEF80930A0180910C0173
:100A3000806480930C010C946905083011F00C94CB
:100A40003705E8E6F9E20E946D120E94741282E610
:100A5000809308018FED809309018FEF80930A0145
:100A600080910C01806480930C010C9469050D3019
:100A700011F00C945105E4E7F9E20E946D120E9416
:100A8000741284E6809308018FED809309018FEF43
:100A900080930A0180910C01806480930C010C9476
:100AA00069050C3011F00C946905E0E8F9E20E9448
:100AB0006D120E94741282E6809308018FED80937C
:100AC00009018FEF80930A0180910C01806480936B
:100AD0000C010C94360D033911F00C94F7060091BB
:100AE0000401013011F00C948A05EAE8F9E20E9451
:100AF0006D120E9474128FED8093080180910C0199
:100B0000846080930C0180910C01826080930C01C1
:100B10000C94F506033011F00C94A305E4E9F9E216
:100B20000E946D120E9474128FED809308018091D3
:100B30000C01846080930C0180910C018260809391
:100B40000C010C94F506073011F00C94B505EEE994
:100B5000F9E20E946D120E94741281EE80930801E6
:100B600089ED809309010C94F506063011F00C9480
:100B7000C705E8EAF9E20E946D120E94741281EE44
:100B80008093080189ED809309010C94F5060830E3
:100B900011F00C94D905E4EBF9E20E946D120E9469
:100BA000741281EE8093080189ED809309010C9401
:100BB000F5060A3011F00C94F305E0ECF9E20E941E
:100BC0006D120E94741282E6809308018FED80936B
:100BD000090189EF80930A0180910C018064809360
:100BE0000C010C94F5060B3011F00C940D06EAEC98
:100BF000F9E20E946D120E94741282E6809308014D
:100C00008FED809309018FEF80930A0180910C0191
:100C1000806480930C010C94F5060C3011F00C9458
:100C20002706E4EDF9E20E946D120E94741282E63A
:100C3000809308018FED809309018FEF80930A0163
:100C400080910C01806480930C010C94F5060F30A8
:100C500011F00C944106EEEDF9E20E946D120E9433
:100C6000741282E6809308018FED8093090189EF69
:100C700080930A0180910C01806480930C010C9494
:100C8000F506013111F00C945B06EAEEF9E20E94E0
:100C90006D120E9474128EE6809308018FED80938E
:100CA00009018FEF80930A0180910C018064809389
:100CB0000C010C94F506013811F00C947506E4EF64
:100CC000F9E20E946D120E94741282E6809308017C
:100CD0008FED8093090189EF80930A0180910C01C7
:100CE000806480930C010C94F506033811F00C9489
:100CF0008F06E0E0FAE20E946D120E94741282E612
:100D0000809308018FED8093090189EF80930A0198
:100D100080910C01806480930C010C94F5060738D7
:100D200011F00C94A906E0E1FAE20E946D120E9413
:100D3000741282E6809308018FED809309018FEF92
:100D400080930A0180910C01806480930C010C94C3
:100D5000F506083811F00C94C306EAE1FAE20E94A5
:100D60006D120E94741282E68093080189ED8093CF
:100D700009018DEF80930A0180910C0180648093BA
:100D80000C010C94F506093811F00C94DD06E4E230
:100D9000FAE20E946D120E9474128EE5809308019F
:100DA00089ED8093090184EF80930A0180910C0101
:100DB000806480930C010C94F5060D3011F00C94B6
:100DC000F506EEE2FAE20E946D120E94741282E6CB
:100DD000809308018FED809309018FEF80930A01C2
:100DE00080910C01806480930C010C94360D0439C1
:100DF00011F00C94990800910401013011F00C9449
:100E00001107EAE3FAE20E946D120E9474128AED61
:100E10008093080180910C01846080930C010C94F4
:100E20009708023011F00C942307E4E4FAE20E94E0
:100E30006D120E94741282ED809308018FEF8093EF
:100E400009010C949708033011F00C943507EEE477
:100E5000FAE20E946D120E94741281EE80930801E2
:100E600089E9809309010C949708043011F00C94DF
:100E70004F07EAE5FAE20E946D120E94741282E6C0
:100E80008093080189E9809309018FEF80930A011B
:100E900080910C01806480930C010C9497080530BC
:100EA00011F00C946907E4E6FAE20E946D120E94C8
:100EB000741282E68093080189E9809309018FEF1B
:100EC00080930A0180910C01806480930C010C9442
:100ED0009708063011F00C948307E2E7FAE20E94CB
:100EE0006D120E94741282E6809308018FED809348
:100EF000090189EF80930A0180910C01806480933D
:100F00000C010C949708073011F00C949D07ECE746
:100F1000FAE20E946D120E94741282E68093080128
:100F200089E9809309018FEF80930A0180910C0178
:100F3000806480930C010C9497080F3011F00C948E
:100F4000B707EAE8FAE20E946D120E94741282E684
:100F50008093080189E9809309018FEF80930A014A
:100F600080910C01806480930C010C9497080A30E6
:100F700011F00C94D107E6E9FAE20E946D120E948A
:100F8000741282E68093080189E9809309018FEF4A
:100F900080930A0180910C01806480930C010C9471
:100FA00097080B3011F00C94EB07E4EAFAE20E9488
:100FB0006D120E94741282E6809308018FED809377
:100FC000090189EF80930A0180910C01806480936C
:100FD0000C010C9497080D3011F00C94FD07E2EB16
:100FE000FAE20E946D120E9474128EED8093080145
:100FF00089EE809309010C949708033811F00C9442
:101000001708EEEBFAE20E946D120E94741282E65B
:10101000809308018FED8093090189EF80930A0185
:1010200080910C01806480930C010C949708073820
:1010300011F00C943108EEECFAE20E946D120E945D
:10104000741282E6809308018FED809309018FEF7F
:1010500080930A0180910C01806480930C010C94B0
:101060009708093811F00C944B08E8EDFAE20E9459
:101070006D120E9474128EE58093080189ED8093B1
:10108000090184EF80930A0180910C0180648093B0
:101090000C010C949708023811F00C946508E4EEEA
:1010A000FAE20E946D120E9474128EE5809308018C
:1010B00089ED8093090184EF80930A0180910C01EE
:1010C000806480930C010C949708083811F00C94FC
:1010D0007F08E2EFFAE20E946D120E9474128EE520
:1010E0008093080181E98093090183EF80930A01CD
:1010F00080910C01806480930C010C949708043853
:1011000011F00C949708EEEFFAE20E946D120E9423
:10111000741282E68093080189ED809309018FEFB4
:1011200080930A0180910C01806480930C010C94DF
:10113000360D053911F00C94D50A009104010130E7
:1011400011F00C94B108EAE0FBE20E946D120E94DB
:10115000741281EF8093080189E9809309010C944E
:10116000D30A023011F00C94C308E6E1FBE20E94BE
:101170006D120E94741281EE8093080189E98093B8
:1011800009010C94D30A033011F00C94DD08E2E25B
:10119000FBE20E946D120E94741282E680930801A5
:1011A00089E9809309018FEF80930A0180910C01F6
:1011B000806480930C010C94D30A043011F00C94D9
:1011C000F708ECE2FBE20E946D120E94741282E6C4
:1011D0008093080189E9809309018FEF80930A01C8
:1011E00080910C01806480930C010C94D30A073029
:1011F00011F00C940909E8E3FBE20E946D120E94D1
:1012000074128EED8093080189EE809309010C948D
:10121000D30A003111F00C941B09E2E4FBE20E94B6
:101220006D120E9474128EED8093080189EE8093F6
:1012300009010C94D30A053111F00C943509EEE440
:10124000FBE20E946D120E94741282E680930801F4
:1012500089E9809309018FEF80930A0180910C0145
:10126000806480930C010C94D30A013111F00C942A
:101270004F09EAE5FBE20E946D120E94741282E6B9
:101280008093080189E9809309018FEF80930A0117
:1012900080910C01806480930C010C94D30A083077
:1012A00011F00C946909E6E6FBE20E946D120E94BF
:1012B000741282E68093080189E9809309018FEF17
:1012C00080930A0180910C01806480930C010C943E
:1012D000D30A053011F00C948309E2E7FBE20E9487
:1012E0006D120E94741282E68093080189E980934E
:1012F00009018FEF80930A0180910C018064809333
:101300000C010C94D30A063011F00C949D09ECE703
:10131000FBE20E946D120E94741282E68093080123
:1013200089E9809309018FEF80930A0180910C0174
:10133000806480930C010C94D30A043111F00C9456
:10134000B709E8E8FBE20E946D120E94741282E67F
:101350008093080189ED809309018FEF80930A0142
:1013600080910C01806480930C010C94D30A0F309F
:1013700011F00C94D109E2E9FBE20E946D120E9487
:10138000741282E68093080189ED809309018FEF42
:1013900080930A0180910C01806480930C010C946D
:1013A000D30A0D3011F00C94EB09EEE9FBE20E9438
:1013B0006D120E94741282E68093080189E980937D
:1013C00009018FEF80930A0180910C018064809362
:1013D0000C010C94D30A0E3011F00C94050AEAEAC1
:1013E000FBE20E946D120E94741282E68093080153
:1013F00089E9809309018FEF80930A0180910C01A4
:10140000806480930C010C94D30A0A3811F00C9478
:101410001F0AE6EBFBE20E946D120E9474128EE539
:101420008093080189ED8093090184EF80930A017C
:1014300080910C01806480930C010C94D30A0738CE
:1014400011F00C94390AE2ECFBE20E946D120E944A
:1014500074128EE58093080181E98093090183EF7E
:1014600080930A0180910C01806480930C010C949C
:10147000D30A083811F00C94530AEEECFBE20E94F8
:101480006D120E9474128EE58093080189E98093A1
:10149000090183EF80930A0180910C01806480939D
:1014A0000C010C94D30A043811F00C946D0AEAED87
:1014B000FBE20E946D120E94741282E68093080182
:1014C00089ED809309018FEF80930A0180910C01CF
:1014D000806480930C010C94D30A063811F00C94AC
:1014E000870AE6EEFBE20E946D120E94741282E609
:1014F0008093080189ED809309018FEF80930A01A1
:1015000080910C01806480930C010C94D30A013803
:1015100011F00C94A10AE2EFFBE20E946D120E940E
:10152000741282E68093080189E9809309018FEFA4
:1015300080930A0180910C01806480930C010C94CB
:10154000D30A0B3011F00C94BB0AECEFFBE20E94C3
:101550006D120E94741282E68093080189E98093DB
:1015600009018FEF80930A0180910C0180648093C0
:101570000C010C94D30A0C3011F00C94D30AE8E05F
:10158000FCE20E946D120E94741282E680930801B0
:1015900089E9809309018FEF80930A0180910C0102
:1015A000806480930C010C94360D063911F00C9474
:1015B000280C00910401023011F00C94F50AE4E1CA
:1015C000FCE20E946D120E94741281EE8093080169
:1015D00089E9809309018DEF80930A0180910C01C4
:1015E000806480930C010C94260C033011F00C9451
:1015F0000F0BE0E2FCE20E946D120E94741282E680
:101600008093080189E9809309018FEF80930A0193
:1016100080910C01806480930C010C94260C0430A2
:1016200011F00C94290BEAE2FCE20E946D120E9478
:10163000741282E68093080189E9809309018FEF93
:1016400080930A0180910C01806480930C010C94BA
:10165000260C053011F00C94430BE6E3FCE20E94EB
:101660006D120E94741282E68093080189E98093CA
:1016700009018FEF80930A0180910C0180648093AF
:101680000C010C94260C063011F00C945D0BE0E478
:10169000FCE20E946D120E94741282E6809308019F
:1016A00089E9809309018FEF80930A0180910C01F1
:1016B000806480930C010C94260C083011F00C947B
:1016C000770BECE4FCE20E946D120E94741282E639
:1016D0008093080189E9809309018FEF80930A01C3
:1016E00080910C01806480930C010C94260C0930CD
:1016F00011F00C94910BE6E5FCE20E946D120E9441
:10170000741282E68093080189E9809309018FEFC2
:1017100080930A0180910C01806480930C010C94E9
:10172000260C0A3011F00C94AB0BE2E6FCE20E94AE
:101730006D120E94741282E68093080189E98093F9
:1017400009018FEF80930A0180910C0180648093DE
:101750000C010C94260C0B3011F00C94C00BEEE62F
:10176000FCE20E946D120E94741282E680930801CE
:1017700089E9809309018FEF80930A010C94260C6C
:10178000023811F00C94DA0BEAE7FCE20E946D12C9
:101790000E9474128EE5809308018BE98093090101
:1017A00083EF80930A0180910C01806480930C0187
:1017B0000C94260C043811F00C94F40BEAE8FCE2CB
:1017C0000E946D120E94741282E68093080189EDD6
:1017D000809309018FEF80930A0180910C0180644E
:1017E00080930C010C94260C013811F00C940E0C13
:1017F000E6E9FCE20E946D120E94741282E6809378
:10180000080189E9809309018FEF80930A01809193
:101810000C01806480930C010C94260C063811F0A6
:101820000C94260CE0EAFCE20E946D120E947412F5
:1018300082E68093080189ED809309018FEF809300
:101840000A0180910C01806480930C010C94360D88
:10185000073911F00C94FE0C00910401013011F0D5
:101860000C94480CECEAFCE20E946D120E94741287
:1018700081EC809308018FEF809309018FEF8093B3
:101880000A0180910C01806480930C010C94FC0C83
:10189000023011F00C94620CE6EBFCE20E946D1237
:1018A0000E94741281EE8093080189E980930901F6
:1018B0008DEF80930A0180910C01806480930C016C
:1018C0000C94FC0C033011F00C947C0CE2ECFCE268
:1018D0000E946D120E94741282E68093080189E9C9
:1018E000809309018FEF80930A0180910C0180643D
:1018F00080930C010C94FC0C043011F00C94960CA9
:10190000EEECFCE20E946D120E94741282E680935B
:10191000080189E9809309018FEF80930A01809182
:101920000C01806480930C010C94FC0C053011F0C8
:101930000C94B00CEAEDFCE20E946D120E9474124D
:1019400082E68093080189E9809309018FEF8093F3
:101950000A0180910C01806480930C010C94FC0CB2
:10196000063011F00C94CA0CE6EEFCE20E946D12F7
:101970000E94741282E68093080189E9809309012C
:101980008FEF80930A0180910C01806480930C0199
:101990000C94FC0C023811F00C94E40CE2EFFCE225
:1019A0000E946D120E9474128EE58093080189E9ED
:1019B0008093090183EF80930A0180910C01806478
:1019C00080930C010C94FC0C013811F00C94FC0C6D
:1019D000E4E0FDE20E946D120E94741282E68093A0
:1019E000080189E9809309018FEF80930A018091B2
:1019F0000C01806480930C010C94360D083911F0B1
:101A00000C94360D00910401013011F00C941E0D60
:101A1000E0E1FDE20E946D120E94741282E6809362
:101A2000080189E9809309018FEF80930A01809171
:101A30000C01806480930C010C94360D023011F07F
:101A40000C94360DECE1FDE20E946D120E947412BE
:101A500082E68093080189E9809309018FEF8093E2
:101A60000A0180910C01806480930C0100910801AF
:101A7000003081E009F080E08F930091090100308F
:101A800081E009F080E09F918923882311F40C9470
:101A90005D0D0E947412E8E2FDE20E946D120E9448
:101AA00074120E947412E4E3F8E20E946D120E9424
:101AB00074120E94C7100E94BF10E4E4FDE20E946D
:101AC0006D12349B0C946C0DEAE5FDE20E946D12E0
:101AD0000E9474120C949B0DACE0B1E08C9183FBDE
:101AE00016F40C947E0D0E947310419880E885B91D
:101AF0000E949D100E94A4100C94950D80E8809384
:101B000042018CE4809343010E94EF1180E08093B6
:101B1000420184E6809343010E94EF118CE680939A
:101B200043010E94EF110E943012EEECF7E20E9496
:101B30006D120E9474120E94D410E6E6FDE20E942B
:101B40006D12A8EAB4E0E5E0F1E00E941D130E94E6
:101B50006512EEE7FDE20E946D12A8EAB4E0E6E04D
:101B6000F1E00E941D130E946512E2E8FDE20E946E
:101B70006D12A8EAB4E0E7E0F1E00E941D130E94B4
:101B800065120E947412E6E8FDE20E946D12A8EA56
:101B9000B4E0E8E0F1E00E941D130E946512EEE758
:101BA000FDE20E946D12A8EAB4E0E9E0F1E00E94D3
:101BB0001D130E946512E2E8FDE20E946D12A8EA80
:101BC000B4E0EAE0F1E00E941D130E9465120E9459
:101BD0007412EEE9FDE20E946D12ABE0B1E00C91EF
:101BE00000FB81E00EF480E08F93ABE0B1E00C915C
:101BF00001FB81E00EF480E09F91892B882311F492
:101C00000C942A0EE4EBFDE20E946D12A8EAB4E007
:101C1000EBE0F1E00E941D130E946512E0ECFDE292
:101C20000E946D120E9474120E947412E2ECFDE296
:101C30000E946D120E9474120E947412E4E3F8E292
:101C40000E946D120E9474120E94C7100E94B5106B
:101C50000C943C0EE6EFFDE20E946D12A8EAB4E09F
:101C6000EBE0F1E00E941D130E946512E0ECFDE242
:101C70000E946D120E947412E2E0FEE20E946D1258
:101C8000A8EAB4E0E8E0F1E00E941D130E946512AA
:101C9000A8EAB4E0E9E0F1E00E941D130E94651299
:101CA000A8EAB4E0EAE0F1E00E941D130E94651288
:101CB000EEE0FEE20E946D12ACE0B1E08C9183FB9D
:101CC00016F40C94D80E0E94731080E485B90E941B
:101CD00070100E949D100E948F10A8E0B1E08C91BE
:101CE00085B90E94CA100E9470100E949D104198F0
:101CF0005E980E9470100E94A4100E947010A6E2CC
:101D0000B0E08C9180FBDEF7ACE0B1E08C9182FB1F
:101D100016F40C94AC0E0E94731080E485B90E94F6
:101D200070100E949D100E948F10A9E0B1E08C916C
:101D300085B90E94CA100E9470100E949D10419A9D
:101D40005E980E9470100E94A4100E947010A6E27B
:101D5000B0E08C9180FBDEF7ACE0B1E08C9186FBCB
:101D600016F00C94D40E0E94731080E485B90E9482
:101D700070100E949D100E948F10AAE0B1E08C911B
:101D800085B90E94CA100E9470100E949D1041984F
:101D90005E9A0E9470100E94A4100E947010A6E229
:101DA000B0E08C9180FBDEF741985E980C943C0F7C
:101DB00080E4809342018CE4809343010E94EF1100
:101DC00080910801809342010E9453128CE280931B
:101DD00043010E94EF1180E08093420184E68093EA
:101DE00043010E94EF118CE6809343010E94EF11A2
:101DF0000E943012ACE0B1E08C9182FB16F40C949E
:101E00001B0F80910901809342010E9453128CE2C2
:101E1000809343010E94EF1180E08093420184E7A8
:101E2000809343010E94EF118CE7809343010E944D
:101E3000EF110E943012ACE0B1E08C9186FB16F0FD
:101E40000C943C0F80910A01809342010E9453122E
:101E50008CE2809343010E94EF1180E08093420165
:101E600086E6809343010E94EF118EE68093430142
:101E70000E94EF110E943012EEECF7E20E946D1208
:101E80000E9474120E94D410E4E1FEE20E946D12DE
:101E9000A8EAB4E0E5E0F1E00E941D130E9465129B
:101EA000EEE7FDE20E946D12A8EAB4E0E6E0F1E0A0
:101EB0000E941D130E946512E2E8FDE20E946D126D
:101EC000A8EAB4E0E7E0F1E00E941D130E94651269
:101ED0004091080100910501041711F40C94750F4D
:101EE00080910C01806880930C01ACE0B1E08C9192
:101EF00082FB16F40C94890F4091090100910601B0
:101F0000041711F40C94890F80910C018068809360
:101F10000C01ACE0B1E08C9186FB16F00C949D0FA7
:101F200040910A0100910701041711F40C949D0FD0
:101F300080910C01806880930C01ACE0B1E08C9141
:101F400087FB16F00C94C00FECE2FEE20E946D12CB
:101F50000E9474120E947412E0E2F8E20E946D1274
:101F60000E9474120E947412E4E3F8E20E946D125F
:101F70000E9474120E94C7100E94AB100C94CA0FEA
:101F8000E6E3FEE20E946D120E9474120E94C710E6
:101F90000E94C410EEEFF1E0A0E0B1E00E94521305
:101FA000A0E0B1E00E945E12EEEFF1E0A0E0B1E04F
:101FB0007BE70E9441130E947412A8EAB4E0E0E0BB
:101FC000F1E00E94C4120E946512EEE3FEE20E945C
:101FD0006D120E9474120E947412E4E3F8E20E94EF
:101FE0006D120E947412F894FFCF0E94731084E067
:101FF00085B90E9470100E949D1080E084B980E035
:1020000085B90E9470105A9841985E980E9470108D
:10201000A5E0B1E083B18C935A9AACE0B1E08C9129
:1020200082FB16F40C9420100E9470105A98419A6A
:102030005E9A0E947010A6E0B1E083B18C935A9A28
:10204000ACE0B1E08C9186FB16F00C9433100E944A
:1020500070105A9841985E9A0E947010A7E0B1E003
:1020600083B18C935A9A0E9470105A98419A5E9844
:102070000E947010ACE0B1E08C9181FB16F00C94E2
:102080006810A5E0B1E083B18C936894A5E0B1E05D
:102090008C9187F98C936894A5E0B1E08C9186F9D6
:1020A0008C938FEF80930B01A3E2B0E08C9187FBC0
:1020B000ABE0B1E08C9180F98C93A3E2B0E08C911D
:1020C00086FBABE0B1E08C9181F98C930C946C10A1
:1020D000ABE0B1E083B18C935A9A8FEF84B9089545
:1020E000000000000895439AACE0B1E08C9185FBBC
:1020F00016F00C947C105E9A429841980E947010E1
:1021000008954398ACE0B1E08C9185FB16F00C94F7
:102110008A105E98429841980E94701008954398E2
:10212000ACE0B1E08C9185FB16F00C9498105E98B1
:10213000429A41980E94701008955B9A0E94701014
:102140005B980E94701008955C980E9470105C9AD1
:102150000E9470100895439884E086B984EF91E05E
:102160000E9487120C94AC100895429888E086B9BA
:1021700084EF91E00E9487120C94B6100895439862
:10218000429AF894FFCF08954298439A08955D9A31
:102190005F980895ACE0B1E08C9180FB16F00C9450
:1021A000D3108FEF85B90895ACE0B1E08C9183FB3B
:1021B00016F40C94DF100E94F50F0C94E1100E94AD
:1021C000E210089584E0809342018CE480934301FF
:1021D0000E94EF1180E08093420188E680934301E2
:1021E0000E94EF118CE6809343010E94621180915E
:1021F000440180930501ACE0B1E08C9182FB16F4C0
:102200000C9410118AE7809343010E94EF118EE72E
:10221000809343010E9462118091440180930601E2
:10222000ACE0B1E08C9186FB16F00C9425118AE6A7
:10223000809343010E94EF118EE6809343010E9438
:102240006211809144018093070188E780934301E4
:102250000E94EF118CE7809343010E946211ACE071
:10226000B1E08C9181FB16F00C945D1180914401DA
:10227000809305016894A5E0B1E08C9187F98C9377
:102280006894A5E0B1E08C9186F98C938FEF8093F0
:102290000B01A4E4B1E08C9187FBABE0B1E08C9141
:1022A00080F98C93A4E4B1E08C9186FBABE0B1E0C3
:1022B0008C9181F98C930C946111809144018093ED
:1022C0000B010895439842980E943812A6E2B0E0AC
:1022D0008C9181FBA4E4B1E08C9187F98C9388E028
:1022E0008093450187E080934601809145018150AC
:1022F0008093450180914601815080934601A5E479
:10230000B1E08C91A2E4B1E00E94AA120E94A01256
:102310000C900822689409F4E894A8E2B0E08C914B
:1023200083F98C93A5E4B1E08C91A3E4B1E00E9421
:10233000AA120E94A0120C900822689409F4E89452
:10234000A8E2B0E08C9182F98C930E943812A6E248
:10235000B0E08C9181FBA6E4B1E08C91A4E4B1E003
:102360000E94AA120E94A0120C9016F0092201C02D
:10237000082A0C9200914601003011F00C9475115E
:10238000A5E4B1E08C91A2E4B1E00E94AA120E94FF
:10239000A0120C900822689409F4E894A8E2B0E036
:1023A0008C9183F98C93A5E4B1E08C91A3E4B1E026
:1023B0000E94AA120E94A0120C900822689409F4AC
:1023C000E894A8E2B0E08C9182F98C930E943812D4
:1023D000439842980E9438120E94381208954398F8
:1023E00042980E94381288E080934501809145010F
:1023F000815080934501A5E4B1E08C91A2E4B1E065
:102400000E94AA120E94A0120C900822689409F45B
:10241000E894A8E2B0E08C9183F98C93A5E4B1E054
:102420008C91A3E4B1E00E94AA120E94A0120C9029
:102430000822689409F4E894A8E2B0E08C9182F94B
:102440008C930E94381200914501003011F00C94D9
:10245000F611439842980E9438120E94381208954B
:1024600000000000A6E2B0E08C9181FBDEF7089549
:1024700000000000409A00000000409880E0809337
:102480000D01459A00000000459800000000ADE0F5
:10249000B1E08C918F5F8C9300910D01003111F0B0
:1024A0000C9441120895ACE0B1E08C9180FB16F0E1
:1024B0000C945D128FEF809342010895ED91FC9191
:1024C000EF5FFF4FFC93EE930895A8EAB4E08D917F
:1024D000882311F00CD0FBCF08950E949C12802D10
:1024E00011F005D0FACF08958DE001D08AE0009078
:1024F000C00005FEFCCF8093C60008953197F1F728
:102500000895689462F80895E89462F80895EF9346
:10251000FF93EE27E82BE92B31F0EAEFF0E031975B
:10252000F1F70197D1F7FF91EF9108950E949C1266
:102530000D920020D9F70895C8953196002008958E
:1025400091E0882321F08894991F8A95E9F7892FD3
:1025500090950895883018F011968850FBCF089513
:1025600088279D91890F9923E1F70895000F111F86
:10257000221F331F089500951095209530950F5F09
:102580001F4F2F4F3F4F0895019110810EC00191B1
:102590001191219130810BC00191108117FF05C06D
:1025A0003FEF2FEF04C0008111272227332737FF89
:1025B00003C0E1DF8DE28D93CF93DF93CF92DF9263
:1025C000EF92AA24BB24CC24DD24EE2440E2CAE00E
:1025D000DD2755E093E38881890F87FD9F7083FD98
:1025E000907F891B89935A95A9F7C0DFAA1CBB1C51
:1025F000CC1CDD1CEE1C4A9551F7E894EFE0FF2758
:1026000082910ED0EB30E0F71EF068948A2D0CD04A
:1026100088278D93EF90DF90CF90DF91CF91089531
:10262000982F829501D0892F8F70805D26F080339E
:1026300009F4089568948D93089541E003C042E041
:1026400001C044E0E40F8827F81F8291982F8295FB
:1026500006D0892F04D04A95C1F70C9436138F7099
:102660008A3008F0895F805D8D93089588278D9367
:102670000895F999FECFE1BDF2BD3196089591E03C
:1026800001C092E07B3751F47FB7F894F2DF8D916F
:1026900080BDFA9AF99A9A95C9F77FBF772708956E
:1026A00091E001C092E0E5DFF89A80B58D939A95AC
:1026B000D1F70895DEDFF89A80B58D93882319F05D
:1026C0009A95C1F79D93089557656C636F6D65008A
:1026D0004156522041746D6567612066757365626D
:1026E000697420646F63746F722028485650502BB1
:1026F00048565350292076657273696F6E20322ECA
:1027000030380000687474703A2F2F6469792E6530
:102710006C656B74726F64612E65752F61746D6585
:1027200067612D667573656269742D646F63746F7C
:10273000722D6876707000005265676973746572F7
:10274000656420746F200000557361676520696EB1
:1027500020636F6D6D65726369616C2F70726F6657
:10276000697420707572706F736573206E6F74205A
:10277000616C6C6F77656400666F72206669726D5C
:102780007761726520757064617465733A2074773F
:1027900069747465722E636F6D2F6D616E656B6900
:1027A0006E656E0048565350204D4F4445004856C4
:1027B0005050204D4F444500496E69742070726F2F
:1027C0006772616D6D696E672E2E2E202000444F5A
:1027D0004E45000052656164207369676E617475CF
:1027E00072652E2E2E202020200020002D20464114
:1027F000494C21004E6F206368697020696E207318
:102800006F636B6574206F72206368697020646FFA
:10281000206E6F7420726573706F6E64696E6700EE
:10282000506C656173652074727920616761696EAF
:102830002E2E2E005468616E6B20596F75005472F5
:1028400079696E672054323331332070696E6F7549
:10285000742E2E00536561726368696E6720636829
:1028600069702E2E2E2020202000415439307331E3
:1028700032303000417474696E7931310000417436
:1028800074696E7931320000417474696E79313542
:102890000000417474696E7931332F410000415456
:1028A000393073323331330041543930733233327B
:1028B00033004154393073323334330041543930AA
:1028C000733233333300417474696E7932320000ED
:1028D000417474696E7932350000417474696E799F
:1028E000323331332F410000417474696E793234D0
:1028F0002F410000417474696E79323600004174D2
:1029000074696E7932380000417474696E793236B8
:10291000312F410041543930733434313400415443
:1029200039307334343334004154393073343433F0
:10293000330041746D656761343800004174746917
:102940006E7934342F41000041746D65676134380D
:10295000502F4100417474696E7934350000417420
:1029600074696E7934380000417474696E79343654
:10297000312F4100417474696E7934333133000072
:10298000417474696E793433550041543930733869
:1029900035313500415439307338353335004174A1
:1029A0006D656761382F410041746D656761383529
:1029B0003135000041746D6567613835333500008D
:1029C00041746D65676138380000417474696E79CF
:1029D00038350000417474696E79383400004174F0
:1029E0006D6567613838502F4100417474696E79A4
:1029F000383800004154393070776D322F33000081
:102A00004154393070776D312F32622F33620000BC
:102A1000417474696E7938370000415439307077E9
:102A20006D38310041746D6567613855320041740D
:102A300074696E793836312F410041746D65676174
:102A40003136310041746D65676131363300417450
:102A50006D65676131362F41000041746D656761B6
:102A60003136320041746D6567613136392F502F30
:102A7000410041746D6567613136380041746D65A0
:102A800067613136352F502F410041746D656761A4
:102A90003136342F410041746D65676131363450F1
:102AA0002F41000041746D656761313638502F4108
:102AB000000041746D6567613136485642004154EB
:102AC000393070776D3231362F3331360000417432
:102AD00074696E793136370041746D6567613136DE
:102AE000553200004154393075736238322F313617
:102AF000320041746D6567613136553400004174B0
:102B00006D65676131364D31000041746D656761F7
:102B10003332332F410041746D65676133322F4189
:102B2000000041746D6567613332390041746D6531
:102B3000676133323930000041746D65676134304C
:102B4000360041746D656761333248564200417406
:102B50006D65676133323441000041746D656761B2
:102B600033323450410041746D6567613332345003
:102B7000000041746D6567613332350041746D65E5
:102B8000676133323530000041746D6567613332FF
:102B9000380041746D65676133323850000041740C
:102BA0006D65676133323550000041746D65676152
:102BB00033323530500041746D65676133325532C0
:102BC000000041746D656761333255340000417413
:102BD0006D65676133325536000041746D6567611C
:102BE00033324D31000041746D65676133324331DA
:102BF00000004154393063616E33320041746D65B9
:102C0000676133323950000041746D65676133325A
:102C10003930500041746D65676136342F410000D2
:102C200041746D6567613634390041746D65676163
:102C300036343930000041746D65676136343500D3
:102C400041746D65676136343530000041746D65DF
:102C500067613634300041746D65676136343441E4
:102C6000000041746D656761363434504100417431
:102C70006D656761363439500000415439307573E1
:102C8000623634362F363437000041746D65676123
:102C900036344D3100004154393063616E363400B2
:102CA00041746D65676136344331000041746D6570
:102CB00067613130330041746D6567613132382F9F
:102CC000410041746D6567613132383000004174F4
:102CD0006D65676131323831000041746D6567613F
:102CE00031323834500041746D65676131323834A7
:102CF000000041543930757362313238362F313229
:102D0000383700004154393063616E313238000089
:102D100041746D65676132353630000041746D6510
:102D2000676132353631000043686970206E6F7418
:102D300020737570706F727465642C20736F72727B
:102D4000792E0000436869702065726173652E2ECC
:102D50002E202020202020202000444953414C4C8C
:102D60004F57454400005265616420667573656283
:102D70006974732E2E2E20202020204C3A002048EB
:102D80003A0020453A0053686F756C642062652EE6
:102D90002E2E2020202020202020204C3A004C6F76
:102DA000636B626974732E2E2E2020202020202039
:102DB00020202000454E41424C4544202028000060
:102DC0002900506C6561736520616C6C6F772074AD
:102DD0006F2065726173652074686520636869702F
:102DE00020746F2064697361626C65206C6F636B23
:102DF00062697473000044495341424C45442028A1
:102E00000000526577726974696E672000002E2E8B
:102E10002E202000566572696679696E672E2E2E07
:102E20002020202020202020204C3A00202D204649
:102E300041494C210000202D204F4B2100002066ED
:0C2E4000697865642063686970730000A5
:00000001FF
