:1000000012C0189518951895189518951895189563
:100010001895189518951895189518951895189578
:100020001895189518958FE58DBFC8E3E0E24E2E20
:1000300084E08EBFD4E0F4E05F2EA89584B7082E4C
:10004000877F84BF88E1992781BD91BDEEEFF3E002
:10005000A0E6B0E088278D933197E9F786E089B96B
:1000600080E080BD88E18AB966248CE089B980E0AF
:1000700080BD8FEF87BB8EE284BB80E185BB8FEFB5
:1000800081BB87E282BBAFDBAEDBADDBECEBF9E142
:10009000A4DBA9DBAFE6B0E0E4ECF9E1C3DBAFE65B
:1000A000B0E095DBA0DBAFE6B0E0D5DB082F0F3387
:1000B00009F405C080916C00816080936C00AFE60C
:1000C000B0E0E8EFF9E1AEDBAFE6B0E080DB8BDB80
:1000D000AFE6B0E0C0DB082F0F3E09F405C0809109
:1000E0006C00816080936C00E2E0F0E0AEE6B0E08E
:1000F00051DCAEE6B0E08C9180958C93E4E0F0E0CA
:10010000AFE6B0E094E250DC40916E00AFE6B0E0C4
:10011000A2DB082F041709F008C0ECE2FAE15DDB6E
:10012000AFE6B0E054DB5FDB15C0AFE6B0E0ECE378
:10013000FAE178DBAFE6B0E04ADB55DBAFE6B0E0F2
:100140008ADB082F053009F405C080916C008160BE
:1001500080936C00ECE6FAE140DB45DB44DB809108
:100160006C00886080936C008A98939A70D9829909
:1001700005C080916C00877F80936C00939867D94D
:10018000829B05C080916C00877F80936C008A9A67
:10019000ACE6B0E08C9183FB0EF006C0E8E9FAE132
:1001A0001CDB21DBA09A04C0E2EAFAE116DB1BDBD0
:1001B0001ADB95980000000000000000000000001D
:1001C00000000000000000000000979AACE6B0E0DC
:1001D0008C9183FB0EF40BC061D960D95FD95ED9D5
:1001E0005DD95CD95BD95AD959D958D904C09498EA
:1001F0008C98A998A198ECEAFAE1EFDA00000000E7
:1002000000000000000000000000000000000000EE
:100210000000949AACE6B0E08C9183FB0EF405C02C
:10022000A3E3B0E08C9180FBDEF7E2ECFAE1D5DAF3
:10023000DADA39D9E8ECFAE1D0DAACE6B0E08C9160
:1002400083FB0EF448C006D9A99888E088BBFFD884
:1002500025D981E090E0A0E6B0E08D939C93A0E6E4
:10026000B0E00D911C91033050E0150710F009F03B
:1002700031C0FCD8A9980091600041E0041B08BB84
:10028000E6D80CD980E087BB80E088BB9298A9981B
:10029000DED8A0E6B0E0AD90BC90A1E6B0E0AA0D3B
:1002A000BB1D86B38C93929A8FEF87BBA8E0B4E016
:1002B000E0E6F0E0A190B080E1E6F0E0EA0DFB1DA1
:1002C00037DB83DAEEEDFAE188DAA0E6B0E076DA41
:1002D00008F4C5CF4CC088E08093A2008CE48093E2
:1002E000A30008DA81E090E0A0E6B0E08D939C9353
:1002F000A0E6B0E00D911C91033050E0150710F01E
:1003000009F035C00091600041E0041BA2EAB0E0B2
:100310000C938CE08093A300EDD980E08093A20041
:1003200088E68093A300E6D98CE68093A30065D984
:100330008091A400A0E6B0E0AD90BC90A1E6B0E052
:10034000AA0DBB1D8C93A8E0B4E0E0E6F0E0A1901C
:10035000B080E1E6F0E0EA0DFB1DEADA36DAEEED18
:10036000FAE13BDAA0E6B0E029DA08F4C1CF009167
:1003700062000E3181E009F480E08F930091630008
:10038000003981E008F080E09F91892B8F930091E4
:100390006300083980E010F009F081E09F91892B1B
:1003A000882309F43AC0ACE6B0E08C9185FB81E08B
:1003B0000EF080E08F93ACE6B0E08C9183FB81E09F
:1003C0000EF080E09F91892B882309F414C0E0EEA1
:1003D000FAE103DA08DA07DAE8EEFAE1FED903DA3D
:1003E000E6E1FBE1FAD9FFD9FED9EAE2FBE1F5D972
:1003F000FAD97AD871D8ACE6B0E08C9183FB0EF4D0
:100400000CC0E0EEFAE1E9D9EED9E4E3FBE1E5D98D
:1004100080916C00806280936C00009162000E31CC
:1004200081E009F080E08F93009163000F3880E055
:1004300010F009F081E09F9189238F930091630070
:10044000093981E008F080E09F918923882309F42D
:10045000F4CEC9D9EAE4FBE1C0D9C5D90091630063
:10046000003909F02DC000916400013009F009C085
:100470008FED8093680080916C00826080936C00A7
:100480001EC0043009F004C08CEF8093680017C0D0
:10049000053009F004C082E58093680010C0063082
:1004A00009F004C08CE58093680009C0073009F0AA
:1004B00006C08AE6809368008FEF8093690029C5A3
:1004C000013909F079C000916400013009F009C0D8
:1004D0008FED8093680080916C00826080936C0047
:1004E0006AC0023009F009C08EED809368008091E7
:1004F0006C00826080936C005EC0033009F009C01C
:100500008EED8093680080916C00826080936C0017
:1005100052C0053009F004C08AED809368004BC0DA
:10052000063009F004C08EED8093680044C00730A7
:1005300009F004C082EF809368003DC0083009F0E4
:100540000AC082E6809368008FED809369008FEF88
:1005500080936A0030C0093009F007C081EE8093B3
:10056000680087EF8093690026C00A3009F00AC04E
:1005700084E6809368008FED809369008FEF80930D
:100580006A0019C00B3009F00AC082E68093680047
:100590008FED809369008FEF80936A000CC00C3060
:1005A00009F009C082E6809368008FED80936900AE
:1005B0008FEF80936A00ADC4023909F089C00091C1
:1005C0006400013009F009C08FED809368008091CC
:1005D0006C00826080936C007AC0023009F009C020
:1005E0008FED8093680080916C00826080936C0036
:1005F0006EC0033009F004C08AED8093680067C0C4
:10060000053009F00AC082E6809368008FED809380
:1006100069008FEF80936A005AC0063009F00AC063
:1006200082E6809368008FED809369008FEF80935E
:100630006A004DC0073009F00AC082E68093680066
:100640008FED809369008FEF80936A0040C008307F
:1006500009F00AC082E6809368008FED80936900FC
:100660008FEF80936A0033C0093009F00AC08EE62C
:10067000809368008FED809369008FEF80936A000C
:1006800026C00A3009F00AC082E6809368008FED28
:10069000809369008FEF80936A0019C00C3009F0D5
:1006A0000AC082E6809368008FED809369008FEF27
:1006B00080936A000CC00D3009F009C084E6809375
:1006C00068008FED809369008FEF80936A0021C4EA
:1006D000033909F0C7C000916400013009F009C076
:1006E0008FED8093680080916C00826080936C0035
:1006F000B8C0033009F009C08FED80936800809185
:100700006C00826080936C00ACC0063009F007C0BA
:1007100081EE8093680089ED80936900A2C0073064
:1007200009F007C081EE8093680089ED809369002D
:1007300098C0083009F007C081EE8093680089ED09
:10074000809369008EC00A3009F00AC082E6809367
:1007500068008FED8093690089EF80936A0081C003
:100760000B3009F00AC082E6809368008FED809319
:1007700069008FEF80936A0074C00C3009F00AC0E2
:1007800082E6809368008FED809369008FEF8093FD
:100790006A0067C00D3009F00AC082E680936800E5
:1007A0008FED809369008FEF80936A005AC00F30FD
:1007B00009F00AC082E6809368008FED809369009B
:1007C00089EF80936A004DC0013109F00AC08EE6BE
:1007D000809368008FED809369008FEF80936A00AB
:1007E00040C0013809F00AC082E6809368008FEDAE
:1007F0008093690089EF80936A0033C0033809F061
:100800000AC082E6809368008FED8093690089EFCB
:1008100080936A0026C0073809F00AC082E68093F8
:1008200068008FED809369008FEF80936A0019C094
:10083000083809F00AC082E68093680089ED809349
:1008400069008DEF80936A000CC0093809F009C077
:100850008EE58093680089ED8093690084EF809332
:100860006A0057C3043909F0D0C000916400013018
:1008700009F004C08AED80936800C6C0023009F018
:1008800007C082ED809368008FEF80936900BCC041
:10089000033009F007C081EE8093680089E98093F6
:1008A0006900B2C0043009F00AC082E68093680093
:1008B00089E9809369008FEF80936A00A5C00530B5
:1008C00009F00AC082E68093680089E98093690094
:1008D0008FEF80936A0098C0063009F00AC082E664
:1008E000809368008FED8093690089EF80936A00A0
:1008F0008BC0073009F00AC082E68093680089E95E
:10090000809369008FEF80936A007EC00F3009F0FA
:100910000AC082E68093680089E9809369008FEFBE
:1009200080936A0071C00A3009F00AC082E68093A1
:10093000680089E9809369008FEF80936A0064C042
:100940000B3009F00AC082E6809368008FED809337
:10095000690089EF80936A0057C00D3009F007C025
:100960008EED8093680089EE809369004DC0023857
:1009700009F00AC08EE58093680089ED80936900D4
:1009800084EF80936A0040C0033809F00AC082E611
:10099000809368008FED8093690089EF80936A00EF
:1009A00033C0043809F00AC082E68093680089EDFC
:1009B000809369008FEF80936A0026C0073809F0A2
:1009C0000AC082E6809368008FED809369008FEF04
:1009D00080936A0019C0083809F00AC08EE5809338
:1009E000680081E98093690083EF80936A000CC0FE
:1009F000093809F009C08EE58093680089ED80937D
:100A0000690084EF80936A0084C2053909F021C12E
:100A100000916400013009F007C081EF8093680005
:100A200089E98093690014C1023009F007C081EEA2
:100A30008093680089E9809369000AC1033009F056
:100A40000AC082E68093680089E9809369008FEF8D
:100A500080936A00FDC0043009F00AC082E68093EA
:100A6000680089E9809369008FEF80936A00F0C085
:100A7000053009F00AC082E68093680089E9809316
:100A800069008FEF80936A00E3C0063009F00AC066
:100A900082E68093680089E9809369008FEF8093F4
:100AA0006A00D6C0073009F007C08EED8093680059
:100AB00089EE80936900CCC0083009F00AC082E654
:100AC0008093680089E9809369008FEF80936A00C2
:100AD000BFC0003109F007C08EED8093680089EE39
:100AE00080936900B5C0013109F00AC082E68093A5
:100AF000680089E9809369008FEF80936A00A8C03D
:100B0000043109F00AC082E68093680089ED809381
:100B100069008FEF80936A009BC0053109F00AC01D
:100B200082E68093680089E9809369008FEF809363
:100B30006A008EC00B3009F00AC082E6809368001C
:100B400089E9809369008FEF80936A0081C00C303F
:100B500009F00AC082E68093680089E98093690001
:100B60008FEF80936A0074C00D3009F00AC082E6EE
:100B70008093680089E9809369008FEF80936A0011
:100B800067C00E3009F00AC082E68093680089E9E8
:100B9000809369008FEF80936A005AC00F3009F08C
:100BA0000AC082E68093680089ED809369008FEF28
:100BB00080936A004DC00A3809F00AC08EE5809320
:100BC000680089ED8093690084EF80936A0040C0DB
:100BD000013809F00AC082E68093680089E98093B1
:100BE00069008FEF80936A0033C0043809F00AC0AF
:100BF00082E68093680089ED809369008FEF80938F
:100C00006A0026C0063809F00AC082E680936800B0
:100C100089ED809369008FEF80936A0019C00738CF
:100C200009F00AC08EE58093680081E9809369002D
:100C300083EF80936A000CC0083809F009C08EE584
:100C40008093680089E98093690083EF80936A004C
:100C500060C1063909F0D2C000916400023009F089
:100C60000AC081EE8093680089E9809369008DEF66
:100C700080936A00C2C0033009F00AC082E6809304
:100C8000680089E9809369008FEF80936A00B5C09E
:100C9000043009F00AC082E68093680089E98093F5
:100CA00069008FEF80936A00A8C0053009F00AC080
:100CB00082E68093680089E9809369008FEF8093D2
:100CC0006A009BC0063009F00AC082E68093680083
:100CD00089E9809369008FEF80936A008EC00830A5
:100CE00009F00AC082E68093680089E98093690070
:100CF0008FEF80936A0081C0093009F00AC082E654
:100D00008093680089E9809369008FEF80936A007F
:100D100074C00A3009F00AC082E68093680089E94D
:100D2000809369008FEF80936A0067C00B3009F0F1
:100D30000AC082E68093680089E9809369008FEF9A
:100D400080936A005AC00C3009F00AC082E6809392
:100D5000680089E9809369008FEF80936A004DC035
:100D60000D3009F00AC082E68093680089E980931B
:100D700069008FEF80936A0040C00E3009F00AC00E
:100D800082E68093680089E9809369008FEF809301
:100D90006A0033C0013809F00AC082E68093680017
:100DA00089E9809369008FEF80936A0026C002383A
:100DB00009F00AC08EE5809368008BE98093690092
:100DC00083EF80936A0019C0043809F00AC082E6F4
:100DD0008093680089ED809369008FEF80936A00AB
:100DE0000CC0063809F009C082E68093680089EDDE
:100DF000809369008FEF80936A008BC0073909F0F8
:100E00006AC000916400013009F00AC081EC80934F
:100E100068008FEF809369008FEF80936A005AC05B
:100E2000023009F00AC081EE8093680089E980935E
:100E300069008DEF80936A004DC0033009F00AC04D
:100E400082E68093680089E9809369008FEF809340
:100E50006A0040C0043009F00AC082E6809368004E
:100E600089E9809369008FEF80936A0033C0053071
:100E700009F00AC082E68093680089E980936900DE
:100E80008FEF80936A0026C0063009F00AC082E620
:100E90008093680089E9809369008FEF80936A00EE
:100EA00019C0013809F00AC082E68093680089E918
:100EB000809369008FEF80936A000CC0023809F0BC
:100EC00009C08EE58093680089E98093690083EF0B
:100ED00080936A001EC0083909F01BC000916400AD
:100EE000013009F00AC082E68093680089E98093A6
:100EF00069008FEF80936A000CC0023009F009C0CE
:100F000082E68093680089E9809369008FEF80937F
:100F10006A0000916800003081E009F080E08F9362
:100F200000916900003081E009F080E09F91892301
:100F3000882309F40CC057D4E4E7FBE14ED453D422
:100F400052D4EAE2FBE149D44ED4CED2C5D280914C
:100F50006C00806480936C0000916A00003009F09E
:100F600005C080916C008F7B80936C0000916900BC
:100F7000003009F00AC080916C00846080936C009E
:100F800080916C008F7B80936C00E0E9FBE125D4BD
:100F90009C9B05C0E6EAFBE120D425D424C0ACE646
:100FA000B0E08C9183FB0EF407C054D2A99880E87E
:100FB00088BB74D278D213C080E88093A2008CE4FE
:100FC0008093A30097D380E08093A20084E680936F
:100FD000A30090D38CE68093A3008CD3C3D3E2EC20
:100FE000FAE1FBD300D48CD2E2EBFBE1F6D3A8E02C
:100FF000B4E0E5E6F0E09CD4E8D3EAECFBE1EDD325
:10100000A8E0B4E0E6E6F0E093D4DFD3EEECFBE159
:10101000E4D3A8E0B4E0E7E6F0E08AD4D6D3E3D3A3
:10102000E2EDFBE1DAD3A8E0B4E0E8E6F0E080D45A
:10103000CCD3EAECFBE1D1D3A8E0B4E0E9E6F0E000
:1010400077D4C3D3EEECFBE1C8D3A8E0B4E0EAE682
:10105000F0E06ED4BAD3C7D3EAEEFBE1BED3ABE681
:10106000B0E00C9100FB81E00EF480E08F93ABE6E2
:10107000B0E00C9101FB81E00EF480E09F91892BA0
:10108000882309F41AC0E0E0FCE1A7D3A8E0B4E0AB
:10109000EBE6F0E04DD499D3ECE0FCE19ED3A3D392
:1010A000A2D3EEE0FCE199D39ED39DD3EAE2FBE12B
:1010B00094D399D319D206D20DC0E2E4FCE18DD3CA
:1010C000A8E0B4E0EBE6F0E033D47FD3ECE0FCE161
:1010D00084D389D3EEE4FCE180D3A8E0B4E0E8E671
:1010E000F0E026D472D3A8E0B4E0E9E6F0E020D442
:1010F0006CD3A8E0B4E0EAE6F0E01AD466D3EAE5FF
:10110000FCE16BD3ACE6B0E08C9183FB0EF454C0F1
:10111000A1D180E488BB9BD1C1D1B4D1A8E6B0E015
:101120008C9188BBE4D193D1B9D1A99896988FD1ED
:10113000BAD18DD1A3E3B0E08C9180FBDEF7ACE6B1
:10114000B0E08C9182FB0EF417C084D180E488BBA0
:101150007ED1A4D197D1A9E6B0E08C9188BBC7D14C
:1011600076D19CD1A99A969872D19DD170D1A3E3E2
:10117000B0E08C9180FBDEF7ACE6B0E08C9186FBB2
:101180000EF017C067D180E488BB61D187D17AD1D6
:10119000AAE6B0E08C9188BBAAD159D17FD1A99899
:1011A000969A55D180D153D1A3E3B0E08C9180FBC6
:1011B000DEF7A998969852C080E48093A2008CE450
:1011C0008093A30097D2809168008093A200ECD214
:1011D0008CE28093A3008ED280E08093A20084E60C
:1011E0008093A30087D28CE68093A30083D2BAD2E7
:1011F000ACE6B0E08C9182FB0EF415C080916900E2
:101200008093A200D1D28CE28093A30073D280E0BD
:101210008093A20084E78093A3006CD28CE7809334
:10122000A30068D29FD2ACE6B0E08C9186FB0EF0B2
:1012300015C080916A008093A200B6D28CE28093A0
:10124000A30058D280E08093A20086E68093A3009A
:1012500051D28EE68093A3004DD284D2E2ECFAE123
:10126000BCD2C1D24DD1E0E6FCE1B7D2A8E0B4E0F7
:10127000E5E6F0E05DD3A9D2EAECFBE1AED2A8E06E
:10128000B4E0E6E6F0E054D3A0D2EEECFBE1A5D268
:10129000A8E0B4E0E7E6F0E04BD397D240916800D5
:1012A00000916500041709F405C080916C00806806
:1012B00080936C00ACE6B0E08C9182FB0EF40CC025
:1012C0004091690000916600041709F405C08091FF
:1012D0006C00806880936C00ACE6B0E08C9186FB7B
:1012E0000EF00CC040916A0000916700041709F4E9
:1012F00005C080916C00806880936C00ACE6B0E023
:101300008C9187FB0EF011C0E0EEFAE166D26BD251
:101310006AD2E6E1FBE161D266D265D2EAE2FBE1A4
:101320005CD261D2E1D0C4D006C0E8E7FCE155D27E
:101330005AD2DAD0D6D0EEEFF1E0A0E6B0E02CD36E
:10134000A0E6B0E03BD2EEEFF1E0A0E6B0E07BE754
:1013500012D349D2A8E0B4E0E0E6F0E090D235D272
:10136000E0E8FCE13AD23FD23ED2EAE2FBE135D2FC
:101370003AD2F894FFCF6ED084E088BB68D08ED08C
:1013800080E087BB80E088BB62D09298A99896984D
:101390005ED0A5E6B0E086B38C93929AACE6B0E05E
:1013A0008C9182FB0EF40AC052D09298A99A969A18
:1013B0004ED0A6E6B0E086B38C93929AACE6B0E04D
:1013C0008C9186FB0EF00AC042D09298A998969A0A
:1013D0003ED0A7E6B0E086B38C93929A38D092982C
:1013E000A99A969834D0ACE6B0E08C9181FB0EF0CF
:1013F00026C0A5E6B0E086B38C936894A5E6B0E07D
:101400008C9187F98C936894A5E6B0E08C9186F96D
:101410008C938FEF80936B00A6E3B0E08C9187FBF9
:10142000ABE6B0E08C9180F98C93A6E3B0E08C91B0
:1014300086FBABE6B0E08C9181F98C9304C0ABE6FF
:10144000B0E086B38C93929A8FEF87BB089500002B
:1014500000000895AB9AACE6B0E08C9185FB0EF0ED
:1014600001C0969AAA98A998F2DF0895AB98ACE6C5
:10147000B0E08C9185FB0EF001C09698AA98A998CF
:10148000E6DF0895AB98ACE6B0E08C9185FB0EF0FA
:1014900001C09698AA9AA998DADF0895939AD7DF9F
:1014A0009398D5DF08959498D2DF949AD0DF089569
:1014B000AB9885B394E0892785BB84EF91E0A3D1F5
:1014C000F8CF0895AA9885B398E0892785BB84EF63
:1014D00091E099D1F8CF0895AB98AA9AF894FFCFEC
:1014E0000895AA98AB9A0895959A97980895ACE6AE
:1014F000B0E08C9180FB0EF002C08FEF88BB0895A6
:10150000ACE6B0E08C9183FB0EF402C034DF01C086
:1015100001D0089584E08093A2008CE48093A3001E
:10152000E9D080E08093A20088E68093A300E2D017
:101530008CE68093A30061D08091A4008093650025
:10154000ACE6B0E08C9182FB0EF40CC08AE780938D
:10155000A300D0D08EE78093A3004FD08091A40049
:1015600080936600ACE6B0E08C9186FB0EF00CC078
:101570008AE68093A300BED08EE68093A3003DD080
:101580008091A4008093670088E78093A300B2D085
:101590008CE78093A30031D0ACE6B0E08C9181FB66
:1015A0000EF026C08091A400809365006894A5E6A3
:1015B000B0E08C9187F98C936894A5E6B0E08C91AB
:1015C00086F98C938FEF80936B00A4EAB0E08C9146
:1015D00087FBABE6B0E08C9180F98C93A4EAB0E095
:1015E0008C9186FBABE6B0E08C9181F98C9304C0C2
:1015F0008091A40080936B000895AB98AA98BAD00C
:10160000A3E3B0E08C9181FBA4EAB0E08C9187F970
:101610008C9388E08093A50087E08093A60080915A
:10162000A50081508093A5008091A60081508093F1
:10163000A600A5EAB0E08C91A2EAB0E006D1FBD00A
:101640000C900822689409F4E894A5E3B0E08C912A
:1016500083F98C93A5EAB0E08C91A3EAB0E0F5D0D1
:10166000EAD00C900822689409F4E894A5E3B0E06D
:101670008C9182F98C937ED0A3E3B0E08C9181FBB6
:10168000A6EAB0E08C91A4EAB0E0DFD0D4D00C9010
:1016900016F0092201C0082A0C920091A600003021
:1016A00009F0BDCFA5EAB0E08C91A2EAB0E0CDD0C0
:1016B000C2D00C900822689409F4E894A5E3B0E045
:1016C0008C9183F98C93A5EAB0E08C91A3EAB0E009
:1016D000BCD0B1D00C900822689409F4E894A5E33A
:1016E000B0E08C9182F98C9345D0AB98AA9842D007
:1016F00041D00895AB98AA983DD088E08093A5008A
:101700008091A50081508093A500A5EAB0E08C915E
:10171000A2EAB0E09AD08FD00C900822689409F425
:10172000E894A5E3B0E08C9183F98C93A5EAB0E04E
:101730008C91A3EAB0E089D07ED00C900822689406
:1017400009F4E894A5E3B0E08C9182F98C9312D06F
:101750000091A500003009F0D3CFAB98AA980AD029
:1017600009D0089500000000A3E3B0E08C9181FB54
:10177000DEF7089500000000A89A00000000A89875
:1017800080E080936D00AD9A00000000AD980000ED
:101790000000ADE6B0E08C918F5F8C9300916D00FE
:1017A000003109F0F0CF0895ACE6B0E08C9180FBF9
:1017B0000EF003C08FEF8093A2000895ED91FC918D
:1017C000EF5FFF4FFC93EE930895A8E0B4E08D9196
:1017D000882311F00BD0FBCF089529D0802D11F074
:1017E00005D0FBCF08958DE001D08AE05D9BFECF50
:1017F0008CB908953197F1F70895689462F80895C7
:10180000E89462F80895EF93FF93EE27E82BE92B15
:1018100031F0EAEFF0E03197F1F70197D1F7FF915E
:10182000EF91089504D00D920020E1F70895C89536
:1018300031960020089591E0882321F08894991F23
:101840008A95E9F7892F90950895883018F01196B8
:101850008850FBCF089588279D91890F9923E1F740
:101860000895000F111F221F331F08950095109532
:10187000209530950F5F1F4F2F4F3F4F08950191D7
:1018800010810EC001911191219130810BC0019105
:10189000108117FF05C03FEF2FEF04C00081112713
:1018A0002227332737FF03C0E1DF8DE28D93CF93EB
:1018B000DF93CF92DF92EF92AA24BB24CC24DD24C5
:1018C000EE2440E2CAE0DD2755E093E38881890FEA
:1018D00087FD9F7083FD907F891B89935A95A9F797
:1018E000C0DFAA1CBB1CCC1CDD1CEE1C4A9551F7AA
:1018F000E894EFE0FF2782910ED0EB30E0F71EF086
:1019000068948A2D0CD088278D93EF90DF90CF902C
:10191000DF91CF910895982F829501D0892F8F70F4
:10192000805D26F0803309F4089568948D930895BE
:1019300041E003C042E001C044E0E40F8827F81F03
:101940008291982F829505D0892F03D04A95C1F7AF
:1019500007C08F708A3008F0895F805D8D9308958D
:1019600088278D930895E199FECFEEBBFFBB31969A
:10197000089591E001C092E07B3751F47FB7F8946D
:10198000F2DF8D918DBBE29AE19A9A95C9F77FBFFC
:101990007727089591E001C092E0E5DFE09A8DB3EA
:1019A0008D939A95D1F70895DEDFE09A8DB38D93EC
:1019B000882319F09A95C1F79D93089557656C6334
:1019C0006F6D65004156522041746D6567612066F8
:1019D00075736562697420646F63746F7220284840
:1019E0005650502B48565350292076657273696FB4
:1019F0006E20322E30390000687474703A2F2F64D4
:101A000069792E656C656B74726F64612E65752FD4
:101A100061746D6567612D667573656269742D64A7
:101A20006F63746F722D687670700000526567691D
:101A300073746572656420746F200000557361676C
:101A40006520696E20636F6D6D65726369616C2FCF
:101A500070726F66697420707572706F7365732031
:101A60006E6F7420616C6C6F77656400666F7220B6
:101A70006669726D776172652075706461746573F3
:101A80003A20747769747465722E636F6D2F6D617F
:101A90006E656B696E656E0048565350204D4F441D
:101AA000450048565050204D4F444500496E6974DA
:101AB0002070726F6772616D6D696E672E2E2E20B9
:101AC0002000444F4E4500005265616420736967F1
:101AD0006E61747572652E2E2E202020200020004D
:101AE0002D204641494C21004E6F206368697020CB
:101AF000696E20736F636B6574206F722063686911
:101B00007020646F6573206E6F7420726573706FE0
:101B10006E64696E6700506C6561736520747279DC
:101B200020616761696E2E2E2E005468616E6B20F5
:101B3000596F7500547279696E67205432333133AE
:101B40002070696E6F75742E2E0053656172636824
:101B5000696E6720636869702E2E2E202020206E0B
:101B60006F206E616D657320696E20386B42207640
:101B70006572000043686970206E6F742073757021
:101B8000706F727465642C20736F7272792E00000E
:101B9000436869702065726173652E2E2E202020A7
:101BA000202020202000444953414C4C4F574544AD
:101BB0000000526561642066757365626974732EF6
:101BC0002E2E20202020204C3A0020483A0020458C
:101BD0003A0053686F756C642062652E2E2E2020AB
:101BE000202020202020204C3A004C6F636B62693B
:101BF00074732E2E2E202020202020202020200034
:101C0000454E41424C454420202800002900506C9C
:101C10006561736520616C6C6F7720746F206572ED
:101C200061736520746865206368697020746F2033
:101C300064697361626C65206C6F636B6269747355
:101C4000000044495341424C45442028000052655D
:101C500077726974696E672000002E2E2E20200096
:101C6000566572696679696E672E2E2E20202020B7
:101C700020202020204C3A00202D204F4B21000016
:0E1C80002066697865642063686970730000EF
:00000001FF
