:1000000012C0189518951895189518951895189563
:100010001895189518951895189518951895189578
:100020001895189518958FE58DBFC8E3E0E24E2E20
:1000300084E08EBFD4E0F4E05F2EA89584B7082E4C
:10004000877F84BF88E1992781BD91BDEEEFF3E002
:10005000A0E6B0E088278D933197E9F786E089B96B
:1000600080E080BD88E18AB966248CE089B980E0AF
:1000700080BD8FEF87BB8EE284BB80E185BB8FEFB5
:1000800081BB87E382BB56DD55DD54DDEAE0FDE14F
:100090004BDD50DDAFE6B0E0E2E1FDE16ADDAFE669
:1000A000B0E03CDD47DDAFE6B0E07CDD082F0E338D
:1000B00009F405C080916C00816080936C00AFE60C
:1000C000B0E0E6E4FDE155DDAFE6B0E027DD32DD8E
:1000D000AFE6B0E067DD082F0F3E09F405C0809160
:1000E0006C00816080936C00E2E0F0E0AEE6B0E08E
:1000F000F8DDAEE6B0E08C9180958C93E4E0F0E022
:10010000AFE6B0E094E2F7DD40916E00AFE6B0E01C
:1001100049DD082F041709F008C0EAE7FDE104DD16
:10012000AFE6B0E0FBDC06DD15C0AFE6B0E0EAE824
:10013000FDE11FDDAFE6B0E0F1DCFCDCAFE6B0E0F6
:1001400031DD082F053009F405C080916C00816015
:1001500080936C00EAEBFDE1E7DCECDCEBDC80910A
:100160006C00886080936C008A98939A17DB829960
:1001700005C080916C00877F80936C0093980EDBA4
:10018000829B05C080916C00877F80936C008A9A67
:10019000ACE6B0E08C9183FB0EF006C0E6EEFDE12C
:1001A000C3DCC8DCA09A04C0E0EFFDE1BDDCC2DC2A
:1001B000C1DCEAEFFDE1B8DCACE6B0E08C9183FB9A
:1001C0000EF006C0A998AA98AB989498AD9805C06F
:1001D0009698AA98AB98A998949884E690E0BADC8F
:1001E0009598EF93FF93E5E1F0E0ABDCFF91EF91A1
:1001F000979AACE6B0E08C9183FB0EF417C081E0D7
:1002000090E0A0E6B0E08D939C93A0E6B0E00D9165
:100210001C910A3050E0150710F009F006C0E5DA2D
:10022000A0E6B0E072DC08F4F0CF04C094988C989B
:10023000A998A198EF93FF93E9E7F0E082DCFF91A2
:10024000EF91949AACE6B0E08C9183FB0EF405C07C
:10025000A3E3B0E08C9180FBDEF7E0E1FEE164DC3B
:1002600069DCC8DAE6E1FEE15FDCACE6B0E08C9187
:1002700083FB0EF448C095DAA99888E088BB8EDA33
:10028000B4DA81E090E0A0E6B0E08D939C93A0E624
:10029000B0E00D911C91033050E0150710F009F00B
:1002A00031C08BDAA9980091600041E0041B08BBC3
:1002B00075DA9BDA80E087BB80E088BB9298A998CA
:1002C0006DDAA0E6B0E0AD90BC90A1E6B0E0AA0D7A
:1002D000BB1D86B38C93929A8FEF87BBA8E0B4E0E6
:1002E000E0E6F0E0A190B080E1E6F0E0EA0DFB1D71
:1002F000C6DC12DCECE2FEE117DCA0E6B0E005DCD7
:1003000008F4C5CF4FC088E08093A2008CE48093AE
:10031000A30097DB81E090E0A0E6B0E08D939C9392
:10032000A0E6B0E00D911C91033050E0150710F0ED
:1003300009F038C00091600041E0041BA2EAB0E07F
:100340000C938CE08093A3007CDB80E08093A20080
:1003500088E68093A30075DB80E08093A2008CE6A2
:100360008093A300F1DA8091A400A0E6B0E0AD9004
:10037000BC90A1E6B0E0AA0DBB1D8C93A8E0B4E050
:10038000E0E6F0E0A190B080E1E6F0E0EA0DFB1DD0
:1003900076DCC2DBECE2FEE1C7DBA0E6B0E0B5DB79
:1003A00008F4BECF009162000E3181E009F480E0D4
:1003B0008F9300916300003981E008F080E09F9105
:1003C000892B8F9300916300083980E010F009F0C9
:1003D00081E09F91892B882309F43AC0ACE6B0E014
:1003E0008C9185FB81E00EF080E08F93ACE6B0E06D
:1003F0008C9183FB81E00EF080E09F91892B882314
:1004000009F414C0EEE2FEE18FDB94DB93DBE6E35C
:10041000FEE18ADB8FDBE2E6FEE186DB8BDB8ADB5B
:10042000E6E7FEE181DB86DB06DAFDD9ACE6B0E08B
:100430008C9183FB0EF40CC0EEE2FEE175DB7ADBFF
:10044000E0E8FEE171DB80916C00806280936C00DB
:10045000009162000E3181E009F080E08F930091FD
:1004600063000F3880E010F009F081E09F9189234C
:100470008F9300916300093981E008F080E09F913B
:100480008923882309F4F1CE55DBE6E9FEE14CDB54
:1004900051DB00916300003909F041C00091640014
:1004A000013009F00EC08FED8093680080916C00E0
:1004B000846080936C0080916C00826080936C00FB
:1004C0002DC0043009F009C08CEF80936800809142
:1004D0006C00846080936C0021C0053009F009C075
:1004E00082E58093680080916C00846080936C004A
:1004F00015C0063009F009C08CE580936800809132
:100500006C00846080936C0009C0073009F006C05D
:100510008AE6809368008FEF80936900BFC6013937
:1005200009F0ABC000916400013009F00EC08FEDFE
:100530008093680080916C00846080936C0080914F
:100540006C00826080936C0097C0023009F00EC08E
:100550008EED8093680080916C00846080936C00C5
:1005600080916C00826080936C0086C0033009F03B
:100570000EC08EED8093680080916C008460809343
:100580006C0080916C00826080936C0075C00530B7
:1005900009F009C08AED8093680080916C00846046
:1005A00080936C0069C0063009F009C08EED80931D
:1005B000680080916C00846080936C005DC008309E
:1005C00009F00FC082E6809368008FED8093690088
:1005D0008FEF80936A0080916C00806480936C0040
:1005E0004BC00A3009F00FC084E6809368008FED9D
:1005F000809369008FEF80936A0080916C00806423
:1006000080936C0039C00B3009F00FC082E68093F4
:1006100068008FED809369008FEF80936A0080916E
:100620006C00806480936C0027C0093009F007C01B
:1006300081EE8093680087EF809369001DC00730CA
:1006400009F009C082EF8093680080916C0084609B
:1006500080936C0011C00C3009F00EC082E68093CC
:1006600068008FED809369008FEF80936A0080911E
:100670006C00806480936C0011C6023909F0C0C020
:1006800000916400013009F00EC08FED8093680086
:1006900080916C00846080936C0080916C0082601B
:1006A00080936C00ACC0023009F00EC08FED8093D7
:1006B000680080916C00846080936C0080916C0075
:1006C000826080936C009BC0033009F009C08AED02
:1006D0008093680080916C00846080936C008FC070
:1006E000053009F00FC082E6809368008FED80939B
:1006F00069008FEF80936A0080916C008064809322
:100700006C007DC0073009F00FC082E6809368005E
:100710008FED809369008FEF80936A0080916C0069
:10072000806480936C006BC00A3009F00FC082E6D1
:10073000809368008FED809369008FEF80936A004B
:1007400080916C00806480936C0059C0063009F081
:100750000FC082E6809368008FED809369008FEF71
:1007600080936A0080916C00806480936C0047C025
:10077000093009F00FC08EE6809368008FED8093FA
:1007800069008FEF80936A0080916C008064809391
:100790006C0035C0083009F00FC082E68093680015
:1007A0008FED809369008FEF80936A0080916C00D9
:1007B000806480936C0023C00D3009F00FC084E684
:1007C000809368008FED809369008FEF80936A00BB
:1007D00080916C00806480936C0011C00C3009F033
:1007E0000EC082E6809368008FED809369008FEFE2
:1007F00080936A0080916C00806480936C004EC589
:10080000033909F008C100916400013009F00EC0FD
:100810008FED8093680080916C00846080936C0001
:1008200080916C00826080936C00F4C0033009F00A
:100830000EC08FED8093680080916C00846080937F
:100840006C0080916C00826080936C00E3C0073084
:1008500009F007C081EE8093680089ED80936900FC
:10086000D9C0063009F007C081EE8093680089ED99
:1008700080936900CFC0083009F007C081EE8093F3
:10088000680089ED80936900C5C00A3009F00FC087
:1008900082E6809368008FED8093690089EF8093F2
:1008A0006A0080916C00806480936C00B3C00B3050
:1008B00009F00FC082E6809368008FED8093690095
:1008C0008FEF80936A0080916C00806480936C004D
:1008D000A1C00C3009F00FC082E6809368008FED54
:1008E000809369008FEF80936A0080916C00806430
:1008F00080936C008FC00F3009F00FC082E68093A8
:1009000068008FED8093690089EF80936A00809181
:100910006C00806480936C007DC0013109F00FC0D1
:100920008EE6809368008FED809369008FEF80934F
:100930006A0080916C00806480936C006BC0013809
:1009400009F00FC082E6809368008FED8093690004
:1009500089EF80936A0080916C00806480936C00C2
:1009600059C0033809F00FC082E6809368008FED0C
:100970008093690089EF80936A0080916C008064A5
:1009800080936C0047C0073809F00FC082E680935F
:1009900068008FED809369008FEF80936A008091EB
:1009A0006C00806480936C0035C0083809F00FC07B
:1009B00082E68093680089ED809369008DEF8093D3
:1009C0006A0080916C00806480936C0023C00938B9
:1009D00009F00FC08EE58093680089ED809369006F
:1009E00084EF80936A0080916C00806480936C0037
:1009F00011C00D3009F00EC082E6809368008FEDC3
:100A0000809369008FEF80936A0080916C0080640E
:100A100080936C0043C4043909F016C1009164004E
:100A2000013009F009C08AED8093680080916C0064
:100A3000846080936C0007C1023009F007C082ED2A
:100A4000809368008FEF80936900FDC0033009F048
:100A500007C081EE8093680089E980936900F3C044
:100A6000043009F00FC082E68093680089E9809322
:100A700069008FEF80936A0080916C00806480939E
:100A80006C00E1C0053009F00FC082E68093680079
:100A900089E9809369008FEF80936A0080916C00F0
:100AA000806480936C00CFC0063009F00FC082E6EE
:100AB000809368008FED8093690089EF80936A00CE
:100AC00080916C00806480936C00BDC0073009F099
:100AD0000FC082E68093680089E9809369008FEFF8
:100AE00080936A0080916C00806480936C00ABC03E
:100AF0000F3009F00FC082E68093680089E9809387
:100B000069008FEF80936A0080916C00806480930D
:100B10006C0099C00A3009F00FC082E6809368002B
:100B200089E9809369008FEF80936A0080916C005F
:100B3000806480936C0087C00B3009F00FC082E6A0
:100B4000809368008FED8093690089EF80936A003D
:100B500080916C00806480936C0075C00D3009F04A
:100B600007C08EED8093680089EE809369006BC0AA
:100B7000033809F00FC082E6809368008FED809300
:100B8000690089EF80936A0080916C008064809393
:100B90006C0059C0073809F00FC082E680936800E6
:100BA0008FED809369008FEF80936A0080916C00D5
:100BB000806480936C0047C0093809F00FC08EE54F
:100BC0008093680089ED8093690084EF80936A00C8
:100BD00080916C00806480936C0035C0023809F00D
:100BE0000FC08EE58093680089ED8093690084EFE3
:100BF00080936A0080916C00806480936C0023C0B5
:100C0000083809F00FC08EE58093680081E9809371
:100C1000690083EF80936A0080916C008064809308
:100C20006C0011C0043809F00EC082E680936800A1
:100C300089ED809369008FEF80936A0080916C004A
:100C4000806480936C002AC3053909F080C100914B
:100C50006400013009F007C081EF8093680089E9E2
:100C60008093690073C1023009F007C081EE809360
:100C7000680089E98093690069C1033009F00FC0F9
:100C800082E68093680089E9809369008FEF809302
:100C90006A0080916C00806480936C0057C10430BE
:100CA00009F00FC082E68093680089E980936900AB
:100CB0008FEF80936A0080916C00806480936C0059
:100CC00045C1073009F007C08EED8093680089EEBA
:100CD000809369003BC1003109F007C08EED80931D
:100CE000680089EE8093690031C1053109F00FC0B9
:100CF00082E68093680089E9809369008FEF809392
:100D00006A0080916C00806480936C001FC1013187
:100D100009F00FC082E68093680089E9809369003A
:100D20008FEF80936A0080916C00806480936C00E8
:100D30000DC1083009F00FC082E68093680089E990
:100D4000809369008FEF80936A0080916C008064CB
:100D500080936C00FBC0053009F00FC082E68093E1
:100D6000680089E9809369008FEF80936A00809121
:100D70006C00806480936C00E9C0063009F00FC0FD
:100D800082E68093680089E9809369008FEF809301
:100D90006A0080916C00806480936C00D7C004313D
:100DA00009F00FC082E68093680089ED80936900A6
:100DB0008FEF80936A0080916C00806480936C0058
:100DC000C5C00F3009F00FC082E68093680089ED3E
:100DD000809369008FEF80936A0080916C0080643B
:100DE00080936C00B3C00D3009F00FC082E6809391
:100DF000680089E9809369008FEF80936A00809191
:100E00006C00806480936C00A1C00E3009F00FC0AC
:100E100082E68093680089E9809369008FEF809370
:100E20006A0080916C00806480936C008FC00A38E7
:100E300009F00FC08EE58093680089ED809369000A
:100E400084EF80936A0080916C00806480936C00D2
:100E50007DC0073809F00FC08EE58093680081E9F6
:100E60008093690083EF80936A0080916C008064B6
:100E700080936C006BC0083809F00FC08EE580933A
:100E8000680089E98093690083EF80936A0080910C
:100E90006C00806480936C0059C0043809F00FC066
:100EA00082E68093680089ED809369008FEF8093DC
:100EB0006A0080916C00806480936C0047C00638A3
:100EC00009F00FC082E68093680089ED8093690085
:100ED0008FEF80936A0080916C00806480936C0037
:100EE00035C0013809F00FC082E68093680089E9B7
:100EF000809369008FEF80936A0080916C0080641A
:100F000080936C0023C00B3009F00FC082E6809301
:100F1000680089E9809369008FEF80936A0080916F
:100F20006C00806480936C0011C00C3009F00EC01E
:100F300082E68093680089E9809369008FEF80934F
:100F40006A0080916C00806480936C00A7C10639B0
:100F500009F0E7C000916400023009F00FC081EE93
:100F60008093680089E9809369008DEF80936A001F
:100F700080916C00806480936C00D2C0033009F0D3
:100F80000FC082E68093680089E9809369008FEF43
:100F900080936A0080916C00806480936C00C0C074
:100FA000043009F00FC082E68093680089E98093DD
:100FB00069008FEF80936A0080916C008064809359
:100FC0006C00AEC0053009F00FC082E68093680067
:100FD00089E9809369008FEF80936A0080916C00AB
:100FE000806480936C009CC0063009F00FC082E6DC
:100FF0008093680089E9809369008FEF80936A008D
:1010000080916C00806480936C008AC0083009F085
:101010000FC082E68093680089E9809369008FEFB2
:1010200080936A0080916C00806480936C0078C02B
:10103000093009F00FC082E68093680089E9809347
:1010400069008FEF80936A0080916C0080648093C8
:101050006C0066C00A3009F00FC082E68093680019
:1010600089E9809369008FEF80936A0080916C001A
:10107000806480936C0054C00B3009F00AC082E693
:101080008093680089E9809369008FEF80936A00FC
:1010900047C0023809F00FC08EE5809368008BE9E5
:1010A0008093690083EF80936A0080916C00806474
:1010B00080936C0035C0043809F00FC082E680933D
:1010C000680089ED809369008FEF80936A008091BA
:1010D0006C00806480936C0023C0013809F00FC05D
:1010E00082E68093680089E9809369008FEF80939E
:1010F0006A0080916C00806480936C0011C0063897
:1011000009F00EC082E68093680089ED8093690043
:101110008FEF80936A0080916C00806480936C00F4
:10112000BDC0073909F092C000916400013009F098
:101130000FC081EC809368008FEF809369008FEF80
:1011400080936A0080916C00806480936C007DC005
:10115000023009F00FC081EE8093680089E9809326
:1011600069008DEF80936A0080916C0080648093A9
:101170006C006BC0033009F00FC082E680936800FA
:1011800089E9809369008FEF80936A0080916C00F9
:10119000806480936C0059C0043009F00FC082E66F
:1011A0008093680089E9809369008FEF80936A00DB
:1011B00080916C00806480936C0047C0053009F01A
:1011C0000FC082E68093680089E9809369008FEF01
:1011D00080936A0080916C00806480936C0035C0BD
:1011E000063009F00FC082E68093680089E9809399
:1011F00069008FEF80936A0080916C008064809317
:101200006C0023C0023809F00FC08EE5809368009F
:1012100089E98093690083EF80936A0080916C0074
:10122000806480936C0011C0013809F00EC082E622
:101230008093680089E9809369008FEF80936A004A
:1012400080916C00806480936C0028C0083909F09C
:1012500025C000916400013009F00FC082E6809340
:10126000680089E9809369008FEF80936A0080911C
:101270006C00806480936C0011C0023009F00EC0D5
:1012800082E68093680089E9809369008FEF8093FC
:101290006A0080916C00806480936C00009168000B
:1012A000003081E009F080E08F9300916900003008
:1012B00081E009F080E09F918923882309F40CC024
:1012C00039D4E0ECFEE130D435D434D4E6E7FEE1A5
:1012D0002BD430D4B0D2A7D2ECEDFEE125D49C9B28
:1012E00005C0E2EFFEE120D425D424C0ACE6B0E096
:1012F0008C9183FB0EF407C054D2A99880E888BB78
:1013000074D278D213C080E88093A2008CE48093DA
:10131000A30097D380E08093A20084E68093A3008B
:1013200090D38CE68093A3008CD3C3D3E0E1FEE19D
:10133000FBD300D48CD2EEEFFEE1F6D3A8E0B4E00C
:10134000E5E6F0E09CD4E8D3E6E1FFE1EDD3A8E0E8
:10135000B4E0E6E6F0E093D4DFD3EAE1FFE1E4D3E2
:10136000A8E0B4E0E7E6F0E08AD4D6D3E3D3EEE138
:10137000FFE1DAD3A8E0B4E0E8E6F0E080D4CCD333
:10138000E6E1FFE1D1D3A8E0B4E0E9E6F0E077D40C
:10139000C3D3EAE1FFE1C8D3A8E0B4E0EAE6F0E0B5
:1013A0006ED4BAD3C7D3E6E3FFE1BED3ABE6B0E079
:1013B0000C9100FB81E00EF480E08F93ABE6B0E08F
:1013C0000C9101FB81E00EF480E09F91892B882332
:1013D00009F41AC0ECE4FFE1A7D3A8E0B4E0EBE61F
:1013E000F0E04DD499D3E8E5FFE19ED3A3D3A2D397
:1013F000EAE5FFE199D39ED39DD3E6E7FEE194D3DE
:1014000099D319D206D20DC0EEE8FFE18DD3A8E042
:10141000B4E0EBE6F0E033D47FD3E8E5FFE184D33A
:1014200089D3EAE9FFE180D3A8E0B4E0E8E6F0E0A0
:1014300026D472D3A8E0B4E0E9E6F0E020D46CD37F
:10144000A8E0B4E0EAE6F0E01AD466D3E6EAFFE109
:101450006BD3ACE6B0E08C9183FB0EF454C0A1D109
:1014600080E488BB9BD1C1D1B4D1A8E6B0E08C9117
:1014700088BBE4D193D1B9D1A99896988FD1BAD12C
:101480008DD1A3E3B0E08C9180FBDEF7ACE6B0E059
:101490008C9182FB0EF417C084D180E488BB7ED18E
:1014A000A4D197D1A9E6B0E08C9188BBC7D176D101
:1014B0009CD1A99A969872D19DD170D1A3E3B0E046
:1014C0008C9180FBDEF7ACE6B0E08C9186FB0EF0F1
:1014D00017C067D180E488BB61D187D17AD1AAE6F1
:1014E000B0E08C9188BBAAD159D17FD1A998969AA6
:1014F00055D180D153D1A3E3B0E08C9180FBDEF7CE
:10150000A998969852C080E48093A2008CE48093BE
:10151000A30097D2809168008093A200ECD28CE265
:101520008093A3008ED280E08093A20084E6809313
:10153000A30087D28CE68093A30083D2BAD2ACE614
:10154000B0E08C9182FB0EF415C08091690080930D
:10155000A200D1D28CE28093A30073D280E080936A
:10156000A20084E78093A3006CD28CE78093A30051
:1015700068D29FD2ACE6B0E08C9186FB0EF015C02D
:1015800080916A008093A200B6D28CE28093A3007F
:1015900058D280E08093A20086E68093A30051D2C7
:1015A0008EE68093A3004DD284D2E0E1FEE1BCD26E
:1015B000C1D24DD1ECEAFFE1B7D2A8E0B4E0E5E654
:1015C000F0E05DD3A9D2E6E1FFE1AED2A8E0B4E05D
:1015D000E6E6F0E054D3A0D2EAE1FFE1A5D2A8E02C
:1015E000B4E0E7E6F0E04BD397D240916800009179
:1015F0006500041709F405C080916C008068809331
:101600006C00ACE6B0E08C9182FB0EF40CC0409113
:10161000690000916600041709F405C080916C0010
:10162000806880936C00ACE6B0E08C9186FB0EF095
:101630000CC040916A0000916700041709F405C0CE
:1016400080916C00806880936C00ACE6B0E08C9177
:1016500087FB0EF011C0E4ECFFE166D26BD26AD2D8
:10166000E2E6FEE161D266D265D2E6E7FEE15CD257
:1016700061D2E1D0C4D006C0EEECFFE155D25AD21F
:10168000DAD0D6D0EEEFF1E0A0E6B0E02CD3A0E6C1
:10169000B0E03BD2EEEFF1E0A0E6B0E07BE712D3A2
:1016A00049D2A8E0B4E0E0E6F0E090D235D2E6ED31
:1016B000FFE13AD23FD23ED2E6E7FEE135D23AD25E
:1016C000F894FFCF6ED084E088BB68D08ED080E0E5
:1016D00087BB80E088BB62D09298A99896985ED02C
:1016E000A5E6B0E086B38C93929AACE6B0E08C911C
:1016F00082FB0EF40AC052D09298A99A969A4ED0C4
:10170000A6E6B0E086B38C93929AACE6B0E08C91FA
:1017100086FB0EF00AC042D09298A998969A3ED0C5
:10172000A7E6B0E086B38C93929A38D09298A99AA3
:10173000969834D0ACE6B0E08C9181FB0EF026C0D8
:10174000A5E6B0E086B38C936894A5E6B0E08C91F2
:1017500087F98C936894A5E6B0E08C9186F98C9318
:101760008FEF80936B00A6E3B0E08C9187FBABE634
:10177000B0E08C9180F98C93A6E3B0E08C9186FB6D
:10178000ABE6B0E08C9181F98C9304C0ABE6B0E09D
:1017900086B38C93929A8FEF87BB08950000000068
:1017A0000895AB9AACE6B0E08C9185FB0EF001C0D9
:1017B000969AAA98A998F2DF0895AB98ACE6B0E0A3
:1017C0008C9185FB0EF001C09698AA98A998E6DF47
:1017D0000895AB98ACE6B0E08C9185FB0EF001C0AB
:1017E0009698AA9AA998DADF0895939AD7DF9398E2
:1017F000D5DF08959498D2DF949AD0DF0895AB98FE
:1018000085B394E0892785BB84EF91E0A3D1F8CF1D
:101810000895AA9885B398E0892785BB84EF91E065
:1018200099D1F8CF0895AB98AA9AF894FFCF08956C
:10183000AA98AB9A0895959A97980895ACE6B0E067
:101840008C9180FB0EF002C08FEF88BB0895ACE650
:10185000B0E08C9183FB0EF402C034DF01C001D0F4
:10186000089584E08093A2008CE48093A300E9D0E3
:1018700080E08093A20088E68093A300E2D08CE60B
:101880008093A30061D08091A40080936500ACE6B2
:10189000B0E08C9182FB0EF40CC08AE78093A30029
:1018A000D0D08EE78093A3004FD08091A400809386
:1018B0006600ACE6B0E08C9186FB0EF00CC08AE6C8
:1018C0008093A300BED08EE68093A3003DD080918C
:1018D000A4008093670088E78093A300B2D08CE7D0
:1018E0008093A30031D0ACE6B0E08C9181FB0EF088
:1018F00026C08091A400809365006894A5E6B0E0BE
:101900008C9187F98C936894A5E6B0E08C9186F968
:101910008C938FEF80936B00A4EAB0E08C9187FBEF
:10192000ABE6B0E08C9180F98C93A4EAB0E08C91A6
:1019300086FBABE6B0E08C9181F98C9304C080917A
:10194000A40080936B000895AB98AA98BAD0A3E343
:10195000B0E08C9181FBA4EAB0E08C9187F98C9384
:1019600088E08093A50087E08093A6008091A50081
:1019700081508093A5008091A60081508093A6009D
:10198000A5EAB0E08C91A2EAB0E006D1FBD00C90C1
:101990000822689409F4E894A5E3B0E08C9183F9F7
:1019A0008C93A5EAB0E08C91A3EAB0E0F5D0EAD040
:1019B0000C900822689409F4E894A5E3B0E08C91B7
:1019C00082F98C937ED0A3E3B0E08C9181FBA6EAF0
:1019D000B0E08C91A4EAB0E0DFD0D4D00C9016F047
:1019E000092201C0082A0C920091A600003009F0DB
:1019F000BDCFA5EAB0E08C91A2EAB0E0CDD0C2D0D4
:101A00000C900822689409F4E894A5E3B0E08C9166
:101A100083F98C93A5EAB0E08C91A3EAB0E0BCD046
:101A2000B1D00C900822689409F4E894A5E3B0E0E2
:101A30008C9182F98C9345D0AB98AA9842D041D032
:101A40000895AB98AA983DD088E08093A500809136
:101A5000A50081508093A500A5EAB0E08C91A2EA90
:101A6000B0E09AD08FD00C900822689409F4E894E2
:101A7000A5E3B0E08C9183F98C93A5EAB0E08C915A
:101A8000A3EAB0E089D07ED00C900822689409F4D3
:101A9000E894A5E3B0E08C9182F98C9312D0009188
:101AA000A500003009F0D3CFAB98AA980AD009D08E
:101AB000089500000000A3E3B0E08C9181FBDEF705
:101AC000089500000000A89A00000000A89880E097
:101AD00080936D00AD9A00000000AD9800000000FA
:101AE000ADE6B0E08C918F5F8C9300916D0000317A
:101AF00009F0F0CF0895ACE6B0E08C9180FB0EF0D9
:101B000003C08FEF8093A2000895ED91FC91EF5FE9
:101B1000FF4FFC93EE930895A8E0B4E08D918823E5
:101B200011F00BD0FBCF089529D0802D11F005D0F6
:101B3000FBCF08958DE001D08AE05D9BFECF8CB98C
:101B400008953197F1F70895689462F80895E8943C
:101B500062F80895EF93FF93EE27E82BE92B31F01D
:101B6000EAEFF0E03197F1F70197D1F7FF91EF91AC
:101B7000089504D00D920020E1F70895C89531969C
:101B80000020089591E0882321F08894991F8A9578
:101B9000E9F7892F90950895883018F011968850AC
:101BA000FBCF089588279D91890F9923E1F7089528
:101BB000000F111F221F331F0895009510952095C7
:101BC00030950F5F1F4F2F4F3F4F089501911081A8
:101BD0000EC001911191219130810BC001911081B2
:101BE00017FF05C03FEF2FEF04C000811127222708
:101BF000332737FF03C0E1DF8DE28D93CF93DF936F
:101C0000CF92DF92EF92AA24BB24CC24DD24EE24D1
:101C100040E2CAE0DD2755E093E38881890F87FD24
:101C20009F7083FD907F891B89935A95A9F7C0DF28
:101C3000AA1CBB1CCC1CDD1CEE1C4A9551F7E89479
:101C4000EFE0FF2782910ED0EB30E0F71EF06894B2
:101C50008A2D0CD088278D93EF90DF90CF90DF9165
:101C6000CF910895982F829501D0892F8F70805D34
:101C700026F0803309F4089568948D93089541E027
:101C800003C042E001C044E0E40F8827F81F8291BE
:101C9000982F829505D0892F03D04A95C1F707C0A8
:101CA0008F708A3008F0895F805D8D930895882752
:101CB0008D930895E199FECFEEBBFFBB3196089559
:101CC00091E001C092E07B3751F47FB7F894F2DFE6
:101CD0008D918DBBE29AE19A9A95C9F77FBF7727DC
:101CE000089591E001C092E0E5DFE09A8DB38D9315
:101CF0009A95D1F70895DEDFE09A8DB38D9388230E
:101D000019F09A95C1F79D93089557656C636F6DAF
:101D100065004156522041746D6567612066757398
:101D20006562697420646F63746F7220284856502E
:101D3000502B48565350292076657273696F6E2078
:101D4000322E30380000687474703A2F2F6469792D
:101D50002E656C656B74726F64612E65752F61748E
:101D60006D6567612D667573656269742D646F6357
:101D7000746F722D687670700000526567697374B5
:101D80006572656420746F2000005573616765207B
:101D9000696E20636F6D6D65726369616C2F70721F
:101DA0006F66697420707572706F736573206E6FE3
:101DB0007420616C6C6F77656400666F7220666971
:101DC000726D7761726520757064617465733A2015
:101DD000747769747465722E636F6D2F6D616E65B3
:101DE0006B696E656E0048565350204D4F44450058
:101DF00048565050204D4F444500496E697420703C
:101E0000726F6772616D6D696E672E2E2E202000D5
:101E1000444F4E45000052656164207369676E61EE
:101E2000747572652E2E2E202020200020002D207B
:101E30004641494C21004E6F206368697020696EED
:101E400020736F636B6574206F7220636869702004
:101E5000646F206E6F7420726573706F6E64696E4C
:101E60006700506C656173652074727920616761E9
:101E7000696E2E2E2E005468616E6B20596F7500AE
:101E8000547279696E672054323331332070696E31
:101E90006F75742E2E00536561726368696E6720DA
:101EA000636869702E2E2E202020206E6F206E61B8
:101EB0006D657320696E20386B4220766572000074
:101EC00043686970206E6F7420737570706F7274E0
:101ED00065642C20736F7272792E000043686970FC
:101EE0002065726173652E2E2E2020202020202058
:101EF0002000444953414C4C4F5745440000526523
:101F000061642066757365626974732E2E2E2020BD
:101F10002020204C3A0020483A0020453A005368DF
:101F20006F756C642062652E2E2E202020202020CC
:101F30002020204C3A004C6F636B626974732E2E24
:101F40002E2020202020202020202000454E41420D
:101F50004C454420202800002900506C65617365C1
:101F600020616C6C6F7720746F20657261736520DF
:101F7000746865206368697020746F206469736198
:101F8000626C65206C6F636B626974730000444916
:101F90005341424C454420280000526577726974D1
:101FA000696E672000002E2E2E2020005665726973
:101FB0006679696E672E2E2E20202020202020207A
:101FC000204C3A00202D204641494C210000202D74
:101FD000204F4B21000020666978656420636869A2
:041FE000707300001A
:00000001FF
