:1000000012C0189518951895189518951895189563
:100010001895189518951895189518951895189578
:100020001895189518958FE58DBFC8E3E0E24E2E20
:1000300084E08EBFD4E0F4E05F2EA89584B7082E4C
:10004000877F84BF88E1992781BD91BDEEEFF3E002
:10005000A0E6B0E088278D933197E9F786E089B96B
:1000600080E080BD88E18AB966248CE089B980E0AF
:1000700080BD8FEF87BB8EE284BB80E185BB8EEFB6
:1000800081BB84E282BBECE2FCE1C2DCC7DCE2E3E0
:10009000FCE1BEDCC3DCAFE6B0E0EAE3FCE1DDDCC2
:1000A000AFE6B0E0AFDCBADCAFE6B0E0F5DC082FDD
:1000B000073309F405C080916D00826080936D0064
:1000C000AFE6B0E0EEE6FCE1C8DCAFE6B0E09ADC1B
:1000D000A5DCAFE6B0E0E0DC082F0F3E09F405C078
:1000E00080916D00826080936D00E2E0F0E0AEE60A
:1000F000B0E088DDAEE6B0E08C9180958C93E4E0D2
:10010000F0E0AFE6B0E094E287DD40916E00AFE64C
:10011000B0E0C2DC082F041709F008C0E2EAFCE1F5
:1001200077DCAFE6B0E06EDC79DC15C0AFE6B0E0BE
:10013000E2EBFCE192DCAFE6B0E064DC6FDCAFE662
:10014000B0E0AADC082F053009F405C080916D00ED
:10015000826080936D0062DC80916D00806180938D
:100160006D008A98939AECDA829905C080916D00AF
:100170008F7E80936D009398E3DA829B05C0809117
:100180006D008F7E80936D008A9AADE6B0E08C9111
:1001900084FB0EF001C0A09A809B05C080916D0089
:1001A000816080936D00ADE6B0E08C9180FB0EF035
:1001B00004C0E2EEFCE12CDC03C0EAEEFCE128DC4A
:1001C0009598000000000000000000000000000002
:1001D0000000000000000000979AADE6B0E08C91AE
:1001E00084FB0EF40EC0E6EFFCE112DCD0DACFDACD
:1001F000CEDACDDACCDACBDACADAC9DAC8DAC7DADB
:1002000007C0ECEFFCE104DC94988C98A998A198C5
:10021000E2E0FDE1FDDB02DC01DCE8E0FDE1F8DB32
:1002200000000000000000000000000000000000CE
:10023000000000000000949AADE6B0E08C9184FBD1
:100240000EF405C0A3E3B0E08C9180FBDEF7EEE195
:10025000FDE1DEDBE3DBA0DAE4E2FDE1D9DBADE6E4
:10026000B0E08C9184FB0EF445C06DDAA99888E06B
:1002700088BB8DDA81E090E0A0E6B0E08D939C939E
:10028000A0E6B0E00D911C91033050E0150710F08E
:1002900009F02FC064DAA9980091600041E0041BC6
:1002A00008BB75DA80E087BB80E088BB9298A9988C
:1002B000A0E6B0E0AD90BC90A1E6B0E0AA0DBB1DF9
:1002C00086B38C93929A8FEF87BBA8E0B4E0E0E608
:1002D000F0E0A190B080E1E6F0E0EA0DFB1D49DC22
:1002E0008FDBEAE3FDE194DBA0E6B0E063DB08F43A
:1002F000C7CF4CC088E08093A4008CE48093A50015
:10030000F5DA81E090E0A0E6B0E08D939C93A0E662
:10031000B0E00D911C91033050E0150710F009F08A
:1003200035C00091600041E0041BA4EAB0E00C93EA
:100330008CE08093A500DADA80E08093A40088E660
:100340008093A500D3DA8CE68093A50052DA8091E1
:10035000A600A0E6B0E0AD90BC90A1E6B0E0AA0D8A
:10036000BB1D8C93A8E0B4E0E0E6F0E0A190B08083
:10037000E1E6F0E0EA0DFB1DFCDB42DBEAE3FDE138
:1003800047DBA0E6B0E016DB08F4C1CF00916200C5
:100390000E3181E009F480E08F9300916300003911
:1003A00081E008F080E09F91892B8F93009163009A
:1003B000083980E010F009F081E09F91892B8823B3
:1003C00009F468C0ECE3FDE123DB28DBADE6B0E037
:1003D0008C9185FB81E00EF080E08F93ADE6B0E07C
:1003E0008C9184FB81E00EF080E09F91892B882323
:1003F00009F434C0ADE6B0E08C9180FB0EF01DC076
:10040000E4E4FDE105DB34E0DCDAA8E0B4E0C9DBDC
:10041000A2EAB0E00D931C938EE180936200A2EA01
:10042000B0E011968C91A3E6B0E08C93A2EAB0E024
:100430008C91A4E6B0E08C9311C0F0DAECE5FDE11C
:10044000E7DAECDAEBDAEAE8FDE1E2DAE7DAE6DA73
:10045000EEE9FDE1DDDAE2DAC0D9B7D9ADE6B0E028
:100460008C9184FB81E00EF480E08F93ADE6B0E0E8
:100470008C9185FB81E00EF480E09F918923882395
:1004800009F408C0E8EAFDE1C3DA80916D008062FA
:1004900080936D00009162000E3181E009F080E0F0
:1004A0008F93009163000F3880E010F009F081E035
:1004B0009F9189238F9300916300093981E008F0AF
:1004C00080E09F918923882309F4C9CEA7DAEEEB57
:1004D000FDE19EDAA3DA00916300003909F02DC036
:1004E00000916400013009F009C08FED809368002D
:1004F00080916D00846080936D001EC0043009F00F
:1005000004C08CEF8093680017C0053009F004C068
:1005100082E58093680010C0063009F004C08CE5C5
:100520008093680009C0073009F006C08AE680930E
:1005300068008FEF809369000BC5013909F079C01D
:1005400000916400013009F009C08FED80936800CC
:1005500080916D00846080936D006AC0023009F064
:1005600009C08EED8093680080916D008460809357
:100570006D005EC0033009F009C08EED8093680005
:1005800080916D00846080936D0052C0053009F049
:1005900004C08AED809368004BC0063009F004C0A7
:1005A0008EED8093680044C0073009F004C082EFEC
:1005B000809368003DC0083009F00AC082E680934D
:1005C00068008FED809369008FEF80936A0030C0E0
:1005D000093009F007C081EE8093680087EF8093AF
:1005E000690026C00A3009F00AC084E680936800DA
:1005F0008FED809369008FEF80936A0019C00B30F4
:1006000009F00AC082E6809368008FED809369004C
:100610008FEF80936A000CC00C3009F009C082E6AD
:10062000809368008FED809369008FEF80936A005C
:100630008FC4023909F089C000916400013009F0CB
:1006400009C08FED8093680080916D008460809375
:100650006D007AC0023009F009C08FED8093680008
:1006600080916D00846080936D006EC0033009F04E
:1006700004C08AED8093680067C0053009F00AC0A5
:1006800082E6809368008FED809369008FEF8093FE
:100690006A005AC0063009F00AC082E680936800FA
:1006A0008FED809369008FEF80936A004DC0073013
:1006B00009F00AC082E6809368008FED809369009C
:1006C0008FEF80936A0040C0083009F00AC082E6CC
:1006D000809368008FED809369008FEF80936A00AC
:1006E00033C0093009F00AC08EE6809368008FEDB0
:1006F000809369008FEF80936A0026C00A3009F06A
:100700000AC082E6809368008FED809369008FEFC6
:1007100080936A0019C00C3009F00AC082E6809309
:1007200068008FED809369008FEF80936A000CC0A2
:100730000D3009F009C084E6809368008FED809346
:1007400069008FEF80936A0003C4033909F0C7C0C2
:1007500000916400013009F009C08FED80936800BA
:1007600080916D00846080936D00B8C0033009F003
:1007700009C08FED8093680080916D008460809344
:100780006D00ACC0063009F007C081EE80936800B0
:1007900089ED80936900A2C0073009F007C081EE9F
:1007A0008093680089ED8093690098C0083009F053
:1007B00007C081EE8093680089ED809369008EC048
:1007C0000A3009F00AC082E6809368008FED8093BA
:1007D000690089EF80936A0081C00B3009F00AC07C
:1007E00082E6809368008FED809369008FEF80939D
:1007F0006A0074C00C3009F00AC082E68093680079
:100800008FED809369008FEF80936A0067C00D3091
:1008100009F00AC082E6809368008FED809369003A
:100820008FEF80936A005AC00F3009F00AC082E649
:10083000809368008FED8093690089EF80936A0050
:100840004DC0013109F00AC08EE6809368008FED3B
:10085000809369008FEF80936A0040C0013809F0EF
:100860000AC082E6809368008FED8093690089EF6B
:1008700080936A0033C0033809F00AC082E680938F
:1008800068008FED8093690089EF80936A0026C02D
:10089000073809F00AC082E6809368008FED8093E4
:1008A00069008FEF80936A0019C0083809F00AC008
:1008B00082E68093680089ED809369008DEF8093D4
:1008C0006A000CC0093809F009C08EE58093680001
:1008D00089ED8093690084EF80936A0039C30439FD
:1008E00009F0C6C000916400013009F004C08AED2F
:1008F00080936800BCC0023009F007C082ED80938D
:1009000068008FEF80936900B2C0033009F007C020
:1009100081EE8093680089E980936900A8C0043063
:1009200009F00AC082E68093680089E98093690033
:100930008FEF80936A009BC0053009F00AC082E601
:100940008093680089E9809369008FEF80936A0043
:100950008EC0063009F00AC082E6809368008FEDF1
:100960008093690089EF80936A0081C0073009F0A5
:100970000AC082E68093680089E9809369008FEF5E
:1009800080936A0074C00F3009F00AC082E6809339
:10099000680089E9809369008FEF80936A0067C0DF
:1009A0000A3009F00AC082E68093680089E98093E2
:1009B00069008FEF80936A005AC00B3009F00AC0BB
:1009C00082E6809368008FED8093690089EF8093C1
:1009D0006A004DC0023809F00AC08EE580936800B5
:1009E00089ED8093690084EF80936A0040C00338EA
:1009F00009F00AC082E6809368008FED8093690059
:100A000089EF80936A0033C0043809F00AC082E697
:100A10008093680089ED809369008FEF80936A006E
:100A200026C0073809F00AC082E6809368008FED7F
:100A3000809369008FEF80936A0019C0083809F02D
:100A40000AC08EE58093680081E98093690083EF96
:100A500080936A000CC0093809F009C08EE58093C4
:100A6000680089ED8093690084EF80936A0070C20A
:100A7000053909F00DC100916400013009F007C08B
:100A800081EF8093680089E98093690000C102309A
:100A900009F007C081EE8093680089E980936900BE
:100AA000F6C0033009F00AC082E68093680089E945
:100AB000809369008FEF80936A00E9C0043009F0E9
:100AC0000AC082E68093680089E9809369008FEF0D
:100AD00080936A00DCC0053009F00AC082E680938A
:100AE000680089E9809369008FEF80936A00CFC026
:100AF000063009F00AC082E68093680089E9809395
:100B000069008FEF80936A00C2C0083009F00AC004
:100B100082E68093680089E9809369008FEF809373
:100B20006A00B5C0013109F00AC082E6809368000E
:100B300089E9809369008FEF80936A00A8C004312F
:100B400009F00AC082E68093680089ED809369000D
:100B50008FEF80936A009BC0053109F00AC082E6DE
:100B60008093680089E9809369008FEF80936A0021
:100B70008EC00B3009F00AC082E68093680089E9D4
:100B8000809369008FEF80936A0081C00C3009F078
:100B90000AC082E68093680089E9809369008FEF3C
:100BA00080936A0074C00D3009F00AC082E6809319
:100BB000680089E9809369008FEF80936A0067C0BD
:100BC0000E3009F00AC082E68093680089E98093BC
:100BD00069008FEF80936A005AC00F3009F00AC095
:100BE00082E68093680089ED809369008FEF80939F
:100BF0006A004DC00A3809F00AC08EE5809368008B
:100C000089ED8093690084EF80936A0040C00138C9
:100C100009F00AC082E68093680089E98093690040
:100C20008FEF80936A0033C0043809F00AC082E66F
:100C30008093680089ED809369008FEF80936A004C
:100C400026C0063809F00AC082E68093680089ED64
:100C5000809369008FEF80936A0019C0073809F00C
:100C60000AC08EE58093680081E98093690083EF74
:100C700080936A000CC0083809F009C08EE58093A3
:100C8000680089E98093690083EF80936A0060C1FE
:100C9000063909F0D2C000916400023009F00AC0A0
:100CA00081EE8093680089E9809369008DEF8093DD
:100CB0006A00C2C0033009F00AC082E6809368006F
:100CC00089E9809369008FEF80936A00B5C0043092
:100CD00009F00AC082E68093680089E98093690080
:100CE0008FEF80936A00A8C0053009F00AC082E641
:100CF0008093680089E9809369008FEF80936A0090
:100D00009BC0063009F00AC082E68093680089E93A
:100D1000809369008FEF80936A008EC0083009F0DD
:100D20000AC082E68093680089E9809369008FEFAA
:100D300080936A0081C0093009F00AC082E680937E
:100D4000680089E9809369008FEF80936A0074C01E
:100D50000A3009F00AC082E68093680089E980932E
:100D600069008FEF80936A0067C00B3009F00AC0FA
:100D700082E68093680089E9809369008FEF809311
:100D80006A005AC00C3009F00AC082E680936800FD
:100D900089E9809369008FEF80936A004DC00D3020
:100DA00009F00AC082E68093680089E980936900AF
:100DB0008FEF80936A0040C00E3009F00AC082E6CF
:100DC0008093680089E9809369008FEF80936A00BF
:100DD00033C0013809F00AC082E68093680089E9CF
:100DE000809369008FEF80936A0026C0023809F073
:100DF0000AC08EE5809368008BE98093690083EFD9
:100E000080936A0019C0043809F00AC082E6809312
:100E1000680089ED809369008FEF80936A000CC0B1
:100E2000063809F009C082E68093680089ED809356
:100E300069008FEF80936A008BC0073909F06AC0A0
:100E400000916400013009F00AC081EC80936800D1
:100E50008FEF809369008FEF80936A005AC0023051
:100E600009F00AC081EE8093680089E980936900E7
:100E70008DEF80936A004DC0033009F00AC082E60E
:100E80008093680089E9809369008FEF80936A00FE
:100E900040C0043009F00AC082E68093680089E906
:100EA000809369008FEF80936A0033C0053009F0AA
:100EB0000AC082E68093680089E9809369008FEF19
:100EC00080936A0026C0063009F00AC082E680934B
:100ED000680089E9809369008FEF80936A0019C0E8
:100EE000013809F00AC082E68093680089E980939E
:100EF00069008FEF80936A000CC0023809F009C0C6
:100F00008EE58093680089E98093690083EF809380
:100F10006A001EC0083909F01BC00091640001304E
:100F200009F00AC082E68093680089E9809369002D
:100F30008FEF80936A000CC0023009F009C082E68E
:100F40008093680089E9809369008FEF80936A003D
:100F500000916800003081E009F080E08F930091FB
:100F60006900003081E009F080E09F9189238823A7
:100F700009F40CC053D5E8EEFDE14AD54FD54ED566
:100F8000EEE9FDE145D54AD528D41FD480916D0006
:100F9000806480936D0000916A00003009F005C004
:100FA00080916D008F7B80936D000091690000300F
:100FB00009F00AC080916D00886080936D00809177
:100FC0006D008F7B80936D00ADE6B0E08C9180FB6F
:100FD0000EF401C0FDD030D1ECEFFDE119D5A8E051
:100FE000B4E0E5E6F0E0C5D50BD5E4E1FEE110D5CF
:100FF000A8E0B4E0E6E6F0E0BCD502D5E8E1FEE129
:1010000007D5A8E0B4E0E7E6F0E0B3D5F9D406D51B
:10101000ECE1FEE1FDD4A8E0B4E0E8E6F0E0A9D51B
:10102000EFD4E4E1FEE1F4D4A8E0B4E0E9E6F0E0D6
:10103000A0D5E6D4E8E1FEE1EBD4A8E0B4E0EAE62E
:10104000F0E097D5DDD4EAD4E4E3FEE1E1D4ABE609
:10105000B0E00C9100FB81E00EF480E08F93ABE6F2
:10106000B0E00C9101FB81E00EF480E09F91892BB0
:10107000882309F420C0EAE4FEE1CAD4A8E0B4E081
:10108000EBE6F0E076D5BCD4E6E5FEE1C1D4C6D40B
:10109000ADE6B0E08C9180FB0EF40CC0BFD4E8E567
:1010A000FEE1B6D4BBD4BAD4EEE9FDE1B1D4B6D4F6
:1010B00094D381D30DC0ECE8FEE1AAD4A8E0B4E05B
:1010C000EBE6F0E056D59CD4E6E5FEE1A1D4A6D44B
:1010D000ADE6B0E08C9180FB0EF076C09FD4E8E9DD
:1010E000FEE196D49BD4E8EAFEE192D497D4ECEBEF
:1010F000FEE18ED493D4E0EDFEE18AD48FD4E2EE0B
:10110000FEE186D48BD4E2EFFEE182D487D486D48C
:1011100073D4082F013309F003C072D137D252C003
:10112000023309F030C0EAEFFEE172D432E049D474
:10113000A8E0B4E036D5A8E6B0E00C93ADE6B0E0A8
:101140008C9183FB0EF40BC0E0E1FFE161D432E04F
:1011500038D4A8E0B4E025D5A9E6B0E00C93ADE61C
:10116000B0E08C9186FB0EF00BC0E6E2FFE150D4BC
:1011700032E027D4A8E0B4E014D5AAE6B0E00C939E
:101180003FD104D21FC0033309F00DC0ECE3FFE1EF
:101190003FD432E016D4A8E0B4E003D5ACE6B0E02A
:1011A0000C938AD20FC0043309F002C011D00AC0D8
:1011B000053309F007C011D3EEE9FDE129D42ED49F
:1011C000F894FFCF8BCF02C01BD1E0D1F894FFCFB2
:1011D000E2E5FFE11DD49C9B05C0E8E6FFE118D4E1
:1011E0001DD429C0ADE6B0E08C9184FB0EF40CC098
:1011F000AAD2A99880E888BBCAD2CED2A3E3B0E035
:101200008C9180FBDEF713C080E88093A4008CE40F
:101210008093A5006BD380E08093A40084E6809344
:10122000A50064D38CE68093A50060D397D3EEE14C
:10123000FDE1EED3F3D30895ADE6B0E08C9184FBED
:101240000EF46BC080D284E088BBA1D280E087BB63
:1012500080E088BB75D29298A998969871D2A5E63D
:10126000B0E086B38C93929AADE6B0E08C9183FBAC
:101270000EF40AC065D29298A99A969A61D2A6E60F
:10128000B0E086B38C93929AADE6B0E08C9186FB89
:101290000EF00AC055D29298A998969A51D2A7E614
:1012A000B0E086B38C93929A4BD29298A99A969872
:1012B00047D2ADE6B0E08C9182FB0EF026C0A5E6E9
:1012C000B0E086B38C936894A5E6B0E08C9187F982
:1012D0008C936894A5E6B0E08C9186F98C938FEF9F
:1012E00080936B00A6E3B0E08C9187FBABE6B0E0A7
:1012F0008C9180F98C93A6E3B0E08C9186FBABE6F1
:10130000B0E08C9181F98C9304C0ABE6B0E086B379
:101310008C93929A8FEF87BB72C084E08093A40075
:101320008CE48093A500E2D280E08093A40088E65C
:101330008093A500DBD28CE68093A5005AD28091E1
:10134000A60080936500ADE6B0E08C9183FB0EF4BF
:101350000CC08AE78093A500C9D28EE78093A500D0
:1013600048D28091A60080936600ADE6B0E08C91F3
:1013700086FB0EF00CC08AE68093A500B7D28EE6FD
:101380008093A50036D28091A6008093670088E7FD
:101390008093A500ABD28CE78093A5002AD2ADE65E
:1013A000B0E08C9182FB0EF026C08091A600809365
:1013B00065006894A5E6B0E08C9187F98C936894F9
:1013C000A5E6B0E08C9186F98C938FEF80936B004B
:1013D000A6EAB0E08C9187FBABE6B0E08C9180F997
:1013E0008C93A6EAB0E08C9186FBABE6B0E08C91E2
:1013F00081F98C9304C08091A60080936B000895BE
:10140000E4E7FFE105D3A8E0B4E0E8E6F0E0B1D31B
:10141000F7D2EAE3FDE1FCD2A8E0B4E0E9E6F0E0CF
:10142000A8D3EED2EAE3FDE1F3D2A8E0B4E0EAE625
:10143000F0E09FD3E5D2EEE7FFE1EAD2ADE6B0E01F
:101440008C9184FB0EF44BC07ED180E488BB9FD18D
:1014500092D1A8E6B0E08C9188BBC2D198D1A9986E
:1014600096989AD16DD1A3E3B0E08C9180FBDEF722
:10147000ADE6B0E08C9183FB0EF414C064D180E43F
:1014800088BB85D178D1A9E6B0E08C9188BBA8D182
:101490007ED1A99A969854D153D1A3E3B0E08C9110
:1014A00080FBDEF7ADE6B0E08C9186FB0EF014C059
:1014B0004AD180E488BB6BD15ED1AAE6B0E08C91C2
:1014C00088BB8ED164D1A998969A66D139D1A3E30D
:1014D000B0E08C9180FBDEF7A998969852C080E42A
:1014E0008093A4008CE48093A50000D280916800D2
:1014F0008093A40055D28CE28093A500F7D180E0C0
:101500008093A40084E68093A500F0D18CE68093BC
:10151000A500ECD123D2ADE6B0E08C9183FB0EF4B4
:1015200015C0809169008093A4003AD28CE2809328
:10153000A500DCD180E08093A40084E78093A5001F
:10154000D5D18CE78093A500D1D108D2ADE6B0E02B
:101550008C9186FB0EF015C080916A008093A400E8
:101560001FD28CE28093A500C1D180E08093A400BB
:1015700086E68093A500BAD18EE68093A500B6D109
:10158000EDD1EEE1FDE144D249D2089555DEE4E823
:10159000FFE13ED2A8E0B4E0E5E6F0E0EAD230D2E6
:1015A000E4E1FEE135D2A8E0B4E0E6E6F0E0E1D225
:1015B00027D2E8E1FEE12CD2A8E0B4E0E7E6F0E0D3
:1015C000D8D21ED280916D008F7780936D004091AC
:1015D000680000916500041709F405C080916D0052
:1015E000806880936D00ADE6B0E08C9183FB0EF4D3
:1015F0000CC04091690000916600041709F405C011
:1016000080916D00806880936D00ADE6B0E08C91B4
:1016100086FB0EF00CC040916A0000916700041731
:1016200009F405C080916D00806880936D00ADE67F
:10163000B0E08C9187FB0EF015C0ECE3FDE1E8D142
:10164000EDD1EAE8FDE1E4D1E9D1ADE6B0E08C917D
:1016500080FB0EF406C0EEE9FDE1DAD1DFD1BDD0AA
:10166000A0D029C0ECE9FFE1D3D1D8D1EEEFF1E071
:10167000A0E6B0E0C9D2A0E6B0E09CD1EEEFF1E088
:10168000A0E6B0E07BE7AFD2A8E0B4E0E0E6F0E0AF
:1016900017D2B6D1E4EAFFE1BBD1C0D1BFD1ADE6EC
:1016A000B0E08C9180FB0EF406C0EEE9FDE1B0D114
:1016B000B5D193D08FD00895E2EBFFE1A9D1A8E096
:1016C000B4E0ECE6F0E055D29BD1ECEBFFE1A0D129
:1016D000ADE6B0E08C9184FB0EF412C034D080E211
:1016E00088BB55D048D0ACE6B0E08C9188BB4FD0D9
:1016F00053D026D0A3E3B0E08C9180FBDEF71BC073
:1017000080E28093A4008CE48093A500EFD08091C8
:101710006C008093A4008CE28093A500E7D080E069
:101720008093A40084E68093A500E0D08CE68093AB
:10173000A500DCD013D1EEE1FDE16AD16FD10895AF
:10174000000000000895AB9AADE6B0E08C9185FBF7
:101750000EF001C0969AAA98A998F2DF0895AB9866
:10176000ADE6B0E08C9185FB0EF001C09698AA988A
:10177000A998E6DF0895AB98ADE6B0E08C9185FBC3
:101780000EF001C09698AA9AA998DADF0895939A64
:10179000D7DF9398D5DF08959498D2DF949AD0DF5D
:1017A0000895AB9885B394E0892785BB84EF91E0D9
:1017B00045D1F8CF0895AA9885B398E0892785BBCD
:1017C00084EF91E03BD1F8CF0895AB98AA9AF894B2
:1017D000FFCF0895AA98AB9A0895959A979808957F
:1017E000ADE6B0E08C9181FB0EF002C08FEF88BBBC
:1017F0000895AB98AA98BAD0A3E3B0E08C9181FB8E
:10180000A6EAB0E08C9187F98C9388E08093A700DA
:1018100087E08093A8008091A70081508093A70063
:101820008091A80081508093A800A7EAB0E08C9135
:10183000A4EAB0E02BD120D10C900822689409F4DE
:10184000E894A5E3B0E08C9183F98C93A7EAB0E02B
:101850008C91A5EAB0E01AD10FD10C9008226894BF
:1018600009F4E894A5E3B0E08C9182F98C937ED0E2
:10187000A3E3B0E08C9181FBA8EAB0E08C91A6EAEA
:10188000B0E004D1F9D00C9016F0092201C0082A6A
:101890000C920091A800003009F0BDCFA7EAB0E09B
:1018A0008C91A4EAB0E0F2D0E7D00C9008226894C2
:1018B00009F4E894A5E3B0E08C9183F98C93A7EA4E
:1018C000B0E08C91A5EAB0E0E1D0D6D00C9008222F
:1018D000689409F4E894A5E3B0E08C9182F98C93C4
:1018E00045D0AB98AA9842D041D00895AB98AA9819
:1018F0003DD088E08093A7008091A700815080931D
:10190000A700A7EAB0E08C91A4EAB0E0BFD0B4D0C1
:101910000C900822689409F4E894A5E3B0E08C9157
:1019200083F98C93A7EAB0E08C91A5EAB0E0AED041
:10193000A3D00C900822689409F4E894A5E3B0E0E1
:101940008C9182F98C9312D00091A700003009F09D
:10195000D3CFAB98AA980AD009D008950000000010
:10196000A3E3B0E08C9181FBDEF708950000000056
:10197000A89A00000000A89880E08093A900AD9A82
:1019800000000000AD9800000000A9EAB0E08C91D2
:101990008F5F8C930091A900003109F0F0CF08957A
:1019A000ADE6B0E08C9181FB0EF003C08FEF809329
:1019B000A4000895ED91FC91EF5FFF4FFC93EE932F
:1019C0000895A8E0B4E018D0883091F08D3039F057
:1019D0003323C9F38D933A9563FE23D0F4CF63FC90
:1019E00004C08DE01ED08AE01CD088278C93089517
:1019F00018D011973395E7CF5F9BFECF8CB1089538
:101A0000A8E0B4E08D91882311F00BD0FBCF0895AE
:101A100029D0802D11F005D0FBCF08958DE001D0A5
:101A20008AE05D9BFECF8CB908953197F1F7089558
:101A3000689462F80895E89462F80895EF93FF932C
:101A4000EE27E82BE92B31F0EAEFF0E03197F1F7E0
:101A50000197D1F7FF91EF91089504D00D920020E6
:101A6000E1F70895C895319600200895813618F061
:101A70008B3708F48F7D089591E0882321F08894B6
:101A8000991F8A95E9F7892F90950895883018F065
:101A900011968850FBCF089588279D91890F99232F
:101AA000E1F70895000F111F221F331F08950095BD
:101AB0001095209530950F5F1F4F2F4F3F4F089582
:101AC000019110810EC001911191219130810BC0C3
:101AD0000191108117FF05C03FEF2FEF04C0008177
:101AE00011272227332737FF03C0E1DF8DE28D93D3
:101AF000CF93DF93CF92DF92EF92AA24BB24CC2422
:101B0000DD24EE2440E2CAE0DD2755E093E388813E
:101B1000890F87FD9F7083FD907F891B89935A955C
:101B2000A9F7C0DFAA1CBB1CCC1CDD1CEE1C4A950F
:101B300051F7E894EFE0FF2782910ED0EB30E0F709
:101B40001EF068948A2D0CD088278D93EF90DF903B
:101B5000CF90DF91CF910895982F829501D0892F52
:101B60008F70805D26F0803309F4089568948D931A
:101B7000089541E003C042E001C044E0E40F88273B
:101B8000F81F8291982F829505D0892F03D04A950E
:101B9000C1F71EC08F708A3008F0895F805D8D9319
:101BA000089500271127222733278D91882379F064
:101BB00079DF78DF77DF76DF59DF815408F4895FDA
:101BC000865F080F8827181F281F381FEECF08953B
:101BD00088278D930895E199FECFEEBBFFBB319628
:101BE000089591E001C092E07B3751F47FB7F894FB
:101BF000F2DF8D918DBBE29AE19A9A95C9F77FBF8A
:101C00007727089591E001C092E0E5DFE09A8DB377
:101C10008D939A95D1F70895DEDFE09A8DB38D9379
:101C2000882319F09A95C1F79D9308951B5B324A5A
:101C3000000057656C636F6D65004156522041741A
:101C40006D656761206675736562697420646F6392
:101C5000746F722028485650502B485653502920F4
:101C600076657273696F6E20322E313000006874B1
:101C700074703A2F2F6469792E656C656B74726F7E
:101C800064612E65752F61746D6567612D6675736E
:101C9000656269742D646F63746F722D68767070FD
:101CA00000005265676973746572656420746F2003
:101CB0000000557361676520696E20636F6D6D6507
:101CC000726369616C2F70726F66697420707572CF
:101CD000706F736573206E6F7420616C6C6F7765C5
:101CE00064004D414E55414C20004155544F4D41EB
:101CF0005449432000004856505000004856535065
:101D00000000204D4F444500496E69742070726F89
:101D10006772616D6D696E672E2E2E202000444F14
:101D20004E45000052656164207369676E61747589
:101D300072652E2E2E202020200020002D204641CE
:101D4000494C210054797065207468652073696777
:101D50006E61747572653A20203145004E6F2063C4
:101D600068697020696E20736F636B6574206F7291
:101D7000206368697020646F6573206E6F742072D1
:101D80006573706F6E64696E6700506C6561736532
:101D90002074727920616761696E2E2E2E0054685E
:101DA000616E6B20596F7500547279696E672054AB
:101DB000323331332070696E6F75742E2E00536587
:101DC00061726368696E6720636869702E2E2E20C9
:101DD0002020206E6F206E616D657320696E203843
:101DE0006B4220766572000043686970206E6F74E4
:101DF00020737570706F727465642E005265616433
:101E00002066757365626974732E2E2E2020202043
:101E1000204C3A0020483A0020453A0053686F753C
:101E20006C642062652E2E2E202020202020202071
:101E3000204C3A004C6F636B626974732E2E2E2017
:101E400020202020202020202000454E41424C45CB
:101E50004420202800002900506C656173652061D2
:101E60006C6C6F7720746F20657261736520746885
:101E700065206368697020746F2064697361626CA7
:101E800065206C6F636B6269747300004449534151
:101E9000424C4544202800005768617420746F202C
:101EA000646F3F2E2E2E000031202D207772697432
:101EB00065206675736562697473000032202D2099
:101EC0006D6F646966792066757365626974730005
:101ED00033202D20736574206C6F636B626974739B
:101EE000000034202D20636869702065726173657D
:101EF000000035202D20656E6400547970652066E1
:101F0000757365204C4F573A202020202020200058
:101F100054797065206675736520484947483A20B2
:101F2000202020202000547970652066757365207C
:101F3000455854454E4445443A2020005479706534
:101F4000206C6F636B3A202020202020202020204E
:101F50002000436869702065726173652E2E2E2003
:101F60002020202020202000444953414C4C4F5732
:101F70004544000057726974696E672000002E2E78
:101F80002E202000566572696679696E672E2E2EA6
:101F90002020202020202020204C3A00202D204FDF
:101FA0004B2100002066697865642063686970735E
:101FB00000004C6F636B696E672000002E2E2E2090
:081FC000202020202020200039
:00000001FF
