:1000000012C0189518951895189518951895189563
:100010001895189518951895189518951895189578
:100020001895189518958FE58DBFC0E4E8E34E2E1E
:1000300084E08EBFD4E0F4E05F2EEEEFF3E0A0E6C4
:10004000B0E088278D933197E9F786E089B980E0A1
:1000500080BD88E18AB966248CE089B980E080BDE2
:100060008FEF87BB8EE284BB80E185BB8FEF81BBC6
:1000700087E382BBC2DC81E090E0A0E6B0E08D9334
:100080009C93A0E6B0E00D911C91023350E015075F
:1000900010F009F008C0ECEBFBE1A9DCA0E6B0E051
:1000A00097DC08F4EECFA9DCEEEBFBE1A0DCA5DCED
:1000B000ADE6B0E0EAECFBE1BFDCADE6B0E091DC40
:1000C0009CDCADE6B0E0D1DC082F0B3309F405C0B1
:1000D00080916C00826080936C00ADE6B0E0EEEF42
:1000E000FBE1AADCADE6B0E07CDC87DCADE6B0E0AD
:1000F000BCDC082F0F3E09F405C080916C008260C3
:1001000080936C00ADE6B0E0E2E3FCE195DCADE6A7
:10011000B0E067DC72DCADE6B0E0A7DC082F0836A3
:1001200009F405C080916C00826080936C0065DCEE
:10013000539905C080916C00826080936C0080911F
:100140006C00886080936C008A9881E090E0A0E663
:10015000B0E08D939C93A0E6B0E00D911C910A3025
:1001600050E0150710F009F019C0939AA5DA8299AA
:1001700005C080916C00877F80936C009DDA939816
:100180009BDA829B05C080916C00877F80936C0016
:1001900093DAA0E6B0E01CDC08F4DDCF8A9AACE686
:1001A000B0E08C9183FB0EF006C0E6E6FCE11FDCBC
:1001B00024DCA09A04C0E0E7FCE119DC1EDC1DDCB5
:1001C000EAE7FCE114DCACE6B0E08C9183FB0EF0D6
:1001D00005C0A998AA98AB98949805C09698AA9833
:1001E000AB98A998949884E690E017DC9598EF93E3
:1001F000FF93E5E1F0E008DCFF91EF91979AACE620
:10020000B0E08C9183FB0EF417C081E090E0A0E693
:10021000B0E08D939C93A0E6B0E00D911C910A3064
:1002200050E0150710F009F006C06DDAA0E6B0E066
:10023000CFDB08F4F0CF04C094988C98A998A198CB
:10024000EF93FF93E9E7F0E0DFDBFF91EF91949A02
:10025000ACE6B0E08C9183FB0EF405C0A3E3B0E004
:100260008C9180FBDEF7E0E9FCE1C1DBC6DB50DA14
:10027000E6E9FCE1BCDBACE6B0E08C9183FB0EF47C
:1002800048C01DDAA99888E088BB16DA3CDA81E01C
:1002900090E0A0E6B0E08D939C93A0E6B0E00D91D5
:1002A0001C91033050E0150710F009F031C013DA4B
:1002B000A9980091600041E0041B08BBFDD923DA36
:1002C00080E087BB80E088BB9298A998F5D9A0E62A
:1002D000B0E0AD90BC90A1E6B0E0AA0DBB1D86B326
:1002E0008C93929A8FEF87BBA0E2B4E0E0E6F0E057
:1002F000A190B080E1E6F0E0EA0DFB1D23DC6FDBAE
:10030000ECEAFCE174DBA0E6B0E062DB08F4C5CF08
:100310004FC088E08093A0008CE48093A10005DBAF
:1003200081E090E0A0E6B0E08D939C93A0E6B0E081
:100330000D911C91033050E0150710F009F038C002
:100340000091600041E0041BA0EAB0E00C938CE057
:100350008093A100EADA80E08093A00088E6809391
:10036000A100E3DA80E08093A0008CE68093A100F6
:100370005FDA8091A200A0E6B0E0AD90BC90A1E66B
:10038000B0E0AA0DBB1D8C93A0E2B4E0E0E6F0E083
:10039000A190B080E1E6F0E0EA0DFB1DD3DB1FDBAE
:1003A000ECEAFCE124DBA0E6B0E012DB08F4BECF0F
:1003B000009162000E3181E009F480E08F9300919A
:1003C0006300003981E008F080E09F91892B8F93D2
:1003D00000916300083980E010F009F081E09F91FE
:1003E000892B882309F43AC0ACE6B0E08C9185FBF8
:1003F00081E00EF080E08F93ACE6B0E08C9183FB5F
:1004000081E00EF080E09F91892B882309F414C0CD
:10041000EEEAFCE1ECDAF1DAF0DAE6EBFCE1E7DA5D
:10042000ECDAE2EEFCE1E3DAE8DAE7DAE6EFFCE167
:10043000DEDAE3DA8ED985D9ACE6B0E08C9183FBC5
:100440000EF40CC0EEEAFCE1D2DAD7DAE0E0FDE12E
:10045000CEDA80916C00806280936C000091620023
:100460000E3181E009F080E08F93009163000F3836
:1004700080E010F009F081E09F9189238F93009133
:100480006300093981E008F080E09F918923882387
:1004900009F4F1CEB2DAE6E1FDE1A9DAAEDA0091D3
:1004A0006300003909F03CC000916400013009F09C
:1004B00009C08FED8093680080916C008460809308
:1004C0006C002DC0043009F009C08CEF80936800E7
:1004D00080916C00846080936C0021C0053009F02D
:1004E00009C082E58093680080916C0084608093ED
:1004F0006C0015C0063009F009C08CE580936800D7
:1005000080916C00846080936C0009C0073009F012
:1005100006C08AE6809368008FEF809369006CC6FE
:10052000013909F09CC000916400013009F009C054
:100530008EED8093680080916C00846080936C00E5
:100540008DC0023009F009C08EED80936800809163
:100550006C00846080936C0081C0033009F009C096
:100560008EED8093680080916C00846080936C00B5
:1005700075C0053009F009C08AED8093680080914C
:100580006C00846080936C0069C0063009F009C07B
:100590008EED8093680080916C00846080936C0085
:1005A0005DC0083009F00FC082E6809368008FEDCF
:1005B000809369008FEF80936A0080916C00806463
:1005C00080936C004BC00A3009F00FC084E6809322
:1005D00068008FED809369008FEF80936A008091AF
:1005E0006C00806480936C0039C00B3009F00FC040
:1005F00082E6809368008FED809369008FEF80938F
:100600006A0080916C00806480936C0027C0093080
:1006100009F007C081EE8093680087EF809369003E
:100620001DC0073009F009C082E180936800809105
:100630006C00846080936C0011C00C3009F00EC017
:1006400082E6809368008FED809369008FEF80933E
:100650006A0080916C00806480936C00CDC5023983
:1006600009F0B6C000916400013009F009C08FEDB7
:100670008093680080916C00846080936C00A7C0B8
:10068000023009F009C08FED8093680080916C0002
:10069000846080936C009BC0033009F009C08AED30
:1006A0008093680080916C00846080936C008FC0A0
:1006B000053009F00FC082E6809368008FED8093CB
:1006C00069008FEF80936A0080916C008064809352
:1006D0006C007DC0073009F00FC082E6809368008F
:1006E0008FED809369008FEF80936A0080916C009A
:1006F000806480936C006BC00A3009F00FC082E602
:10070000809368008FED809369008FEF80936A007B
:1007100080916C00806480936C0059C0063009F0B1
:100720000FC082E6809368008FED809369008FEFA1
:1007300080936A0080916C00806480936C0047C055
:10074000093009F00FC08EE6809368008FED80932A
:1007500069008FEF80936A0080916C0080648093C1
:100760006C0035C0083009F00FC082E68093680045
:100770008FED809369008FEF80936A0080916C0009
:10078000806480936C0023C00D3009F00FC084E6B4
:10079000809368008FED809369008FEF80936A00EB
:1007A00080916C00806480936C0011C00C3009F063
:1007B0000EC082E6809368008FED809369008FEF12
:1007C00080936A0080916C00806480936C0014C5F3
:1007D000033909F0FEC000916400013009F009C03E
:1007E0008FED8093680080916C00846080936C0032
:1007F000EFC0033009F009C08FED8093680080914D
:100800006C00846080936C00E3C0073009F007C07F
:1008100081EE8093680089ED80936900D9C006302D
:1008200009F007C081EE8093680089ED809369002C
:10083000CFC0083009F007C081EE8093680089EDD1
:1008400080936900C5C00A3009F00FC082E680932A
:1008500068008FED8093690089EF80936A00809132
:100860006C00806480936C00B3C00B3009F00FC043
:1008700082E6809368008FED809369008FEF80930C
:100880006A0080916C00806480936C00A1C00C3081
:1008900009F00FC082E6809368008FED80936900B5
:1008A0008FEF80936A0080916C00806480936C006D
:1008B0008FC00F3009F00FC082E6809368008FED83
:1008C0008093690089EF80936A0080916C00806456
:1008D00080936C007DC0013109F00FC08EE68093DB
:1008E00068008FED809369008FEF80936A0080919C
:1008F0006C00806480936C006BC0013809F00FC0FD
:1009000082E6809368008FED8093690089EF809381
:100910006A0080916C00806480936C0059C0033839
:1009200009F00FC082E6809368008FED8093690024
:1009300089EF80936A0080916C00806480936C00E2
:1009400047C0073809F00FC082E6809368008FED3A
:10095000809369008FEF80936A0080916C008064BF
:1009600080936C0035C0083809F00FC082E6809390
:10097000680089ED809369008DEF80936A00809113
:100980006C00806480936C0023C0093809F00FC0AC
:100990008EE58093680089ED8093690084EF8093F1
:1009A0006A0080916C00806480936C0011C00D30EF
:1009B00009F00EC082E6809368008FED8093690095
:1009C0008FEF80936A0080916C00806480936C004C
:1009D00013C4043909F00CC100916400013009F01E
:1009E00009C08AE28093680080916C0084608093E3
:1009F0006C00FDC0023009F007C082E680936800F9
:100A000087E080936900F3C0033009F007C081EEEE
:100A10008093680089E980936900E9C0043009F097
:100A20000FC082E68093680089E9809369008FEFA8
:100A300080936A0080916C00806480936C00D7C0C2
:100A4000053009F00FC082E68093680089E9809341
:100A500069008FEF80936A0080916C0080648093BE
:100A60006C00C5C0063009F00FC082E680936800B4
:100A70008FED8093690089EF80936A0080916C000C
:100A8000806480936C00B3C0073009F00FC082E629
:100A90008093680089E9809369008FEF80936A00F2
:100AA00080916C00806480936C00A1C00F3009F0CD
:100AB0000FC082E68093680089E9809369008FEF18
:100AC00080936A0080916C00806480936C008FC07A
:100AD0000A3009F00FC082E68093680089E98093AC
:100AE00069008FEF80936A0080916C00806480932E
:100AF0006C007DC00B3009F00FC082E68093680067
:100B00008FED8093690089EF80936A0080916C007B
:100B1000806480936C006BC0033809F00FC082E6DC
:100B2000809368008FED8093690089EF80936A005D
:100B300080916C00806480936C0059C0073809F084
:100B40000FC082E6809368008FED809369008FEF7D
:100B500080936A0080916C00806480936C0047C031
:100B6000093809F00FC08EE58093680089ED809305
:100B7000690084EF80936A0080916C0080648093A8
:100B80006C0035C0023809F00FC08EE58093680014
:100B900089ED8093690084EF80936A0080916C00F6
:100BA000806480936C0023C0083809F00FC08EE584
:100BB0008093680081E98093690083EF80936A00E5
:100BC00080916C00806480936C0011C0043809F03F
:100BD0000EC082E68093680089ED809369008FEFF4
:100BE00080936A0080916C00806480936C0004C3E1
:100BF000053909F05AC100916400013009F007C0BD
:100C000081EF8093680089E9809369004DC10230CB
:100C100009F007C081EE8093680089E9809369003C
:100C200043C1033009F00FC082E68093680089E970
:100C3000809369008FEF80936A0080916C008064DC
:100C400080936C0031C1043009F00FC082E68093BC
:100C5000680089E9809369008FEF80936A00809132
:100C60006C00806480936C001FC1053109F00FC0D7
:100C700082E68093680089E9809369008FEF809312
:100C80006A0080916C00806480936C000DC1053017
:100C900009F00FC082E68093680089E980936900BB
:100CA0008FEF80936A0080916C00806480936C0069
:100CB000FBC0063009F00FC082E68093680089E926
:100CC000809369008FEF80936A0080916C0080644C
:100CD00080936C00E9C0013109F00FC082E6809377
:100CE000680089E9809369008FEF80936A008091A2
:100CF0006C00806480936C00D7C0043109F00FC091
:100D000082E68093680089ED809369008FEF80937D
:100D10006A0080916C00806480936C00C5C00F30C5
:100D200009F00FC082E68093680089ED8093690026
:100D30008FEF80936A0080916C00806480936C00D8
:100D4000B3C00D3009F00FC082E68093680089E9D6
:100D5000809369008FEF80936A0080916C008064BB
:100D600080936C00A1C00E3009F00FC082E6809322
:100D7000680089E9809369008FEF80936A00809111
:100D80006C00806480936C008FC00A3809F00FC03B
:100D90008EE58093680089ED8093690084EF8093ED
:100DA0006A0080916C00806480936C007DC007387D
:100DB00009F00FC08EE58093680081E98093690097
:100DC00083EF80936A0080916C00806480936C0054
:100DD0006BC0083809F00FC08EE58093680089E980
:100DE0008093690083EF80936A0080916C00806437
:100DF00080936C0059C0043809F00FC082E68093DC
:100E0000680089ED809369008FEF80936A0080917C
:100E10006C00806480936C0047C0063809F00FC0F6
:100E200082E68093680089ED809369008FEF80935C
:100E30006A0080916C00806480936C0035C001383A
:100E400009F00FC082E68093680089E98093690009
:100E50008FEF80936A0080916C00806480936C00B7
:100E600023C00B3009F00FC082E68093680089E947
:100E7000809369008FEF80936A0080916C0080649A
:100E800080936C0011C00C3009F00EC082E6809394
:100E9000680089E9809369008FEF80936A008091F0
:100EA0006C00806480936C00A7C1063909F0E7C02C
:100EB00000916400023009F00FC081EE8093680059
:100EC00089E9809369008DEF80936A0080916C00BE
:100ED000806480936C00D2C0033009F00FC082E6BA
:100EE0008093680089E9809369008FEF80936A009E
:100EF00080916C00806480936C00C0C0043009F065
:100F00000FC082E68093680089E9809369008FEFC3
:100F100080936A0080916C00806480936C00AEC006
:100F2000053009F00FC082E68093680089E980935C
:100F300069008FEF80936A0080916C0080648093D9
:100F40006C009CC0063009F00FC082E680936800F8
:100F500089E9809369008FEF80936A0080916C002B
:100F6000806480936C008AC0083009F00FC082E66C
:100F70008093680089E9809369008FEF80936A000D
:100F800080916C00806480936C0078C0093009F017
:100F90000FC082E68093680089E9809369008FEF33
:100FA00080936A0080916C00806480936C0066C0BE
:100FB0000A3009F00FC082E68093680089E98093C7
:100FC00069008FEF80936A0080916C008064809349
:100FD0006C0054C00B3009F00AC082E680936800B0
:100FE00089E9809369008FEF80936A0047C00238D7
:100FF00009F00FC08EE5809368008BE9809369004B
:1010000083EF80936A0080916C00806480936C0011
:1010100035C0043809F00FC082E68093680089ED7E
:10102000809369008FEF80936A0080916C008064E8
:1010300080936C0023C0013809F00FC082E68093D2
:10104000680089E9809369008FEF80936A0080913E
:101050006C00806480936C0011C0063809F00EC0EB
:1010600082E68093680089ED809369008FEF80931A
:101070006A0080916C00806480936C00BDC0073969
:1010800009F092C000916400013009F00FC081ECBA
:10109000809368008FEF809369008FEF80936A00E0
:1010A00080916C00806480936C007DC0023009F0F8
:1010B0000FC081EE8093680089E9809369008DEF0D
:1010C00080936A0080916C00806480936C006BC098
:1010D000033009F00FC082E68093680089E98093AD
:1010E00069008FEF80936A0080916C008064809328
:1010F0006C0059C0043009F00FC082E6809368008C
:1011000089E9809369008FEF80936A0080916C0079
:10111000806480936C0047C0053009F00FC082E600
:101120008093680089E9809369008FEF80936A005B
:1011300080916C00806480936C0035C0063009F0AB
:101140000FC082E68093680089E9809369008FEF81
:1011500080936A0080916C00806480936C0023C04F
:10116000023809F00FC08EE58093680089E980930A
:10117000690083EF80936A0080916C0080648093A3
:101180006C0011C0013809F00EC082E6809368003F
:1011900089E9809369008FEF80936A0080916C00E9
:1011A000806480936C0028C0083909F025C0009144
:1011B0006400013009F00FC082E68093680089E97D
:1011C000809369008FEF80936A0080916C00806447
:1011D00080936C0011C0023009F00EC082E680934B
:1011E000680089E9809369008FEF80936A0080919D
:1011F0006C00806480936C0000916800003081E096
:1012000009F080E08F9300916900003081E009F0DF
:1012100080E09F918923882309F40CC0EED3E2E497
:10122000FDE1E5D3EAD3E9D3E6EFFCE1E0D3E5D392
:1012300090D287D2EEE5FDE1DAD39C9B05C0E4E7CE
:10124000FDE1D5D3DAD32CC0ACE6B0E08C9183FBC2
:101250000EF40CC034D2A99880E888BB54D258D27E
:10126000A3E3B0E08C9180FBDEF716C080E88093AA
:10127000A0008CE48093A10058D380E08093A0006C
:1012800084E68093A10051D380E88093A0008CE68F
:101290008093A1004AD381D3E0E9FCE1A8D3ADD388
:1012A00064D2E0E8FDE1A3D3A0E2B4E0E5E6F0E03B
:1012B00049D495D3E8E9FDE19AD3A0E2B4E0E6E6AB
:1012C000F0E040D48CD3ECE9FDE191D3A0E2B4E0AE
:1012D000E7E6F0E037D483D390D3E0EAFDE187D3AB
:1012E000A0E2B4E0E8E6F0E02DD479D3E8E9FDE14E
:1012F0007ED3A0E2B4E0E9E6F0E024D470D3ECE9D8
:10130000FDE175D3A0E2B4E0EAE6F0E01BD467D3D8
:1013100074D3E8EBFDE16BD3ABE6B0E00C9100FBDE
:1013200081E00EF480E08F93ABE6B0E00C9101FB1E
:1013300081E00EF480E09F91892B882309F41AC084
:10134000EEECFDE154D3A0E2B4E0EBE6F0E0FAD33A
:1013500046D3EAEDFDE14BD350D34FD3ECEDFDE1A5
:1013600046D34BD34AD3E6EFFCE141D346D3F1D188
:10137000DED10DC0E0E1FEE13AD3A0E2B4E0EBE65D
:10138000F0E0E0D32CD3EAEDFDE131D336D3ECE14C
:10139000FEE12DD3A0E2B4E0E8E6F0E0D3D31FD322
:1013A000A0E2B4E0E9E6F0E0CDD319D3A0E2B4E0E6
:1013B000EAE6F0E0C7D313D3E8E2FEE118D3ACE6E7
:1013C000B0E08C9183FB0EF454C079D180E488BBEB
:1013D00073D199D18CD1A8E6B0E08C9188BBBCD1F7
:1013E0006BD191D1A998969867D192D165D1A3E399
:1013F000B0E08C9180FBDEF7ACE6B0E08C9182FB34
:101400000EF417C05CD180E488BB56D17CD16FD17B
:10141000A9E6B0E08C9188BB9FD14ED174D1A99A36
:1014200096984AD175D148D1A3E3B0E08C9180FB66
:10143000DEF7ACE6B0E08C9186FB0EF017C03FD132
:1014400080E488BB39D15FD152D1AAE6B0E08C915B
:1014500088BB82D131D157D1A998969A2DD158D134
:101460002BD1A3E3B0E08C9180FBDEF7A99896988E
:1014700052C080E48093A0008CE48093A10055D2F8
:10148000809168008093A00099D28CE28093A100A3
:101490004CD280E08093A00084E68093A10045D2E6
:1014A0008CE68093A10041D278D2ACE6B0E08C917A
:1014B00082FB0EF415C0809169008093A0007ED25B
:1014C0008CE28093A10031D280E08093A00084E779
:1014D0008093A1002AD28CE78093A10026D25DD20E
:1014E000ACE6B0E08C9186FB0EF015C080916A00EE
:1014F0008093A00063D28CE28093A10016D280E09A
:101500008093A00086E68093A1000FD28EE68093A0
:10151000A1000BD242D2E0E9FCE169D26ED225D122
:10152000EEE2FEE164D2A0E2B4E0E5E6F0E00AD348
:1015300056D2E8E9FDE15BD2A0E2B4E0E6E6F0E0F5
:1015400001D34DD2ECE9FDE152D2A0E2B4E0E7E6EE
:10155000F0E0F8D244D24091680000916500041791
:1015600009F405C080916C00806880936C00ACE643
:10157000B0E08C9182FB0EF40CC0409169000091A8
:101580006600041709F405C080916C0080688093A0
:101590006C00ACE6B0E08C9186FB0EF00CC0409184
:1015A0006A0000916700041709F405C080916C007F
:1015B000806880936C00ACE6B0E08C9187FB0EF005
:1015C00015C0E6E4FEE113D218D217D2E2EEFCE138
:1015D0000ED213D2ADE6B0E004D20FD20ED2E6EFB7
:1015E000FCE105D20AD2B5D098D006C0E0E5FEE114
:1015F000FED103D2AED0AAD0EEEFF1E0A0E6B0E08B
:10160000D5D2A0E6B0E0E4D1EEEFF1E0A0E6B0E0A4
:101610007BE7BBD2F2D1A0E2B4E0E0E6F0E039D261
:10162000DED1E8E5FEE1E3D1E8D1E7D1E6EFFCE188
:10163000DED1E3D1F894FFCF42D084E088BB3CD028
:1016400062D080E087BB80E088BB36D09298A998B2
:10165000969832D0A5E6B0E086B38C93929AACE629
:10166000B0E08C9182FB0EF40AC026D09298A99A21
:10167000969A22D0A6E6B0E086B38C93929AACE616
:10168000B0E08C9186FB0EF00AC016D09298A99813
:10169000969A12D0A7E6B0E086B38C93929A0CD0BB
:1016A0009298A99A969808D0ABE6B0E086B38C934E
:1016B000929A8FEF87BB0895000000000895AB9ABF
:1016C000ACE6B0E08C9185FB0EF001C0969AAA982A
:1016D000A998F2DF0895AB98ACE6B0E08C9185FB59
:1016E0000EF001C09698AA98A998E6DF0895AB98E5
:1016F000ACE6B0E08C9185FB0EF001C09698AA9AFA
:10170000A998DADF0895939AD7DF9398D5DF0895E3
:101710009498D2DF949AD0DF0895AB9885B394E083
:10172000892785BB84EF91E078D1F8CF0895AA98F6
:1017300085B398E0892785BB84EF91E06ED1F8CF1F
:101740000895AB98AA9AF894FFCF0895AA98AB9AF7
:101750000895959A97980895ACE6B0E08C9181FB36
:101760000EF002C08FEF88BB0895ACE6B0E08C911C
:1017700083FB0EF402C060DF01C013D0ACE6B0E022
:101780008C9181FB0EF00CC0809168008093650005
:10179000809169008093660080916A008093670061
:1017A000089584E08093A0008CE48093A100BDD0D4
:1017B00080E08093A00088E68093A100B6D08CE6FC
:1017C0008093A10035D08091A20080936500ACE6A3
:1017D000B0E08C9182FB0EF40CC08AE78093A100EC
:1017E000A4D08EE78093A10023D08091A2008093A3
:1017F0006600ACE6B0E08C9186FB0EF00CC08AE689
:101800008093A10092D08EE68093A10011D08091A8
:10181000A2008093670088E78093A10086D08CE7C0
:101820008093A10005D08091A20080936B00089561
:10183000AB98AA98BAD0A3E3B0E08C9181FBA2EA5E
:10184000B0E08C9187F98C9388E08093A30087E0C7
:101850008093A4008091A30081508093A300809185
:10186000A40081508093A400A3EAB0E08C91A0EA88
:10187000B0E0F5D0EAD00C900822689409F4E8941E
:10188000A5E3B0E08C9183F98C93A3EAB0E08C914E
:10189000A1EAB0E0E4D0D9D00C900822689409F411
:1018A000E894A5E3B0E08C9182F98C937ED0A3E319
:1018B000B0E08C9181FBA4EAB0E08C91A2EAB0E0A8
:1018C000CED0C3D00C9016F0092201C0082A0C9289
:1018D0000091A400003009F0BDCFA3EAB0E08C91E4
:1018E000A0EAB0E0BCD0B1D00C900822689409F412
:1018F000E894A5E3B0E08C9183F98C93A3EAB0E07F
:101900008C91A1EAB0E0ABD0A0D00C9008226894F2
:1019100009F4E894A5E3B0E08C9182F98C9345D06A
:10192000AB98AA9842D041D00895AB98AA983DD0E0
:1019300088E08093A3008091A30081508093A3004E
:10194000A3EAB0E08C91A0EAB0E089D07ED00C9000
:101950000822689409F4E894A5E3B0E08C9183F937
:101960008C93A3EAB0E08C91A1EAB0E078D06DD07E
:101970000C900822689409F4E894A5E3B0E08C91F7
:1019800082F98C9312D00091A300003009F0D3CFDC
:10199000AB98AA980AD009D0089500000000A3E3EC
:1019A000B0E08C9181FBDEF7089500000000A89A5A
:1019B000AD9A00000000A898AD980895ACE6B0E09C
:1019C0008C9181FB0EF003C08FEF8093A0000895EF
:1019D000ED91FC91EF5FFF4FFC93EE930895A0E231
:1019E000B4E08D91882311F00BD0FBCF089529D05E
:1019F000802D11F005D0FBCF08958DE001D08AE055
:101A00005D9BFECF8CB908953197F1F708956894E6
:101A100062F80895E89462F80895EF93FF93EE2733
:101A2000E82BE92B31F0EAEFF0E03197F1F701977D
:101A3000D1F7FF91EF91089504D00D920020E1F7C6
:101A40000895C89531960020089591E0882321F0EB
:101A50008894991F8A95E9F7892F90950895883081
:101A600018F011968850FBCF089588279D91890F13
:101A70009923E1F70895000F111F221F331F0895C6
:101A800000951095209530950F5F1F4F2F4F3F4FBA
:101A90000895019110810EC0019111912191308121
:101AA0000BC00191108117FF05C03FEF2FEF04C05D
:101AB000008111272227332737FF03C0E1DF8DE2A2
:101AC0008D93CF93DF93CF92DF92EF92AA24BB2422
:101AD000CC24DD24EE2440E2CAE0DD2755E093E388
:101AE0008881890F87FD9F7083FD907F891B899373
:101AF0005A95A9F7C0DFAA1CBB1CCC1CDD1CEE1C30
:101B00004A9551F7E894EFE0FF2782910ED0EB3031
:101B1000E0F71EF068948A2D0CD088278D93EF9003
:101B2000DF90CF90DF91CF910895982F829501D0CB
:101B3000892F8F70805D26F0803309F408956894B2
:101B40008D93089541E003C042E001C044E0E40FFA
:101B50008827F81F8291982F829505D0892F03D06E
:101B60004A95C1F707C08F708A3008F0895F805DA1
:101B70008D93089588278D930895E199FECFEEBB4C
:101B8000FFBB3196089591E001C092E07B3751F49C
:101B90007FB7F894F2DF8D918DBBE29AE19A9A9526
:101BA000C9F77FBF7727089591E001C092E0E5DF94
:101BB000E09A8DB38D939A95D1F708955F0057659C
:101BC0006C636F6D652020200000415652204174E7
:101BD0006D656761206675736562697420646F6303
:101BE000746F722028485650502B48565350292065
:101BF00076657273696F6E20322E3035000068741E
:101C000074703A2F2F6469792E656C656B74726FEE
:101C100064612E65752F61746D6567612D667573DE
:101C2000656269742D646F63746F722D687670706D
:101C30000000557361676520696E20636F6D6D6587
:101C4000726369616C2F70726F666974207075724F
:101C5000706F736573206E6F7420616C6C6F776545
:101C600064212121000048565350204D4F44450027
:101C700048565050204D4F444500496E69742070BD
:101C8000726F6772616D6D696E672E2E2E20200057
:101C9000444F4E45000052656164207369676E6170
:101CA000747572652E2E2E202020200020002D20FD
:101CB0004641494C21004E6F206368697020696E6F
:101CC00020736F636B6574206F7220636869702086
:101CD000646F206E6F7420726573706F6E64696ECE
:101CE0006700506C6561736520747279206167616B
:101CF000696E2E2E2E005468616E6B20596F750030
:101D0000547279696E672054323331332070696EB2
:101D10006F75742E2E00536561726368696E67205B
:101D2000636869702E2E2E2020202028756327736B
:101D3000206E616D65732064697361626C656429EE
:101D4000000043686970206E6F7420737570706F47
:101D5000727465642C20736F7272792E0000436870
:101D600069702065726173652E2E2E202020202040
:101D700020202000444953414C4C4F57454400001B
:101D8000526561642066757365626974732E2E2EC8
:101D900020202020204C3A0020483A0020453A00DC
:101DA00053686F756C642062652E2E2E20202020D3
:101DB00020202020204C3A004C6F636B62697473C2
:101DC0002E2E2E2020202020202020202000454EB6
:101DD00041424C454420202800002900506C656198
:101DE000736520616C6C6F7720746F20657261730E
:101DF0006520746865206368697020746F20646969
:101E00007361626C65206C6F636B62697473000050
:101E100044495341424C45442028000052657772A2
:101E20006974696E672000002E2E2E2020005665F2
:101E300072696679696E672E2E2E20202020202060
:101E40002020204C3A00202D204641494C21000002
:101E5000202D204F4B2100002066697865642063A7
:061E6000686970730000C8
:00000001FF
