:1000000012C0189518951895189518951895189563
:100010001895189518951895189518951895189578
:100020001895189518958FE58DBFC0E4E8E34E2E1E
:1000300084E08EBFD4E0F4E05F2EEEEFF3E0A0E6C4
:10004000B0E088278D933197E9F783E389B980E0A1
:1000500080BD88E18AB966248CE089B980E080BDE2
:100060008FEF87BB8FEF84BBA498AC9AA098A89819
:1000700080E185BB8FEF81BB87E382BBE8E1F6E1DE
:10008000F4D9F9D9F8D9ECE4F6E1EFD9F4D9F3D9F8
:10009000ADE6B0E0E4E5F6E10DDAADE6B0E0DFD9DB
:1000A000E6E7F6E1E2D9E7D9ADE6B0E00CDA082FF1
:1000B000043C09F405C080916C00886080936C005A
:1000C000ADE6B0E0E2E8F6E1F5D9ADE6B0E0C7D9DB
:1000D000D2D9ADE6B0E0F7D9082F0E3109F405C04A
:1000E00080916C00886080936C00ADE6B0E0E6EB38
:1000F000F6E1E0D9ADE6B0E0B2D9BDD9ADE6B0E009
:10010000E2D9082F0F3309F405C080916C00886094
:1001100080936C00B0D90BB1003009F405C0809118
:100120006C00886080936C000AB1083109F405C046
:1001300080916C00886080936C0000B5003009F4F9
:1001400005C080916C00886080936C0000B5003021
:1001500009F405C080916C00886080936C0009B13F
:100160000C3009F405C080916C00886080936C00AD
:10017000EEEFF6E17AD99698AA98AB98A998949858
:1001800084E690E088D99598EF93FF93ECE4F0E053
:1001900079D9FF91EF91979A81E090E0A0E6B0E0E5
:1001A0008D939C93A0E6B0E00D911C910A3050E035
:1001B000150710F009F006C020D9A0E6B0E046D936
:1001C00008F4F0CFEF93FF93E4EEF3E05BD9FF91F7
:1001D000EF91949AA3E3B0E08C9180FBDEF7E4E129
:1001E000F7E143D948D90ED9EAE1F7E13ED9E1D8A0
:1001F000A99888E088BBD3D800D981E090E0A0E638
:10020000B0E08D939C93A0E6B0E00D911C9103307B
:1002100050E0150710F009F031C0D7D8A998009127
:10022000600041E0041B08BBBAD8E7D880E087BB78
:1002300080E088BB9298A998B2D8A0E6B0E0AD90D3
:10024000BC90A1E6B0E0AA0DBB1D86B38C93929A38
:100250008FEF87BBA0E2B4E0E0E6F0E0A190B080D1
:10026000E1E6F0E0EA0DFB1D9BD9F7D8E0E3F7E10A
:10027000FCD8A0E6B0E0EAD808F4C5CF009162004F
:100280000E3181E009F480E08F93ACE6B0E08C9110
:1002900085FB81E00EF080E09F918923882309F49B
:1002A00014C0E2E3F7E1E1D8E6D8E5D8ECE3F7E102
:1002B000DCD8E1D8E8E6F7E1D8D8DDD8DCD8E4E945
:1002C000F7E1D3D8D8D8BFD8B6D8009162000E31A4
:1002D00009F40CC0E2E3F7E1C8D8CDD8EEE9F7E1C4
:1002E000C4D880916C00806280936C0000916200A1
:1002F0000E3109F07CCFBFD8E4EBF7E1B6D800911E
:1003000063000F3809F001C039C6003909F001C097
:1003100035C6013909F047C0009164000A3009F080
:1003200013C0EAECF7E1A1D8A6D884E68093680070
:100330008FED809369008FEF80936A0080916C004D
:10034000806480936C002EC0093009F00BC0E6ED8C
:10035000F7E18BD890D881EE8093680087EF809387
:10036000690020C0073009F008C0E0EEF7E17DD851
:1003700082D882E18093680015C00C3009F012C069
:10038000EAEEF7E172D877D882E6809368008FEDC5
:10039000809369008FEF80936A0080916C00806485
:1003A00080936C00EBC5023909F086C000916400AF
:1003B000053009F013C0E4EFF7E157D85CD882E6C6
:1003C000809368008FED809369008FEF80936A00BF
:1003D00080916C00806480936C006DC00A3009F0DD
:1003E00013C0EEEFF7E141D846D882E6809368006B
:1003F0008FED809369008FEF80936A0080916C008D
:10040000806480936C0057C0093009F013C0E8E0A5
:10041000F8E12BD830D88EE6809368008FED80937A
:1004200069008FEF80936A0080916C0080648093F4
:100430006C0041C0083009F013C0E2E1F8E115D8C2
:100440001AD882E6809368008FED809369008FEF61
:1004500080936A0080916C00806480936C002BC054
:100460000D3009F013C0ECE1F8E1FFD704D884E6C1
:10047000809368008FED809369008FEF80936A000E
:1004800080916C00806480936C0015C00C3009F082
:1004900012C0E8E2F8E1E9D7EED782E6809368007F
:1004A0008FED809369008FEF80936A0080916C00DC
:1004B000806480936C0062C5033909F0F2C000913A
:1004C0006400073009F00BC0E2E3F8E1CED7D3D7E0
:1004D00081EE8093680089ED80936900E1C0063069
:1004E00009F00BC0EAE3F8E1C0D7C5D781EE8093ED
:1004F000680089ED80936900D3C0083009F00BC013
:10050000E6E4F8E1B2D7B7D781EE8093680089EDD1
:1005100080936900C5C00A3009F013C0E2E5F8E134
:10052000A4D7A9D782E6809368008FED80936900F5
:1005300089EF80936A0080916C00806480936C00E6
:10054000AFC00F3009F013C0ECE5F8E18ED793D7B8
:1005500082E6809368008FED8093690089EF809335
:100560006A0080916C00806480936C0099C00131B6
:1005700009F013C0E6E6F8E178D77DD78EE68093E0
:1005800068008FED809369008FEF80936A008091FF
:100590006C00806480936C0083C0013809F013C044
:1005A000E0E7F8E162D767D782E6809368008FEDD5
:1005B0008093690089EF80936A0080916C00806469
:1005C00080936C006DC0033809F013C0ECE7F8E1CC
:1005D0004CD751D782E6809368008FED80936900F5
:1005E00089EF80936A0080916C00806480936C0036
:1005F00057C0073809F013C0ECE8F8E136D73BD70D
:1006000082E6809368008FED809369008FEF80937E
:100610006A0080916C00806480936C0041C008384F
:1006200009F013C0E6E9F8E120D725D782E68093E8
:10063000680089ED809369008DEF80936A00809156
:100640006C00806480936C002BC0093809F013C0E3
:10065000E0EAF8E10AD70FD78EE58093680089EDCC
:100660008093690084EF80936A0080916C008064BD
:1006700080936C0015C00D3009F012C0EAEAF8E171
:10068000F4D6F9D682E6809368008FED80936900F6
:100690008FEF80936A0080916C00806480936C007F
:1006A0006DC4043909F047C100916400013009F0BC
:1006B00008C0E4EBF8E1D9D6DED68AE28093680080
:1006C00039C1023009F00BC0EEEBF8E1CED6D3D63B
:1006D00082E68093680087E0809369002BC1033035
:1006E00009F00BC0E8ECF8E1C0D6C5D681EE8093E6
:1006F000680089E9809369001DC1043009F013C0C6
:10070000E2EDF8E1B2D6B7D682E68093680089E9D7
:10071000809369008FEF80936A0080916C00806401
:1007200080936C0007C1053009F013C0ECEDF8E1CF
:100730009CD6A1D682E68093680089E980936900FF
:100740008FEF80936A0080916C00806480936C00CE
:10075000F1C0063009F013C0E6EEF8E186D68BD67C
:1007600082E6809368008FED8093690089EF809323
:100770006A0080916C00806480936C00DBC007305D
:1007800009F013C0E0EFF8E170D675D682E68093E9
:10079000680089E9809369008FEF80936A008091F7
:1007A0006C00806480936C00C5C00F3009F013C0EA
:1007B000ECEFF8E15AD65FD682E68093680089E9CB
:1007C000809369008FEF80936A0080916C00806451
:1007D00080936C00AFC00A3009F013C0E6E0F9E185
:1007E00044D649D682E68093680089E980936900FF
:1007F0008FEF80936A0080916C00806480936C001E
:1008000099C00B3009F013C0E2E1F9E12ED633D6DE
:1008100082E6809368008FED8093690089EF809372
:100820006A0080916C00806480936C0083C0033800
:1008300009F013C0EEE1F9E118D61DD682E68093E7
:1008400068008FED8093690089EF80936A00809142
:100850006C00806480936C006DC0073809F013C091
:10086000EEE2F9E102D607D682E6809368008FEDCA
:10087000809369008FEF80936A0080916C008064A0
:1008800080936C0057C0093809F013C0E8E3F9E120
:10089000ECD5F1D58EE58093680089ED80936900F1
:1008A00084EF80936A0080916C00806480936C0078
:1008B00041C0023809F013C0E4E4F9E1D6D5DBD534
:1008C0008EE58093680089ED8093690084EF8093C2
:1008D0006A0080916C00806480936C002BC00838A3
:1008E00009F013C0E2E5F9E1C0D5C5D58EE58093E6
:1008F000680081E98093690083EF80936A008091AA
:100900006C00806480936C0015C0043809F012C03C
:10091000EEE5F9E1AAD5AFD582E68093680089EDCE
:10092000809369008FEF80936A0080916C008064EF
:1009300080936C0023C3053909F044C10091640021
:10094000023009F00BC0EAE6F9E18FD594D581EECB
:100950008093680089E98093690033C1033009F00E
:1009600013C0E4E7F9E181D586D582E6809368007B
:1009700089E9809369008FEF80936A0080916C0011
:10098000806480936C001DC1043009F013C0EEE751
:10099000F9E16BD570D582E68093680089E9809390
:1009A00069008FEF80936A0080916C00806480936F
:1009B0006C0007C1053109F013C0EAE8F9E155D52B
:1009C0005AD582E68093680089E9809369008FEFA9
:1009D00080936A0080916C00806480936C00F1C009
:1009E000053009F013C0E4E9F9E13FD544D582E6CA
:1009F0008093680089E9809369008FEF80936A0093
:100A000080916C00806480936C00DBC0063009F03C
:100A100013C0EEE9F9E129D52ED582E6809368006E
:100A200089E9809369008FEF80936A0080916C0060
:100A3000806480936C00C5C0013109F013C0EAEAFC
:100A4000F9E113D518D582E68093680089E980938F
:100A500069008FEF80936A0080916C0080648093BE
:100A60006C00AFC0043109F013C0E6EBF9E1FDD42E
:100A700002D582E68093680089ED809369008FEF4C
:100A800080936A0080916C00806480936C0099C0B0
:100A90000F3009F013C0E0ECF9E1E7D4ECD482E6C2
:100AA0008093680089ED809369008FEF80936A00DE
:100AB00080916C00806480936C0083C00D3009F0DD
:100AC00013C0ECECF9E1D1D4D6D482E6809368006F
:100AD00089E9809369008FEF80936A0080916C00B0
:100AE000806480936C006DC00E3009F013C0E8ED97
:100AF000F9E1BBD4C0D482E68093680089E9809391
:100B000069008FEF80936A0080916C00806480930D
:100B10006C0057C00A3809F013C0E4EEF9E1A5D41F
:100B2000AAD48EE58093680089ED8093690084EFF4
:100B300080936A0080916C00806480936C0041C057
:100B4000073809F013C0E0EFF9E18FD494D48EE5B3
:100B50008093680081E98093690083EF80936A0045
:100B600080916C00806480936C002BC0043809F085
:100B700013C0ECEFF9E179D47ED482E6809368006B
:100B800089ED809369008FEF80936A0080916C00FB
:100B9000806480936C0015C0013809F012C0E8E051
:100BA000FAE163D468D482E68093680089E980938F
:100BB00069008FEF80936A0080916C00806480935D
:100BC0006C00DCC1063909F0F4C000916400023009
:100BD00009F013C0E2E1FAE148D44DD481EE8093EC
:100BE000680089E9809369008DEF80936A008091A5
:100BF0006C00806480936C00DBC0033009F013C08C
:100C0000ECE1FAE132D437D482E68093680089E9D6
:100C1000809369008FEF80936A0080916C008064FC
:100C200080936C00C5C0043009F013C0E6E2FAE11D
:100C30001CD421D482E68093680089E980936900FE
:100C40008FEF80936A0080916C00806480936C00C9
:100C5000AFC0053009F013C0E2E3FAE106D40BD4CB
:100C600082E68093680089E9809369008FEF809322
:100C70006A0080916C00806480936C0099C006309B
:100C800009F013C0ECE3FAE1F0D3F5D382E68093E8
:100C9000680089E9809369008FEF80936A008091F2
:100CA0006C00806480936C0083C0083009F013C02E
:100CB000E8E4FAE1DAD3DFD382E68093680089E9D9
:100CC000809369008FEF80936A0080916C0080644C
:100CD00080936C006DC0093009F013C0E2E5FAE1C1
:100CE000C4D3C9D382E68093680089E98093690000
:100CF0008FEF80936A0080916C00806480936C0019
:100D000057C00A3009F013C0ECE5FAE1AED3B3D313
:100D100082E68093680089E9809369008FEF809371
:100D20006A0080916C00806480936C0041C002383E
:100D300009F013C0E8E6FAE198D39DD38EE58093DD
:100D400068008BE98093690083EF80936A0080914B
:100D50006C00806480936C002BC0043809F013C0D1
:100D6000E8E7FAE182D387D382E68093680089EDD1
:100D7000809369008FEF80936A0080916C0080649B
:100D800080936C0015C0013809F012C0E4E8FAE164
:100D90006CD371D382E68093680089E980936900FF
:100DA0008FEF80936A0080916C00806480936C0068
:100DB000E5C0073909F0B2C000916400013009F0C4
:100DC00013C0EEE8FAE151D356D381EC809368006A
:100DD0008FEF809369008FEF80936A0080916C00A1
:100DE000806480936C0099C0023009F013C0E8E978
:100DF000FAE13BD340D381EE8093680089E9809388
:100E000069008DEF80936A0080916C00806480930C
:100E10006C0083C0033009F013C0E2EAFAE125D385
:100E20002AD382E68093680089E9809369008FEF76
:100E300080936A0080916C00806480936C006DC028
:100E4000043009F013C0EEEAFAE10FD314D382E6BE
:100E50008093680089E9809369008FEF80936A002E
:100E600080916C00806480936C0057C0053009F05D
:100E700013C0EAEBFAE1F9D2FED282E68093680071
:100E800089E9809369008FEF80936A0080916C00FC
:100E9000806480936C0041C0063009F013C0E6EC1A
:100EA000FAE1E3D2E8D282E68093680089E9809390
:100EB00069008FEF80936A0080916C00806480935A
:100EC0006C002BC0023809F013C0E2EDFAE1CDD27C
:100ED000D2D28EE58093680089E98093690083EF20
:100EE00080936A0080916C00806480936C0015C0D0
:100EF000013809F012C0E4EEFAE1B7D2BCD282E6C2
:100F00008093680089E9809369008FEF80936A007D
:100F100080916C00806480936C0030C0083909F0C7
:100F20002DC000916400013009F013C0E0EFFAE138
:100F30009CD2A1D282E68093680089E980936900FF
:100F40008FEF80936A0080916C00806480936C00C6
:100F500015C0023009F012C0ECEFFAE186D28BD254
:100F600082E68093680089E9809369008FEF80931F
:100F70006A0080916C00806480936C00009168002E
:100F8000003081E009F080E08F930091690000302B
:100F900081E009F080E09F918923882309F41CC037
:100FA0006AD269D2E8E0FBE160D265D2EEE2FBE111
:100FB0005CD261D2E0E5FBE158D25DD2EAE7FBE129
:100FC00054D259D2E0E3F7E150D255D2E6E9FBE141
:100FD0004CD251D238D22FD2E0EAFBE146D29C9BD0
:100FE00005C0E6EBFBE141D246D20FC0E2D1A998A1
:100FF00080E888BB02D206D2A3E3B0E08C9180FBEC
:10100000DEF7E4E1F7E131D236D27DD1E2ECFBE16B
:101010002CD2A0E2B4E0E5E6F0E0C2D21ED2EAEDC6
:10102000FBE123D2A0E2B4E0E6E6F0E0B9D215D2CB
:10103000EEEDFBE11AD2A0E2B4E0E7E6F0E0B0D2D8
:101040000CD219D2E2EEFBE110D2A0E2B4E0E8E665
:10105000F0E0A6D202D2EAEDFBE107D2A0E2B4E0D2
:10106000E9E6F0E09DD2F9D1EEEDFBE1FED1A0E2A0
:10107000B4E0EAE6F0E094D2F0D1FDD1EAEFFBE192
:10108000F4D1ABE6B0E00C9100FB81E00EF480E01F
:101090008F93ABE6B0E00C9101FB81E00EF480E0B1
:1010A0009F91892B882309F41DC0E0E1FCE1DDD18B
:1010B000A0E2B4E0EBE6F0E073D2CFD1ECE1FCE1EA
:1010C000D4D1D9D1EEE1FCE1D0D1D5D1E0E2FCE13F
:1010D000CCD1D1D1D0D1E4E9F7E1C7D1CCD1B3D1D2
:1010E000A0D10DC0E4E5FCE1C0D1A0E2B4E0EBE6A4
:1010F000F0E056D2B2D1ECE1FCE1B7D1BCD1E0E6F0
:10110000FCE1B3D1A0E2B4E0E8E6F0E049D2A5D139
:10111000A0E2B4E0E9E6F0E043D29FD1A0E2B4E07F
:10112000EAE6F0E03DD299D1ECE6FCE19ED141D176
:1011300080E488BB34D161D154D1A8E6B0E08C9171
:1011400088BBACE6B0E08C9183FB0EF002C08FEF61
:1011500088BB25D152D1A998969821D153D11FD1BE
:10116000A3E3B0E08C9180FBDEF723D180E488BB61
:1011700016D143D136D1A9E6B0E08C9188BBACE65C
:10118000B0E08C9183FB0EF002C08FEF88BB07D1DB
:1011900034D1A99A969803D135D101D1A3E3B0E017
:1011A0008C9180FBDEF7ACE6B0E08C9186FB0EF014
:1011B0001EC0FFD080E488BBF2D01FD112D1AAE6B6
:1011C000B0E08C9188BBACE6B0E08C9183FB0EF074
:1011D00002C08FEF88BBE3D010D1A998969ADFD0D8
:1011E00011D1DDD0A3E3B0E08C9180FBDEF7E4E128
:1011F000F7E13BD140D1A998969885D0E2E7FCE190
:1012000034D1A0E2B4E0E5E6F0E0CAD126D1EAEDBF
:10121000FBE12BD1A0E2B4E0E6E6F0E0C1D11DD1C4
:10122000EEEDFBE122D1A0E2B4E0E7E6F0E0B8D1D8
:1012300014D14091680000916500041709F405C0BD
:1012400080916C00806880936C00409169000091EF
:101250006600041709F405C080916C0080688093D3
:101260006C00ACE6B0E08C9186FB0EF00CC04091B7
:101270006A0000916700041709F405C080916C00B2
:10128000806880936C00ACE6B0E08C9187FB0EF038
:1012900011C0E2E3F7E1E9D0EED0EDD0EAE8FCE1FD
:1012A000E4D0E9D0E8D0E4E9F7E1DFD0E4D0CBD076
:1012B000AED006C0EEE9FCE1D8D0DDD0C4D0C0D0BD
:1012C000E1E0F0E0A0E6B0E09FD1A0E6B0E0BED063
:1012D000E1E0F0E0A0E6B0E07BE785D1CCD0E6EA43
:1012E000FCE1C3D0A0E2B4E0E0E6F0E000D1B5D08C
:1012F000E8EBFCE1BAD0BFD0BED0E4E9F7E1B5D06D
:10130000BAD0F894FFCF55D084E088BB48D075D0D0
:1013100080E087BB80E088BB42D09298A9989698DD
:101320003ED0A5E6B0E086B38C93929A38D09298DE
:10133000A99A969A34D0A6E6B0E086B38C93929A96
:10134000ACE6B0E08C9186FB0EF00AC028D09298F3
:10135000A998969A24D0A7E6B0E086B38C93929A87
:101360001ED09298A99A96981AD0ABE6B0E086B3B0
:101370008C93929A8FEF87BBACE6B0E08C9183FBA5
:101380000EF00CC080916800809365008091690028
:101390008093660080916A00809367000895000042
:1013A000000000000000000000000000000000003D
:1013B0000895AB9AACE6B0E08C9185FB0EF001C0CD
:1013C000969AAA98A998EBDF0895AB98ACE6B0E09E
:1013D0008C9185FB0EF001C09698AA98A998DFDF42
:1013E0000895AB98ACE6B0E08C9185FB0EF001C09F
:1013F0009698AA9AA998D3DF0895939AD0DF9398E4
:10140000CEDF08959498CBDF949AC9DF0895AB9806
:1014100085B394E0892785BB84EF91E03CD0F8CF79
:101420000895AA9885B398E0892785BB84EF91E059
:1014300032D0F8CF0895AB98AA9AF894FFCF0895C8
:10144000AA98AB9A0895959A97980895ED91FC9172
:10145000EF5FFF4FFC93EE930895A0E2B4E08D910F
:10146000882311F00BD0FBCF089529D0802D11F0E7
:1014700005D0FBCF08958DE001D08AE05D9BFECFC3
:101480008CB908953197F1F70895689462F808953A
:10149000E89462F80895EF93FF93EE27E82BE92B89
:1014A00031F0E0EDF7E03197F1F70197D1F7FF91D7
:1014B000EF91089504D00D920020E1F70895C895AA
:1014C00031960020089588279D91890F9923E1F78F
:1014D0000895000F111F221F331F089500951095C6
:1014E000209530950F5F1F4F2F4F3F4F089501916B
:1014F00010810EC001911191219130810BC0019199
:10150000108117FF05C03FEF2FEF04C000811127A6
:101510002227332737FF03C0E1DF8DE28D93CF937E
:10152000DF93CF92DF92EF92AA24BB24CC24DD2458
:10153000EE2440E2CAE0DD2755E093E38881890F7D
:1015400087FD9F7083FD907F891B89935A95A9F72A
:10155000C0DFAA1CBB1CCC1CDD1CEE1C4A9551F73D
:10156000E894EFE0FF2782910ED0EB30E0F71EF019
:1015700068948A2D0CD088278D93EF90DF90CF90C0
:10158000DF91CF910895982F829501D0892F8F7088
:10159000805D26F0803309F4089568948D93089552
:1015A00041E003C042E001C044E0E40F8827F81F97
:1015B0008291982F829505D0892F03D04A95C1F743
:1015C00007C08F708A3008F0895F805D8D93089521
:1015D00088278D930895E199FECFEEBBFFBB31962E
:1015E000089591E001C092E07B3751F47FB7F89401
:1015F000F2DF8D918DBBE29AE19A9A95C9F77FBF90
:101600007727089591E001C092E0E5DFE09A8DB37D
:101610008D939A95D1F708955F5F5F5F5F5F5F5F1E
:101620005F5F5F5F5F5F5F5F5F5F5F5F5F5F5F5FCA
:101630005F5F5F5F5F5F5F5F5F5F5F5F5F5F5F5FBA
:101640005F5F5F5F5F5F5F5F5F5F5F0057656C63FA
:101650006F6D65004156522041746D65676120666B
:1016600075736562697420646F63746F72202848B3
:1016700056505029000020322E303120424554412E
:101680000000687474703A2F2F6469792E656C6558
:101690006B74726F64612E65752F61746D6567611F
:1016A0002D667573656269742D646F63746F722D36
:1016B000687670702F00416E7920757361676520C0
:1016C0006F6620746869732070726F6A6563742036
:1016D000696E20636F6D6D65726369616C2F7072E6
:1016E0006F66697420707572706F736573206973AB
:1016F0002070726F68696269746564210000496EC8
:1017000069742070726F6772616D6D696E672E2EDD
:101710002E202000444F4E45000052656164207326
:1017200069676E61747572652E2E2E202020200050
:101730002000202D204641494C2100004E6F20639F
:1017400068697020696E20736F636B6574206F72B7
:10175000206368697020646F206E6F7420726573F7
:10176000706F6E64696E67004D656368616E696372
:10177000616C6C792064616D616765643F20202035
:10178000506C656173652074727920616761696E60
:101790002E2E2E005468616E6B20596F75005472A6
:1017A00079696E672054323331332070696E6F75FA
:1017B000742E2E00536561726368696E67206368DA
:1017C00069702E2E2E2020202000417474696E79BD
:1017D000323331330000417474696E79323600005F
:1017E000417474696E7932380000417474696E799D
:1017F0003236310041746D656761343800004174E0
:101800006D65676134385000417474696E7934389D
:101810000000417474696E79343631004174746922
:101820006E79343331330000417474696E79343326
:10183000550041746D656761380041746D6567617D
:1018400038353135000041746D65676138353335A1
:10185000000041746D6567613838000041746D6542
:10186000676138385000417474696E793838000007
:101870004154393070776D322F3300004154393084
:1018800070776D312F32622F3362000041747469BA
:101890006E79383700004154393070776D38310037
:1018A00041746D65676138553200417474696E79B1
:1018B0003836310041746D656761313631004174ED
:1018C0006D6567613136330041746D65676131362E
:1018D000000041746D6567613136320041746D6599
:1018E00067613136390041746D65676131363800A2
:1018F00041746D65676131363550000041746D6526
:1019000067613136340041746D656761313634503A
:10191000000041746D6567613136385000004154F4
:10192000393070776D3231362F33313600004174E3
:1019300074696E793136370041746D65676131368F
:10194000553200004154393075736238322F3136C8
:10195000320041746D656761313655340000417461
:101960006D65676131364D31000041746D656761A9
:101970003332000041746D65676133323900417460
:101980006D65676133323930000041746D656761A0
:101990003332340041746D65676133323500417410
:1019A0006D65676133323530000041746D65676184
:1019B00033323450000041746D6567613332380052
:1019C00041746D65676133323850000041746D6554
:1019D000676133323550000041746D6567613332A1
:1019E0003530500041746D65676133325532000007
:1019F00041746D65676133325534000041746D6523
:101A0000676133324D3100004154393063616E33C8
:101A1000320041746D6567613634000041746D6554
:101A200067613634390041746D6567613634393029
:101A3000000041746D6567613634350041746D6531
:101A4000676136343530000041746D656761363446
:101A5000300041746D6567613634340041746D65E2
:101A60006761363434500000415439307573623642
:101A700034362F363437000041746D656761363473
:101A80004D3100004154393063616E363400417489
:101A90006D6567613130330041746D656761313266
:101AA000380041746D65676131323830000041742F
:101AB0006D65676131323831000041746D65676171
:101AC00031323834500041746D65676131323834D9
:101AD000000041543930757362313238362F31325B
:101AE000383700004154393063616E3132380000BC
:101AF00041746D65676132353630000041746D6543
:101B00006761323536310000446F6E27742068619A
:101B1000766520697420696E206D79206461746136
:101B2000626173652C20736F7272792E0000696692
:101B300020796F752077616E7420646F63746F72A3
:101B400020746F20737570706F72742069742C002C
:101B5000706C6561736520636F6E74616374206D72
:101B600065206174206D616E656B696E656E40679E
:101B70006D61696C2E636F6D00006F7220706F7302
:101B80007420636F6D6D656E74206F6E206D7920AB
:101B90007369746500005468616E6B20796F75001D
:101BA000436869702065726173652E2E2E20202097
:101BB000202020202000444953414C4C4F5745449D
:101BC0000000526561642066757365626974732EE6
:101BD0002E2E20202020204C3A0020483A0020457C
:101BE0003A0053686F756C642062652E2E2E20209B
:101BF000202020202020204C3A004C6F636B62692B
:101C000074732E2E2E202020202020202020200023
:101C1000454E41424C454420202800002900000048
:101C2000506C6561736520616C6C6F7720746F20F8
:101C300065726173652074686520636869702074DB
:101C40006F2064697361626C65206C6F636B62699D
:101C50007473000044495341424C4544202800001D
:101C6000526577726974696E672000002E2E2E20EF
:101C70002000566572696679696E672E2E2E2020C7
:101C8000202020202020204C3A00506C6561736594
:101C90002074727920616761696E2E2E2E00202DCE
:101CA000204F4B210000446F63746F722068617392
:101CB000206375726564200020636869707300009A
:00000001FF
