:1000000012C0189518951895189518951895189563
:100010001895189518951895189518951895189578
:100020001895189518958FE58DBFC0E4E8E34E2E1E
:1000300084E08EBFD4E0F4E05F2EEEEFF3E0A0E6C4
:10004000B0E088278D933197E9F783E389B980E0A1
:1000500080BD88E18AB966248CE089B980E080BDE2
:100060008FEF87BB8EE284BB80E185BB8FEF81BBC6
:1000700087E382BB16DD81E090E0A0E6B0E08D93DF
:100080009C93A0E6B0E00D911C91023350E015075F
:1000900010F009F008C0EAE5FCE1FDDCA0E6B0E004
:1000A000EBDC08F4EECFFDDCE0E0F0E0ADE6B0E044
:1000B00093E3CCDDADE6B0E0E8DCF3DCEBE0F0E0D0
:1000C000ADE6B0E093E3C2DDADE6B0E0DEDCE9DC56
:1000D000ADE6B0E019DD082F093309F405C08091C1
:1000E0006C00826080936C00EEE3F0E0ADE6B0E07F
:1000F00093E3ACDDADE6B0E0C8DCD3DCADE6B0E068
:1001000003DD082F0F3E09F405C080916C0082606A
:1001100080936C00E1E7F0E0ADE6B0E093E396DDBC
:10012000ADE6B0E0B2DCBDDCADE6B0E0EDDC082F62
:10013000083609F405C080916C00826080936C00E1
:10014000B0DC80916C00886080936C008A9881E0BC
:1001500090E0A0E6B0E08D939C93A0E6B0E00D9116
:100160001C910A3050E0150710F009F019C0939A5D
:10017000DBDA829905C080916C00877F80936C00E8
:10018000D3DA9398D1DA829B05C080916C00877F87
:1001900080936C00C9DAA0E6B0E06EDC08F4DDCF35
:1001A0008A9AACE6B0E08C9183FB0EF006C0ECE5D9
:1001B000FCE171DC76DCA09A04C0E6E6FCE16BDCD5
:1001C00070DC6FDCE0E7FCE166DCACE6B0E08C9173
:1001D00083FB0EF005C0A998AA98AB98949805C027
:1001E0009698AA98AB98A998949884E690E069DCD0
:1001F0009598EF93FF93ECE4F0E05ADCFF91EF91D8
:10020000979AACE6B0E08C9183FB0EF417C081E0C6
:1002100090E0A0E6B0E08D939C93A0E6B0E00D9155
:100220001C910A3050E0150710F009F006C0AADA58
:10023000A0E6B0E021DC08F4F0CF04C094988C98DC
:10024000A998A198EF93FF93E4EEF3E031DCFF91DE
:10025000EF91949AACE6B0E08C9183FB0EF405C06C
:10026000A3E3B0E08C9180FBDEF7E6E8FCE113DC71
:1002700018DC8DDAECE8FCE10EDCACE6B0E08C9149
:1002800083FB0EF448C05ADAA99888E088BB4CDAA0
:1002900079DA81E090E0A0E6B0E08D939C93A0E64F
:1002A000B0E00D911C91033050E0150710F009F0FB
:1002B00031C050DAA9980091600041E0041B08BBEE
:1002C00033DA60DA80E087BB80E088BB9298A99837
:1002D0002BDAA0E6B0E0AD90BC90A1E6B0E0AA0DAC
:1002E000BB1D86B38C93929A8FEF87BBA0E2B4E0DC
:1002F000E0E6F0E0A190B080E1E6F0E0EA0DFB1D61
:1003000070DCC1DBE2EAFCE1C6DBA0E6B0E0B4DB16
:1003100008F4C5CF4FC088E08093A0008CE48093A0
:10032000A10042DB81E090E0A0E6B0E08D939C93D9
:10033000A0E6B0E00D911C91033050E0150710F0DD
:1003400009F038C00091600041E0041BA0EAB0E071
:100350000C938CE08093A10027DB80E08093A000C9
:1003600088E68093A10020DB80E08093A0008CE6EB
:100370008093A1009CDA8091A200A0E6B0E0AD904D
:10038000BC90A1E6B0E0AA0DBB1D8C93A0E2B4E046
:10039000E0E6F0E0A190B080E1E6F0E0EA0DFB1DC0
:1003A00020DC71DBE2EAFCE176DBA0E6B0E064DBB6
:1003B00008F4BECF009162000E3109F446C0ACE6ED
:1003C000B0E08C9185FB81E00EF080E08F93ACE68D
:1003D000B0E08C9183FB81E00EF080E09F91892B4F
:1003E000882309F420C0E4EAFCE155DB5ADB59DB41
:1003F000E4EAF0E0ADE6B0E093E328DCADE6B0E09F
:1004000044DB4FDBE0EDF0E0ADE6B0E093E31EDC73
:10041000ADE6B0E03ADB45DB44DBECEAFCE13BDB9C
:1004200040DBD6D9CDD9ACE6B0E08C9183FB0EF49D
:100430000CC0E4EAFCE12FDB34DBE6EBFCE12BDB78
:1004400080916C00806280936C00009162000E319C
:1004500009F013CF26DBECECFCE11DDB009163001F
:10046000003909F050C000916400013009F00DC05E
:10047000E2EEFCE110DB15DB8FED809368008091EC
:100480006C00846080936C003DC0043009F00DC0A6
:10049000ECEEFCE100DB05DB8CEF809368008091E3
:1004A0006C00846080936C002DC0053009F00DC095
:1004B000E6EFFCE1F0DAF5DA82E5809368008091FE
:1004C0006C00846080936C001DC0063009F00DC084
:1004D000E0E0FDE1E0DAE5DA8CE580936800809108
:1004E0006C00846080936C000DC0073009F00AC076
:1004F000EAE0FDE1D0DAD5DA8AE6809368008FEF92
:1005000080936900A7C6013909F0A8C00091640072
:10051000023009F00DC0E4E1FDE1BDDAC2DA8EED92
:100520008093680080916C00846080936C0095C01B
:10053000053009F00DC0E4E2FDE1ADDAB2DA8AED92
:100540008093680080916C00846080936C0085C00B
:10055000063009F00DC0EEE2FDE19DDAA2DA8EED83
:100560008093680080916C00846080936C0075C0FB
:10057000083009F013C0E8E3FDE18DDA92DA82E693
:10058000809368008FED809369008FEF80936A00FD
:1005900080916C00806480936C005FC00A3009F029
:1005A00013C0E2E4FDE177DA7CDA84E68093680048
:1005B0008FED809369008FEF80936A0080916C00CB
:1005C000806480936C0049C00B3009F013C0EEE4E6
:1005D000FDE161DA66DA82E6809368008FED809350
:1005E00069008FEF80936A0080916C008064809333
:1005F0006C0033C0093009F00BC0E8E5FDE14BDACF
:1006000050DA81EE8093680087EF8093690025C0FF
:10061000073009F00DC0E2E6FDE13DDA42DA82E1A1
:100620008093680080916C00846080936C0015C09A
:100630000C3009F012C0ECE6FDE12DDA32DA82E688
:10064000809368008FED809369008FEF80936A003C
:1006500080916C00806480936C00FCC5023909F0C5
:10066000DEC000916400013009F00DC0E6E7FDE155
:1006700012DA17DA8FED8093680080916C00846045
:1006800080936C00CBC0023009F00DC0E0E8FDE1C2
:1006900002DA07DA8FED8093680080916C00846045
:1006A00080936C00BBC0033009F00DC0EAE8FDE1A7
:1006B000F2D9F7D98AED8093680080916C0084604C
:1006C00080936C00ABC0053009F013C0E4E9FDE194
:1006D000E2D9E7D982E6809368008FED80936900C4
:1006E0008FEF80936A0080916C00806480936C002F
:1006F00095C0073009F013C0EEE9FDE1CCD9D1D99E
:1007000082E6809368008FED809369008FEF80937D
:100710006A0080916C00806480936C007FC00A3016
:1007200009F013C0E8EAFDE1B6D9BBD982E68093AF
:1007300068008FED809369008FEF80936A0080914D
:100740006C00806480936C0069C0063009F013C0AF
:10075000E2EBFDE1A0D9A5D982E6809368008FED98
:10076000809369008FEF80936A0080916C008064B1
:1007700080936C0053C0093009F013C0ECEBFDE12D
:100780008AD98FD98EE6809368008FED80936900B7
:100790008FEF80936A0080916C00806480936C007E
:1007A0003DC0083009F013C0E6ECFDE174D979D9F9
:1007B00082E6809368008FED809369008FEF8093CD
:1007C0006A0080916C00806480936C0027C00D30BB
:1007D00009F013C0E0EDFDE15ED963D984E68093B2
:1007E00068008FED809369008FEF80936A0080919D
:1007F0006C00806480936C0011C00C3009F00EC056
:1008000082E6809368008FED809369008FEF80937C
:100810006A0080916C00806480936C001BC5033972
:1008200009F032C100916400013009F00DC0ECED17
:10083000FDE131D936D98FED8093680080916C004D
:10084000846080936C001FC1033009F00DC0E6EE98
:10085000FDE121D926D98FED8093680080916C004D
:10086000846080936C000FC1073009F00BC0E0EF8B
:10087000FDE111D916D981EE8093680089ED80934E
:10088000690001C1063009F00BC0E8EFFDE103D9B2
:1008900008D981EE8093680089ED80936900F3C0E8
:1008A000083009F00BC0E4E0FEE1F5D8FAD881EE9B
:1008B0008093680089ED80936900E5C00A3009F0F3
:1008C00013C0E0E1FEE1E7D8ECD882E6809368004F
:1008D0008FED8093690089EF80936A0080916C00AE
:1008E000806480936C00CFC00B3009F013C0EAE144
:1008F000FEE1D1D8D6D882E6809368008FED809350
:1009000069008FEF80936A0080916C00806480930F
:100910006C00B9C00C3009F013C0E4E2FEE1BBD8B2
:10092000C0D882E6809368008FED809369008FEFD6
:1009300080936A0080916C00806480936C00A3C0F7
:100940000F3009F013C0EEE2FEE1A5D8AAD882E686
:10095000809368008FED8093690089EF80936A002F
:1009600080916C00806480936C008DC0013109F02F
:1009700013C0E8E3FEE18FD894D88EE68093680038
:100980008FED809369008FEF80936A0080916C00F7
:10099000806480936C0077C0013809F013C0E2E4F2
:1009A000FEE179D87ED882E6809368008FED80934F
:1009B000690089EF80936A0080916C008064809365
:1009C0006C0061C0033809F013C0EEE4FEE163D8A7
:1009D00068D882E6809368008FED8093690089EF84
:1009E00080936A0080916C00806480936C004BC09F
:1009F000073809F00FC082E6809368008FED80937E
:100A000069008FEF80936A0080916C00806480930E
:100A10006C0039C0083809F013C0EEE5FEE13BD8A0
:100A200040D882E68093680089ED809369008DEF5D
:100A300080936A0080916C00806480936C0023C076
:100A4000093809F00FC08EE58093680089ED809326
:100A5000690084EF80936A0080916C0080648093C9
:100A60006C0011C00D3009F00EC082E68093680062
:100A70008FED809369008FEF80936A0080916C0006
:100A8000806480936C00E6C3043909F02CC10091A6
:100A90006400013009F00DC0E8E6FEE1FCD701D8A2
:100AA0008AE28093680080916C00846080936C007F
:100AB00019C1023009F00BC0E2E7FEE1ECD7F1D733
:100AC00082E68093680087E0809369000BC1033061
:100AD00009F00BC0ECE7FEE1DED7E3D781EE8093AF
:100AE000680089E980936900FDC0043009F013C0F3
:100AF000E6E8FEE1D0D7D5D782E68093680089E9A1
:100B0000809369008FEF80936A0080916C0080640D
:100B100080936C00E7C0053009F013C0E0E9FEE106
:100B2000BAD7BFD782E68093680089E980936900CD
:100B30008FEF80936A0080916C00806480936C00DA
:100B4000D1C0063009F013C0EAE9FEE1A4D7A9D765
:100B500082E6809368008FED8093690089EF80932F
:100B60006A0080916C00806480936C00BBC0073089
:100B700009F00FC082E68093680089E980936900DC
:100B80008FEF80936A0080916C00806480936C008A
:100B9000A9C00F3009F013C0E4EAFEE17CD781D789
:100BA00082E68093680089E9809369008FEF8093E3
:100BB0006A0080916C00806480936C0093C00A305E
:100BC00009F00FC082E68093680089E9809369008C
:100BD0008FEF80936A0080916C00806480936C003A
:100BE00081C00B3009F013C0EEEAFEE154D759D7AB
:100BF00082E6809368008FED8093690089EF80938F
:100C00006A0080916C00806480936C006BC0033834
:100C100009F00FC082E6809368008FED8093690031
:100C200089EF80936A0080916C00806480936C00EF
:100C300059C0073809F00FC082E6809368008FED35
:100C4000809369008FEF80936A0080916C008064CC
:100C500080936C0047C0093809F00FC08EE580937F
:100C6000680089ED8093690084EF80936A00809129
:100C70006C00806480936C0035C0023809F00FC0AE
:100C80008EE58093680089ED8093690084EF8093FE
:100C90006A0080916C00806480936C0023C00838E7
:100CA00009F00FC08EE58093680081E980936900A8
:100CB00083EF80936A0080916C00806480936C0065
:100CC00011C0043809F00EC082E68093680089EDF7
:100CD000809369008FEF80936A0080916C0080643C
:100CE00080936C00B7C2053909F010C1009164000F
:100CF000023009F00BC0EAEBFEE1CDD6D2D681EE90
:100D00008093680089E980936900FFC0033009F08F
:100D10000FC082E68093680089E9809369008FEFB5
:100D200080936A0080916C00806480936C00EDC0B9
:100D3000043009F00FC082E68093680089E980934F
:100D400069008FEF80936A0080916C0080648093CB
:100D50006C00DBC0053109F013C0E4ECFEE19BD66A
:100D6000A0D682E68093680089E9809369008FEFBE
:100D700080936A0080916C00806480936C00C5C091
:100D8000053009F00FC082E68093680089E98093FE
:100D900069008FEF80936A0080916C00806480937B
:100DA0006C00B3C0063009F00FC082E68093680083
:100DB00089E9809369008FEF80936A0080916C00CD
:100DC000806480936C00A1C0013109F00FC082E6FD
:100DD0008093680089E9809369008FEF80936A00AF
:100DE00080916C00806480936C008FC0043109F0A6
:100DF0000FC082E68093680089ED809369008FEFD1
:100E000080936A0080916C00806480936C007DC048
:100E10000F3009F00FC082E68093680089ED80935F
:100E200069008FEF80936A0080916C0080648093EA
:100E30006C006BC00D3009F00FC082E68093680033
:100E400089E9809369008FEF80936A0080916C003C
:100E5000806480936C0059C00E3009F00FC082E6A8
:100E60008093680089E9809369008FEF80936A001E
:100E700080916C00806480936C0047C00A3809F050
:100E80000FC08EE58093680089ED8093690084EF40
:100E900080936A0080916C00806480936C0035C000
:100EA000073809F00FC08EE58093680081E98093D0
:100EB000690083EF80936A0080916C008064809366
:100EC0006C0023C0043809F00FC082E680936800EC
:100ED00089ED809369008FEF80936A0080916C00A8
:100EE000806480936C0011C0013809F00EC082E666
:100EF0008093680089E9809369008FEF80936A008E
:100F000080916C00806480936C00A4C1063909F064
:100F1000D4C000916400023009F013C0EEECFEE191
:100F2000BAD5BFD581EE8093680089E980936900C6
:100F30008DEF80936A0080916C00806480936C00D8
:100F4000BBC0033009F00FC082E68093680089E9D6
:100F5000809369008FEF80936A0080916C008064B9
:100F600080936C00A9C0043009F00FC082E6809322
:100F7000680089E9809369008FEF80936A0080910F
:100F80006C00806480936C0097C0053009F00FC03E
:100F900082E68093680089E9809369008FEF8093EF
:100FA0006A0080916C00806480936C0085C006307C
:100FB00009F00FC082E68093680089E98093690098
:100FC0008FEF80936A0080916C00806480936C0046
:100FD00073C0083009F00FC082E68093680089E989
:100FE000809369008FEF80936A0080916C00806429
:100FF00080936C0061C0093009F013C0E8EDFEE198
:101000004AD54FD582E68093680089E980936900CC
:101010008FEF80936A0080916C00806480936C00F5
:101020004BC00A3009F013C0E2EEFEE134D539D5E9
:1010300082E68093680089E9809369008FEF80934E
:101040006A0080916C00806480936C0035C0023827
:1010500009F00FC08EE5809368008BE980936900EA
:1010600083EF80936A0080916C00806480936C00B1
:1010700023C0043809F00FC082E68093680089ED30
:10108000809369008FEF80936A0080916C00806488
:1010900080936C0011C0013809F00EC082E6809385
:1010A000680089E9809369008FEF80936A008091DE
:1010B0006C00806480936C00CDC0073909F09EC03D
:1010C00000916400013009F013C0EEEEFEE1E3D4BC
:1010D000E8D481EC809368008FEF809369008FEFF4
:1010E00080936A0080916C00806480936C0085C05E
:1010F000023009F013C0E8EFFEE1CDD4D2D481EE86
:101100008093680089E9809369008DEF80936A007D
:1011100080916C00806480936C006FC0033009F094
:1011200013C0E2E0FFE1B7D4BCD482E6809368004C
:1011300089E9809369008FEF80936A0080916C0049
:10114000806480936C0059C0043009F00FC082E6BF
:101150008093680089E9809369008FEF80936A002B
:1011600080916C00806480936C0047C0053009F06A
:101170000FC082E68093680089E9809369008FEF51
:1011800080936A0080916C00806480936C0035C00D
:10119000063009F00FC082E68093680089E98093E9
:1011A00069008FEF80936A0080916C008064809367
:1011B0006C0023C0023809F00FC08EE580936800F0
:1011C00089E98093690083EF80936A0080916C00C5
:1011D000806480936C0011C0013809F00EC082E673
:1011E0008093680089E9809369008FEF80936A009B
:1011F00080916C00806480936C002CC0083909F0E9
:1012000029C000916400013009F013C0EEE0FFE155
:1012100042D447D482E68093680089E980936900CC
:101220008FEF80936A0080916C00806480936C00E3
:1012300011C0023009F00EC082E68093680089E98F
:10124000809369008FEF80936A0080916C008064C6
:1012500080936C0000916800003081E009F080E02C
:101260008F9300916900003081E009F080E09F9148
:101270008923882309F40EC014D4E4EEF0E0ADE62F
:10128000B0E093E3E3D40DD4ECEAFCE104D409D458
:101290009FD296D2EAE1FFE1FED39C9B05C0E0E33A
:1012A000FFE1F9D3FED32CC0ACE6B0E08C9183FB18
:1012B0000EF40CC043D2A99880E888BB63D267D2F1
:1012C000A3E3B0E08C9180FBDEF716C080E880934A
:1012D000A0008CE48093A10067D380E08093A000FD
:1012E00084E68093A10060D380E88093A0008CE620
:1012F0008093A10059D390D3E6E8FCE1CCD3D1D3BD
:1013000073D2ECE3FFE1C7D3A0E2B4E0E5E6F0E09E
:1013100068D4B9D3E4E5FFE1BED3A0E2B4E0E6E6E9
:10132000F0E05FD4B0D3E8E5FFE1B5D3A0E2B4E0EC
:10133000E7E6F0E056D4A7D3B4D3ECE5FFE1ABD3B6
:10134000A0E2B4E0E8E6F0E04CD49DD3E4E5FFE1B0
:10135000A2D3A0E2B4E0E9E6F0E043D494D3E8E518
:10136000FFE199D3A0E2B4E0EAE6F0E03AD48BD30F
:1013700098D3E4E7FFE18FD3ABE6B0E00C9100FB3C
:1013800081E00EF480E08F93ABE6B0E00C9101FBBE
:1013900081E00EF480E09F91892B882309F420C01E
:1013A000EAE8FFE178D3A0E2B4E0EBE6F0E019D49C
:1013B0006AD3E6E9FFE16FD374D373D3EFEFF0E0C4
:1013C000ADE6B0E093E342D4ADE6B0E05ED369D3DE
:1013D00068D3ECEAFCE15FD364D3FAD1E7D10DC066
:1013E000E8E9FFE158D3A0E2B4E0EBE6F0E0F9D39E
:1013F0004AD3E6E9FFE14FD354D3E4EAFFE14BD30C
:10140000A0E2B4E0E8E6F0E0ECD33DD3A0E2B4E043
:10141000E9E6F0E0E6D337D3A0E2B4E0EAE6F0E0B4
:10142000E0D331D3E0EBFFE136D3ACE6B0E08C9112
:1014300083FB0EF454C082D180E488BB75D1A2D165
:1014400095D1A8E6B0E08C9188BBC5D16DD19AD179
:10145000A998969869D19BD167D1A3E3B0E08C910C
:1014600080FBDEF7ACE6B0E08C9182FB0EF417C097
:1014700065D180E488BB58D185D178D1A9E6B0E0A8
:101480008C9188BBA8D150D17DD1A99A96984CD186
:101490007ED14AD1A3E3B0E08C9180FBDEF7ACE6CD
:1014A000B0E08C9186FB0EF017C048D180E488BB79
:1014B0003BD168D15BD1AAE6B0E08C9188BB8BD1DF
:1014C00033D160D1A998969A2FD161D12DD1A3E3C0
:1014D000B0E08C9180FBDEF7A998969852C080E42A
:1014E0008093A0008CE48093A1005ED2809168007C
:1014F0008093A000B7D28CE28093A10055D280E007
:101500008093A00084E68093A1004ED28CE6809365
:10151000A1004AD281D2ACE6B0E08C9182FB0EF4FD
:1015200015C0809169008093A0009CD28CE28093CA
:10153000A1003AD280E08093A00084E78093A100CC
:1015400033D28CE78093A1002FD266D2ACE6B0E014
:101550008C9186FB0EF015C080916A008093A000EC
:1015600081D28CE28093A1001FD280E08093A00002
:1015700086E68093A10018D28EE68093A10014D253
:101580004BD2E6E8FCE187D28CD22ED1E6EBFFE12C
:1015900082D2A0E2B4E0E5E6F0E023D374D2E4E541
:1015A000FFE179D2A0E2B4E0E6E6F0E01AD36BD234
:1015B000E8E5FFE170D2A0E2B4E0E7E6F0E011D3A5
:1015C00062D24091680000916500041709F405C0DB
:1015D00080916C00806880936C00ACE6B0E08C91E8
:1015E00082FB0EF40CC04091690000916600041764
:1015F00009F405C080916C00806880936C00ACE6B3
:10160000B0E08C9186FB0EF00CC040916A00009116
:101610006700041709F405C080916C00806880930E
:101620006C00ACE6B0E08C9187FB0EF017C0EEECDE
:10163000FFE131D236D235D2E0EDF0E0ADE6B0E0F8
:1016400093E304D3ADE6B0E020D22BD22AD2ECEA69
:10165000FCE121D226D2BCD09FD006C0E8EDFFE14C
:101660001AD21FD2B5D0B1D0EEEFF1E0A0E6B0E0D3
:10167000ECD2A0E6B0E000D2EEEFF1E0A0E6B0E000
:101680007BE7D2D20ED2A0E2B4E0E0E6F0E050D2A6
:10169000FAD1E0EEFFE1FFD104D203D2ECEAFCE1A3
:1016A000FAD1FFD1F894FFCF49D084E088BB3CD079
:1016B00069D080E087BB80E088BB36D09298A9983B
:1016C000969832D0A5E6B0E086B38C93929AACE6B9
:1016D000B0E08C9182FB0EF40AC026D09298A99AB1
:1016E000969A22D0A6E6B0E086B38C93929AACE6A6
:1016F000B0E08C9186FB0EF00AC016D09298A998A3
:10170000969A12D0A7E6B0E086B38C93929A0CD04A
:101710009298A99A969808D0ABE6B0E086B38C93DD
:10172000929A8FEF87BB0895000000000000000030
:10173000000000000000000000000895AB9AACE635
:10174000B0E08C9185FB0EF001C0969AAA98A998FA
:10175000EBDF0895AB98ACE6B0E08C9185FB0EF022
:1017600001C09698AA98A998DFDF0895AB98ACE6D7
:10177000B0E08C9185FB0EF001C09698AA9AA998CA
:10178000D3DF0895939AD0DF9398CEDF089594988D
:10179000CBDF949AC9DF0895AB9885B394E089278D
:1017A00085BB84EF91E08DD1F8CF0895AA9885B3D9
:1017B00098E0892785BB84EF91E083D1F8CF089525
:1017C000AB98AA9AF894FFCF0895AA98AB9A089577
:1017D000959A97980895ACE6B0E08C9181FB0EF055
:1017E00002C08FEF88BB0895ACE6B0E08C9183FB1C
:1017F0000EF402C059DF01C013D0ACE6B0E08C910A
:1018000081FB0EF00CC08091680080936500809190
:1018100069008093660080916A0080936700089554
:1018200084E08093A0008CE48093A100BDD080E090
:101830008093A00088E68093A100B6D08CE68093C8
:10184000A10035D08091A20080936500ACE6B0E0A5
:101850008C9182FB0EF40CC08AE78093A100A4D087
:101860008EE78093A10023D08091A2008093660030
:10187000ACE6B0E08C9186FB0EF00CC08AE680935B
:10188000A10092D08EE68093A10011D08091A20099
:101890008093670088E78093A10086D08CE78093CF
:1018A000A10005D08091A20080936B000895AB98B1
:1018B000AA98C1D0A3E3B0E08C9181FBA2EAB0E08A
:1018C0008C9187F98C9388E08093A30087E08093C4
:1018D000A4008091A30081508093A3008091A40074
:1018E00081508093A400A3EAB0E08C91A0EAB0E01C
:1018F00005D1FAD00C900822689409F4E894A5E385
:10190000B0E08C9183F98C93A3EAB0E08C91A1EACA
:10191000B0E0F4D0E9D00C900822689409F4E8947F
:10192000A5E3B0E08C9182F98C9385D0A3E3B0E07D
:101930008C9181FBA4EAB0E08C91A2EAB0E0DED009
:10194000D3D00C9016F0092201C0082A0C92009105
:10195000A400003009F0BDCFA3EAB0E08C91A0EA6A
:10196000B0E0CCD0C1D00C900822689409F4E8947F
:10197000A5E3B0E08C9183F98C93A3EAB0E08C915D
:10198000A1EAB0E0BBD0B0D00C900822689409F472
:10199000E894A5E3B0E08C9182F98C934CD0AB989D
:1019A000AA9849D048D00895AB98AA9844D088E026
:1019B0008093A3008091A30081508093A300A3EAA9
:1019C000B0E08C91A0EAB0E099D08ED00C900822C3
:1019D000689409F4E894A5E3B0E08C9183F98C93C2
:1019E000A3EAB0E08C91A1EAB0E088D07DD00C9061
:1019F0000822689409F4E894A5E3B0E08C9182F998
:101A00008C9319D00091A300003009F0D3CFAB988C
:101A1000AA9811D010D00895000000000000000026
:101A200000000000000000000000A3E3B0E08C9183
:101A300081FBDEF7089500000000000000000000B8
:101A40000000000000000000A89AAD9A000000000D
:101A50000000000000000000000000000000A89846
:101A6000AD980895ACE6B0E08C9181FB0EF003C018
:101A70008FEF8093A0000895ED91FC91EF5FFF4FF1
:101A8000FC93EE930895A0E2B4E08D91882311F0C9
:101A90000BD0FBCF089524D0802D11F005D0FBCFC3
:101AA00008958DE001D08AE05D9BFECF8CB908954A
:101AB0003197F1F70895689462F80895E89462F810
:101AC0000895EF93FF93EE27E82BE92B31F0E0ED3B
:101AD000F7E03197F1F70197D1F7FF91EF91089572
:101AE000C89531960020089591E0882321F08894CC
:101AF000991F8A95E9F7892F90950895883018F0F5
:101B000011968850FBCF089588279D91890F9923BE
:101B1000E1F70895000F111F221F331F089500954C
:101B20001095209530950F5F1F4F2F4F3F4F089511
:101B3000019110810EC001911191219130810BC052
:101B40000191108117FF05C03FEF2FEF04C0008106
:101B500011272227332737FF03C0E1DF8DE28D9362
:101B6000CF93DF93CF92DF92EF92AA24BB24CC24B1
:101B7000DD24EE2440E2CAE0DD2755E093E38881CE
:101B8000890F87FD9F7083FD907F891B89935A95EC
:101B9000A9F7C0DFAA1CBB1CCC1CDD1CEE1C4A959F
:101BA00051F7E894EFE0FF2782910ED0EB30E0F799
:101BB0001EF068948A2D0CD088278D93EF90DF90CB
:101BC000CF90DF91CF910895982F829501D0892FE2
:101BD0008F70805D26F0803309F4089568948D93AA
:101BE000089541E003C042E001C044E0E40F8827CB
:101BF000F81F8291982F829505D0892F03D04A959E
:101C0000C1F707C08F708A3008F0895F805D8D93BF
:101C1000089588278D930895E199FECFEEBBFFBB11
:101C20003196089591E001C092E07B3751F47FB77F
:101C3000F894F2DF8D918DBBE29AE19A9A95C9F7FB
:101C40007FBF7727089591E001C092E0E5DFE09A39
:101C50008DB38D939A95D1F708955F0048565350F0
:101C6000204D4F44450048565050204D4F444500AC
:101C7000496E69742070726F6772616D6D696E670D
:101C80002E2E2E202000444F4E45000052656164E8
:101C9000207369676E61747572652E2E2E20202068
:101CA000200020002D204641494C21005468616EDF
:101CB0006B20596F7500547279696E672054323306
:101CC00031332070696E6F75742E2E00536561720A
:101CD0006368696E6720636869702E2E2E2020204D
:101CE000200041543930733132303000417474690E
:101CF0006E7931310000417474696E7931320000BF
:101D0000417474696E7931350000417474696E797B
:101D1000313300004154393073323331332F323391
:101D2000343300004154393073323333330041745B
:101D300074696E7932320000417474696E7932359B
:101D40000000417474696E7932333133000041749C
:101D500074696E7932340000417474696E79323678
:101D60000000417474696E793238000041747469FE
:101D70006E793236310041543930733434313400A5
:101D8000415439307334343334004154393073346E
:101D90003433330041746D65676134380000417439
:101DA00074696E793434000041746D65676134384C
:101DB0005000417474696E7934350000417474695F
:101DC0006E7934380000417474696E7934363100AC
:101DD000417474696E7934333133000041543930C1
:101DE0007338353135004154393073383533350067
:101DF00041746D656761380041746D6567613835A0
:101E00003135000041746D65676138353335000048
:101E100041746D65676138380000417474696E798A
:101E200038350000417474696E79383400004174AB
:101E30006D65676138385000417474696E7938385F
:101E400000004154393070776D322F330000415417
:101E5000393070776D312F32622F33620000415478
:101E6000393070776D38310041746D656761313696
:101E7000310041746D6567613136330041746D65C1
:101E800067613136000041746D656761313632003B
:101E900041746D6567613136390041746D65676104
:101EA0003136380041746D656761313634004174F4
:101EB0006D65676131363850000041746D6567614A
:101EC0003332000041746D65676133323400417410
:101ED0006D6567613634000041746D656761363445
:101EE000340041746D6567613634345000004174CC
:101EF0006D6567613130330041746D656761313202
:101F0000380041746D6567613132383000004174CA
:101F10006D65676132353630000043686970206551
:101F2000726173652E2E2E2020202020202020007C
:101F3000444953414C4C4F5745440000526561643D
:101F40002066757365626974732E2E2E2020202002
:101F5000204C3A0020483A0020453A0053686F75FB
:101F60006C642062652E2E2E202020202020202030
:101F7000204C3A004C6F636B626974732E2E2E20D6
:101F800020202020202020202000454E41424C458A
:101F9000442020280000290044495341424C454434
:101FA00020280000526577726974696E672000000E
:101FB0002E2E2E202000566572696679696E672E76
:101FC0002E2E2020202020202020204C3A00202DC2
:101FD000204641494C210000202D204F4B2100007C
:0E1FE00020666978656420636869707300008C
:00000001FF
