:1000000012C0189518951895189518951895189563
:100010001895189518951895189518951895189578
:100020001895189518958FE58DBFC0E4E8E34E2E1E
:1000300084E08EBFD4E0F4E05F2EEEEFF3E0A0E6C4
:10004000B0E088278D933197E9F786E089B980E0A1
:1000500080BD88E18AB966248CE089B980E080BDE2
:100060008FEF87BB8EE284BB80E185BB8FEF81BBC6
:1000700087E382BBFFDC81E090E0A0E6B0E08D93F7
:100080009C93A0E6B0E00D911C91023350E015075F
:1000900010F009F008C0E6E3FCE1E6DCA0E6B0E021
:1000A000D4DC08F4EECFE6DCE8E3FCE1DDDCE2DC06
:1000B000AEE6B0E0E4E4FCE1FCDCAEE6B0E0CEDCD1
:1000C000D9DCAEE6B0E00EDD082F0C3309F405C034
:1000D00080916C00826080936C00AEE6B0E0E8E74F
:1000E000FCE1E7DCAEE6B0E0B9DCC4DCAEE6B0E0F3
:1000F000F9DC082F0F3E09F405C080916C00826086
:1001000080936C00AEE6B0E0ECEAFCE1D2DCAEE657
:10011000B0E0A4DCAFDCAEE6B0E0E4DC082F0836EB
:1001200009F405C080916C00826080936C00A2DCB1
:10013000539905C080916C00826080936C0080911F
:100140006C00886080936C008A9881E090E0A0E663
:10015000B0E08D939C93A0E6B0E00D911C910A3025
:1001600050E0150710F009F019C0939AD1DA82997E
:1001700005C080916C00877F80936C00C9DA9398EA
:10018000C7DA829B05C080916C00877F80936C00EA
:10019000BFDAA0E6B0E059DC08F4DDCF8A9AACE61D
:1001A000B0E08C9183FB0EF006C0E0EEFCE15CDC7D
:1001B00061DCA09A04C0EAEEFCE156DC5BDC5ADCB0
:1001C000E4EFFCE151DCACE6B0E08C9183FB0EF097
:1001D00006C0A998AA98AB989498AD9805C096982F
:1001E000AA98AB98A998949884E690E053DC9598E7
:1001F000EF93FF93E5E1F0E044DCFF91EF91979AF4
:10020000ACE6B0E08C9183FB0EF417C081E090E087
:10021000A0E6B0E08D939C93A0E6B0E00D911C9118
:100220000A3050E0150710F009F006C098DAA0E691
:10023000B0E00BDC08F4F0CF04C094988C98A99837
:10024000A198EF93FF93E9E7F0E01BDCFF91EF91BA
:10025000949AACE6B0E08C9183FB0EF405C0A3E366
:10026000B0E08C9180FBDEF7EAE0FDE1FDDB02DC33
:100270007BDAE0E1FDE1F8DBACE6B0E08C9183FBFA
:100280000EF448C048DAA99888E088BB41DA67DAFA
:1002900081E090E0A0E6B0E08D939C93A0E6B0E012
:1002A0000D911C91033050E0150710F009F031C09A
:1002B0003EDAA9980091600041E0041B08BB28DAEF
:1002C0004EDA80E087BB80E088BB9298A99820DA5C
:1002D000A0E6B0E0AD90BC90A1E6B0E0AA0DBB1DD9
:1002E00086B38C93929A8FEF87BBA0E2B4E0E0E6EE
:1002F000F0E0A190B080E1E6F0E0EA0DFB1D5FDCEC
:10030000ABDBE6E2FDE1B0DBA0E6B0E09EDB08F4AB
:10031000C5CF4FC088E08093A1008CE48093A200F9
:1003200030DB81E090E0A0E6B0E08D939C93A0E606
:10033000B0E00D911C91033050E0150710F009F06A
:1003400038C00091600041E0041BA1EAB0E00C93CA
:100350008CE08093A20015DB80E08093A10088E60A
:100360008093A2000EDB80E08093A1008CE6809356
:10037000A2008ADA8091A300A0E6B0E0AD90BC9024
:10038000A1E6B0E0AA0DBB1D8C93A0E2B4E0E0E6CC
:10039000F0E0A190B080E1E6F0E0EA0DFB1D0FDC9B
:1003A0005BDBE6E2FDE160DBA0E6B0E04EDB08F4FB
:1003B000BECF009162000E3181E009F480E08F939E
:1003C00000916300003981E008F080E09F91892B63
:1003D0008F9300916300083980E010F009F081E00C
:1003E0009F91892B882309F43AC0ACE6B0E08C9148
:1003F00085FB81E00EF080E08F93ACE6B0E08C915D
:1004000083FB81E00EF080E09F91892B882309F423
:1004100014C0E8E2FDE128DB2DDB2CDBE0E3FDE1AD
:1004200023DB28DBECE5FDE11FDB24DB23DBE0E75E
:10043000FDE11ADB1FDBB9D9B0D9ACE6B0E08C9195
:1004400083FB0EF40CC0E8E2FDE10EDB13DBEAE710
:10045000FDE10ADB80916C00806280936C0000916A
:1004600062000E3181E009F080E08F93009163001B
:100470000F3880E010F009F081E09F9189238F937D
:1004800000916300093981E008F080E09F918923A1
:10049000882309F4F1CEEEDAE0E9FDE1E5DAEADA03
:1004A00000916300003909F03CC000916400013004
:1004B00009F009C08FED8093680080916C00846022
:1004C00080936C002DC0043009F009C08CEF80933C
:1004D000680080916C00846080936C0021C00530BE
:1004E00009F009C082E58093680080916C00846007
:1004F00080936C0015C0063009F009C08CE580932C
:10050000680080916C00846080936C0009C00730A3
:1005100009F006C08AE6809368008FEF8093690037
:100520007EC6013909F09CC000916400013009F0D9
:1005300009C08EED8093680080916C008460809388
:100540006C008DC0023009F009C08EED8093680008
:1005500080916C00846080936C0081C0033009F04E
:1005600009C08EED8093680080916C008460809358
:100570006C0075C0053009F009C08AED80936800F1
:1005800080916C00846080936C0069C0063009F033
:1005900009C08EED8093680080916C008460809328
:1005A0006C005DC0083009F00FC082E680936800DF
:1005B0008FED809369008FEF80936A0080916C00CB
:1005C000806480936C004BC00A3009F00FC084E651
:1005D000809368008FED809369008FEF80936A00AD
:1005E00080916C00806480936C0039C00B3009F0FE
:1005F0000FC082E6809368008FED809369008FEFD3
:1006000080936A0080916C00806480936C0027C0A6
:10061000093009F007C081EE8093680087EF80936E
:1006200069001DC0073009F009C082E180936800AD
:1006300080916C00846080936C0011C00C3009F0D4
:100640000EC082E6809368008FED809369008FEF83
:1006500080936A0080916C00806480936C00DFC599
:10066000023909F0B6C000916400013009F009C0F8
:100670008FED8093680080916C00846080936C00A3
:10068000A7C0023009F009C08FED80936800809107
:100690006C00846080936C009BC0033009F009C03B
:1006A0008AED8093680080916C00846080936C0078
:1006B0008FC0053009F00FC082E6809368008FED8F
:1006C000809369008FEF80936A0080916C00806452
:1006D00080936C007DC0073009F00FC082E68093E4
:1006E00068008FED809369008FEF80936A0080919E
:1006F0006C00806480936C006BC00A3009F00FC0FE
:1007000082E6809368008FED809369008FEF80937D
:100710006A0080916C00806480936C0059C0063040
:1007200009F00FC082E6809368008FED8093690026
:100730008FEF80936A0080916C00806480936C00DE
:1007400047C0093009F00FC08EE6809368008FED36
:10075000809369008FEF80936A0080916C008064C1
:1007600080936C0035C0083009F00FC082E680939A
:1007700068008FED809369008FEF80936A0080910D
:100780006C00806480936C0023C00D3009F00FC0B2
:1007900084E6809368008FED809369008FEF8093EB
:1007A0006A0080916C00806480936C0011C00C30F2
:1007B00009F00EC082E6809368008FED8093690097
:1007C0008FEF80936A0080916C00806480936C004E
:1007D00026C5033909F0FEC000916400013009F01C
:1007E00009C08FED8093680080916C0084608093D5
:1007F0006C00EFC0033009F009C08FED80936800F2
:1008000080916C00846080936C00E3C0073009F035
:1008100007C081EE8093680089ED80936900D9C09C
:10082000063009F007C081EE8093680089ED80935F
:100830006900CFC0083009F007C081EE80936800DE
:1008400089ED80936900C5C00A3009F00FC082E6C7
:10085000809368008FED8093690089EF80936A0030
:1008600080916C00806480936C00B3C00B3009F001
:100870000FC082E6809368008FED809369008FEF50
:1008800080936A0080916C00806480936C00A1C0AA
:100890000C3009F00FC082E6809368008FED8093E2
:1008A00069008FEF80936A0080916C008064809370
:1008B0006C008FC00F3009F00FC082E68093680093
:1008C0008FED8093690089EF80936A0080916C00BE
:1008D000806480936C007DC0013109F00FC08EE60A
:1008E000809368008FED809369008FEF80936A009A
:1008F00080916C00806480936C006BC0013809F0BB
:100900000FC082E6809368008FED8093690089EFC5
:1009100080936A0080916C00806480936C0059C061
:10092000033809F00FC082E6809368008FED809352
:10093000690089EF80936A0080916C0080648093E5
:100940006C0047C0073809F00FC082E6809368004A
:100950008FED809369008FEF80936A0080916C0027
:10096000806480936C0035C0083809F00FC082E6BF
:100970008093680089ED809369008DEF80936A0011
:1009800080916C00806480936C0023C0093809F06A
:100990000FC08EE58093680089ED8093690084EF35
:1009A00080936A0080916C00806480936C0011C019
:1009B0000D3009F00EC082E6809368008FED8093C1
:1009C00069008FEF80936A0080916C00806480934F
:1009D0006C0025C4043909F00CC100916400013099
:1009E00009F009C08AE28093680080916C008460FD
:1009F00080936C00FDC0023009F007C082E680934E
:100A0000680087E080936900F3C0033009F007C0F5
:100A100081EE8093680089E980936900E9C0043021
:100A200009F00FC082E68093680089E9809369002D
:100A30008FEF80936A0080916C00806480936C00DB
:100A4000D7C0053009F00FC082E68093680089E9BD
:100A5000809369008FEF80936A0080916C008064BE
:100A600080936C00C5C0063009F00FC082E6809309
:100A700068008FED8093690089EF80936A00809110
:100A80006C00806480936C00B3C0073009F00FC025
:100A900082E68093680089E9809369008FEF8093F4
:100AA0006A0080916C00806480936C00A1C00F305C
:100AB00009F00FC082E68093680089E9809369009D
:100AC0008FEF80936A0080916C00806480936C004B
:100AD0008FC00A3009F00FC082E68093680089E970
:100AE000809369008FEF80936A0080916C0080642E
:100AF00080936C007DC00B3009F00FC082E68093BC
:100B000068008FED8093690089EF80936A0080917F
:100B10006C00806480936C006BC0033809F00FC0D8
:100B200082E6809368008FED8093690089EF80935F
:100B30006A0080916C00806480936C0059C0073813
:100B400009F00FC082E6809368008FED8093690002
:100B50008FEF80936A0080916C00806480936C00BA
:100B600047C0093809F00FC08EE58093680089ED11
:100B70008093690084EF80936A0080916C008064A8
:100B800080936C0035C0023809F00FC08EE5809369
:100B9000680089ED8093690084EF80936A008091FA
:100BA0006C00806480936C0023C0083809F00FC08B
:100BB0008EE58093680081E98093690083EF8093DC
:100BC0006A0080916C00806480936C0011C00438CE
:100BD00009F00EC082E68093680089ED8093690079
:100BE0008FEF80936A0080916C00806480936C002A
:100BF00016C3053909F06CC100916400013009F099
:100C000007C081EF8093680089E9809369005FC124
:100C1000023009F007C081EE8093680089E9809373
:100C2000690055C1033009F00FC082E68093680067
:100C300089E9809369008FEF80936A0080916C004E
:100C4000806480936C0043C1043009F00FC082E6D9
:100C50008093680089E9809369008FEF80936A0030
:100C600080916C00806480936C0031C1053109F083
:100C70000FC082E68093680089E9809369008FEF56
:100C800080936A0080916C00806480936C001FC127
:100C9000013109F00FC082E68093680089E98093F2
:100CA00069008FEF80936A0080916C00806480936C
:100CB0006C000DC1083009F00FC082E68093680017
:100CC00089E9809369008FEF80936A0080916C00BE
:100CD000806480936C00FBC0053009F00FC082E691
:100CE0008093680089E9809369008FEF80936A00A0
:100CF00080916C00806480936C00E9C0063009F03C
:100D00000FC082E68093680089E9809369008FEFC5
:100D100080936A0080916C00806480936C00D7C0DF
:100D2000043109F00FC082E68093680089ED80935A
:100D300069008FEF80936A0080916C0080648093DB
:100D40006C00C5C00F3009F00FC082E680936800C8
:100D500089ED809369008FEF80936A0080916C0029
:100D6000806480936C00B3C00D3009F00FC082E640
:100D70008093680089E9809369008FEF80936A000F
:100D800080916C00806480936C00A1C00E3009F0EB
:100D90000FC082E68093680089E9809369008FEF35
:100DA00080936A0080916C00806480936C008FC097
:100DB0000A3809F00FC08EE58093680089ED8093B2
:100DC000690084EF80936A0080916C008064809356
:100DD0006C007DC0073809F00FC08EE58093680075
:100DE00081E98093690083EF80936A0080916C00B1
:100DF000806480936C006BC0083809F00FC08EE5EA
:100E00008093680089E98093690083EF80936A008A
:100E100080916C00806480936C0059C0043809F0A4
:100E20000FC082E68093680089ED809369008FEFA0
:100E300080936A0080916C00806480936C0047C04E
:100E4000063809F00FC082E68093680089ED809330
:100E500069008FEF80936A0080916C0080648093BA
:100E60006C0035C0013809F00FC082E6809368003D
:100E700089E9809369008FEF80936A0080916C000C
:100E8000806480936C0023C00B3009F00FC082E6B1
:100E90008093680089E9809369008FEF80936A00EE
:100EA00080916C00806480936C0011C00C3009F05C
:100EB0000EC082E68093680089E9809369008FEF15
:100EC00080936A0080916C00806480936C00A7C15D
:100ED000063909F0E7C000916400023009F00FC044
:100EE00081EE8093680089E9809369008DEF80939B
:100EF0006A0080916C00806480936C00D2C00330E3
:100F000009F00FC082E68093680089E98093690048
:100F10008FEF80936A0080916C00806480936C00F6
:100F2000C0C0043009F00FC082E68093680089E9F0
:100F3000809369008FEF80936A0080916C008064D9
:100F400080936C00AEC0053009F00FC082E680933C
:100F5000680089E9809369008FEF80936A0080912F
:100F60006C00806480936C009CC0063009F00FC058
:100F700082E68093680089E9809369008FEF80930F
:100F80006A0080916C00806480936C008AC0083095
:100F900009F00FC082E68093680089E980936900B8
:100FA0008FEF80936A0080916C00806480936C0066
:100FB00078C0093009F00FC082E68093680089E9A3
:100FC000809369008FEF80936A0080916C00806449
:100FD00080936C0066C00A3009F00FC082E68093EF
:100FE000680089E9809369008FEF80936A0080919F
:100FF0006C00806480936C0054C00B3009F00AC010
:1010000082E68093680089E9809369008FEF80937E
:101010006A0047C0023809F00FC08EE5809368006F
:101020008BE98093690083EF80936A0080916C0064
:10103000806480936C0035C0043809F00FC082E6EC
:101040008093680089ED809369008FEF80936A0038
:1010500080916C00806480936C0023C0013809F09B
:101060000FC082E68093680089E9809369008FEF62
:1010700080936A0080916C00806480936C0011C042
:10108000063809F00EC082E68093680089ED8093EF
:1010900069008FEF80936A0080916C008064809378
:1010A0006C00BDC0073909F092C0009164000130A6
:1010B00009F00FC081EC809368008FEF8093690086
:1010C0008FEF80936A0080916C00806480936C0045
:1010D0007DC0023009F00FC081EE8093680089E97D
:1010E000809369008DEF80936A0080916C0080642A
:1010F00080936C006BC0033009F00FC082E68093D0
:10110000680089E9809369008FEF80936A0080917D
:101110006C00806480936C0059C0043009F00FC0EB
:1011200082E68093680089E9809369008FEF80935D
:101130006A0080916C00806480936C0047C0053029
:1011400009F00FC082E68093680089E98093690006
:101150008FEF80936A0080916C00806480936C00B4
:1011600035C0063009F00FC082E68093680089E937
:10117000809369008FEF80936A0080916C00806497
:1011800080936C0023C0023809F00FC08EE5809375
:10119000680089E98093690083EF80936A008091F9
:1011A0006C00806480936C0011C0013809F00EC09F
:1011B00082E68093680089E9809369008FEF8093CD
:1011C0006A0080916C00806480936C0028C00839AC
:1011D00009F025C000916400013009F00FC082E6DB
:1011E0008093680089E9809369008FEF80936A009B
:1011F00080916C00806480936C0011C0023009F013
:101200000EC082E68093680089E9809369008FEFC1
:1012100080936A0080916C00806480936C000091E0
:101220006800003081E009F080E08F930091690050
:10123000003081E009F080E09F918923882309F440
:101240000CC018D4ECEBFDE10FD414D413D4E0E7B8
:10125000FDE10AD40FD4A9D2A0D2E8EDFDE104D477
:101260009C9B05C0EEEEFDE1FFD304D445C0ACE687
:10127000B0E08C9183FB0EF40CC04DD2A99880E8AD
:1012800088BB6DD271D2A3E3B0E08C9180FBDEF716
:101290002FC080E88093A1008CE48093A20071D3DA
:1012A00080E08093A10084E68093A2006AD380E06E
:1012B0008093A1008CE68093A20063D39AD300911F
:1012C0006300003981E009F080E08F9300916400B1
:1012D000063081E009F080E09F918923882309F49A
:1012E00007C080E08093A1008CE48093A20049D3E2
:1012F000EAE0FDE1B9D3BED364D2EAEFFDE1B4D3B5
:10130000A0E2B4E0E5E6F0E05AD4A6D3E2E1FEE1E3
:10131000ABD3A0E2B4E0E6E6F0E051D49DD3E6E141
:10132000FEE1A2D3A0E2B4E0E7E6F0E048D494D333
:10133000A1D3EAE1FEE198D3A0E2B4E0E8E6F0E070
:101340003ED48AD3E2E1FEE18FD3A0E2B4E0E9E645
:10135000F0E035D481D3E6E1FEE186D3A0E2B4E04B
:10136000EAE6F0E02CD478D385D3E2E3FEE17CD347
:10137000ABE6B0E00C9100FB81E00EF480E08F93CF
:10138000ABE6B0E00C9101FB81E00EF480E09F91B0
:10139000892B882309F41AC0E8E4FEE165D3A0E2B2
:1013A000B4E0EBE6F0E00BD457D3E4E5FEE15CD328
:1013B00061D360D3E6E5FEE157D35CD35BD3E0E7CE
:1013C000FDE152D357D3F1D1DED10DC0EAE8FEE101
:1013D0004BD3A0E2B4E0EBE6F0E0F1D33DD3E4E59B
:1013E000FEE142D347D3E6E9FEE13ED3A0E2B4E01A
:1013F000E8E6F0E0E4D330D3A0E2B4E0E9E6F0E0E0
:10140000DED32AD3A0E2B4E0EAE6F0E0D8D324D3D6
:10141000E2EAFEE129D3ACE6B0E08C9183FB0EF466
:1014200054C079D180E488BB73D199D18CD1A8E61E
:10143000B0E08C9188BBBCD16BD191D1A998969822
:1014400067D192D165D1A3E3B0E08C9180FBDEF748
:10145000ACE6B0E08C9182FB0EF417C05CD180E466
:1014600088BB56D17CD16FD1A9E6B0E08C9188BB06
:101470009FD14ED174D1A99A96984AD175D148D1AD
:10148000A3E3B0E08C9180FBDEF7ACE6B0E08C919A
:1014900086FB0EF017C03FD180E488BB39D15FD105
:1014A00052D1AAE6B0E08C9188BB82D131D157D11C
:1014B000A998969A2DD158D12BD1A3E3B0E08C9165
:1014C00080FBDEF7A998969852C080E48093A10033
:1014D0008CE48093A20055D2809168008093A10093
:1014E000AAD28CE28093A2004CD280E08093A1002B
:1014F00084E68093A20045D28CE68093A20041D27C
:1015000078D2ACE6B0E08C9182FB0EF415C08091ED
:1015100069008093A1008FD28CE28093A20031D227
:1015200080E08093A10084E78093A2002AD28CE718
:101530008093A20026D25DD2ACE6B0E08C9186FB0F
:101540000EF015C080916A008093A10074D28CE2E5
:101550008093A20016D280E08093A10086E680935B
:10156000A2000FD28EE68093A2000BD242D2EAE014
:10157000FDE17AD27FD225D1E8EAFEE175D2A0E280
:10158000B4E0E5E6F0E01BD367D2E2E1FEE16CD225
:10159000A0E2B4E0E6E6F0E012D35ED2E6E1FEE1DE
:1015A00063D2A0E2B4E0E7E6F0E009D355D240917F
:1015B000680000916500041709F405C080916C0073
:1015C000806880936C00ACE6B0E08C9182FB0EF4F6
:1015D0000CC04091690000916600041709F405C031
:1015E00080916C00806880936C00ACE6B0E08C91D8
:1015F00086FB0EF00CC040916A0000916700041752
:1016000009F405C080916C00806880936C00ACE6A2
:10161000B0E08C9187FB0EF015C0E0ECFEE124D227
:1016200029D228D2ECE5FDE11FD224D2AEE6B0E00B
:1016300015D220D21FD2E0E7FDE116D21BD2B5D0E1
:1016400098D006C0EAECFEE10FD214D2AED0AAD0F8
:10165000EEEFF1E0A0E6B0E0E6D2A0E6B0E0F5D132
:10166000EEEFF1E0A0E6B0E07BE7CCD203D2A0E25F
:10167000B4E0E0E6F0E04AD2EFD1E2EDFEE1F4D1F1
:10168000F9D1F8D1E0E7FDE1EFD1F4D1F894FFCF43
:1016900042D084E088BB3CD062D080E087BB80E051
:1016A00088BB36D09298A998969832D0A5E6B0E03B
:1016B00086B38C93929AACE6B0E08C9182FB0EF4E8
:1016C0000AC026D09298A99A969A22D0A6E6B0E0AF
:1016D00086B38C93929AACE6B0E08C9186FB0EF0C8
:1016E0000AC016D09298A998969A12D0A7E6B0E0B0
:1016F00086B38C93929A0CD09298A99A969808D017
:10170000ABE6B0E086B38C93929A8FEF87BB0895D7
:10171000000000000895AB9AACE6B0E08C9185FB28
:101720000EF001C0969AAA98A998F2DF0895AB9896
:10173000ACE6B0E08C9185FB0EF001C09698AA98BB
:10174000A998E6DF0895AB98ACE6B0E08C9185FBF4
:101750000EF001C09698AA9AA998DADF0895939A94
:10176000D7DF9398D5DF08959498D2DF949AD0DF8D
:101770000895AB9885B394E0892785BB84EF91E009
:1017800089D1F8CF0895AA9885B398E0892785BBB9
:1017900084EF91E07FD1F8CF0895AB98AA9AF8949E
:1017A000FFCF0895AA98AB9A0895959A97980895AF
:1017B000ACE6B0E08C9181FB0EF002C08FEF88BBED
:1017C0000895ACE6B0E08C9183FB0EF402C060DFBC
:1017D00001C013D0ACE6B0E08C9181FB0EF00CC0E0
:1017E0008091680080936500809169008093660015
:1017F00080916A0080936700089584E08093A1003F
:101800008CE48093A200BDD080E08093A10088E6A4
:101810008093A200B6D08CE68093A20035D0809150
:10182000A30080936500ACE6B0E08C9182FB0EF4DF
:101830000CC08AE78093A200A4D08EE78093A20018
:1018400023D08091A30080936600ACE6B0E08C9139
:1018500086FB0EF00CC08AE68093A20092D08EE642
:101860008093A20011D08091A3008093670088E745
:101870008093A20086D08CE78093A20005D080914F
:10188000A30080936B000895AB98AA98BAD0A3E305
:10189000B0E08C9181FBA3EAB0E08C9187F98C9346
:1018A00088E08093A40087E08093A5008091A40045
:1018B00081508093A4008091A50081508093A50061
:1018C000A4EAB0E08C91A1EAB0E006D1FBD00C9084
:1018D0000822689409F4E894A5E3B0E08C9183F9B8
:1018E0008C93A4EAB0E08C91A2EAB0E0F5D0EAD003
:1018F0000C900822689409F4E894A5E3B0E08C9178
:1019000082F98C937ED0A3E3B0E08C9181FBA5EAB1
:10191000B0E08C91A3EAB0E0DFD0D4D00C9016F008
:10192000092201C0082A0C920091A500003009F09C
:10193000BDCFA4EAB0E08C91A1EAB0E0CDD0C2D096
:101940000C900822689409F4E894A5E3B0E08C9127
:1019500083F98C93A4EAB0E08C91A2EAB0E0BCD009
:10196000B1D00C900822689409F4E894A5E3B0E0A3
:101970008C9182F98C9345D0AB98AA9842D041D0F3
:101980000895AB98AA983DD088E08093A4008091F8
:10199000A40081508093A400A4EAB0E08C91A1EA55
:1019A000B0E09AD08FD00C900822689409F4E894A3
:1019B000A5E3B0E08C9183F98C93A4EAB0E08C911C
:1019C000A2EAB0E089D07ED00C900822689409F495
:1019D000E894A5E3B0E08C9182F98C9312D0009149
:1019E000A400003009F0D3CFAB98AA980AD009D050
:1019F000089500000000A3E3B0E08C9181FBDEF7C6
:101A0000089500000000A89A00000000A89880E057
:101A100080936D00AD9A00000000AD9800000000BA
:101A2000ADE6B0E08C918F5F8C9300916D0000313A
:101A300009F0F0CF0895ACE6B0E08C9181FB0EF098
:101A400003C08FEF8093A1000895ED91FC91EF5FAB
:101A5000FF4FFC93EE930895A0E2B4E08D918823AC
:101A600011F00BD0FBCF089529D0802D11F005D0B7
:101A7000FBCF08958DE001D08AE05D9BFECF8CB94D
:101A800008953197F1F70895689462F80895E894FD
:101A900062F80895EF93FF93EE27E82BE92B31F0DE
:101AA000EAEFF0E03197F1F70197D1F7FF91EF916D
:101AB000089504D00D920020E1F70895C89531965D
:101AC0000020089591E0882321F08894991F8A9539
:101AD000E9F7892F90950895883018F0119688506D
:101AE000FBCF089588279D91890F9923E1F70895E9
:101AF000000F111F221F331F089500951095209588
:101B000030950F5F1F4F2F4F3F4F08950191108168
:101B10000EC001911191219130810BC00191108172
:101B200017FF05C03FEF2FEF04C0008111272227C8
:101B3000332737FF03C0E1DF8DE28D93CF93DF932F
:101B4000CF92DF92EF92AA24BB24CC24DD24EE2492
:101B500040E2CAE0DD2755E093E38881890F87FDE5
:101B60009F7083FD907F891B89935A95A9F7C0DFE9
:101B7000AA1CBB1CCC1CDD1CEE1C4A9551F7E8943A
:101B8000EFE0FF2782910ED0EB30E0F71EF0689473
:101B90008A2D0CD088278D93EF90DF90CF90DF9126
:101BA000CF910895982F829501D0892F8F70805DF5
:101BB00026F0803309F4089568948D93089541E0E8
:101BC00003C042E001C044E0E40F8827F81F82917F
:101BD000982F829505D0892F03D04A95C1F707C069
:101BE0008F708A3008F0895F805D8D930895882713
:101BF0008D930895E199FECFEEBBFFBB319608951A
:101C000091E001C092E07B3751F47FB7F894F2DFA6
:101C10008D918DBBE29AE19A9A95C9F77FBF77279C
:101C2000089591E001C092E0E5DFE09A8DB38D93D5
:101C30009A95D1F708955F0057656C636F6D6520C5
:101C4000202000004156522041746D656761206676
:101C500075736562697420646F63746F72202848BD
:101C60005650502B48565350292076657273696F31
:101C70006E20322E30360000687474703A2F2F6454
:101C800069792E656C656B74726F64612E65752F52
:101C900061746D6567612D667573656269742D6425
:101CA0006F63746F722D6876707000005573616792
:101CB0006520696E20636F6D6D65726369616C2F5D
:101CC00070726F66697420707572706F73657320BF
:101CD0006E6F7420616C6C6F776564212121000048
:101CE00048565350204D4F44450048565050204DC3
:101CF0004F444500496E69742070726F6772616D60
:101D00006D696E672E2E2E202000444F4E45000038
:101D100052656164207369676E61747572652E2EF9
:101D20002E202020200020002D204641494C21005B
:101D30004E6F206368697020696E20736F636B65F6
:101D400074206F72206368697020646F206E6F74F6
:101D500020726573706F6E64696E6700506C6561A8
:101D600073652074727920616761696E2E2E2E0072
:101D70005468616E6B20596F7500547279696E6793
:101D80002054323331332070696E6F75742E2E00FB
:101D9000536561726368696E6720636869702E2E8F
:101DA0002E202020202875632773206E616D6573B7
:101DB0002064697361626C6564290000436869701E
:101DC000206E6F7420737570706F727465642C2050
:101DD000736F7272792E00004368697020657261BA
:101DE00073652E2E2E202020202020202000444904
:101DF00053414C4C4F574544000052656164206686
:101E0000757365626974732E2E2E20202020204C5D
:101E10003A0020483A0020453A0053686F756C64D8
:101E20002062652E2E2E2020202020202020204CD5
:101E30003A004C6F636B626974732E2E2E20202043
:101E40002020202020202000454E41424C454420A7
:101E5000202800002900506C6561736520616C6C5E
:101E60006F7720746F2065726173652074686520D8
:101E70006368697020746F2064697361626C6520A7
:101E80006C6F636B62697473000044495341424C48
:101E9000454420280000526577726974696E672096
:101EA00000002E2E2E202000566572696679696E1C
:101EB000672E2E2E2020202020202020204C3A008B
:101EC000202D204641494C210000202D204F4B2140
:101ED000000020666978656420636869707300009B
:00000001FF
