:1000000012C0189518951895189518951895189563
:100010001895189518951895189518951895189578
:100020001895189518958FE58DBFC0E4E8E34E2E1E
:1000300084E08EBFD4E0F4E05F2EEEEFF3E0A0E6C4
:10004000B0E088278D933197E9F786E089B980E0A1
:1000500080BD88E18AB9662489E189B980E080BDE4
:100060008FEF87BB8EE284BB80E185BB8FEF81BBC6
:1000700087E382BB4FDD81E090E0A0E6B0E08D93A6
:100080009C93A0E6B0E00D911C91023350E015075F
:1000900010F009F008C0ECECFCE136DDA0E6B0E0C1
:1000A00024DD08F4EECF36DDE0E0F0E0ADE6B0E0D0
:1000B00093E305DEADE6B0E021DD2CDDEBE0F0E022
:1000C000ADE6B0E093E3FBDDADE6B0E017DD22DDA9
:1000D000ADE6B0E052DD082F093309F405C0809188
:1000E0006C00826080936C00EEE3F0E0ADE6B0E07F
:1000F00093E3E5DDADE6B0E001DD0CDDADE6B0E0BB
:100100003CDD082F0F3E09F405C080916C00826031
:1001100080936C00E1E7F0E0ADE6B0E093E3CFDD83
:10012000ADE6B0E0EBDCF6DCADE6B0E026DD082FB6
:10013000083609F405C080916C00826080936C00E1
:10014000E9DC80916C00886080936C008A9881E083
:1001500090E0A0E6B0E08D939C93A0E6B0E00D9116
:100160001C910A3050E0150710F009F019C0939A5D
:1001700030DB829905C080916C00877F80936C0092
:1001800028DB939826DB829B05C080916C00877FDB
:1001900080936C001EDBA0E6B0E0A7DC08F4DDCFA6
:1001A0008A9AACE6B0E08C9183FB0EF006C0EEECD0
:1001B000FCE1AADCAFDCA09A04C0E8EDFCE1A4DC21
:1001C000A9DCA8DCE2EEFCE19FDCACE6B0E08C91BF
:1001D00083FB0EF005C0A998AA98AB98949805C027
:1001E0009698AA98AB98A998949884E690E0A2DC97
:1001F0009598EF93FF93E6E0F0E093DCFF91EF91A9
:10020000979AACE6B0E08C9183FB0EF417C081E0C6
:1002100090E0A0E6B0E08D939C93A0E6B0E00D9155
:100220001C910A3050E0150710F009F006C0F8DA0A
:10023000A0E6B0E05ADC08F4F0CF04C094988C98A3
:10024000A998A198EF93FF93E9E7F0E06ADCFF91AA
:10025000EF91949AACE6B0E08C9183FB0EF405C06C
:10026000A3E3B0E08C9180FBDEF7E8EFFCE14CDC2F
:1002700051DCDBDAEEEFFCE147DCACE6B0E08C9180
:1002800083FB0EF448C0A8DAA99888E088BBA1DAFD
:10029000C7DA81E090E0A0E6B0E08D939C93A0E601
:1002A000B0E00D911C91033050E0150710F009F0FB
:1002B00031C09EDAA9980091600041E0041B08BBA0
:1002C00088DAAEDA80E087BB80E088BB9298A99894
:1002D00080DAA0E6B0E0AD90BC90A1E6B0E0AA0D57
:1002E000BB1D86B38C93929A8FEF87BBA0E2B4E0DC
:1002F000E0E6F0E0A190B080E1E6F0E0EA0DFB1D61
:10030000A9DCFADBE4E1FDE1FFDBA0E6B0E0EDDB38
:1003100008F4C5CF4FC088E08093A0008CE48093A0
:10032000A10090DB81E090E0A0E6B0E08D939C938B
:10033000A0E6B0E00D911C91033050E0150710F0DD
:1003400009F038C00091600041E0041BA0EAB0E071
:100350000C938CE08093A10075DB80E08093A0007B
:1003600088E68093A1006EDB80E08093A0008CE69D
:100370008093A100EADA8091A200A0E6B0E0AD90FF
:10038000BC90A1E6B0E0AA0DBB1D8C93A0E2B4E046
:10039000E0E6F0E0A190B080E1E6F0E0EA0DFB1DC0
:1003A00059DCAADBE4E1FDE1AFDBA0E6B0E09DDBD8
:1003B00008F4BECF009162000E3109F446C0ACE6ED
:1003C000B0E08C9185FB81E00EF080E08F93ACE68D
:1003D000B0E08C9183FB81E00EF080E09F91892B4F
:1003E000882309F420C0E6E1FDE18EDB93DB92DB9C
:1003F000E4EAF0E0ADE6B0E093E361DCADE6B0E066
:100400007DDB88DBE0EDF0E0ADE6B0E093E357DCC8
:10041000ADE6B0E073DB7EDB7DDBEEE1FDE174DBBE
:1004200079DB24DA1BDAACE6B0E08C9183FB0EF4C6
:100430000CC0E6E1FDE168DB6DDBE8E2FDE164DBD9
:1004400080916C00806280936C00009162000E319C
:1004500009F013CF5FDBEEE3FDE156DB00916300B3
:10046000003909F048C000916400013009F009C06A
:100470008FED8093680080916C00846080936C00A5
:1004800039C0043009F009C08CEF80936800809176
:100490006C00846080936C002DC0053009F00DC0A5
:1004A000E4E5FDE131DB36DB82E580936800809195
:1004B0006C00846080936C001DC0063009F00DC094
:1004C000EEE5FDE121DB26DB8CE580936800809181
:1004D0006C00846080936C000DC0073009F00AC086
:1004E000E8E6FDE111DB16DB8AE6809368008FEF1A
:1004F0008093690004C7013909F0B0C0009164001D
:10050000013009F009C08EED8093680080916C0085
:10051000846080936C00A1C0023009F009C08EEDA8
:100520008093680080916C00846080936C0095C01B
:10053000033009F009C08EED8093680080916C0053
:10054000846080936C0089C0053009F009C08AED91
:100550008093680080916C00846080936C007DC003
:10056000063009F00DC0E4E7FDE1CEDAD3DA8EED16
:100570008093680080916C00846080936C006DC0F3
:10058000083009F013C0EEE7FDE1BEDAC3DA82E617
:10059000809368008FED809369008FEF80936A00ED
:1005A00080916C00806480936C0057C00A3009F021
:1005B00013C0E8E8FDE1A8DAADDA84E680936800CC
:1005C0008FED809369008FEF80936A0080916C00BB
:1005D000806480936C0041C00B3009F013C0E6E9E1
:1005E000FDE192DA97DA82E6809368008FED8093DE
:1005F00069008FEF80936A0080916C008064809323
:100600006C002BC0093009F00BC0E2EAFDE17CDA96
:1006100081DA81EE8093680087EF809369001DC0C6
:10062000073009F009C082E18093680080916C0076
:10063000846080936C0011C00C3009F00EC082E61B
:10064000809368008FED809369008FEF80936A003C
:1006500080916C00806480936C0051C6023909F06F
:10066000CEC000916400013009F009C08FED809385
:10067000680080916C00846080936C00BFC0023081
:1006800009F009C08FED8093680080916C00846050
:1006900080936C00B3C0033009F009C08AED8093E9
:1006A000680080916C00846080936C00A7C0053066
:1006B00009F013C0ECEAFDE127DA2CDA82E6809338
:1006C00068008FED809369008FEF80936A008091BE
:1006D0006C00806480936C0091C0073009F013C0F7
:1006E000E6EBFDE111DA16DA82E6809368008FED21
:1006F000809369008FEF80936A0080916C00806422
:1007000080936C007BC00A3009F013C0E2ECFDE17D
:10071000FBD900DA82E6809368008FED8093690050
:100720008FEF80936A0080916C00806480936C00EE
:1007300065C0063009F013C0EEECFDE1E5D9EAD959
:1007400082E6809368008FED809369008FEF80933D
:100750006A0080916C00806480936C004FC0093007
:1007600009F013C0E8EDFDE1CFD9D4D98EE680932E
:1007700068008FED809369008FEF80936A0080910D
:100780006C00806480936C0039C0083009F00FC0A1
:1007900082E6809368008FED809369008FEF8093ED
:1007A0006A0080916C00806480936C0027C00D30DB
:1007B00009F013C0E2EEFDE1A7D9ACD984E680933D
:1007C00068008FED809369008FEF80936A008091BD
:1007D0006C00806480936C0011C00C3009F00EC076
:1007E00082E6809368008FED809369008FEF80939D
:1007F0006A0080916C00806480936C0080C503392E
:1008000009F02EC100916400013009F00DC0EEEE38
:10081000FDE17AD97FD98FED8093680080916C00DB
:10082000846080936C001BC1033009F00DC0E8EFB9
:10083000FDE16AD96FD98FED8093680080916C00DB
:10084000846080936C000BC1073009F00BC0E2E0BC
:10085000FEE15AD95FD981EE8093680089ED8093DB
:100860006900FDC0063009F00BC0ECE0FEE14CD998
:1008700051D981EE8093680089ED80936900EFC0C3
:10088000083009F00BC0E8E1FEE13ED943D981EE22
:100890008093680089ED80936900E1C00A3009F017
:1008A00013C0E4E2FEE130D935D982E680936800D6
:1008B0008FED8093690089EF80936A0080916C00CE
:1008C000806480936C00CBC00B3009F013C0EEE263
:1008D000FEE11AD91FD982E6809368008FED8093DC
:1008E00069008FEF80936A0080916C008064809330
:1008F0006C00B5C00C3009F013C0E8E3FEE104D988
:1009000009D982E6809368008FED809369008FEFAC
:1009100080936A0080916C00806480936C009FC01B
:100920000F3009F013C0E2E4FEE1EED8F3D882E61E
:10093000809368008FED8093690089EF80936A004F
:1009400080916C00806480936C0089C0013109F053
:1009500013C0EEE4FEE1D8D8DDD88EE680936800BF
:100960008FED809369008FEF80936A0080916C0017
:10097000806480936C0073C0013809F013C0E8E50F
:10098000FEE1C2D8C7D882E6809368008FED8093DD
:10099000690089EF80936A0080916C008064809385
:1009A0006C005DC0033809F013C0E4E6FEE1ACD88A
:1009B000B1D882E6809368008FED8093690089EF5B
:1009C00080936A0080916C00806480936C0047C0C3
:1009D000073809F00FC082E6809368008FED80939E
:1009E00069008FEF80936A0080916C00806480932F
:1009F0006C0035C0083809F00FC082E680936800AB
:100A000089ED809369008DEF80936A0080916C007E
:100A1000806480936C0023C0093809F00FC08EE514
:100A20008093680089ED8093690084EF80936A0069
:100A300080916C00806480936C0011C00D3009F0CF
:100A40000EC082E6809368008FED809369008FEF7F
:100A500080936A0080916C00806480936C004FC426
:100A6000043909F028C100916400013009F00DC07B
:100A7000E4E7FEE149D84ED88AE28093680080918D
:100A80006C00846080936C0015C1023009F00BC0CB
:100A9000EEE7FEE139D83ED882E68093680087E031
:100AA0008093690007C1033009F00BC0E8E8FEE15C
:100AB0002BD830D881EE8093680089E98093690053
:100AC000F9C0043009F013C0E4E9FEE11DD822D8D2
:100AD00082E68093680089E9809369008FEF8093B4
:100AE0006A0080916C00806480936C00E3C00530E4
:100AF00009F00FC082E68093680089E9809369005D
:100B00008FEF80936A0080916C00806480936C000A
:100B1000D1C0063009F013C0EEE9FEE1F5D7FAD7EF
:100B200082E6809368008FED8093690089EF80935F
:100B30006A0080916C00806480936C00BBC00730B9
:100B400009F00FC082E68093680089E9809369000C
:100B50008FEF80936A0080916C00806480936C00BA
:100B6000A9C00F3009F013C0E8EAFEE1CDD7D2D713
:100B700082E68093680089E9809369008FEF809313
:100B80006A0080916C00806480936C0093C00A308E
:100B900009F00FC082E68093680089E980936900BC
:100BA0008FEF80936A0080916C00806480936C006A
:100BB00081C00B3009F013C0E2EBFEE1A5D7AAD744
:100BC00082E6809368008FED8093690089EF8093BF
:100BD0006A0080916C00806480936C006BC0033865
:100BE00009F00FC082E6809368008FED8093690062
:100BF00089EF80936A0080916C00806480936C0020
:100C000059C0073809F00FC082E6809368008FED65
:100C1000809369008FEF80936A0080916C008064FC
:100C200080936C0047C0093809F00FC08EE58093AF
:100C3000680089ED8093690084EF80936A00809159
:100C40006C00806480936C0035C0023809F00FC0DE
:100C50008EE58093680089ED8093690084EF80932E
:100C60006A0080916C00806480936C0023C0083817
:100C700009F00FC08EE58093680081E980936900D8
:100C800083EF80936A0080916C00806480936C0095
:100C900011C0043809F00EC082E68093680089ED27
:100CA000809369008FEF80936A0080916C0080646C
:100CB00080936C0024C3053909F05EC10091640083
:100CC000013009F007C081EF8093680089E98093C3
:100CD000690051C1023009F00BC0E0ECFEE114D70D
:100CE00019D781EE8093680089E98093690043C138
:100CF000033009F00FC082E68093680089E9809391
:100D000069008FEF80936A0080916C00806480930B
:100D10006C0031C1043009F00FC082E68093680096
:100D200089E9809369008FEF80936A0080916C005D
:100D3000806480936C001FC1053109F00FC082E60A
:100D40008093680089E9809369008FEF80936A003F
:100D500080916C00806480936C000DC1053009F0B7
:100D60000FC082E68093680089E9809369008FEF65
:100D700080936A0080916C00806480936C00FBC05B
:100D8000063009F00FC082E68093680089E98093FD
:100D900069008FEF80936A0080916C00806480937B
:100DA0006C00E9C0013109F00FC082E68093680051
:100DB00089E9809369008FEF80936A0080916C00CD
:100DC000806480936C00D7C0043109F00FC082E6C4
:100DD0008093680089ED809369008FEF80936A00AB
:100DE00080916C00806480936C00C5C00F3009F066
:100DF0000FC082E68093680089ED809369008FEFD1
:100E000080936A0080916C00806480936C00B3C012
:100E10000D3009F00FC082E68093680089E9809365
:100E200069008FEF80936A0080916C0080648093EA
:100E30006C00A1C00E3009F00FC082E680936800FC
:100E400089E9809369008FEF80936A0080916C003C
:100E5000806480936C008FC00A3809F00FC08EE563
:100E60008093680089ED8093690084EF80936A0025
:100E700080916C00806480936C007DC0073809F01D
:100E80000FC08EE58093680081E98093690083EF4D
:100E900080936A0080916C00806480936C006BC0CA
:100EA000083809F00FC08EE58093680089E98093C7
:100EB000690083EF80936A0080916C008064809366
:100EC0006C0059C0043809F00FC082E680936800B6
:100ED00089ED809369008FEF80936A0080916C00A8
:100EE000806480936C0047C0063809F00FC082E62A
:100EF0008093680089ED809369008FEF80936A008A
:100F000080916C00806480936C0035C0013809F0DA
:100F10000FC082E68093680089E9809369008FEFB3
:100F200080936A0080916C00806480936C0023C081
:100F30000B3009F00FC082E68093680089E9809346
:100F400069008FEF80936A0080916C0080648093C9
:100F50006C0011C00C3009F00EC082E6809368006E
:100F600089E9809369008FEF80936A0080916C001B
:100F7000806480936C00C3C1063909F0F3C000910E
:100F80006400023009F013C0ECECFEE1BDD5C2D51F
:100F900081EE8093680089E9809369008DEF8093EA
:100FA0006A0080916C00806480936C00DAC003302A
:100FB00009F00FC082E68093680089E98093690098
:100FC0008FEF80936A0080916C00806480936C0046
:100FD000C8C0043009F00FC082E68093680089E938
:100FE000809369008FEF80936A0080916C00806429
:100FF00080936C00B6C0053009F00FC082E6809384
:10100000680089E9809369008FEF80936A0080917E
:101010006C00806480936C00A4C0063009F00FC09F
:1010200082E68093680089E9809369008FEF80935E
:101030006A0080916C00806480936C0092C00830DC
:1010400009F00FC082E68093680089E98093690007
:101050008FEF80936A0080916C00806480936C00B5
:1010600080C0093009F013C0E8EDFEE14DD552D53E
:1010700082E68093680089E9809369008FEF80930E
:101080006A0080916C00806480936C006AC00A30B2
:1010900009F013C0E2EEFEE137D53CD582E680933D
:1010A000680089E9809369008FEF80936A008091DE
:1010B0006C00806480936C0054C00B3009F00AC04F
:1010C00082E68093680089E9809369008FEF8093BE
:1010D0006A0047C0023809F00FC08EE580936800AF
:1010E0008BE98093690083EF80936A0080916C00A4
:1010F000806480936C0035C0043809F00FC082E62C
:101100008093680089ED809369008FEF80936A0077
:1011100080916C00806480936C0023C0013809F0DA
:101120000FC082E68093680089E9809369008FEFA1
:1011300080936A0080916C00806480936C0011C081
:10114000063809F00EC082E68093680089ED80932E
:1011500069008FEF80936A0080916C0080648093B7
:101160006C00CDC0073909F09EC0009164000130C9
:1011700009F013C0E0EFFEE1C7D4CCD481EC80933A
:1011800068008FEF809369008FEF80936A008091F1
:101190006C00806480936C0085C0023009F013C03D
:1011A000EAEFFEE1B1D4B6D481EE8093680089E91C
:1011B000809369008DEF80936A0080916C00806459
:1011C00080936C006FC0033009F013C0E6E0FFE1CC
:1011D0009BD4A0D482E68093680089E9809369005B
:1011E0008FEF80936A0080916C00806480936C0024
:1011F00059C0043009F00FC082E68093680089E985
:10120000809369008FEF80936A0080916C00806406
:1012100080936C0047C0053009F00FC082E68093D0
:10122000680089E9809369008FEF80936A0080915C
:101230006C00806480936C0035C0063009F00FC0EC
:1012400082E68093680089E9809369008FEF80933C
:101250006A0080916C00806480936C0023C0023827
:1012600009F00FC08EE58093680089E980936900DA
:1012700083EF80936A0080916C00806480936C009F
:1012800011C0013809F00EC082E68093680089E938
:10129000809369008FEF80936A0080916C00806476
:1012A00080936C002CC0083909F029C000916400BB
:1012B000013009F013C0E2E1FFE126D42BD482E62D
:1012C0008093680089E9809369008FEF80936A00BA
:1012D00080916C00806480936C0011C0023009F032
:1012E0000EC082E68093680089E9809369008FEFE1
:1012F00080936A0080916C00806480936C00009100
:101300006800003081E009F080E08F93009169006F
:10131000003081E009F080E09F918923882309F45F
:101320000EC0F8D3E4EEF0E0ADE6B0E093E3C7D44E
:10133000F1D3EEE1FDE1E8D3EDD398D28FD2EEE127
:10134000FFE1E2D39C9B05C0E4E3FFE1DDD3E2D300
:101350002CC0ACE6B0E08C9183FB0EF40CC03CD208
:10136000A99880E888BB5CD260D2A3E3B0E08C91FE
:1013700080FBDEF716C080E88093A0008CE48093A9
:10138000A10060D380E08093A00084E68093A10058
:1013900059D380E88093A0008CE68093A10052D3BB
:1013A00089D3E8EFFCE1B0D3B5D36CD2E0E4FFE140
:1013B000ABD3A0E2B4E0E5E6F0E04CD49DD3E8E5A1
:1013C000FFE1A2D3A0E2B4E0E6E6F0E043D494D398
:1013D000ECE5FFE199D3A0E2B4E0E7E6F0E03AD42F
:1013E0008BD398D3E0E6FFE18FD3A0E2B4E0E8E648
:1013F000F0E030D481D3E8E5FFE186D3A0E2B4E0A9
:10140000E9E6F0E027D478D3ECE5FFE17DD3A0E274
:10141000B4E0EAE6F0E01ED46FD37CD3E8E7FFE166
:1014200073D3ABE6B0E00C9100FB81E00EF480E0FA
:101430008F93ABE6B0E00C9101FB81E00EF480E00D
:101440009F91892B882309F420C0EEE8FFE15CD34B
:10145000A0E2B4E0EBE6F0E0FDD34ED3EAE9FFE131
:1014600053D358D357D3EFEFF0E0ADE6B0E093E3BA
:1014700026D4ADE6B0E042D34DD34CD3EEE1FDE14E
:1014800043D348D3F3D1E0D10DC0ECE9FFE13CD325
:10149000A0E2B4E0EBE6F0E0DDD32ED3EAE9FFE131
:1014A00033D338D3E8EAFFE12FD3A0E2B4E0E8E693
:1014B000F0E0D0D321D3A0E2B4E0E9E6F0E0CAD373
:1014C0001BD3A0E2B4E0EAE6F0E0C4D315D3E4EB2A
:1014D000FFE11AD3ACE6B0E08C9183FB0EF454C06C
:1014E0007BD180E488BB75D19BD18ED1A8E6B0E0DA
:1014F0008C9188BBBED16DD193D1A998969869D1B2
:1015000094D167D1A3E3B0E08C9180FBDEF7ACE629
:10151000B0E08C9182FB0EF417C05ED180E488BBF2
:1015200058D17ED171D1A9E6B0E08C9188BBA1D110
:1015300050D176D1A99A96984CD177D14AD1A3E3CC
:10154000B0E08C9180FBDEF7ACE6B0E08C9186FBDE
:101550000EF017C041D180E488BB3BD161D154D19A
:10156000AAE6B0E08C9188BB84D133D159D1A99837
:10157000969A2FD15AD12DD1A3E3B0E08C9180FB64
:10158000DEF7A998969852C080E48093A0008CE47E
:101590008093A10057D2809168008093A0009BD2D5
:1015A0008CE28093A1004ED280E08093A00084E67C
:1015B0008093A10047D28CE68093A10043D27AD2D7
:1015C000ACE6B0E08C9182FB0EF415C0809169000E
:1015D0008093A00080D28CE28093A10033D280E07F
:1015E0008093A00084E78093A1002CD28CE78093A5
:1015F000A10028D25FD2ACE6B0E08C9186FB0EF061
:1016000015C080916A008093A00065D28CE280931F
:10161000A10018D280E08093A00086E68093A1000C
:1016200011D28EE68093A1000DD244D2E8EFFCE106
:101630006BD270D227D1EAEBFFE166D2A0E2B4E030
:10164000E5E6F0E007D358D2E8E5FFE15DD2A0E29D
:10165000B4E0E6E6F0E0FED24FD2ECE5FFE154D292
:10166000A0E2B4E0E7E6F0E0F5D246D240916800AF
:1016700000916500041709F405C080916C00806832
:1016800080936C00ACE6B0E08C9182FB0EF40CC051
:101690004091690000916600041709F405C080912B
:1016A0006C00806880936C00ACE6B0E08C9186FBA7
:1016B0000EF00CC040916A0000916700041709F415
:1016C00005C080916C00806880936C00ACE6B0E04F
:1016D0008C9187FB0EF017C0E2EDFFE115D21AD214
:1016E00019D2E0EDF0E0ADE6B0E093E3E8D2ADE68C
:1016F000B0E004D20FD20ED2EEE1FDE105D20AD263
:10170000B5D098D006C0ECEDFFE1FED103D2AED04B
:10171000AAD0EEEFF1E0A0E6B0E0D0D2A0E6B0E0D3
:10172000E4D1EEEFF1E0A0E6B0E07BE7B6D2F2D193
:10173000A0E2B4E0E0E6F0E034D2DED1E4EEFFE196
:10174000E3D1E8D1E7D1EEE1FDE1DED1E3D1F894D8
:10175000FFCF42D084E088BB3CD062D080E087BB22
:1017600080E088BB36D09298A998969832D0A5E6AA
:10177000B0E086B38C93929AACE6B0E08C9182FB99
:101780000EF40AC026D09298A99A969A22D0A6E67C
:10179000B0E086B38C93929AACE6B0E08C9186FB75
:1017A0000EF00AC016D09298A998969A12D0A7E681
:1017B000B0E086B38C93929A0CD09298A99A96989E
:1017C00008D0ABE6B0E086B38C93929A8FEF87BBDC
:1017D0000895000000000895AB9AACE6B0E08C914B
:1017E00085FB0EF001C0969AAA98A998F2DF089599
:1017F000AB98ACE6B0E08C9185FB0EF001C09698FA
:10180000AA98A998E6DF0895AB98ACE6B0E08C9171
:1018100085FB0EF001C09698AA9AA998DADF089580
:10182000939AD7DF9398D5DF08959498D2DF949A4E
:10183000D0DF0895AB9885B394E0892785BB84EF0A
:1018400091E078D1F8CF0895AA9885B398E08927D8
:1018500085BB84EF91E06ED1F8CF0895AB98AA9A3A
:10186000F894FFCF0895AA98AB9A0895959A9798FF
:101870000895ACE6B0E08C9181FB0EF002C08FEFD2
:1018800088BB0895ACE6B0E08C9183FB0EF402C0F7
:1018900060DF01C013D0ACE6B0E08C9181FB0EF0AC
:1018A0000CC08091680080936500809169008093EE
:1018B000660080916A0080936700089584E08093B9
:1018C000A0008CE48093A100BDD080E08093A000B4
:1018D00088E68093A100B6D08CE68093A10035D035
:1018E0008091A20080936500ACE6B0E08C9182FB11
:1018F0000EF40CC08AE78093A100A4D08EE78093F9
:10190000A10023D08091A20080936600ACE6B0E0F5
:101910008C9186FB0EF00CC08AE68093A10092D0D9
:101920008EE68093A10011D08091A2008093670081
:1019300088E78093A10086D08CE78093A10005D032
:101940008091A20080936B000895AB98AA98BAD0BA
:10195000A3E3B0E08C9181FBA2EAB0E08C9187F91F
:101960008C9388E08093A30087E08093A40080910B
:10197000A30081508093A3008091A40081508093A4
:10198000A400A3EAB0E08C91A0EAB0E0F0D0E5D0EA
:101990000C900822689409F4E894A5E3B0E08C91D7
:1019A00083F98C93A3EAB0E08C91A1EAB0E0DFD098
:1019B000D4D00C900822689409F4E894A5E3B0E030
:1019C0008C9182F98C937ED0A3E3B0E08C9181FB63
:1019D000A4EAB0E08C91A2EAB0E0C9D0BED00C90ED
:1019E00016F0092201C0082A0C920091A4000030D0
:1019F00009F0BDCFA3EAB0E08C91A0EAB0E0B7D087
:101A0000ACD00C900822689409F4E894A5E3B0E007
:101A10008C9183F98C93A3EAB0E08C91A1EAB0E0B9
:101A2000A6D09BD00C900822689409F4E894A5E312
:101A3000B0E08C9182F98C9345D0AB98AA9842D0B3
:101A400041D00895AB98AA983DD088E08093A30038
:101A50008091A30081508093A300A3EAB0E08C9111
:101A6000A0EAB0E084D079D00C900822689409F400
:101A7000E894A5E3B0E08C9183F98C93A3EAB0E0FD
:101A80008C91A1EAB0E073D068D00C9008226894E1
:101A900009F4E894A5E3B0E08C9182F98C9312D01C
:101AA0000091A300003009F0D3CFAB98AA980AD0D8
:101AB00009D0089500000000A3E3B0E08C9181FB01
:101AC000DEF7089500000000A89AAD9A000000001B
:101AD000A898AD980895ACE6B0E08C9181FB0EF02B
:101AE00003C08FEF8093A0000895ED91FC91EF5F0C
:101AF000FF4FFC93EE930895A0E2B4E08D9188230C
:101B000011F00BD0FBCF089524D0802D11F005D01B
:101B1000FBCF08958DE001D08AE05D9BFECF8CB9AC
:101B200008953197F1F70895689462F80895E8945C
:101B300062F80895EF93FF93EE27E82BE92B31F03D
:101B4000EAEFF0E03197F1F70197D1F7FF91EF91CC
:101B50000895C89531960020089591E0882321F0DA
:101B60008894991F8A95E9F7892F90950895883070
:101B700018F011968850FBCF089588279D91890F02
:101B80009923E1F70895000F111F221F331F0895B5
:101B900000951095209530950F5F1F4F2F4F3F4FA9
:101BA0000895019110810EC0019111912191308110
:101BB0000BC00191108117FF05C03FEF2FEF04C04C
:101BC000008111272227332737FF03C0E1DF8DE291
:101BD0008D93CF93DF93CF92DF92EF92AA24BB2411
:101BE000CC24DD24EE2440E2CAE0DD2755E093E377
:101BF0008881890F87FD9F7083FD907F891B899362
:101C00005A95A9F7C0DFAA1CBB1CCC1CDD1CEE1C1E
:101C10004A9551F7E894EFE0FF2782910ED0EB3020
:101C2000E0F71EF068948A2D0CD088278D93EF90F2
:101C3000DF90CF90DF91CF910895982F829501D0BA
:101C4000892F8F70805D26F0803309F408956894A1
:101C50008D93089541E003C042E001C044E0E40FE9
:101C60008827F81F8291982F829505D0892F03D05D
:101C70004A95C1F707C08F708A3008F0895F805D90
:101C80008D93089588278D930895E199FECFEEBB3B
:101C9000FFBB3196089591E001C092E07B3751F48B
:101CA0007FB7F894F2DF8D918DBBE29AE19A9A9515
:101CB000C9F77FBF7727089591E001C092E0E5DF83
:101CC000E09A8DB38D939A95D1F708955F004856A9
:101CD0005350204D4F44450048565050204D4F44DE
:101CE0004500496E69742070726F6772616D6D692D
:101CF0006E672E2E2E202000444F4E450000526568
:101D00006164207369676E61747572652E2E2E2072
:101D10002020200020002D204641494C21005468FD
:101D2000616E6B20596F7500547279696E6720542B
:101D3000323331332070696E6F75742E2E00536507
:101D400061726368696E6720636869702E2E2E2049
:101D500020202000417474696E7931320000417492
:101D600074696E7931350000417474696E7931336C
:101D70002F410000417474696E7932320000417461
:101D800074696E7932350000417474696E7932334A
:101D900031332F410000417474696E7932342F4120
:101DA0000000417474696E793236000041746D65CB
:101DB000676134380000417474696E7934342F419E
:101DC000000041746D6567613438502F41004174E3
:101DD00074696E7934350000417474696E793438F1
:101DE0000000417474696E7934333133000041541A
:101DF0003930733835313500415439307338353323
:101E0000350041746D656761382F410041746D651F
:101E1000676138353135000041746D65676138356B
:101E20003335000041746D656761383800004174D6
:101E300074696E7938350000417474696E7938348C
:101E4000000041746D6567613838502F410041745E
:101E500074696E79383800004154393070776D32CA
:101E60002F3300004154393070776D312F32622F9B
:101E70003362000041746D65676131363100417431
:101E80006D6567613136330041746D656761313668
:101E90002F41000041746D65676131363200417435
:101EA0006D6567613136380041746D656761313643
:101EB000340041746D656761313638502F41000040
:101EC00041746D65676133322F41000041746D6567
:101ED000676136342F41000041746D6567613634A7
:101EE000340041746D656761363434502F41000011
:101EF00041746D6567613130330041746D656761B0
:101F00003132382F410041746D65676131323830AC
:101F1000000041746D6567613235363000004368FA
:101F200069702065726173652E2E2E20202020207E
:101F300020202000444953414C4C4F574544000059
:101F4000526561642066757365626974732E2E2E06
:101F500020202020204C3A0020483A0020453A001A
:101F600053686F756C642062652E2E2E2020202011
:101F700020202020204C3A004C6F636B6269747300
:101F80002E2E2E2020202020202020202000454EF4
:101F900041424C4544202028000029004449534137
:101FA000424C454420280000526577726974696E7E
:101FB000672000002E2E2E2020005665726966795B
:101FC000696E672E2E2E2020202020202020204CDD
:101FD0003A00202D204641494C210000202D204F61
:101FE0004B2100002066697865642063686970731E
:021FF0000000EF
:00000001FF
