:1000000012C0189518951895189518951895189563
:100010001895189518951895189518951895189578
:100020001895189518958FE58DBFC0E4E8E34E2E1E
:1000300084E08EBFD4E0F4E05F2EEEEFF3E0A0E6C4
:10004000B0E088278D933197E9F783E389B980E0A1
:1000500080BD88E18AB966248CE089B980E080BDE2
:100060008FEF87BB8FEF84BBA498AC9AA098A89819
:100070008FEF81BB8FE385BB8FEF82BBE6EEF8E0AD
:1000800066D36BD36AD3EAE1F9E061D366D365D373
:10009000E2E2F9E05CD361D3EEE4F9E058D35DD35A
:1000A0005CD3E2E8F9E053D381E090E0A0E6B0E071
:1000B0008D939C93A0E6B0E00D911C910A3050E026
:1000C000150710F009F006C00AD3A0E6B0E030D35F
:1000D00008F4F0CF9598EF93FF93E8E2F1E044D372
:1000E000FF91EF91979881E090E0A0E6B0E08D93CA
:1000F0009C93A0E6B0E00D911C910A3050E01507EA
:1001000010F009F006C0EBD2A0E6B0E011D308F47D
:10011000F0CFAD98AB98AA98A99896989498C6D223
:10012000979AC4D2E8E9F9E012D317D3DDD2EEE909
:10013000F9E00DD30027A3E3B0E08C9184FB0EF42B
:1001400001E041E0041709F005C0E4EBF9E0FFD25B
:1001500004D30FC0B5D2A99880E888BBC0D2C4D25E
:10016000A3E3B0E08C9180FBDEF7E8E9F9E0EFD2A1
:10017000F4D2E0ECF9E0EBD2A3D2A99888E088BBF6
:1001800095D2ADD281E090E0A0E6B0E08D939C9353
:10019000A0E6B0E00D911C91033050E0150710F07F
:1001A00009F031C092D2A9980091600041E0041B8F
:1001B00008BB7CD294D280E087BB80E088BB929859
:1001C000A99874D2A0E6B0E0AD90BC90A1E6B0E0F2
:1001D000AA0DBB1D86B38C93929A8FEF87BBA0E2CA
:1001E000B4E0E0E6F0E0A190B080E1E6F0E0EA0DF6
:1001F000FB1D3DD3A4D2E6EDF9E0A9D2A0E6B0E024
:1002000097D208F4C5CFA9D2009162000E3109F44B
:1002100010C0A3D2E8EDF9E09AD29FD2E4E0FAE070
:1002200096D29BD29AD2E0E3FAE091D296D27DD2D6
:1002300074D2EAE3FAE08BD200916300003909F04E
:1002400001C048C0013909F001C044C0023909F0B9
:1002500001C040C0033909F010C0009164000730AC
:1002600009F00AC0E0E5FAE072D277D281EE80931D
:10027000680089ED809369002DC0043909F010C031
:1002800000916400033009F00AC0E8E5FAE05FD2AB
:1002900064D281EE8093680089E9809369001AC076
:1002A000053909F010C000916400023009F00AC05D
:1002B000E2E6FAE04CD251D281EE8093680089E9FF
:1002C0008093690007C0063909F001C003C00739EF
:1002D00009F000C000916800003081E009F080E082
:1002E0008F9300916900003081E009F080E09F91D8
:1002F0008923882309F41CC030D22FD2ECE6FAE01F
:1003000026D22BD2E2E9FAE022D227D2E4EBFAE0BD
:100310001ED223D2EEEDFAE01AD21FD2E6EDF9E0BA
:1003200016D21BD2EAEFFAE012D217D2FED1F5D1E3
:100330007ED1E4E0FBE00BD2A0E2B4E0E5E6F0E041
:1003400096D2FDD1ECE1FBE002D2A0E2B4E0E6E619
:10035000F0E08DD2F4D1E0E2FBE0F9D1A0E2B4E02C
:10036000E7E6F0E084D2EBD1F8D1E4E2FBE0EFD1B4
:10037000A0E2B4E0E8E6F0E07AD2E1D1ECE1FBE023
:10038000E6D1A0E2B4E0E9E6F0E071D2D8D1E0E253
:10039000FBE0DDD1A0E2B4E0EAE6F0E068D2CFD144
:1003A000DCD1ECE3FBE0D3D1ABE6B0E00C9100FB99
:1003B00000270EF401E040E0041781E009F080E03E
:1003C0008F93ABE6B0E00C9101FB00270EF401E047
:1003D00040E0041781E009F080E09F91892B882399
:1003E00009F41DC0E2E5FBE0B2D1A0E2B4E0EBE627
:1003F000F0E03DD2A4D1EEE5FBE0A9D1AED1E0E63C
:10040000FBE0A5D1AAD1E2E6FBE0A1D1A6D1A5D11E
:10041000E0E3FAE09CD1A1D188D175D10DC0E6E925
:10042000FBE095D1A0E2B4E0EBE6F0E020D287D18A
:10043000EEE5FBE08CD191D1E2EAFBE088D1A0E2CD
:10044000B4E0E8E6F0E013D27AD1A0E2B4E0E9E665
:10045000F0E00DD274D1A0E2B4E0EAE6F0E007D219
:100460006ED1EEEAFBE073D12BD180E488BB1ED1C4
:1004700036D130D1A8E6B0E08C9188BB17D12FD10E
:10048000A998969813D130D111D1A3E3B0E08C9103
:1004900080FBDEF715D180E488BB08D120D11AD1CA
:1004A000A9E6B0E08C9188BB01D119D1A99A9698A0
:1004B000FDD01AD1FBD0A3E3B0E08C9180FBDEF736
:1004C0000027ACE6B0E08C9186FB0EF401E041E041
:1004D000041709F016C0F4D080E488BBE7D0FFD041
:1004E000F9D0AAE6B0E08C9188BBE0D0F8D0A9980A
:1004F000969ADCD0F9D0DAD0A3E3B0E08C9180FBFF
:10050000DEF7E8E9F9E023D128D1A99896988FD0B1
:10051000E4EBFBE01CD1A0E2B4E0E5E6F0E0A7D11B
:100520000ED1ECE1FBE013D1A0E2B4E0E6E6F0E0AE
:100530009ED105D1E0E2FBE00AD1A0E2B4E0E7E61B
:10054000F0E095D1FCD0409168000091650004175F
:1005500009F405C080916C00806880936C00409124
:10056000690000916600041709F405C080916C00D1
:10057000806880936C000027ACE6B0E08C9186FB2D
:100580000EF401E041E0041709F00CC040916A004C
:1005900000916700041709F405C080916C00806821
:1005A00080936C000027ACE6B0E08C9187FB0EF4E2
:1005B00001E041E0041709F011C0ECECFBE0C7D00A
:1005C000CCD0CBD0E6EDFBE0C2D0C7D0C6D0E0E3C4
:1005D000FAE0BDD0C2D0A9D08CD006C0EAEEFBE0D4
:1005E000B6D0BBD0A2D09ED0E1E0F0E0A0E6B0E073
:1005F00072D1A0E6B0E09CD0E1E0F0E0A0E6B0E08F
:100600007BE758D1AAD0E2EFFBE0A1D0A0E2B4E0B2
:10061000E0E6F0E0D3D093D0E4E0FCE098D09DD0C9
:100620009CD0E0E3FAE093D098D0F894FFCF48D084
:1006300084E088BB3BD053D080E087BB80E088BBA0
:1006400035D09298A998969831D0A5E6B0E086B3B7
:100650008C93929A2BD09298A99A969A27D0A6E634
:10066000B0E086B38C93929A0027ACE6B0E08C9110
:1006700086FB0EF401E041E0041709F00AC016D031
:100680009298A998969A12D0A7E6B0E086B38C9378
:10069000929A0CD09298A99A969808D0ABE6B0E0BE
:1006A00086B38C93929A8FEF87BB08950000000069
:1006B000000000000000000000000000000008959D
:1006C000AB9AAA98A998F2DF0895AB98AA98A9982E
:1006D000EDDF0895AB98AA9AA998E8DF0895939A58
:1006E000E5DF9398E3DF08959498E0DF949ADEDFE6
:1006F0000895AB9885B394E0892785BB84EF91E09A
:100700003CD0F8CF0895AA9885B398E0892785BB97
:1007100084EF91E032D0F8CF0895AB98AA9AF8947C
:10072000FFCF0895AA98AB9A0895959A979808953F
:10073000ED91FC91EF5FFF4FFC93EE930895A0E2E3
:10074000B4E08D91882311F00BD0FBCF089524D015
:10075000802D11F005D0FBCF08958DE001D08AE007
:100760005D9BFECF8CB908953197F1F70895689499
:1007700062F80895E89462F80895EF93FF93EE27E6
:10078000E82BE92B31F0E0EDF7E03197F1F7019735
:10079000D1F7FF91EF910895C89531960020089503
:1007A000000F111F221F331F0895009510952095EB
:1007B00030950F5F1F4F2F4F3F4F089501911081CC
:1007C0000EC001911191219130810BC001911081D6
:1007D00017FF05C03FEF2FEF04C00081112722272C
:1007E000332737FF03C0E1DF8DE28D93CF93DF9393
:1007F000CF92DF92EF92AA24BB24CC24DD24EE24F6
:1008000040E2CAE0DD2755E093E38881890F87FD48
:100810009F7083FD907F891B89935A95A9F7C0DF4C
:10082000AA1CBB1CCC1CDD1CEE1C4A9551F7E8949D
:10083000EFE0FF2782910ED0EB30E0F71EF06894D6
:100840008A2D0CD088278D93EF90DF90CF90DF9189
:10085000CF910895982F829501D0892F8F70805D58
:1008600026F0803309F4089568948D93089541E04B
:1008700003C042E001C044E0E40F8827F81F8291E2
:10088000982F829505D0892F03D04A95C1F707C0CC
:100890008F708A3008F0895F805D8D930895882776
:1008A0008D930895E199FECFEEBBFFBB319608957D
:1008B00091E001C092E07B3751F47FB7F894F2DF0A
:1008C0008D918DBBE29AE19A9A95C9F77FBF772700
:1008D000089591E001C092E0E5DFE09A8DB38D9339
:1008E0009A95D1F708955F5F5F5F5F5F5F5F5F5FBE
:1008F0005F5F5F5F5F5F5F5F5F5F5F5F5F5F5F5F08
:100900005F5F5F5F5F5F5F5F5F5F5F5F5F5F5F5FF7
:100910005F5F5F5F5F5F5F5F5F0057656C636F6D19
:1009200065004156522041746D656761206675739C
:100930006562697420646F63746F72202848565032
:1009400050292056322E30672042455441006874A9
:1009500074703A2F2F6469792E656C656B74726FB1
:1009600064612E65752F61746D6567612D667573A1
:10097000656269742D646F63746F722D6876707030
:100980002F00496E69742070726F6772616D6D69B6
:100990006E672E2E2E202000444F4E4500004368E7
:1009A00069702065726173652E2E2E202020202014
:1009B00020202000444953414C4C4F5745440000EF
:1009C00052656164207369676E61747572652E2E5D
:1009D0002E202020200020004E6F206368697020A8
:1009E000696E20736F636B6564206F722063686942
:1009F0007020646F206E6F7420726573706F6E6408
:100A0000696E67004D656368616E6963616C6C79DE
:100A10002064616D616765643F202020506C6561D2
:100A200073652074727920616761696E2E2E2E00C5
:100A30005468616E6B20596F75005365617263680D
:100A4000696E6720636869702E2E2E20202020009A
:100A500041746D656761380041746D656761313659
:100A6000000041746D65676133320000446F6E278A
:100A700074206861766520697420696E206D792024
:100A800064617461626173652C20736F7272792E78
:100A90000000696620796F752077616E7420646F3D
:100AA00063746F7220746F20737570706F7274202E
:100AB00069742C00706C6561736520636F6E74617E
:100AC0006374206D65206174206D616E656B696E65
:100AD000656E40676D61696C2E636F6D00006F72AB
:100AE00020706F737420636F6D6D656E74206F6E10
:100AF000206D79207369746500005468616E6B2005
:100B0000796F7500526561642066757365626974FA
:100B1000732E2E2E20202020204C3A0020483A0010
:100B200020453A0053686F756C642062652E2E2E46
:100B30002020202020202020204C3A004C6F636B86
:100B4000626974732E2E2E20202020202020202049
:100B50002000454E41424C454420202800002900F9
:100B60000000506C6561736520616C6C6F77207458
:100B70006F206572617365207468652063686970B1
:100B800020746F2064697361626C65206C6F636BA5
:100B900062697473000044495341424C4544202823
:100BA0000000526577726974696E672000002E2E0E
:100BB0002E202000566572696679696E672E2E2E8A
:100BC0002020202020202020204C3A00202D2046CC
:100BD00041494C210000506C656173652074727945
:100BE00020616761696E2E2E2E00202D204F4B2133
:100BF0000000446F63746F722068617320637572C4
:0C0C0000656420002063686970730000C8
:00000001FF
